:020000040000FA
:100000000C9462000C944E090C9427090C948A00FD
:100010000C948A000C948A000C948A000C948A0038
:100020000C948A000C948A000C948A000C948A0028
:100030000C948A000C948A000C948A000C948A0018
:100040000C94DD080C948A000C94AB080C94850881
:100050000C948A000C948A000C948A000C948A00F8
:100060000C948A000C948A000000000024002700F1
:100070002A0000000000250028002B0000000008D6
:10008000000201000003040700000000000000005F
:10009000010204081020408001020408102001021F
:1000A000040810200000000023002600290004049A
:1000B0000404040404040202020202020303030310
:1000C0000303750911241FBECFEFD8E0DEBFCDBFFB
:1000D00011E0A0E0B1E0E4E4F4E202C005900D928A
:1000E000A23CB107D9F722E0A2ECB1E001C01D9219
:1000F000A93FB207E1F710E0C2E6D0E004C02197C3
:10010000FE010E94E810C136D107C9F70E94F0092C
:100110000C9420120C9400009C011092CB021092BF
:10012000CC0284369105B0F064E670E00E94C01005
:100130006093CB028091CB02A90164E6869F4019AF
:1001400051091124CA016AE070E00E94C010609356
:10015000CC0202C00A9770F78091CB0294E6899F87
:10016000201911248091CC024AE0849F2019112487
:100170002093CD0208958230F8F4E82FF0E0EE0FDE
:10018000FF1FEE5FFE4F22EA32E031832083813091
:1001900041F0809169008C7F682B60936900E89A38
:1001A000089580916900837F660F771F660F771F20
:1001B000682B60936900E99A089580E090E0892BAC
:1001C00011F00C940000089581E3809306010895D6
:1001D000AF92BF92CF92DF92EF92FF920F931F9355
:1001E000CF93DF936C017B018B01040F151FEB0193
:1001F0005E01AE18BF08C017D10759F06991D6014A
:10020000ED91FC910190F081E02DC6010995892BBB
:1002100079F7C501DF91CF911F910F91FF90EF907A
:10022000DF90CF90BF90AF900895FC01538D448D27
:10023000252F30E0842F90E0821B930B541710F091
:10024000CF96089501970895FC01918D828D98179E
:1002500061F0A28DAE0FBF2FB11D5D968C91928D76
:100260009F5F9F73928F90E008958FEF9FEF0895A7
:10027000FC01918D828D981731F0828DE80FF11D70
:10028000858D90E008958FEF9FEF0895FC01918D8B
:10029000228D892F90E0805C9F4F821B91098F7384
:1002A0009927089586E292E00E94460121E0892B79
:1002B00009F420E0822F089580E090E0892B29F056
:1002C0000E94520181110C9400000895FC01A48D3C
:1002D000A80FB92FB11DA35ABF4F2C91848D90E068
:1002E00001968F739927848FA689B7892C93A0894B
:1002F000B1898C91837080648C93938D848D9813D5
:1003000006C00288F389E02D80818F7D8083089567
:10031000EF92FF920F931F93CF93DF93EC0181E055
:10032000888F9B8D8C8D98131AC0E889F9898081FC
:1003300085FF15C09FB7F894EE89FF896083E8892F
:10034000F98980818370806480839FBF81E090E021
:10035000DF91CF911F910F91FF90EF900895F62EAE
:100360000B8D10E00F5F1F4F0F731127E02E8C8D48
:100370008E110CC00FB607FCFACFE889F98980818D
:1003800085FFF5CFCE010E946601F1CFEB8DEC0F1A
:10039000FD2FF11DE35AFF4FF0829FB7F8940B8FAA
:1003A000EA89FB8980818062CFCFCF93DF93EC0114
:1003B000888D8823B9F0AA89BB89E889F9898C914D
:1003C00085FD03C0808186FD0DC00FB607FCF7CF09
:1003D0008C9185FFF2CF808185FFEDCFCE010E9409
:1003E0006601E9CFDF91CF91089590E0FC01E458D8
:1003F000FF4F2491FC01E057FF4F3491FC01E2557F
:10040000FF4FE491EE23C9F0222339F0233001F1AC
:10041000A8F4213019F1223029F1F0E0EE0FFF1F8E
:10042000EE58FF4FA591B4918FB7F894EC916111FC
:1004300026C030953E233C938FBF08952730A9F006
:100440002830C9F0243049F7809180008F7D03C0A7
:10045000809180008F7780938000DFCF84B58F7785
:1004600084BDDBCF84B58F7DFBCF8091B0008F77CB
:100470008093B000D2CF8091B0008F7DF9CF3E2B1A
:10048000DACFCF93DF9390E0FC01E057FF4F249148
:1004900082559F4FFC0184918823C9F090E0880F1A
:1004A000991FFC01E859FF4FA591B491FC01EE584A
:1004B000FF4FC591D49161110DC09FB7F8948C91F5
:1004C000209582238C938881282328839FBFDF91E6
:1004D000CF910895623051F49FB7F8943C91822FE8
:1004E000809583238C93E8812E2BEFCF8FB7F894E0
:1004F000EC912E2B2C938FBFEACF3FB7F8948091CD
:10050000C8019091C901A091CA01B091CB0126B553
:10051000A89B05C02F3F19F00196A11DB11D3FBF3B
:10052000BA2FA92F982F8827BC01CD01620F711D0A
:10053000811D911D42E0660F771F881F991F4A9504
:10054000D1F70895FF920F931F93CF93DF930E94EB
:100550007D022091C5013091C601EB01C21BD30B76
:100560002091CE013091CF01C217D30708F45FC0AC
:100570004091D2015091D3014130510561F0E09199
:100580001F02F0912002208130912102232330911B
:10059000CC0123134CC07093C6016093C501009138
:1005A000D0011091D1014230510509F413C14330FB
:1005B000510509F44EC14130510561F48091C401E7
:1005C000813009F447C0C8F1833009F482C0843017
:1005D00009F4C9C08091D2019091D301019739F1FA
:1005E000C017D10708F06DC18091C2018F5F809361
:1005F000C2018B30E0F081E090E09093D3018093D2
:10060000D20161E070E080911D020E94BB00109257
:10061000CC011092C40182E590E09093D1018093C7
:10062000D00183E290E09093CF018093CE01DF91DF
:10063000CF911F910F91FF900895C017D10730F40B
:1006400081E08093C401C093C301C4CF84E0809350
:10065000C401C0CFC017D107D0F51092C40180915A
:10066000C2018F5F8093C2012091C3018C2F0C2E99
:10067000000C990B821B910927FD939597FF03C0EE
:10068000919581959109499794F21092D301109216
:10069000D20182E990E09093D1018093D00182E56C
:1006A00090E09093CF018093CE011092C201F09020
:1006B000CD016F2D70E080911D020E94BB008091E2
:1006C000210293E0F91227C08093CC0183CF83E00D
:1006D000BECFC017D10708F51092D3011092D201F6
:1006E00082E990E09093D1018093D00182E590E07F
:1006F0009093CF018093CE011092C201F090CD0172
:100700006F2D70E080911D020E94BB00809121023C
:1007100033E0F316C9F280E0D7CF9091CD0193304A
:1007200009F482E08093CD0182E090E09093D301C0
:100730008093D20182E990E09093D1018093D0011F
:1007400082E590E09093CF018093CE011092D80182
:100750008091C2018093D9011092D5011092D701E6
:100760001092D601CBCFC017D107A8F41092D301B5
:100770001092D20182E990E09093D1018093D00150
:1007800082E590E09093CF018093CE011092C20158
:100790001092D5018CCF82E090E09093D3018093AA
:1007A000D20182E990E09093D1018093D00182E55B
:1007B00090E09093CF018093CE011092D801809168
:1007C000C2018093D9011092D5011092D7011092E5
:1007D000D6016DCF9091D5019F5F9093D501809107
:1007E000D601880FC017D107E0F08093D60198306A
:1007F00009F0F6CEE091D801E630A9F41092D301C9
:100800001092D20182E990E09093D1018093D001BF
:1008100082E590E09093CF018093CE011092D501B4
:10082000D9CE8160E2CF83E090E09093D3018093B2
:10083000D20181E08E0F8093D8019091D601F0E033
:10084000EE52FE4F90878091D70189278093D70180
:10085000C1CEC017D10728F51092D3011092D20152
:100860001092D50182E990E09093D1018093D0015C
:1008700082E590E09093CF018093CE018091D701E3
:100880008111B2CE88E0E8EDF1E0A0EEB1E0019098
:100890000D928A95E1F781E08093D4011092C20114
:1008A00099CE8091D801863009F4A8CF82E090E0FB
:1008B0009093D3018093D2011092D5011092D6016A
:1008C00089CE1092C201B3CE8F929F92AF92BF9207
:1008D000CF92DF92EF92FF926B017C010E947D022A
:1008E0004B015C01C114D104E104F104B9F00E9490
:1008F0007D02681979098A099B09683E7340810560
:10090000910580F321E0C21AD108E108F10888EED0
:10091000880E83E0981EA11CB11CE4CFFF90EF90DD
:10092000DF90CF90BF90AF909F908F9008950895E3
:10093000CF93C82F80E090E0892B51F080910E0278
:100940008C1731F081E0C11101C080E00E940000ED
:10095000C0930E02CC2331F12FB7F8948091E801B7
:100960009091E901A091EA01B091EB012FBF482FCE
:10097000392F2A2F8B2F40930F0230931002209390
:1009800011028093120280E090E0892B81F0809127
:100990000E028C1761F081E0C11101C080E0CF919F
:1009A0000C94000040E030E020E080E0E4CFCF9104
:1009B00008958830910561F46623E9F021E32093DE
:1009C000060120E030E041E0232B81F00C94000090
:1009D00020E030E0232BD1F741E0811524E092079D
:1009E00008F040E0611102C0842F08950797029734
:1009F000D8F740E0F9CF20E030E0232B39F741E091
:100A0000F3CF80E090E0892B29F08091250283FDCF
:100A10000C940000089520E1829FC0011124E09110
:100A2000DC02F091DD02E80FF91F81E090E0918790
:100A3000808770E07783668308950E949804ECE0D5
:100A4000F2E081E087831086E5E1F2E088E0DF01F3
:100A50001D928A95E9F7089520E030E0232B11F0EC
:100A60000C9400000C9488101092E7021092E80297
:100A70001092E9021092EA021092EB021092EC023C
:100A80008091E60290E00E942C0580FF03C091E077
:100A90009093E70281FF03C091E09093E80282FF08
:100AA00003C091E09093E90283FF03C091E090932B
:100AB000EA0284FF03C091E09093EB0285FF03C03C
:100AC00081E08093EC020895CF93DF93209122027E
:100AD000309123022F3F320721F0C901DF91CF91DE
:100AE00008958091250287FF2BC086FF0FC089E003
:100AF00090E00E942C05C82F81E090E00E942C0518
:100B00009C2F909323028093220215C089E090E0ED
:100B10000E942C05C82F81E090E00E942C0590E4F3
:100B2000C99F90011124207C31708F73282B309342
:100B30002302209322028091220290912302CECFA1
:100B400085FF0CC081E190E00E942C05C82F82E156
:100B500090E00E942C05C05CDD0BD2CF81E090E0DC
:100B60000E942C0590E0CDCFEF92FF920F931F9340
:100B7000CF93DF93EC01062F8091EC02882349F19B
:100B8000F12CE12C10E0E091DC02F091DD02EE0DA1
:100B9000FF1D848595858C179D0771F48685978543
:100BA00061E0892B21F0002321F060E002C00023E6
:100BB000E1F3812F0E940B051F5F80E1E80EF11C1D
:100BC000183009F7DF91CF911F910F91FF90EF90AF
:100BD00008950E9464059C01C817D90798F30896E8
:100BE000C817D90778F78C2F821BC21BD30B94E050
:100BF000CC0FDD1F9A95E1F72091DC023091DD02E8
:100C0000C20FD31F2E853F8561E0232B21F00023E7
:100C100021F060E002C00023E1F3DF91CF911F914A
:100C20000F91FF90EF900C940B05CF92DF92EF9213
:100C3000FF920F931F93CF93DF93082FC82ED12CD1
:100C4000E60194E0CC0FDD1F9A95E1F78091EC026C
:100C5000882309F450C0760128E2E20EF11CEE0C64
:100C6000FF1CC7010E942C05182FC70101960E9486
:100C70002C05E091DC02F091DD02EC0FFD1F982FB6
:100C8000812F95878487C6018A5B9F4F0E942C0520
:100C9000E091DC02F091DD02EC0FFD1F90E0978700
:100CA000868785E0089F80011124C8014F960E9425
:100CB0002C05E091DC02F091DD02EC0FFD1F2AE033
:100CC0008202C001112495838483C80182960E9408
:100CD0002C052091DC023091DD02C20FD31F90E081
:100CE0009B838A83DF91CF911F910F91FF90EF90AB
:100CF000DF90CF900895E091DC02F091DD02EC0FDF
:100D0000FD1F15861486BFCFCF9361E08DE00E9452
:100D1000F50164E170E080E090E00E94640460E02E
:100D20008DE00E94F5018BE190E00E942C052AE005
:100D3000829FC001112490930101809300010E94C1
:100D40003405C0E08C2F0E941506CF5FC830D1F764
:100D5000CF9108951F93CF93DF93EC01162F83312A
:100D60009105C8F48131910528F48130910511F085
:100D7000099731F48FEF9FEF909323028093220223
:100D800080E090E0892BA9F0612FCE01DF91CF9117
:100D90001F910C9400004D9799F7177F109325022F
:100DA00080910C028F73912F907C892B80930C0281
:100DB000E1CFCE010E9488101817A1F0612FCE015B
:100DC0000E949010612FCE010E94840680E090E086
:100DD000892B41F080910C0284FD04C0612FCE016B
:100DE0000E940000CE01DF91CF911F910C948810DA
:100DF000CF93DF93CCE0D2E02881206128830E944A
:100E0000AA0698819F7E9883DF91CF9108950C94D4
:100E1000F806BF92CF92DF92EF92FF920F931F934B
:100E2000CF93DF938B01B42E690182FF23C083FF30
:100E300017C061E0C8010E94D9048823D9F16B2D45
:100E4000C8010E94AA068B1135C0F601DF91CF912F
:100E50001F910F91FF90EF90DF90CF90BF9009947A
:100E600060E0C8010E94D904882321F1C8010E94D2
:100E70002C05E9CF842F8770C1E0D0E07E0101C04E
:100E8000EE0C8A95EAF7D42FD870CB010E942C057E
:100E9000C82FB4FE1CC061E0C8010E94D904882399
:100EA00049F0DD2389F0CE296C2FC8010E94AA06E3
:100EB0008C1759F2DF91CF911F910F91FF90EF9016
:100EC000DF90CF90BF900895E094CE21EDCF60E009
:100ED000C8010E94D904882369F3CE21DD2319F0CB
:100EE000C111B3CFE7CFCC2309F4AFCFE3CFCF927B
:100EF000DF92EF92FF920F931F93CF93DF937C01CA
:100F00006B01C42F122FD42FD07E80910C0287FF4B
:100F10002CC0D03EC1F580910D028823A1F190E054
:100F20000E942C05D82F80910D0290E001960E941E
:100F30002C05982F8D2FE816F90629F56C2F70E0F7
:100F4000762F662766277370612B6F5F7F4F21E0D6
:100F500035E0402F8C2FDF91CF911F910F91FF90A3
:100F6000EF90DF90CF900C94090780FD36C0D0360B
:100F700009F46DC088F4D03209F44BC0D03409F4C0
:100F800066C0DD2399F1DF91CF911F910F91FF9002
:100F9000EF90DF90CF900895D03A09F490C0B0F46C
:100FA000D03889F780E090E02C2F2F7141E050E09D
:100FB000892B49F3B601C701DF91CF911F910F91A2
:100FC000FF90EF90DF90CF900C940000D03C09F49C
:100FD00084C0D03E09F4B2CFD6CF0E9464058E15EE
:100FE0009F0529F2E114F10411F2CDCF8C2F8E7000
:100FF00051F680E090E0892B31F28C2F8170DF91E7
:10100000CF911F910F91FF90EF90DF90CF900C94B4
:101010000000CF71CF3109F0B6CF80E090E0892B8E
:1010200009F4B1CF412F4F7771F0413071F0111FAA
:101030001127111F212F30E00FE710E0B601C70183
:101040000E940000A0CF41E0F2CF40E0F0CF80E06E
:1010500090E0892BC1F02C2F30E08C2F8F718130E4
:1010600029F030F0803121F08131F9F440E001C005
:1010700041E025FB222720F90DE110E030E0B60128
:10108000C7010E94000080E090E0892B09F47BCF2B
:101090004C2FB601C701DF91CF911F910F91FF90A7
:1010A000EF90DF90CF900C940000C901880F991F3A
:1010B0008E71C4FB442740F9482B4250DACF80E0C0
:1010C00090E0892B09F45FCF2C2F2F7043E050E084
:1010D000C4FF70CF42E050E06DCFCF71CE3161F0F0
:1010E000CF3109F050CF80E090E0212F45E050E073
:1010F000892B09F05FCF47CF80E090E0212F44E0BB
:1011000050E0892B09F056CF3ECF1F920F920FB6B9
:101110000F9211242F933F934F935F936F937F937D
:101120008F939F93AF93BF93EF93FF9386E292E0E9
:101130000E946601FF91EF91BF91AF919F918F91B6
:101140007F916F915F914F913F912F910F900FBEC3
:101150000F901F9018951F920F920FB60F921124A7
:101160002F938F939F93EF93FF93E0913602F0912B
:1011700037028081E0913C02F0913D0282FD1BC06C
:10118000908180913F028F5F8F7320914002821780
:1011900041F0E0913F02F0E0EA5DFD4F958F8093D2
:1011A0003F02FF91EF919F918F912F910F900FBE72
:1011B0000F901F9018958081F4CF1F920F920FB659
:1011C0000F9211242F933F938F939F93AF93BF93CD
:1011D0008091E8019091E901A091EA01B091EB01C1
:1011E0003091C70123E0230F2D3758F50196A11D3B
:1011F000B11D2093C7018093E8019093E901A0936A
:10120000EA01B093EB018091C8019091C901A091CE
:10121000CA01B091CB010196A11DB11D8093C801F7
:101220009093C901A093CA01B093CB01BF91AF9134
:101230009F918F913F912F910F900FBE0F901F9014
:10124000189526E8230F0296A11DB11DD2CF1F923B
:101250000F920FB60F9211242F933F934F935F93EA
:101260006F937F938F939F93AF93BF93EF93FF936E
:10127000E0910401F09105010995FF91EF91BF9173
:10128000AF919F918F917F916F915F914F913F911E
:101290002F910F900FBE0F901F9018951F920F92D5
:1012A0000FB60F9211242F933F934F935F936F9339
:1012B0007F938F939F93AF93BF93EF93FF93E091AF
:1012C0000201F09103010995FF91EF91BF91AF9158
:1012D0009F918F917F916F915F914F913F912F914E
:1012E0000F900FBE0F901F901895CF93DF93CDB73F
:1012F000DEB728970FB6F894DEBF0FBECDBFE6E28B
:10130000F2E01382128288EE93E0A0E0B0E08483E2
:101310009583A683B78384EB91E09183808385ECEA
:1013200090E09587848784EC90E09787868780ECAF
:1013300090E0918B808B81EC90E0938B828B82ECA0
:1013400090E0958B848B86EC90E0978B868B118E4A
:10135000128E138E148E88E0EDEEF2E0DE0111960F
:1013600001900D928A95E1F7EEEDF2E08CE1808735
:1013700011861286138614861586168688E0FE016D
:101380003196AEEDB2E001900D928A95E1F780E8DA
:1013900090E00E94EE109093DD028093DC0288E7DB
:1013A00090E090931401809313018091060190E0E6
:1013B000E3ECF2E021E02787108A9383828380E5C3
:1013C00090E09583848386E490E0978386832896D3
:1013D0000FB6F894DEBF0FBECDBFDF91CF91089559
:1013E000CF93DF93CDB7DEB7A9970FB6F894DEBFE2
:1013F0000FBECDBF789484B5826084BD84B5816012
:1014000084BD85B5826085BD85B5816085BD8091CF
:101410006E00816080936E00109281008091810047
:10142000826080938100809181008160809381003F
:10143000809180008160809380008091B100846001
:101440008093B1008091B00081608093B000809162
:101450007A00846080937A0080917A008260809321
:101460007A0080917A00816080937A0080917A007E
:10147000806880937A001092C100E0913602F0916A
:10148000370282E08083E0913202F09133021082D1
:10149000E0913402F09135028FEC808310923E028D
:1014A000E0913A02F0913B0286E08083E0913802BD
:1014B000F0913902808180618083E0913802F0915F
:1014C0003902808188608083E0913802F09139028E
:1014D000808180688083E0913802F09139028081B8
:1014E0008F7D808386E292E09093C4028093C30252
:1014F00008EAA02E01E0B02E80EAC82E81E0D82EA6
:1015000090EB892E91E0992E76018501D8017D908E
:101510008D0161E0872D0E94410260E0872D0E94CD
:10152000F501F70171907F0161E0872D0E94410272
:1015300060E0872D0E94F5018016910639F761E081
:101540008DE00E94410261E08DE00E94F501109261
:101550001D0282E080931E02E0EBF0E0E491F0E0F7
:10156000EE0FFF1FEC55FF4F859194919093200251
:1015700080931F02E2E9F0E0E491E093210260E051
:1015800082E00E944102E2EDF1E086E1DF011D927E
:101590008A95E9F782E990E09093D1018093D00198
:1015A00082E590E09093CF018093CE0180EC809310
:1015B0000C0289E780930D028FEF9FEF9093230237
:1015C000809322021092240283E08093CD018091C7
:1015D00021028093CC0163E070E080911D020E94A3
:1015E000BB008DE190E00E942C05682F606C8DE1BE
:1015F00090E00E94AA068093250264E687E090E0CE
:101600000E94AA066DE088E090E00E94AA0680E0B1
:101610000E941D0568EE73E080E090E00E94640483
:1016200088E790E00E942C05883791F407E011E0EC
:10163000BAE9EB2EB1E0FB2EE016F10679F0F801E5
:101640006281808191810E94F8060D5F1F4FF4CF67
:1016500081E090E00E942C058F3F41F30E94340509
:101660008BE190E00E942C05FAE08F9FC0011124CD
:101670009093010180930001F2E28F2E912C512C66
:10168000F12CE12C66246394712CE091DC02F09142
:10169000DD02EE0DFF1D11821082852D0E941506C0
:1016A000E091DC02F091DD02EE0DFF1D828193815D
:1016B000029734F07382628261E0C4010E94F806EE
:1016C0000091DC021091DD020E0D1F1DD5018C91E1
:1016D000F6014080D80112962D913C91232B09F4FC
:1016E000ECC061E00E94F50160E0842D0E94F501EC
:1016F0008091EA02882399F0F80164817581072EB0
:10170000000C880B990B0E94640460E0D5018C9159
:101710000E94F50160E0F60180810E94F501609170
:10172000000170910101072E000C880B990B0E949B
:101730006404D80119961C921E92189712968D91E6
:101740009C91139717969C938E931697B0E1EB0E8E
:10175000F11C5394EFEFAE1ABE0AFFEFCF1ADF0A67
:1017600025E0820E911C48E054128FCF60E08DE09E
:101770000E94F5011E018AE2280E311C8091D202DE
:10178000882321F01092D2021092D3028091C302DA
:101790009091C402DC01ED91FC910084F185E02D73
:1017A000099508970CF4E3C06E01B2E2CB0ED11C90
:1017B000E4EDEE2EE2E0FE2E87018091C3029091CF
:1017C000C402DC01ED91FC910284F385E02D0995C2
:1017D0008053F60181936F01D8011D928D012E1661
:1017E0003F0659F79AA18AE0BBA0989FB00C11243C
:1017F0002CA194E60DA1089F80011124299F000DC2
:10180000111D11242EA1020F111D2FA1C8A4C89EC5
:1018100060011124299FC00CD11C112489A5C80E78
:10182000D11C083EB3E01B072CF4E8EECE16E3E033
:10183000DE061CF081E08093D30289E08093D4021D
:1018400098E09093D5029091D30291118093D502A4
:1018500080E090E0892B29F0A601B8018B2D0E9431
:10186000000091E29B1508F422C1EB2DF0E0E55C4D
:10187000F34F0C94E810620C730C760C570D570D57
:10188000570D570D570D570D570D790CF70C570D78
:10189000570D570D570D570D570D570D570DFC0C84
:1018A000FC0C570D570D570D570D570D570D570D74
:1018B000570D020D0F0D4D0D520D60E00E94F50108
:1018C00061E013CF82E090E00E948C008091CB0217
:1018D0008093D9028091CC028093DA028091CD026C
:1018E0008093DB020AC08AE090E0EECF85E190E0D1
:1018F000EBCFB601C8010E940707C090C302D09089
:10190000C402F70121917F0130E050E040E019A2CC
:101910008E010F5D1F4FCA01B9012AE030E040E09F
:1019200050E00E949E10605DD8016E938D012115DC
:1019300031054105510579F7109789F0FD010190B6
:101940000020E9F73197AF014A1B5B0BD601ED91FF
:10195000FC910280F381E02DB801C6010995ECED00
:10196000F2E0EE15FF0549F681E08093D202809106
:101970000E028823F1F02FB7F8948091E80190913E
:10198000E901A091EA01B091EB012FBF40910F0254
:10199000509110026091110270911202841B950BFC
:1019A000A60BB70B4597A105B10518F080E00E9482
:1019B0001D058091D401882309F49CC0F89488E027
:1019C000E0EEF1E0ADEEB2E001900D928A95E1F724
:1019D0001092D40178948091ED02E82FF0E0E1516B
:1019E000FD4F863008F067C011928F5FFACFC801B3
:1019F0000E942C0590E068CF6CEE6B0D802F0E944A
:101A00000B057BCF8091C5029091C6029093CF02C7
:101A10008093CE021092D1021092D00255CF8091C5
:101A2000D0029091D102FC01EE0FFF1FE80FF91FC9
:101A3000E95FFE4F00811181083EA3E01A0710F014
:101A400007EE13E0C8010E948C008091CB028093C6
:101A5000D6028091CC028093D7028091CD028093F0
:101A6000D802C8010E942C0590E00E948C00809151
:101A7000CB028093D9028091CC028093DA028091CC
:101A8000CD028093DB028091D0029091D102019629
:101A90009093D1028093D00230CF8091C702909171
:101AA000C802B4CF8091C9029091CA02AFCF89E039
:101AB0008093D50222CF80E090E0892B21F08DEE3B
:101AC00092E00E9400008091EF02811107C1909185
:101AD000F002911103C180E090E0892B19F080E0C1
:101AE0000E94000080910E02882309F4F3C081E077
:101AF0000E949804F12CE12C10E000E0AA24A394A9
:101B0000B12CC090DC02D090DD02CE0CDF1CF601BF
:101B100080859185019709F04BC0868097808281EE
:101B200093818816990609F443C080819181892B9D
:101B300009F03EC061E08DE00E94F501F801E85532
:101B4000FE4F8081F801E056FE4F70809091E702D1
:101B5000981509F4D8C261E00E94F50160E0872D74
:101B60000E94F5019924D60113969C928E921297A9
:101B70002FB7F8948091E8019091E901A091EA01D2
:101B8000B091EB012FBFF801EE0FFF1FEE0FFF1F0B
:101B9000E451FE4F80839183A283B383E091DC0202
:101BA000F091DD02EE0DFF1DB182A082B386A28608
:101BB000E091DC02F091DD02EE0DFF1D808191814C
:101BC000019709F071C08FB7F8944090E8015090E8
:101BD000E9016090EA017090EB018FBFF801EE0F10
:101BE000FF1FEE0FFF1FE451FE4F80819181A28104
:101BF000B381481A590A6A0A7B0AC090DC02D09065
:101C0000DD02CE0CDF1CF60184819581092E000CCB
:101C1000AA0BBB0B481659066A067B0660F1828543
:101C20009385892B41F1138612868091EA028823DD
:101C300071F060E0F801E855FE4F80810E94F501E7
:101C400060E0F801E056FE4F80810E94F50180912E
:101C5000E802882361F0F5E0F09FC001F19F900D4C
:101C60001124D60112966C9182960E94F80660E0CB
:101C70008DE00E94F501E091DC02F091DD02EE0DB5
:101C8000FF1D848195812091000130910101820F17
:101C9000931F092E000CAA0BBB0B481659066A06A7
:101CA0007B0610F0118210820F5F1F4FB0E1EB0E28
:101CB000F11C0830110509F024CF80E090E0892B59
:101CC00009F45CCD0E945201882309F457CD0E948B
:101CD000000054CD81E00E941D050CCF90910E02B2
:101CE000992309F48BC08057803108F084C081E0CB
:101CF0000E9498041091ED028091150218130AC0F9
:101D0000412F50E067E172E08FEE92E00E941312E3
:101D1000892B61F01092140288E0EDEEF2E0A5E16B
:101D2000B2E001900D928A95E1F7E4CE8091140221
:101D30008F5F80931402133009F045C09091EF0239
:101D4000892F8770F090F002853051F4F0921302E1
:101D500080E090E0892B09F4CDCE0E940000CACE2D
:101D60000DE110E0843091F0282F30E08430F0F461
:101D7000009113020023D1F00150110B000F111F2D
:101D8000000F111F020F131F0F5F1F4F93FF10C093
:101D900061E0C8010E94D904882309F4ABCE6F2DFD
:101DA000C8010E94AA06F812A5CED2CF8901ECCFB5
:101DB00060E0C8010E94D904882309F49BCEC801C1
:101DC0000E942C05F0CF143009F094CE8091EF02E0
:101DD000682F70E0762F6627662773709091F00267
:101DE000692B6F5F7F4F2DED30E04091F1028C70D9
:101DF0000E9409077FCE80E00E941D05E091EF025E
:101E0000EF3F61F48091F002811174CE80E090E0A8
:101E1000892B09F46FCE0E9400006CCEE7FD0DC047
:101E20000091F2022091F1024091F00270E060E036
:101E30008E2F90E00E9477075DCEE03C08F052C103
:101E400090910C0297FF56CE8091F002282F30E03F
:101E5000890100951095000F111F000F111F007CC4
:101E60001170EF730E2B35952795A22FA370BA2E04
:101E70002091ED02253039F58C788C3021F50E94C7
:101E800064058017910721F00F3F114009F032CE11
:101E90000091F00210E0102F0027002713708091AE
:101EA000F102080F111D0F5F1F4FF090F20261E069
:101EB000C8010E94D9046F2D882309F41BCEC801E4
:101EC0000E94AA0617CE6801E1E0CE1AD108CC0C18
:101ED000DD1CCC0CDD1CCB287601FFEFEF1AFF0ACE
:101EE000809124028823F9F096FF41C0C70160E089
:101EF00071E00E94D410682F81E090E00E94AA0651
:101F0000C701F7FE02C081509F4F692F89E090E022
:101F10000E94AA0680E090E0892B19F0C7010E9478
:101F200000001092240280910C0280FD39C0809143
:101F3000ED02843009F04FC08091F0028978813041
:101F400009F0D8CD6091F10280E090E0892B19F082
:101F5000C7010E940000A0E0B0E0AB2B09F4CACD9D
:101F60004091F1026B2DC7010E940000C3CDB80162
:101F70006F73772781E090E00E94AA06B801E6E03F
:101F800075956795EA95E1F789E090E00E94AA06C9
:101F9000A0E0B0E0AB2B29F2C8010E940000C1CF45
:101FA00086FF0DC00E9464058E159F0509F4BFCF02
:101FB000BDEFEB16B7E0FB060CF0B9CF9BCD0E944E
:101FC00064058017910709F4B2CF0F3FE1E01E07C7
:101FD00009F4ADCF8FCD833041F54091F002B42F9D
:101FE000B170CB2E43FBDD24D0F8E0E0F0E0EF2B26
:101FF00031F047702D2DB801C7010E94000080917B
:102000000C0286FF06C04D2D6C2DC7010E94B40541
:1020100071CD80E090E0892B09F46CCD2D2D4C2DF5
:102020006B2DC8010E94000065CD863009F062CD9D
:102030008091F002982F9978913021F08F78803834
:1020400009F058CD80910C0286FF28C00E946405DB
:102050008E159F05E9F48091F10290E0382F222738
:10206000222733700091F202020F132F111D0F5F10
:102070001F4FF090F30295958795959587958370FE
:1020800099278230910599F0039709F410CF32CD4A
:102090009DEFE91697E0F906F4F62CCD0E94640551
:1020A00080179107C1F20F3F1140A9F223CDF4FE32
:1020B00021CD61E0C8010E94D904882309F41ACD1A
:1020C000C8010E942C059F2D977061E070E001C04F
:1020D000660F9A95EAF7F3FE02C0682BF0CE609582
:1020E0006823EDCEE83E08F005CDE05CFF0B809163
:1020F000F0020091F3022091F2024091F10261E0BE
:1021000070E09E2F97CE60E00E94F50161E027CD40
:10211000F999FECF92BD81BDF89A992780B50895AF
:10212000262FF999FECF1FBA92BD81BD20BD0FB6F3
:10213000F894FA9AF99A0FBE01960895A1E21A2E20
:10214000AA1BBB1BFD010DC0AA1FBB1FEE1FFF1F5B
:10215000A217B307E407F50720F0A21BB30BE40BAB
:10216000F50B661F771F881F991F1A9469F76095F2
:102170007095809590959B01AC01BD01CF010895AC
:10218000AA1BBB1B51E107C0AA1FBB1FA617B7079D
:1021900010F0A61BB70B881F991F5A95A9F78095B9
:1021A0009095BC01CD01089597FB072E16F400947D
:1021B00007D077FD09D00E94C01007FC05D03EF47F
:1021C000909581959F4F0895709561957F4F0895E3
:1021D000EE0FFF1F0590F491E02D09940F931F93CC
:1021E000CF93DF938230910510F482E090E0E0918C
:1021F000F702F091F80230E020E0B0E0A0E0309784
:1022000099F42115310509F44AC0281B390B2430F3
:102210003105D8F58A819B816115710589F1FB0132
:1022200093838283FE0111C0408151810281138119
:1022300048175907E0F04817590799F4109761F0CB
:1022400012960C93129713961C933296CF01DF913E
:10225000CF911F910F9108950093F7021093F80208
:10226000F4CF2115310551F04217530738F0A90179
:10227000DB019A01BD01DF01F801C1CFEF01F9CF08
:102280009093F8028093F702CDCFFE01E20FF31F87
:10229000819391932250310939832883D7CF20919C
:1022A000F5023091F602232B41F420919C013091EC
:1022B0009D013093F6022093F50220919A0130910E
:1022C0009B012115310541F42DB73EB740919E0188
:1022D00050919F01241B350BE091F502F091F6021D
:1022E000E217F307A0F42E1B3F0B2817390778F0ED
:1022F000AC014E5F5F4F2417350748F04E0F5F1F4C
:102300005093F6024093F502819391939FCFF0E0B2
:10231000E0E09CCFCF93DF930097E9F0FC01329788
:1023200013821282A091F702B091F802ED0130E021
:1023300020E01097A1F420813181820F931F20911A
:10234000F5023091F6022817390709F061C0F093C1
:10235000F602E093F502DF91CF910895EA01CE17DE
:10236000DF07E8F54A815B819E0141155105B1F710
:10237000E901FB83EA8349915991C40FD51FEC17FA
:10238000FD0761F4808191810296840F951FE90118
:1023900099838883828193819B838A83F0E0E0E044
:1023A00012968D919C9113970097B9F52D913C91C0
:1023B0001197CD010296820F931F2091F502309163
:1023C000F6022817390739F6309751F51092F802BE
:1023D0001092F702B093F602A093F502BCCFD3831C
:1023E000C28340815181840F951FC817D90761F4BA
:1023F0004E5F5F4F88819981480F591F51834083F9
:102400008A819B81938382832115310509F0B0CFA6
:10241000F093F802E093F7029ECFFD01DC01C0CFFC
:1024200013821282D7CFFB01DC0104C08D91019091
:10243000801921F441505040C8F7881B990B08952A
:10244000F894FFCFF40197049704310100010900CB
:10245000001100001200000000007900637A000003
:102460001B00321C000A1F000F22000024000F274F
:10247000000029000F2C00002E000F310000330057
:102480000F36000038000F3B00003D000F400000F9
:1024900042000F4500004600004700004800004988
:1024A00000004A00004B00004C00004D00005000AE
:1024B0000151000052000253000054000355000077
:1024C0005600045700005800055900005A00065BEA
:1024D00000005C00075D00005E00085F0000000077
:1024E000F90280000406080A0C0F111303050709FE
:1024F0000B0E1012000000008801E8001501D50144
:0625000046012401380130
:107E0000112484B714BE81FFF0D085E080938100F7
:107E100082E08093C00088E18093C10086E0809377
:107E2000C20080E18093C4008EE0C9D0259A86E02C
:107E300020E33CEF91E0309385002093840096BBD3
:107E4000B09BFECF1D9AA8958150A9F7CC24DD24C4
:107E500088248394B5E0AB2EA1E19A2EF3E0BF2EE7
:107E6000A2D0813461F49FD0082FAFD0023811F036
:107E7000013811F484E001C083E08DD089C08234E0
:107E800011F484E103C0853419F485E0A6D080C0E4
:107E9000853579F488D0E82EFF2485D0082F10E0AE
:107EA000102F00270E291F29000F111F8ED06801E7
:107EB0006FC0863521F484E090D080E0DECF843638
:107EC00009F040C070D06FD0082F6DD080E0C81688
:107ED00080E7D80618F4F601B7BEE895C0E0D1E017
:107EE00062D089930C17E1F7F0E0CF16F0E7DF06D8
:107EF00018F0F601B7BEE89568D007B600FCFDCFD4
:107F0000A601A0E0B1E02C9130E011968C91119780
:107F100090E0982F8827822B932B1296FA010C0160
:107F200087BEE89511244E5F5F4FF1E0A038BF0790
:107F300051F7F601A7BEE89507B600FCFDCF97BE46
:107F4000E89526C08437B1F42ED02DD0F82E2BD052
:107F50003CD0F601EF2C8F010F5F1F4F84911BD097
:107F6000EA94F801C1F70894C11CD11CFA94CF0C13
:107F7000D11C0EC0853739F428D08EE10CD085E9AC
:107F80000AD08FE07ACF813511F488E018D01DD067
:107F900080E101D065CF982F8091C00085FFFCCF94
:107FA0009093C60008958091C00087FFFCCF809118
:107FB000C00084FD01C0A8958091C6000895E0E648
:107FC000F0E098E1908380830895EDDF803219F02E
:107FD00088E0F5DFFFCF84E1DECF1F93182FE3DFCA
:107FE0001150E9F7F2DF1F91089580E0E8DFEE27F6
:047FF000FF270994CA
:027FFE00040479
:00000001FF
