:100000000C94D5000C9499140C9472140C944B1409
:100010000C9424140C94FD000C94FD000C94FD131E
:100020000C94FD000C94FD000C9412110C948111A1
:100030000C94FD000C94FD000C94FD000C94FD004C
:100040000C945D160C94C0140C94FD000C94FD00EF
:100050000C94FD000C94FD000C94FD000C94B31363
:100060000C94FD000C94FD000C94FD000C94FD001C
:100070000C94FD000C94FD000C94FD000C94FD000C
:100080000C94FD000C94FD000C94FD000C94FD00FC
:100090000C94FD000C94FD000C94FD000C94FD00EC
:1000A0000C94FD000C94FD000C94FD000000000079
:1000B000240027002A002D00300000000002000963
:1000C0000F0000030401000C00000000000000000D
:1000D000000000000000000000080B000202020007
:1000E00000090400000102020000052400100105BF
:1000F00024010101042402060524060001070581EC
:100100000310004009040100020A00000007050274
:1001100002400000070583024000000403090412A6
:10012000010002EF02014041233680000101020379
:100130000141726475696E6F204C4C4300417264DA
:1001400075696E6F204C656F6E6172646F000000A0
:1001500000002300260029002C002F0000000000D2
:10016000250028002B002E003100040404040403A1
:100170000405020202020403020202020606060647
:10018000060604040202020404040802011040806E
:10019000401020408040800802040180402010026E
:1001A0000110801020404020FF1611241FBECFEF09
:1001B000DAE0DEBFCDBF12E0A0E0B1E0ECE4F4E4B1
:1001C00002C005900D92AE31B107D9F724E0AEE13F
:1001D000B2E001C01D92AB39B207E1F710E0C5ED06
:1001E000D0E004C02197FE010E94D120C43DD10778
:1001F000C9F70E949E170C9424220C9400009C01C5
:10020000109224041092250484369105B0F064E61F
:1002100070E00E94A9206093240480912404A90125
:1002200064E6869F401951091124CA016AE070E012
:100230000E94A9206093250402C00A9770F780915C
:10024000240494E6899F20191124809125044AE012
:10025000849F20191124209326040895853038F5B1
:10026000E82FF0E0EE0FFF1FE45FFE4F29EE33E0D2
:1002700031832083823041F150F48130C9F0809184
:1002800069008C7F682B60936900E89A0895833039
:1002900041F18430A1F780916A008F7C94E0660F71
:1002A000771F9A95E1F7682B60936A00EE9A08959C
:1002B00080916900837F660F771F660F771F682B19
:1002C00060936900E99A0895809169008F7C34E019
:1002D000660F771F3A95E1F7682B60936900EA9AF9
:1002E0000895809169008F7326E0660F771F2A9525
:1002F000E1F7682B60936900EB9A0895FC01809107
:100300001303882311F13FB7F89482E08093E9004A
:100310002091F200822F90E01816190614F481E063
:1003200090E0882339F0289844E6409312034091E6
:10033000F1004083222339F02091F200211103C003
:100340002BE62093E8003FBF08958FEF9FEF0895BD
:100350002FB7F89483E08093E9009091E800892F0B
:10036000807295FF04C09091F20080E4891B2FBF3A
:10037000089580910A0381110DC082E080930603E5
:1003800084E080930703109209031092080381E030
:1003900080930A0386E093E0089508950E94A801DF
:1003A00090E0089588E48093160108954091340206
:1003B0005091350220913202309133024217530797
:1003C000B4F49091E8009570E1F39091E80092FD0B
:1003D00019C08093F100809134029091350201960A
:1003E0008F739927892B19F48EEF8093E800809101
:1003F0003402909135020196909335028093340235
:1004000081E0089580E00895DF92EF92FF920F93CC
:100410001F93CF93DF93D82E8A01EB017B01E40E6B
:10042000F51ECE15DF0559F0D7FE12C0FE018491EE
:100430000E94D60121968111F4CF0FEF1FEFC80162
:10044000DF91CF911F910F91FF90EF90DF90089572
:100450008881EECF0F931F93CF93DF931F92CDB779
:10046000DEB782E0898342E450E069ED70E080E825
:100470000E9404020E94B901DC0112960D911C91A8
:100480000115110589F0D801ED91FC910280F381ED
:10049000E02DBE016F5F7F4FC801099597FD04C035
:1004A000F80100851185ECCF89810F90DF91CF9104
:1004B0001F910F910895615030F02091F100FC01DF
:1004C00020830196F8CF289884E68093120308953C
:1004D000CF93DF931F92CDB7DEB76983DC01ED9137
:1004E000FC910280F381E02D41E050E0BE016F5F9E
:1004F0007F4F09950F90DF91CF91089583E080930E
:10050000E9008091F200882319F08AE38093E800E3
:100510000895CF93DF931F92CDB7DEB7FC0184859A
:10052000958597FD08C02FEF3FEF358724870F9003
:10053000DF91CF910895CE0101960E947E0101972F
:1005400019F4898190E0F3CF8FEF9FEFF0CF0F93F5
:100550001F93CF93DF931F92CDB7DEB78C01FC01C1
:100560008485958597FF0BC0CE0101960E947E0180
:10057000019771F4898190E0F80195878487F801EB
:10058000848595850F90DF91CF911F910F910895EC
:100590008FEF9FEFF1CFFC018485958597FD0BC010
:1005A0009FB7F89482E08093E9008091F2009FBFAA
:1005B00090E0019608959FB7F89482E08093E90057
:1005C0008091F2009FBF90E0089581508F3008F035
:1005D00047C0E82FF0E0E151FD4F0C94D1200C030F
:1005E0001003FE0204030803300330033003130337
:1005F00019031D032103270330032B03809180007F
:100600008F77809380000895809180008F7DF9CF4F
:1006100080918000877FF5CF84B58F7784BD089562
:1006200084B58F7DFBCF809190008F778093900071
:100630000895809190008F7DF9CF80919000877F01
:10064000F5CF8091C0008F778093C000089580918E
:10065000C0008F7DF9CF8091C200877F8093C20058
:100660000895CF93DF93282F30E0F901E654FF4F30
:100670008491F901E757FE4FD491F901E659FE4FF5
:10068000C491CC23A1F081110E94E502EC2FF0E08F
:10069000EE0FFF1FE25BFE4FA591B491EC91ED23AD
:1006A00081E090E009F480E0DF91CF91089580E04F
:1006B00090E0FACF1F93CF93DF93282F30E0F9011A
:1006C000E654FF4F8491F901E757FE4FD491F901A9
:1006D000E659FE4FC491CC23A9F0162F81110E9438
:1006E000E502EC2FF0E0EE0FFF1FE45AFE4FA5915C
:1006F000B4918FB7F894EC91111108C0D095DE2316
:10070000DC938FBFDF91CF911F910895DE2BF8CF3F
:10071000CF93DF9390E0FC01E757FE4F2491865979
:100720009E4FFC0184918823C9F090E0880F991FA7
:10073000FC01E455FF4FA591B491FC01E45AFE4F32
:10074000C591D49161110DC09FB7F8948C912095FB
:1007500082238C938881282328839FBFDF91CF91A8
:100760000895623051F49FB7F8943C91822F8095A0
:1007700083238C93E8812E2BEFCF8FB7F894EC91E5
:100780002E2B2C938FBFEACF3FB7F89480912E0287
:1007900090912F02A0913002B091310226B5A89B12
:1007A00005C02F3F19F00196A11DB11D3FBFBA2F03
:1007B000A92F982F8827BC01CD01620F711D811DC3
:1007C000911D42E0660F771F881F991F4A95D1F748
:1007D0000895FF920F931F93CF93DF930E94C4035A
:1007E0002091220230912302EB01C21BD30B2091F6
:1007F0003C0230913D02C217D30708F45FC040911C
:10080000EA025091EB024130510561F0E091C503DD
:10081000F091C60320813091C703232330913A021F
:1008200023134CC0709323026093220200913E0276
:1008300010913F024230510509F413C14330510574
:1008400009F44EC14130510561F48091210281309B
:1008500009F447C0C8F1833009F482C0843009F438
:10086000C9C08091EA029091EB02019739F1C0175B
:10087000D10708F06DC180911F028F5F80931F0226
:100880008B30E0F081E090E09093EB028093EA02FD
:1008900061E070E08091C3030E942E0110923A0241
:1008A0001092210282E590E090933F0280933E02F5
:1008B00083E290E090933D0280933C02DF91CF91E0
:1008C0001F910F91FF900895C017D10730F481E078
:1008D00080932102C0932002C4CF84E08093210240
:1008E000C0CFC017D107D0F51092210280911F020E
:1008F0008F5F80931F02209120028C2F0C2E000C02
:10090000990B821B910927FD939597FF03C0919541
:1009100081959109499794F21092EB021092EA02A4
:1009200082E990E090933F0280933E0282E590E05E
:1009300090933D0280933C0210921F02F0903B0284
:100940006F2D70E08091C3030E942E018091C70338
:1009500093E0F91227C080933A0283CF83E0BECFA1
:10096000C017D10708F51092EB021092EA0282E953
:1009700090E090933F0280933E0282E590E0909356
:100980003D0280933C0210921F02F0903B026F2DBB
:1009900070E08091C3030E942E018091C70333E071
:1009A000F316C9F280E0D7CF90913B02933009F45F
:1009B00082E080933B0282E090E09093EB02809390
:1009C000EA0282E990E090933F0280933E0282E542
:1009D00090E090933D0280933C021092F00280914F
:1009E0001F028093F1021092ED021092EF0210921A
:1009F000EE02CBCFC017D107A8F41092EB021092F1
:100A0000EA0282E990E090933F0280933E0282E501
:100A100090E090933D0280933C0210921F0210924E
:100A2000ED028CCF82E090E09093EB028093EA029B
:100A300082E990E090933F0280933E0282E590E04D
:100A400090933D0280933C021092F00280911F022D
:100A50008093F1021092ED021092EF021092EE02DA
:100A60006DCF9091ED029F5F9093ED028091EE0229
:100A7000880FC017D107E0F08093EE02983009F09C
:100A8000F6CEE091F002E630A9F41092EB0210925B
:100A9000EA0282E990E090933F0280933E0282E571
:100AA00090E090933D0280933C021092ED02D9CEEB
:100AB0008160E2CF83E090E09093EB028093EA02C2
:100AC00081E08E0F8093F0029091EE02F0E0E6510B
:100AD000FD4F90878091EF0289278093EF02C1CE6E
:100AE000C017D10728F51092EB021092EA0210927B
:100AF000ED0282E990E090933F0280933E0282E50E
:100B000090E090933D0280933C028091EF0281112E
:100B1000B2CE88E0E0EFF2E0A8EFB2E001900D92F3
:100B20008A95E1F781E08093EC0210921F0299CE42
:100B30008091F002863009F4A8CF82E090E0909393
:100B4000EB028093EA021092ED021092EE0289CE3F
:100B500010921F02B3CE8F929F92AF92BF92CF920C
:100B6000DF92EF92FF924B015C010E94C4036B0184
:100B70007C010E94C4036C197D098E099F09683E9F
:100B8000734081059105A8F321E0821A9108A1081C
:100B9000B10888EEC80E83E0D81EE11CF11C811458
:100BA0009104A104B10429F7FF90EF90DF90CF905A
:100BB000BF90AF909F908F9008958F929F92AF9229
:100BC000BF92CF92DF92EF92FF920F931F93CF933A
:100BD000DF936C017B018A0180910B01882309F46A
:100BE0005CC080911303882309F457C080913802B8
:100BF00080FF05C08091E00082608093E000E80102
:100C0000B12C8AEFA82E93E0892E2AE3922E20970A
:100C100011F4BB20D9F10E94A80181110AC0AA9445
:100C2000AA20D9F161E070E080E090E00E94AB057D
:100C3000EECF8C171D0611F00CF08C2F9FB7F89497
:100C40008092E9002091E80025FD02C09FBFDFCF20
:100C5000282F30E0C21BD30BF701815020F04191C7
:100C60004093F100FACFE20EF31EBB2021F09092E8
:100C7000E800B12CEBCF8091E80085FDE7CF9092A2
:100C8000E800BB24B394209709F3F3CF5D9884E682
:100C900080933702101611063CF081E090E0F601D7
:100CA0009383828310E000E0C801DF91CF911F9110
:100CB0000F91FF90EF90DF90CF90BF90AF909F90FB
:100CC0008F9008952FB7F89460912A0270912B02AB
:100CD00080912C0290912D022FBF08950895FC0160
:100CE00080818076803611F481810895808182959B
:100CF00086708E5F0895CF92DF92EF92FF920F93EE
:100D00001F93CF93DF93EC0109E11EE2EE24E394FD
:100D1000F12C93E0D92ECC24C394CE010E946F060F
:100D200080932203E0912203E150109221038FEF80
:100D3000909121039E1768F4A0912103AC0FBD2F61
:100D4000B11D9C918927909121039F5F909321036E
:100D5000EFCFEC0FFD2FF11D8083F89480912003DD
:100D6000813059F480911F03811738F010922003CD
:100D700080916F008D7F80936F0078948091200325
:100D8000813031F480911F03843138F2C12CC5CFFA
:100D90008091200381110EC0F89480916F008F7DA7
:100DA00080936F00B59B09C080916F008062809333
:100DB0006F007894C110B1CF56C0E0911D03F0913F
:100DC0001E03808190911C03970101C0220F9A9508
:100DD000EAF7822B808380918400909185008A5A63
:100DE0009C4F90931B0380931A0380911A03909158
:100DF0001B0390938900809388007894D093190303
:100E0000C0931803109221031092170388818093D6
:100E10001603D092200310921F03B19A80916F00A5
:100E2000826080936F00809120038330E1F3809192
:100E300017038823B1F0E0911403F0911503E757ED
:100E4000FF4F8081918101969183808383E090E0C0
:100E5000DF91CF911F910F91FF90EF90DF90CF9096
:100E60000895809120031B3108F01150015009F0C2
:100E700052CF8091AE039091AF0301969093AF0350
:100E80008093AE0386E090E0E3CF1F93CF93DF9390
:100E9000EC01653B710514F064EB70E0DB0177FF5A
:100EA00002C0B0E0A0E0A9831C812D81211B330B7F
:100EB000032E000C440B550B542F432F322F2227A7
:100EC0000E94702024EB30E040E050E00E94462079
:100ED000612F70E090E080E0982F872F762F6627B3
:100EE000620F731F841F951F20E430E040E050E044
:100EF0000E9446203B832A83DF91CF911F91089562
:100F0000CF93C82F80E090E0892B51F08091B403FB
:100F10008C1731F081E0C11101C080E00E94000017
:100F2000C093B40360E070E0CB01C1110E9462067F
:100F30006093B5037093B6038093B7039093B8039F
:100F400080E090E0892B59F08091B4038C1739F040
:100F500081E0C11101C080E0CF910C940000CF91DD
:100F600008958830910561F46623E9F028E4209320
:100F7000160120E030E041E0232B81F00C940000CA
:100F800020E030E0232BD1F741E0811524E09207E7
:100F900008F040E0611102C0842F0895079702977E
:100FA000D8F740E0F9CF20E030E0232B39F741E0DB
:100FB000F3CF80E090E0892B29F08091CB0383FD73
:100FC0000C940000089508950E948007E2EBF3E07E
:100FD00081E087831086EBEBF3E088E0DF011D9270
:100FE0008A95E9F708952F923F924F925F926F9200
:100FF0007F928F929F92AF92BF92CF92DF92EF92A9
:10100000FF920F931F93CF93DF93CDB7DEB728974F
:101010000FB6F894DEBF0FBECDBF98878F83512CDB
:10102000412C7C0121E8E20EF11C3C0130E8630E0A
:10103000711C8C010E571F4F8D579F4F9C838B83C4
:101040004F8158854C575F4F6A0122242A948F8123
:10105000988589579F4F9A838983EF81F885EB574D
:10106000FF4FFE83ED83F7018081F30190818917A3
:1010700009F4DEC0F1E84F16510409F4D9C0EF813C
:10108000F885E80FF11D308037FE85C0F8019081AA
:10109000891741F0E981FA81208131812F5F3F4F2B
:1010A00031832083F8018083EB81FC812082832DB2
:1010B0008076F601803609F444C0832D82958670CF
:1010C0008E5F8083F801808190E0F6012081280FF7
:1010D000392F311D21383105ACF120E8822E912CB9
:1010E000881A990AF894F3014081F80180818417E5
:1010F00008F057C0F42FF81B8F2FF30180837894EA
:10110000F8018081481708F04FC050E06F81788562
:10111000CB01880D991D0E940922F80160812F8161
:101120003885260F311DB901A4018F8198850E9451
:101130000922F7018081F8019081891BF7018083E2
:10114000F8011082F70120812F5F2083F801808150
:10115000422F50E090E0481B590B052E000C660B07
:10116000770B27FF02C0F7011082EB81FC81208101
:10117000F6013081832E912CB12CA12C841695067A
:10118000A606B706F1F03226EB81FC813082FFEF34
:101190004F1A5F0A68CFF60180818111D3CF308268
:1011A00091CF842F880DA9CF50E070E060E0481BFC
:1011B000510961097109EF81F885E80FF11DBF013F
:1011C000B4CF32122BC04F815885840F951FED810B
:1011D000FE81408151814F5F5F4F51834083F70112
:1011E0003081F8013083009771F228960FB6F89499
:1011F000DEBF0FBECDBFDF91CF911F910F91FF904A
:10120000EF90DF90CF90BF90AF909F908F907F90A6
:101210006F905F904F903F902F900895E981FA81F1
:101220008081918101969183808390E080E0D7CF87
:1012300090E080E0DACF7F928F929F92AF92BF9240
:10124000CF92DF92EF92FF920F931F93CF93DF9392
:10125000CDB7DEB7EDB6FEB60E946206AB01BC01AB
:101260008091240290912502A0912602B09127023C
:10127000481759076A077B0748F04496A11DB11D1E
:10128000481759076A077B0708F493C04093240264
:10129000509325026093260270932702E09140024A
:1012A000F0914102DF0110E0109761F012968D91EC
:1012B0009C911397892B09F01F5F16960D90BC9196
:1012C000A02DF2CF112309F474C0812F90E0880F74
:1012D000991F2DB73EB7281B390B0FB6F8943EBFA8
:1012E0000FBE2DBF8DB79EB701966C0120E03097E1
:1012F00089F042815381452B49F0A22FB0E0AA0F1B
:10130000BB1FAC0DBD1DED93FC932F5F0680F781D5
:10131000E02DEDCF5601F601712C01E00117D9F057
:101320008281938121913191DC0112966D917C91A2
:10133000D90112964D915C916417750750F4318371
:1013400020839F0122503109D9018D939C937724EA
:1013500073940F5FE3CF7110DDCF00E0D601ED9104
:10136000FD916D0161E080810E945A030F5F1013AF
:10137000F5CF06B5D12CC12C802E912CD501ED9145
:10138000FD915D0182819381880D991D202F06B505
:10139000021708F4D394202FA601400F511D841783
:1013A0009507A8F760E080810E945A037394171193
:1013B000E5CF0FB6F894FEBE0FBEEDBE0FB6F894A3
:1013C000FEBE0FBEEDBEDF91CF911F910F91FF903A
:1013D000EF90DF90CF90BF90AF909F908F907F90D5
:1013E000089520E030E0232B11F00C9400000C94C1
:1013F000302010923E0410923F041092400410924C
:1014000041041092420410924304109244048091CB
:101410003D0490E00E94F10980FF03C091E09093A9
:101420003E0481FF03C091E090933F0482FF03C01C
:1014300091E09093400483FF03C091E090934104B6
:1014400084FF03C091E09093420485FF03C091E0C4
:101450009093430486FF03C081E080934404089581
:10146000CF93DF932091C8033091C9032F3F3207F8
:1014700021F0C901DF91CF9108958091CB0387FFBF
:101480002BC086FF0FC089E090E00E94F109C82FB1
:1014900081E090E00E94F1099C2F9093C903809312
:1014A000C80315C089E090E00E94F109C82F81E0CF
:1014B00090E00E94F10990E4C99F90011124207CE2
:1014C00031708F73282B3093C9032093C803809108
:1014D000C8039091C903CECF85FF0CC081E190E095
:1014E0000E94F109C82F82E190E00E94F109C05CDE
:1014F000DD0BD2CF81E090E00E94F10990E0CDCFEA
:10150000CF93DF9320911E02222359F08C32994110
:1015100041F4EB010E94300AC817D90729F4109250
:101520001E02DF91CF910895DF91CF910C94300A84
:101530000F931F93CF93DF93FC01808191818C32B5
:10154000994131F08FEFDF91CF911F910F91089565
:10155000EB01088119810E94300A0817190729F444
:1015600081E080931E028FE7EECF888199810196FA
:1015700049F70E94300A99838883F5CFCF93DF9390
:1015800040911E02442391F08C32994179F481E01C
:101590006837710540F4E901CB010E94F10990E040
:1015A000998388838FE7DF91CF9108958FEFFBCFE9
:1015B000CF93DF93EC0124E0CC0FDD1F2A95E1F7F8
:1015C000E0914504F0914604EC0FFD1F21E030E06E
:1015D0003183208340913E04442331F041E0228551
:1015E0003385232B09F440E055E0589F9001599F23
:1015F000300D1124C9014F964617170681F00E943D
:10160000F109E0914504F0914604EC0FFD1F082E0E
:10161000000C990B95838483DF91CF9108950E94EC
:10162000F109E0914504F0914604EC0FFD1F992764
:1016300081950CF49095EECFCF92DF92EF92FF92CE
:101640000F931F93CF93DF93082FC82ED12CE60161
:1016500094E0CC0FDD1F9A95E1F780914304882335
:1016600009F479C0760188E2E80EF11CEE0CFF1C4B
:10167000C7010E94F109182FC70101960E94F109C4
:10168000E0914504F0914604EC0FFD1F982F812F47
:1016900095878487C6018A5B9F4F0E94F109E0917C
:1016A0004504F0914604EC0FFD1F90E09787868774
:1016B00085E0089F80011124C80182960E94F109EB
:1016C000E0914504F0914604EC0FFD1F90E09383F8
:1016D0008283C80181960E94F109E0914504F0914E
:1016E0004604EC0FFD1F90E097838683C801809627
:1016F0000E94F109E0914504F0914604EC0FFD1FB2
:1017000090E091878087C8014E960E94F109E09190
:101710004504F0914604EC0FFD1F082E000C990BB8
:1017200093878287C8014F960E94F1092091450452
:1017300030914604C20FD31F992781950CF49095E0
:101740009D838C83DF91CF911F910F91FF90EF903C
:10175000DF90CF900895E0914504F0914604EC0F9E
:10176000FD1F1586148696CF0F931F93CF93DF939B
:101770008C01D62FC09142040E94F9098091420445
:10178000882321F0C11102C010924204C0E08C2FC6
:101790000E941C0BCF5FC830D1F70837110549F400
:1017A000D83739F480910503811103C081E080931B
:1017B0000503DF91CF911F910F9108951F93CF9350
:1017C000DF93EC01162F83319105C8F48131910527
:1017D00028F48130910511F0099731F48FEF9FEFD4
:1017E0009093C9038093C80380E090E0892BA9F00F
:1017F000612FCE01DF91CF911F910C9400004D9786
:1018000099F7177F1093CB038091B2038F73912FB9
:10181000907C892B8093B203E1CFCE010E943020CF
:101820001817A1F0612FCE010E943820612FCE0140
:101830000E94B40B80E090E0892B41F08091B203CC
:1018400084FD04C0612FCE010E940000CE01DF9113
:10185000CF911F910C943020CF93DF93C2EBD3E054
:101860002881206128830E94DE0B98819F7E9883C7
:10187000DF91CF9108959B0150911E02552361F095
:101880008C32994149F46837710540F4642FC901DD
:101890000E942C0C8FE708958FEF089581E0089542
:1018A000CF92DF92EF92FF920F931F93CF93DF932C
:1018B000CDB7DEB760970FB6F894DEBF0FBECDBFD1
:1018C000FC018081853E19F08D3E09F0D8C08181F0
:1018D0008F3009F0D4C08381853009F0D0C0F48006
:1018E000F110CDC04681DF01CF01079621E0342FF2
:1018F000322339F017963C911797306817963C932E
:101900001797220F11968A179B0789F76F01168286
:101910002581203209F4A6C0213279F50780F085AF
:10192000E02DEF3FFE07C9F5D60119962D913C91A8
:101930001A97232B91F51B962D913C912F3F3F4FEA
:1019400061F520E030E0232BC1F0B601655F7F4FE9
:101950000E9400008F3789F4F601038514854781C2
:101960005085E12C30E020E06281CE0101960E949A
:101970009316CE0101960E947B068F2D60960FB6BE
:10198000F894DEBF0FBECDBFDF91CF911F910F91B5
:10199000FF90EF90DF90CF900895D6011D962C9187
:1019A0001D9721112BC01B964D915C911C97199688
:1019B0006D917C919601255F3F4FCF010E94BE0A39
:1019C0008F3791F4F601038514852185328547818F
:1019D0005085E12C6281CE0101960E949316CE01C2
:1019E00001960E947B063BC087FDC7CFD6019C9124
:1019F0009F7724EB29839A838B83F1CF27FF23C022
:101A000026FD26C0B601655F7F4F0E94980A8F377A
:101A1000D1F4F601038514854781508580E8E82ECE
:101A200030E020E06281CE0101960E9493166AE0C8
:101A300070E080E090E00E94AB05CE0101960E942C
:101A40007B06FF24F394D6011D968C9186FF95CFDB
:101A5000F60163857485878190850E94800AFF2442
:101A6000F3948BCF438554856185728587819085FA
:101A70000E943B0C87FD81CFF6019081B9CFF12CFC
:101A80007CCFAF92BF92CF92DF92EF92FF920F93F3
:101A90001F93CF93DF93CDB7DEB760970FB6F8945F
:101AA000DEBF0FBECDBF8C01F62E809103038823CD
:101AB00009F1602F81E090E00E942C0C612F89E0F9
:101AC00090E00E942C0C61E08EE10E945A0310927B
:101AD000030360960FB6F894DEBF0FBECDBFDF9153
:101AE000CF911F910F91FF90EF90DF90CF90BF901B
:101AF000AF90089580914304882371F1B12CA12CFB
:101B0000D12CC12C81E0E0914504F0914604EA0D0E
:101B1000FB1D248535852017310789F48685978537
:101B200061E070E0892B29F0FF2029F070E060E08F
:101B300002C0FF20D9F3C6010E94D80A80E02FEF2F
:101B4000C21AD20A30E1A30EB11C98E0C916D10422
:101B5000D1F6811106C0BDCF0E94300A08171907BF
:101B600040F580914404882309F4B3CFE12CFF2091
:101B700019F090E2E92EF12C6801CC0CCD2CCC1C94
:101B8000DD083FE0C322DD2410EB19830F770A83C1
:101B9000C60180618E298B83CE0101960E947B064F
:101BA00019830A83EC28EB82CE0101960E947B0602
:101BB00090CF9C01285F3F4F0217130790F69801C2
:101BC000281B390BC90144E0220F331F4A95E1F766
:101BD000E0914504F0914604E20FF31F2685378516
:101BE00061E070E0232B29F0FF2029F070E060E035
:101BF00002C0FF20D9F30E94D80A6BCF662339F0C8
:101C000061E0411101C060E040E00C94410D089595
:101C10000F931F93CF93DF93FC014181242F30E07A
:101C20006281C62FD0E0162F1695062F0795002744
:101C30000795D801A078B770A42BB32B9081923B65
:101C400009F473C01196913B09F495C0A8F4933838
:101C500009F483C028F4923809F487C080E070C08A
:101C6000963A09F40AC1903BC9F7462F4072607159
:101C7000CD010E94FE0D63C09D3B09F460C088F455
:101C8000943B09F424C19C3B49F780E090E0892B08
:101C900009F455C0462F40726071CD010E940000CA
:101CA0004EC0903D09F47FC0963EC1F680E090E0C2
:101CB000892B09F444C02481838190E02D3731F0D1
:101CC000A0E82A9F90011124822B932B2681458125
:101CD00050E02D3731F0B0E82B9F90011124422BBA
:101CE000532BA085278130E0AD3731F070E8A79FF6
:101CF000D00111242A2B3B2B7285018510E07D3702
:101D000031F0A0E87A9FF00111240E2B1F2B62FD09
:101D1000C9C04150510961FDCCC02150310960FD5D
:101D2000CFC0015011096073B7C082E090E065FD3B
:101D300002C081E090E020E030E0232B31F481E02C
:101D4000DF91CF911F910F910895AA0FBB1F607172
:101D50008A0F9B1F0E940000F2CF80E090E0892B49
:101D600071F381E00E940000EACF80E090E0892BCF
:101D700031F380E0F7CF66FF0BC080E090E0892B65
:101D8000F1F2462F40726071CD010E940000D7CF62
:101D900080E090E0892B99F2462F40716072CD016E
:101DA0000E940000CCCF4076403221F04036B9F19D
:101DB0004111C5CF80E090E0892B09F2C9019695C9
:101DC000982F88279795879580789F708C0F9D1FF7
:101DD00055E0359527955A95E1F7217001963381A5
:101DE0004481E42FF0E0AF013D3731F070E8379FD8
:101DF000A00111244E0F5F1F6F7079F1623079F1ED
:101E0000643079F1663079F1683079F16A3079F1CE
:101E10006C3079F16E3079F10E94000090CF80E053
:101E200090E0892B09F48BCF1381812F807D803145
:101E300009F085CF0481D1E0C1E041E0812F8D23FD
:101E400009F040E0202F2D23DD0F6C2F80E80E9449
:101E50000000CF5FC53089F772CF61E4DDCF62E467
:101E6000DBCF63E4D9CF64E4D7CF65E4D5CF66E4B4
:101E7000D3CF67E4D1CF68E4CFCF80E090E0892B67
:101E800009F45DCFC9016D3751F410E000E030E096
:101E900020E050E040E060E30E94000050CF802B43
:101EA000912BF3CFE1E0F0E0DF01A41BB50BAD0116
:101EB00032CFE1E0F0E0DF01A21BB30B9D012FCF99
:101EC000E1E0F0E0DF01A01BB10B8D012CCF4C3322
:101ED00009F0C4CE80E090E0892B09F430CF8CE388
:101EE0000E9400002CCF0C942C0CCF93DF93C82FB2
:101EF00088E790E00E94F109883769F4C7E1D1E0F2
:101F000081E0CF3ED80779F06A81888199810E946B
:101F10002C0C2396F5CF81E090E00E94F1098F3FD1
:101F200069F3C111EBCFDF91CF910895BF92CF92AA
:101F3000DF92EF92FF920F931F93CF93DF938B016A
:101F4000B42E690182FF23C083FF17C061E0C8017E
:101F50000E94B1078823D9F16B2DC8010E94DE0BC6
:101F60008B1135C0F601DF91CF911F910F91FF903A
:101F7000EF90DF90CF90BF90099460E0C8010E947D
:101F8000B107882321F1C8010E94F109E9CF842F0C
:101F90008770C1E0D0E07E0101C0EE0C8A95EAF7BF
:101FA000D42FD870CB010E94F109C82FB4FE1CC0F9
:101FB00061E0C8010E94B107882349F0DD2389F060
:101FC000CE296C2FC8010E94DE0B8C1759F2DF91CD
:101FD000CF911F910F91FF90EF90DF90CF90BF9026
:101FE0000895E094CE21EDCF60E0C8010E94B107D2
:101FF000882369F3CE21DD2319F0C111B3CFE7CFD8
:10200000CC2309F4AFCFE3CFCF92DF92EF92FF92D0
:102010000F931F93CF93DF937C016B01C42F122F7B
:10202000D42FD07E8091B20387FF2CC0D03EC1F563
:102030008091B3038823A1F190E00E94F109D82F89
:102040008091B30390E001960E94F109982F8D2FA3
:10205000E816F90629F56C2F70E0762F66276627BB
:102060007370612B6F5F7F4F29ED37E0402F8C2F0E
:10207000DF91CF911F910F91FF90EF90DF90CF9064
:102080000C94960F80FD36C0D03609F46DC088F4EC
:10209000D03209F44BC0D03409F466C0DD2399F185
:1020A000DF91CF911F910F91FF90EF90DF90CF9034
:1020B0000895D03A09F490C0B0F4D03889F780E0A0
:1020C00090E02C2F2F7141E050E0892B49F3B601AD
:1020D000C701DF91CF911F910F91FF90EF90DF909B
:1020E000CF900C940000D03C09F484C0D03E09F499
:1020F000B2CFD6CF0E94300A8E159F0529F2E11487
:10210000F10411F2CDCF8C2F8E7051F680E090E06B
:10211000892B31F28C2F8170DF91CF911F910F911C
:10212000FF90EF90DF90CF900C940000CF71CF31F3
:1021300009F0B6CF80E090E0892B09F4B1CF412FB0
:102140004F7771F0413071F0111F1127111F212FAE
:1021500030E00FE710E0B601C7010E940000A0CFF9
:1021600041E0F2CF40E0F0CF80E090E0892BC1F079
:102170002C2F30E08C2F8F71813029F030F080319E
:1021800021F08131F9F440E001C041E025FB222734
:1021900020F90DE110E030E0B601C7010E94000017
:1021A00080E090E0892B09F47BCF4C2FB601C7016A
:1021B000DF91CF911F910F91FF90EF90DF90CF9023
:1021C0000C940000C901880F991F8E71C4FB44272D
:1021D00040F9482B4250DACF80E090E0892B09F497
:1021E0005FCF2C2F2F7043E050E0C4FF70CF42E050
:1021F00050E06DCFCF71CE3161F0CF3109F050CFCB
:1022000080E090E0212F45E050E0892B09F05FCF7E
:1022100047CF80E090E0212F44E050E0892B09F087
:1022200056CF3ECF1F920F920FB60F9211248F936D
:102230009F938091E1009091E100937F9093E10062
:1022400083FF0FC01092E90091E09093EB00109291
:10225000EC0092E39093ED001092130398E09093BA
:10226000F00082FF22C093E09093E9009091F20089
:10227000992319F09AE39093E800909137029923FB
:1022800041F090913702915090933702911101C023
:102290005D9A90911203992341F09091120391500D
:1022A00090931203911101C0289A84FF18C0809165
:1022B000E2008E7E81608093E2008091E1008F7E5B
:1022C0008093E100809138028E7E80618093380295
:1022D0009F918F910F900FBE0F901F90189580FFC8
:1022E000F7CF8091E2008E7E80618093E200809142
:1022F000E1008E7E8093E100809138028E7E8160C5
:10230000E5CF1F920F920FB60F921124CF92DF925A
:10231000EF92FF920F931F932F933F934F935F93EF
:102320006F937F938F939F93AF93BF93EF93FF939D
:10233000CF93DF93CDB7DEB76C97DEBFCDBF1092E2
:10234000E9008091E80083FF25C068E0CE01459652
:102350000E945B0282EF8093E8008D8987FF39C07D
:102360009091E80090FFFCCF982F907609F034C14F
:102370009E894F89588D2F89F88C911131C08038F2
:1023800061F5809139028093F1001092F1008EEF97
:102390008093E8006C960FB6F894DEBF0FBECDBFF9
:1023A000DF91CF91FF91EF91BF91AF919F918F916D
:1023B0007F916F915F914F913F912F911F910F915D
:1023C000FF90EF90DF90CF900F900FBE0F901F9077
:1023D00018959EEF9093E800C7CF1092F100D5CFEB
:1023E000913059F48111D3CF4130510581F680915C
:1023F00039028D7F80933902CACF933049F481111D
:10240000C6CF4130510519F6809139028260F2CF72
:10241000953041F48091E80080FFFCCF2068209344
:10242000E300B5CF963009F0A9C00B8D1C8D22E0DA
:102430001092E9001092350210923402F2122EC06E
:1024400010923302109232020E942A021F8299E0F7
:102450009983FA8291E09E8390EA98879AEF998710
:102460002091340230913502275F3F4F3C832B830C
:102470008D831092E900109235021092340210936D
:1024800033020093320249E050E0BE016F5F7F4F9C
:1024900080E00E9404020E942A0279CF1093330246
:1024A000009332020E94B901DC0112960D911C9139
:1024B0000115110509F451C1D801ED91FC91048079
:1024C000F581E02DBE016B5E7F4FC8010995009735
:1024D00009F03EC1F80100851185EACFF3E0FF1253
:1024E0000EC08F89882309F440C0823061F440E82F
:1024F00060E18DE391E00E94CC16811148CF81E22A
:102500008093EB0047CF813029F440E86BE081E312
:1025100091E0F1CF833099F70E94B901DC01129666
:10252000ED90FC908E010F5F1F4F6801E114F104E4
:1025300079F0D701ED91FC910680F781E02DB8018B
:10254000C7010995080F111DF701E084F184EECF52
:10255000D8011C92F60101900020E9F73197BF01E4
:102560006C197D0940E0C601C6CF6BE171E0FB014B
:10257000449150E080E80E94040209CF973009F4AA
:10258000BECF983021F481E08093F10000CF9930E4
:1025900009F0FDCE837009F0B2CFE6EFF1E081E003
:1025A00031E096E32191222371F08093E90030938A
:1025B000EB00DF0111972C912093EC009093ED003C
:1025C0008F5F873079F78EE78093EA001092EA00F8
:1025D0008F8980931303DBCE8B8D9C8D1092E90045
:1025E000109235021092340290933302809332029B
:1025F000898D811192C08E899D89913A49F48132E9
:1026000009F07DCF47E050E064E071E080E0B3CFB7
:10261000913209F074CF833269F48F89988DB0E0DC
:10262000A0E08093000190930101A0930201B09378
:102630000301ADCE803269F48091E80082FFFCCFC7
:1026400067E084E091E00E945B028BEF8093E800FA
:102650009ECE823209F09BCE8F8980930B01EEEFE4
:10266000FFE7859194918B3F9C4D51F1E0E0F8E0BC
:102670008091040190910501A0910601B09107019C
:10268000803B9440A105B105F1F480910B0180FDE0
:102690001AC0EE3F8AE0F80789F587E797E791834C
:1026A0008083809160008093360288E19BE00FB6C2
:1026B000F894A895809360000FBE9093600067CE59
:1026C000EEEFFAE0D5CF808191818737974709F007
:1026D0005ECEA895809160008861809360008091B3
:1026E000360280936000EE3F2AE0F20789F0809185
:1026F000FE0A9091FF0A9183808349CE8081918167
:102700008737980751F29093FF0A8093FE0AC5CF4E
:102710001092FF0A1092FE0A3ACE0E94B901DC0123
:1027200012960D911C910115110509F4E8CED801FE
:10273000ED91FC910190F081E02DBE016B5E7F4F29
:10274000C8010995811123CEF80100851185EBCFD1
:10275000181619060CF41BCED2CEF1E0FF12BECE35
:102760006FE171E004CF1F920F920FB60F92112408
:102770002F933F938F939F93AF93BF9380912A02A0
:1027800090912B02A0912C02B0912D023091290240
:1027900023E0230F2D3758F50196A11DB11D20937D
:1027A000290280932A0290932B02A0932C02B093CB
:1027B0002D0280912E0290912F02A0913002B091B3
:1027C00031020196A11DB11D80932E0290932F021C
:1027D000A0933002B0933102BF91AF919F918F913E
:1027E0003F912F910F900FBE0F901F90189526E8E4
:1027F000230F0296A11DB11DD2CF1F920F920FB6CB
:102800000F9211242F933F934F935F936F937F9376
:102810008F939F93AF93BF93EF93FF93E091140136
:10282000F09115010995FF91EF91BF91AF919F91A3
:102830008F917F916F915F914F913F912F910F9069
:102840000FBE0F901F9018951F920F920FB60F9208
:1028500011242F933F934F935F936F937F938F93A5
:102860009F93AF93BF93EF93FF93E0911201F09189
:1028700013010995FF91EF91BF91AF919F918F91B6
:102880007F916F915F914F913F912F910F900FBE6C
:102890000F901F9018951F920F920FB60F92112450
:1028A0002F933F934F935F936F937F938F939F9358
:1028B000AF93BF93EF93FF93E0911001F09111015B
:1028C0000995FF91EF91BF91AF919F918F917F916A
:1028D0006F915F914F913F912F910F900FBE0F908D
:1028E0001F9018951F920F920FB60F9211242F93DD
:1028F0003F934F935F936F937F938F939F93AF9388
:10290000BF93EF93FF93E0910E01F0910F010995B2
:10291000FF91EF91BF91AF919F918F917F916F91B7
:102920005F914F913F912F910F900FBE0F901F908D
:1029300018951F920F920FB60F9211242F933F9369
:102940004F935F936F937F938F939F93AF93BF93B7
:10295000EF93FF93E0910C01F0910D010995FF9128
:10296000EF91BF91AF919F918F917F916F915F9107
:102970004F913F912F910F900FBE0F901F90189580
:102980001F920F920FB60F9211240F931F932F9344
:102990003F934F935F936F937F938F939F93AF93E7
:1029A000BF93CF93DF93EF93FF93B19A80911A0374
:1029B00090911B0380549C4F90931B0380931A03A8
:1029C00080911A0390911B03909389008093880053
:1029D00080912802882371F0109228024C9B26C017
:1029E00081E080932003B59A80916F00806280938C
:1029F0006F001CC080911F038F5F80931F03809125
:102A00002003843009F040C080911F03893018F5FD
:102A10008091160390E095958795809316034C9BC3
:102A200005C080911603806880931603FF91EF9193
:102A3000DF91CF91BF91AF919F918F917F916F91D6
:102A40005F914F913F912F911F910F910F900FBE6A
:102A50000F901F901895B59A80916F0080628093B7
:102A60006F0080911403909115034C9930C0FC01C4
:102A7000E957FF4F80819181019691838083109265
:102A80001F0381E08093200380912003833009F0AD
:102A90004EC0E0911D03F0911E03808140911C0304
:102AA00029B190E0042E02C0959587950A94E2F72B
:102AB00030E054E0359527955A95E1F7822780FD5F
:102AC0001CC010921F0382E08093200330C040910D
:102AD0001603FC01E058FF4F208131E0320F3083B4
:102AE000820F911DDC014C9337FD108280E090E055
:102AF000892B29F20E940000C2CF80911F038930E8
:102B000008F043C02091160381E090E001C0880FD7
:102B10004A95EAF7908120FF36C08095892380830B
:102B20008091160390E09595879580931603809188
:102B30002003823099F480911F03811198C0E091A5
:102B40001D03F0911E03808190911C0321E030E071
:102B500001C0220F9A95EAF7822B8083809120038F
:102B6000813009F063CF80911F03882309F43BCFA4
:102B700080911F03883308F459CF1092200380916D
:102B80006F008D7F34CF892BCACF80911F0389308E
:102B900059F4208181E090E001C0880F4A95EAF75E
:102BA000809582238083C3CF809121038F5F8093A0
:102BB000210390912203891750F510921F038091F1
:102BC000180390911903A0912103A80FB92FB11DEB
:102BD0008C9180931603808121E030E001C0220FA8
:102BE0004A95EAF7822B808380918400909185003A
:102BF0008A5A9C4F90931B0380931A0380911A0367
:102C000090911B03909389008093880090CF81E07E
:102C100080931703C0911803D091190300911403F6
:102C200010911503CE010E946F0630E020E0D8011C
:102C3000A058BF4F281788F4FE01E20FF31F408110
:102C4000EC9191E09E0F9C93E00FF12FF11D4083DA
:102C500097FD1C922F5F3F4FEDCF80E090E0892BD6
:102C600011F00E94000010921F0381E02DCF80918F
:102C70001F038F3008F472CFE0911D03F0911E0303
:102C8000208130911C0381E090E001C0880F3A95CB
:102C9000EAF780958223808310921F0381E080935E
:102CA0002003E0911403F0911503E357FF4F808157
:102CB000918101969183808351CF1F920F920FB61D
:102CC0000F9211248F939F93EF93FF93B59AEFE6A2
:102CD000F0E080818F7D80838091860090918700D5
:102CE00080529E4F90931B0380931A0380911A0386
:102CF00090911B039093890080938800B19A808102
:102D00008260808384E08093200310921F0381E01F
:102D100080932802FF91EF919F918F910F900FBEAA
:102D20000F901F901895EF920F931F93CF93DF93FF
:102D3000FC0185EE80838FE0818385E082836130B2
:102D400041F589E483838BE484838FE18583168254
:102D5000508747833287218714870387E586DF0101
:102D60001796AF01425F5F4F91E08D9187FF07C0DB
:102D70002681292B2683ED0121978F778883990F50
:102D8000A417B50791F7DF91CF911F910F91EF90A5
:102D9000089563831482D9CFEF92FF920F931F930C
:102DA000CF93DF93F82E192FE62E042F81E0860FA4
:102DB000880F0E94D60183E00E94D601CF2DD12F2B
:102DC000EC0EFD2EF11CCE15DF05B9F007FF13C088
:102DD000FE0184910E94D601182F80E00E94D60146
:102DE000812321968111EFCFDF91CF911F910F9118
:102DF000FF90EF9008958881EDCF81E0F5CFCF93DC
:102E0000DF93CDB7DEB728970FB6F894DEBF0FBEBD
:102E1000CDBF1092CF031092CE0388EE93E0A0E0D6
:102E2000B0E08093D0039093D103A093D203B093EA
:102E3000D30380E192E09093CD038093CC038FEF96
:102E40009FEF9093D9038093D803E7E5F4E087E9F7
:102E500094E04FEF32E226E910824183138212821E
:102E6000348325831782168238968E179F07A1F721
:102E70000E94620660935304709354048093550437
:102E8000909356040E94620660934F04709350041E
:102E9000809351049093520480E890E00E94D720E0
:102EA000909346048093450488E790E09093240132
:102EB0008093230188E0E7E4F4E0DE0111960190BD
:102EC0000D928A95E1F78CE180933D0410923E04C7
:102ED00010923F0410924004109241041092420458
:102EE000109243041092440488E0FE013196A5E359
:102EF000B4E001900D928A95E1F78091160190E07F
:102F000021E020932B0410922C0490931F048093B3
:102F10001E0480E590E0909321048093200486E4D1
:102F200090E0909323048093220428960FB6F8949F
:102F3000DEBF0FBECDBFDF91CF910895CF93DF935A
:102F4000CDB7DEB7A9970FB6F894DEBF0FBECDBFE1
:102F5000789484B5826084BD84B5816084BD85B574
:102F6000826085BD85B5816085BD80916E00816080
:102F700080936E0010928100809181008260809326
:102F80008100809181008160809381008091800028
:102F90008160809380008091910082608093910095
:102FA0008091910081608093910080919000816078
:102FB000809390008091C10084608093C1008091D3
:102FC000C10082608093C1008091C10081608093C4
:102FD000C1008091C30081608093C3008091C000D4
:102FE00082608093C0008091C20081608093C200A3
:102FF00080917A00846080937A0080917A00826068
:1030000080937A0080917A00816080937A00809129
:103010007A00806880937A0010921303109239022C
:10302000109238028091D70081608093D70080EAA7
:103030008093D80089B5806189BD89B5826089BDDA
:1030400009B400FEFDCF61E070E080E090E00E94F6
:10305000AB058091D8008F7C80618093D8008091EF
:10306000E000807F8093E0008091E1008E7E80937D
:10307000E1008DE08093E200559A209A62E087E0BB
:103080000E94880387E00E94310321E0892B09F028
:1030900020E0209342029CEF892E91E0992E24E0BB
:1030A000A22E22E0B22E34E0C32E32E0D32E7501E0
:1030B0008401D8017D908D0161E0872D0E948803F5
:1030C00060E0872D0E945A03F70171907F0161E053
:1030D000872D0E94880360E0872D0E945A03C01646
:1030E000D10639F71092C30313E01093C403EDE641
:1030F000F1E0E491F0E0EE0FFF1FE25BFE4F8591FF
:1031000094919093C6038093C503ECE8F1E0E491B9
:10311000E093C70360E083E00E948803EAEEF2E0F8
:1031200086E1DF011D928A95E9F782E990E09093AC
:103130003F0280933E0282E590E090933D028093AF
:103140003C0280EC8093B20389E78093B303EE24C2
:10315000EA94FE2CF092C903E092C8031092CA03CD
:1031600010933B028091C70380933A0263E070E0C2
:103170008091C3030E942E018DE190E00E94F1092D
:10318000682F606C8DE190E00E94DE0B8093CB0392
:1031900064E687E090E00E94DE0B6DE088E090E05E
:1031A0000E94DE0B80E00E94E40760E273E080E0B2
:1031B00090E00E94AB0580E00E94750F0E94F90923
:1031C00080914204882309F46EC0809142028823D2
:1031D00009F443C061E081E10E94880360E081E17D
:1031E0000E945A03F092D903E092D8038CEC93E04A
:1031F00090931D0480931C0410910B016AE070E011
:1032000080E090E00E94AB051123B1F310924204DC
:10321000E3E2F3E08FE8DF011D928A95E9F761E0D0
:103220008BE00E948803E4E9F1E02491E5E7F1E016
:10323000E491F0E0EE0FFF1FE45AFE4F45915491E8
:1032400080E091E031E02917C9F18F5F932F082EBC
:1032500001C0990F0A94EAF7F6CFF092D903E092F1
:10326000D80310921D0410921C0410910B016AE007
:1032700070E080E090E00E94AB051123B1F3E3E53C
:10328000F2E08FE8DF011D928A95E9F71092E702DC
:103290001092E6021092E3021092E2021092E5020E
:1032A0001092E402B5CFF092D903E092D8038CECEF
:1032B00093E090931D0480931C04AACF50931E03A7
:1032C00040931D0380931C0383E293E090931503C6
:1032D000809314035498E0911D03F0911E03208104
:1032E00030911C0381E090E001C0880F3A95EAF725
:1032F0008095822380831092800081E080938100FA
:1033000010922003B59A80916F00806280936F00C5
:1033100080918100887F81608093810061E081E1FC
:103320000E94880360E081E10E945A0361E08EE11F
:103330000E94880360E08EE10E945A0307E514E0D2
:10334000F12CE12C512C33243A94852D0E941C0B36
:10335000F40181914F01D8018C9311963C92119701
:1033600013961C921E9212972091400230914102B6
:1033700017963C932E9316971093410200934002A8
:1033800060E00E945A0361E0F80180810E94880396
:1033900060904504709046046E0C7F1CD301129619
:1033A0006D917C91C8010E944507F50141905F0134
:1033B00061E0842D0E945A03B2E3CB2ED12C0E94EF
:1033C0001B0968E070E080E090E00E94AB05F1E04E
:1033D000CF1AD108A1F760E0842D0E945A03D301CF
:1033E0001D921C925394085F1F4FB0E1EB0EF11C2D
:1033F000E8E05E12AACF80914202811104C061E030
:1034000081E10E945A0361E08EE10E945A033E016D
:10341000FAE26F0E711CAAE08A2E912CA12CB12C1D
:10342000F0E04F2EF0E05F2E80914204882309F4F3
:10343000AFC18091E6029091E702892B79F48091E7
:10344000E4029091E502009709F470C09093E702BE
:103450008093E6021092E5021092E4028091E80265
:103460009091E9020E94080E81110CC08091E8023F
:103470009091E9020E94500C882321F01092E702FB
:103480001092E6020091E6021091E7020115110583
:1034900009F160E081E10E945A030E946206609394
:1034A0004F04709350048093510490935204C801C8
:1034B0000E946F06F82E0E94A8018F1558F04F2D1C
:1034C00050E0B8018CEC93E00E94DD051092E70219
:1034D0001092E6028091E2029091E302892B79F545
:1034E0008CEC93E00E94CB022091E2023091E30247
:1034F000892B29F1232B19F58CEC93E00E9489028A
:10350000E091D30291E09E0F9093D302F0E0ED5A48
:10351000FD4F808397FD1092D30283E592E00E94D5
:10352000F3079093E3028093E202DACF83E293E021
:103530000E94F3079093E7028093E6028FCF0091F9
:10354000E2021091E3020115110509F46BC0D801E4
:103550008C91813809F000C11092E3021092E202CE
:103560008CE0E7E4F2E011928A95E9F785EE80932A
:10357000430280E18093440280E58093450280937A
:10358000460281E0809347028091AA039091AB03A9
:103590002091AE033091AF03820F931F19821A82DC
:1035A000AC015B838C8382E08D831E828091B003AB
:1035B0009091B1039F838887CE01019651E068E422
:1035C00072E0E9E4F2E040E0DC012D91CD012F77DB
:1035D00020839D0121503109D9012C9127FF04C07E
:1035E000DB012C91252B2C93550F3196433029F478
:1035F0006DE472E0EEE4F2E051E04F5F483021F715
:10360000E3E4F2E08FEF9191892722E532E02E1773
:103610003F07C9F78093520283E492E09093E5025A
:103620008093E4020E94620600914F0410915004BE
:103630002091510430915204601B710B820B930B4B
:10364000633371058105910520F061E081E10E94FD
:103650005A030E9462060091530410915404209171
:10366000550430915604601B710B820B930B63332E
:1036700071058105910520F061E08EE10E945A03F9
:1036800080910503882329F081E00E94750F109234
:10369000050380910403811108C087E00E94310373
:1036A000892BB1F481E0809304031091030387E038
:1036B0000E943103019761F41092040381E01827FE
:1036C00010930303111108C061E08EE10E945A03B8
:1036D00080910303882341F0809102038F5F85313D
:1036E00008F0C3C1809302038091B4038823B1F032
:1036F0000E9462060091B5031091B6032091B703B2
:103700003091B803601B710B820B930B653171050F
:103710008105910518F080E00E94E4078091EC0299
:10372000882309F4D8C1F89488E0E8EFF2E0A7E430
:10373000B4E001900D928A95E1F71092EC02789432
:1037400080914704E82FF0E0E75BFB4F863008F0FC
:10375000A3C111928F5FFACFC8010E947B06039725
:1037600009F060CFC8010E94080E1092E302109287
:10377000E20260E08EE10E945A030E9462066093BA
:1037800053047093540480935504909356044ACF85
:1037900080912B04882321F010922B0410922C048A
:1037A00080911C0490911D04DC01ED91FC9100843A
:1037B000F185E02D099508970CF4DBC06E01B2E2AB
:1037C000CB0ED11CEDE2EE2EE4E0FE2E87018091BF
:1037D0001C0490911D04DC01ED91FC910284F385A1
:1037E000E02D09958053F60181936F01D8011D9258
:1037F0008D016E167F0659F79AA18AE03BA0989F2B
:10380000300C11242CA194E60DA1089F80011124F5
:10381000299F000D111D11242EA1020F111D2FA192
:10382000C8A4C89E60011124299FC00CD11C11247A
:1038300089A5C80ED11C083EB3E01B072CF4E8EEA6
:10384000CE16E3E0DE061CF081E080932C0489E0D4
:1038500080932D0498E090932E0490912C04911164
:1038600080932E0420E030E0232B29F0A601B8013C
:10387000832D0E94000031E2331508F4F2C0E32DDD
:10388000F0E0EB5BF34E0C94D120671C781C7B1CA2
:10389000311D311D311D311D311D311D311D7E1C6C
:1038A000CF1C311D311D311D311D311D311D311D0B
:1038B000311DD41CD41C311D311D311D311D311D54
:1038C000311D311D311DDC1CE91C271D2C1D84E020
:1038D00090E00E94FF008091240480933204809144
:1038E00025048093330480912604809334040AC015
:1038F0008BE090E0EECF86E190E0EBCFB601C8011F
:103900000E94730FC0901C04D0901D04D7012D910C
:103910007D0130E050E040E019A28E010F5D1F4FA5
:10392000CA01B901A50194010E947820605DF801E7
:1039300062938F01211531054105510589F73097B3
:1039400081F001900020E9F73197AF01401B510B46
:10395000D601ED91FC910280F381E02DB801C60102
:103960000995E5E3F4E0EE15FF0561F681E080934B
:103970002B0483E293E00E94F3079093E902809383
:10398000E802009709F47CCE0E94080E811178CEDF
:103990008091E8029091E9020E94500C71CEC8011A
:1039A0000E94F10990E095CF6CEE630D70E0802FDE
:1039B00090E00E94D80AA6CF80911E0490911F0427
:1039C000909328048093270410922A0410922904CB
:1039D00080CF8091290490912A04FC01EE0FFF1FF3
:1039E000E80FF91FE95EFE4F00811181083E43E0B8
:1039F000140710F007EE13E0C8010E94FF00809149
:103A0000240480932F0480912504809330048091B6
:103A1000260480933104C8010E94F10990E00E94BD
:103A2000FF008091240480933204809125048093C8
:103A3000330480912604809334048091290490916A
:103A40002A04019690932A04809329045BCF8091E5
:103A5000200490912104B4CF8091220490912304FA
:103A6000AFCF89E080932E044DCF109202038EE1F8
:103A70000E94310361E0892B09F060E08EE10E9431
:103A80005A030E9462066093530470935404809317
:103A900055049093560428CE20E030E0232B21F0EB
:103AA00087E494E00E940000809149048111D9C00C
:103AB00090914A049111D5C080E090E0892B19F0D3
:103AC00080E00E9400008091B403882309F4C5C0FF
:103AD00081E00E9480070E941B0968E070E080E09E
:103AE00090E00E94AB0580910003909101039C013E
:103AF0002F5F3F4F309301032093000304970CF492
:103B0000A4C0D12CC12CF12CE12C35E0232E009146
:103B10004504109146040C0D1D1DD8018D919C91FA
:103B2000019709F087C060E081E10E945A030E947A
:103B3000620660934F0470935004809351049093F5
:103B40005204F8018281938124813581820F931F71
:103B500093838283F701EC5FFD4F308061E0832D1A
:103B60000E945A03D80112966D917C91C70123E0FF
:103B7000880F991F2A95E1F7895A9B4F0E944507A4
:103B80000E941B0961E070E080E090E00E94AB05BC
:103B90001092010310920003F80184819581181698
:103BA0001906FCF4668177818281938186179707D5
:103BB000C4F0738362831182108280913F04882352
:103BC00041F02E9CC0012F9C900D112482960E94E2
:103BD0002C0C60E0832D0E945A0361E081E10E9479
:103BE0005A03E0914504F0914604EC0DFD1D8481DB
:103BF000958197FF1FC060857185828193816817C9
:103C00007907C4F0738362831182108280913F042C
:103C1000882341F02E9CC0012F9C900D1124829688
:103C20000E942C0C60E0832D0E945A0361E081E128
:103C30000E945A03FFEFEF1AFF0A20E1C20ED11CC7
:103C400038E0E316F10409F062CF80E090E0892BC0
:103C500009F4EACB0E940000E3CB81E00E94E40774
:103C60003ACF9091B403992309F481C080578031F1
:103C700008F07AC081E00E9480071091470480918B
:103C8000BB0318130AC0412F50E06DEB73E089E4C9
:103C900094E00E94FC21892B61F01092BA0388E025
:103CA000E7E4F4E0ABEBB3E001900D928A95E1F725
:103CB00012CF8091BA038F5F8093BA031330E1F57E
:103CC00090914904892F8770F0904A04853019F447
:103CD000F092B90300CF0DE110E0843091F0282F6D
:103CE00030E08430E0F40091B9030023C1F00150CA
:103CF000110B000F111F000F111F020F131F0F5F79
:103D00001F4F93FF0EC061E0C8010E94B1076F2DE5
:103D1000882309F4E0CEC8010E94DE0BDCCE8901C5
:103D2000EECF60E0C8010E94B107882309F4D3CE2A
:103D3000C8010E94F109CFCE143009F0CCCE809199
:103D40004904682F70E0762F66276627737090917C
:103D50004A04692B6F5F7F4F23EE37E040914B049D
:103D60008C700E94960FB7CE80E00E94E407E0912D
:103D70004904EF3F61F480914A048111ACCE80E0A8
:103D800090E0892B09F4A7CE0E940000A4CEE7FDA5
:103D90000DC000914C0420914B0440914A0470E006
:103DA00060E08E2F90E00E94041095CEE03C08F079
:103DB00046C19091B20397FF8ECE80914A04282F7E
:103DC00030E0890100951095000F111F000F111FA1
:103DD000007C1170EF730E2B35952795422F4370A1
:103DE000342E209147042530E1F48C788C30C9F4CE
:103DF0000E94300A8017910721F00F3F114009F00F
:103E00006ACE00914A0410E0102F0027002713709B
:103E100080914B04080F111D0F5F1F4FF0904C0451
:103E200072CF6801A1E0CA1AD108CC0CDD1CCC0C01
:103E3000DD1CC3287601BFEFEB1AFB0A8091CA0391
:103E40008823F9F096FF41C0C70160E071E00E944D
:103E5000BD20682F81E090E00E94DE0BC701F7FED5
:103E600002C081509F4F692F89E090E00E94DE0BD5
:103E700080E090E0892B19F0C7010E9400001092A9
:103E8000CA038091B20380FD39C080914704843019
:103E900009F04FC080914A048978813009F01BCE27
:103EA00080E090E0892B29F060914B04C7010E94CB
:103EB000000080E090E0892B09F40DCE40914B0486
:103EC000632DC7010E94000006CEB8016F737727EB
:103ED00081E090E00E94DE0BB801E6E07595679501
:103EE000EA95E1F789E090E00E94DE0B80E090E047
:103EF000892B29F2C8010E940000C1CF86FF0DC0A6
:103F00000E94300A8E159F0509F4BFCFEDEFEE1623
:103F1000E7E0FE060CF0B9CFDECD0E94300A801734
:103F2000910709F4B2CF0F3FF1E01F0709F4ADCFBD
:103F3000D2CD833039F540914A04242F2170C22E0E
:103F400043FBDD24D0F84114510431F047702D2D8E
:103F5000B801C7010E9400008091B20386FF06C02D
:103F60004D2D6C2DC7010E94410DB5CD80E090E034
:103F7000892B09F4B0CD2D2D4C2D632DC8010E9445
:103F80000000A9CD863009F0A6CD80914A04982F73
:103F90009978913021F08F78803809F09CCD80910C
:103FA000B20386FF28C00E94300A8E159F05E9F4EF
:103FB00080914B0490E0382F222722273370009104
:103FC0004C04020F132F111D0F5F1F4FF0904D0473
:103FD000959587959595879583709927823091055A
:103FE00099F0039709F48FCE76CD3DEFE31637E0D5
:103FF000F306F4F670CD0E94300A80179107C1F2E3
:104000000F3F1140A9F267CDF4FE65CD61E0C80114
:104010000E94B107882309F45ECDC8010E94F1090E
:104020009F2D977061E070E001C0660F9A95EAF7E6
:10403000F3FE02C0682B6FCE609568236CCEE83E1D
:1040400008F049CDE05CFF0B80914A0400914D04DB
:1040500020914C0440914B0461E070E09E2FA3CE70
:10406000F999FECF92BD81BDF89A992780B5089540
:10407000262FF999FECF1FBA92BD81BD20BD0FB684
:10408000F894FA9AF99A0FBE01960895052E97FBB7
:104090001EF400940E945D2057FD07D00E947820F6
:1040A00007FC03D04EF40C945D205095409530955C
:1040B00021953F4F4F4F5F4F089590958095709594
:1040C00061957F4F8F4F9F4F08950E949A20A59F23
:1040D000900DB49F900DA49F800D911D1124089503
:1040E000B7FF0C9465200E946520821B930B0895F6
:1040F000A1E21A2EAA1BBB1BFD010DC0AA1FBB1FEC
:10410000EE1FFF1FA217B307E407F50720F0A21B5D
:10411000B30BE40BF50B661F771F881F991F1A94CA
:1041200069F760957095809590959B01AC01BD01F4
:10413000CF010895A29FB001B39FC001A39F700D4E
:10414000811D1124911DB29F700D811D1124911D9F
:104150000895AA1BBB1B51E107C0AA1FBB1FA617CE
:10416000B70710F0A61BB70B881F991F5A95A9F720
:1041700080959095BC01CD01089597FB072E16F40C
:10418000009407D077FD09D00E94A92007FC05D034
:104190003EF4909581959F4F0895709561957F4F5E
:1041A0000895EE0FFF1F0590F491E02D09940F93F1
:1041B0001F93CF93DF938230910510F482E090E05B
:1041C000E0919904F0919A0430E020E0B0E0A0E0A2
:1041D000309799F42115310509F44AC0281B390B91
:1041E00024303105D8F58A819B816115710589F1EB
:1041F000FB0193838283FE0111C0408151810281C2
:10420000138148175907E0F04817590799F4109798
:1042100061F012960C93129713961C933296CF016D
:10422000DF91CF911F910F910895009399041093FE
:104230009A04F4CF2115310551F04217530738F095
:10424000A901DB019A01BD01DF01F801C1CFEF0136
:10425000F9CF90939A0480939904CDCFFE01E20F99
:10426000F31F819391932250310939832883D7CF4B
:104270002091970430919804232B41F42091F1016F
:104280003091F20130939804209397042091EF012C
:104290003091F0012115310541F42DB73EB7409121
:1042A000F3015091F401241B350BE0919704F09138
:1042B0009804E217F307A0F42E1B3F0B28173907C9
:1042C00078F0AC014E5F5F4F2417350748F04E0F72
:1042D0005F1F5093980440939704819391939FCFCD
:1042E000F0E0E0E09CCFCF93DF930097E9F0FC0192
:1042F000329713821282A0919904B0919A04ED0131
:1043000030E020E01097A1F420813181820F931FCB
:1043100020919704309198042817390709F061C05B
:10432000F0939804E0939704DF91CF910895EA0108
:10433000CE17DF07E8F54A815B819E0141155105E3
:10434000B1F7E901FB83EA8349915991C40FD51F65
:10435000EC17FD0761F4808191810296840F951F0F
:10436000E90199838883828193819B838A83F0E02A
:10437000E0E012968D919C9113970097B9F52D91DD
:104380003C911197CD010296820F931F20919704C3
:10439000309198042817390739F6309751F5109263
:1043A0009A0410929904B0939804A0939704BCCFF8
:1043B000D383C28340815181840F951FC817D907C9
:1043C00061F44E5F5F4F88819981480F591F518377
:1043D00040838A819B81938382832115310509F073
:1043E000B0CFF0939A04E09399049ECFFD01DC01D5
:1043F000C0CF13821282D7CFFB01DC0104C08D91A4
:104400000190801921F441505040C8F7881B990B46
:1044100008956817790768F4FB01DC01E40FF51FC4
:10442000A40FB51F02C002900E9241505040D8F721
:1044300008950C941B22FB01DC0102C001900D9237
:0C44400041505040D8F70895F894FFCF89
:10444C00FFFFFFFF00E10000000000006E066E069B
:10445C006E066E066E064801000109000011000090
:10446C001200000000007900637A00001C00021E9C
:10447C0000001F000520003C21007822003C230096
:10448C000024000525003C26007827003C2800006D
:10449C002900052A003C2B00782C003C2D00002E16
:1044AC0000052F003C30007831003C320000330016
:1044BC000534003C35007836003C370000380005E8
:1044CC0039003C3A00783B003C3C00003D00053E86
:1044DC00003C3F007840003C410000420005430096
:1044EC003C44007845003C46000047000048000072
:1044FC004900004A00004B00004C00004D000050E9
:10450C0000015100005200025300005400035500FA
:10451C00005600045700005800055900005A0006C8
:10452C005B00005C00075D00005E00085F0000009F
:10453C00009B04800000C180810000000A0908066D
:10454C000C0100021716151413120D0500000000C3
:0E455C006802DD05CE017E02CB028902A702B5
:00000001FF
