:100000000C945D000C942A090C9403090C9485004F
:100010000C9485000C9485000C9485000C9485004C
:100020000C9485000C9485000C9485000C94510967
:100030000C9485000C9485000C9485000C9485002C
:100040000C94B9080C9485000C9487080C946108F2
:100050000C9485000C9485000C9485000C9485000C
:100060000C9485000C9485000000000024002700FB
:100070002A0000000000250028002B0004040404CE
:100080000404040402020202020203030303030342
:10009000010204081020408001020408102001021F
:1000A00004081020000000080002010000030407FB
:1000B00000000000000000000D0A11241FBECFEF59
:1000C000D8E0DEBFCDBF11E0A0E0B1E0E0EBF6E2AA
:1000D00002C005900D92AE35B107D9F722E0AEE52A
:1000E000B1E001C01D92A839B207E1F710E0CDE5FB
:1000F000D0E004C02197FE010E941E12CC35D1072A
:10010000C9F70E94B30A0C9456130C9400009C018A
:10011000109268021092690284369105B0F064E68C
:1001200070E00E94F6116093680280916802A90154
:1001300064E6869F401951091124CA016AE070E003
:100140000E94F6116093690202C00A9770F78091CD
:10015000680294E6899F20191124809169024AE07F
:10016000849F2019112420936A020895CF92DF9270
:10017000EF92FF92DC01A03282E0B807D4F5A53BF4
:10018000B10514F0A4EBB0E04091920228E830E011
:10019000241B310947FD3395220F331F220F331FD4
:1001A0006901330FEE08FF084091930228E532E021
:1001B000241B310947FD3395220F331F220F331FB4
:1001C000032E000C440B550B2C193D094E095F09F9
:1001D000B7FF02C0B0E0A0E00E94B11124EB30E014
:1001E00040E050E00E948711C20ED31EE41EF51EAF
:1001F000D601E0919102EC3080F52091920288E8DE
:1002000090E0821B910927FD9395880F991F880F15
:10021000991FA817B90784F02091930288E592E00E
:10022000821B910927FD9395880F991F880F991FAD
:10023000A817B9070CF4CD010297880F991F4FB783
:10024000F8942E2F30E0F901EE0FFF1FE20FF31F9D
:10025000E15CFD4F928381834FBFFF90EF90DF9071
:10026000CF9008958230F8F4E82FF0E0EE0FFF1FF2
:10027000EF5FFE4F2BEC33E031832083813041F080
:10028000809169008C7F682B60936900E89A0895DB
:1002900080916900837F660F771F660F771F682B39
:1002A00060936900E99A08958CE1809305010895AF
:1002B000AF92BF92CF92DF92EF92FF920F931F9374
:1002C000CF93DF936C017B018B01040F151FEB01B2
:1002D0005E01AE18BF08C017D10759F06991D60169
:1002E000ED91FC910190F081E02DC6010995892BDB
:1002F00079F7C501DF91CF911F910F91FF90EF909A
:10030000DF90CF90BF90AF900895FC01538D448D46
:10031000252F30E0842F90E0821B930B541710F0B0
:10032000CF96089501970895FC01918D828D9817BD
:1003300061F0A28DAE0FBF2FB11D5D968C91928D95
:100340009F5F9F73928F90E008958FEF9FEF0895C6
:10035000FC01918D828D981731F0828DE80FF11D8F
:10036000858D90E008958FEF9FEF0895FC01918DAA
:10037000228D892F90E0805C9F4F821B91098F73A3
:100380009927089582EA91E00E94B60121E0892B25
:1003900009F420E0822F089580E090E0892B29F075
:1003A0000E94C20181110C9400000895FC01A48DEB
:1003B000A80FB92FB11DA35ABF4F2C91848D90E087
:1003C00001968F739927848FA689B7892C93A0896A
:1003D000B1898C91837080648C93938D848D9813F4
:1003E00006C00288F389E02D80818F7D8083089587
:1003F000EF92FF920F931F93CF93DF93EC0181E075
:10040000888F9B8D8C8D98131AC0E889F98980811B
:1004100085FF15C09FB7F894EE89FF896083E8894E
:10042000F98980818370806480839FBF81E090E040
:10043000DF91CF911F910F91FF90EF900895F62ECD
:100440000B8D10E00F5F1F4F0F731127E02E8C8D67
:100450008E110CC00FB607FCFACFE889F9898081AC
:1004600085FFF5CFCE010E94D601F1CFEB8DEC0FC9
:10047000FD2FF11DE35AFF4FF0829FB7F8940B8FC9
:10048000EA89FB8980818062CFCFCF93DF93EC0133
:10049000888D8823B9F0AA89BB89E889F9898C916C
:1004A00085FD03C0808186FD0DC00FB607FCF7CF28
:1004B0008C9185FFF2CF808185FFEDCFCE010E9428
:1004C000D601E9CFDF91CF91089590E0FC01EC5582
:1004D000FF4F2491FC01E057FF4F3491FC01E45899
:1004E000FF4FE491EE23C9F0222339F0233001F1CC
:1004F000A8F4213019F1223029F1F0E0EE0FFF1FAE
:10050000EE58FF4FA591B4918FB7F894EC9161111B
:1005100026C030953E233C938FBF08952730A9F025
:100520002830C9F0243049F7809180008F7D03C0C6
:10053000809180008F7780938000DFCF84B58F77A4
:1005400084BDDBCF84B58F7DFBCF8091B0008F77EA
:100550008093B000D2CF8091B0008F7DF9CF3E2B39
:10056000DACFCF93DF9390E0FC01E057FF4F249167
:1005700084589F4FFC0184918823D1F090E0880F2C
:10058000991FFC01E859FF4FA591B491FC01EE5869
:10059000FF4FC591D49161110EC09FB7F8948C9113
:1005A000E22FE0958E238C932881E223E8839FBF7E
:1005B000DF91CF9108958FB7F894EC91E22BEC93F3
:1005C0008FBFF6CF3FB7F894809165019091660197
:1005D000A0916701B091680126B5A89B05C02F3F87
:1005E00019F00196A11DB11D3FBFBA2FA92F982F59
:1005F0008827BC01CD01620F711D811D911D42E054
:10060000660F771F881F991F4A95D1F708958F921B
:100610009F92AF92BF92CF92DF92EF92FF924B01E7
:100620005C010E94E2026B017C010E94E2026C19F3
:100630007D098E099F09683E734081059105A8F3E5
:1006400021E0821A9108A108B10888EEC80E83E063
:10065000D81EE11CF11C81149104A104B10429F7F6
:10066000FF90EF90DF90CF90BF90AF909F908F90D2
:10067000089561E084E00E94650261E08AE00E94E2
:10068000650266E070E080E090E00E94070360E0B1
:1006900084E00E94650260E08AE00C94650208959F
:1006A000892B79F41092800082E08093810010926F
:1006B000850010928400B19A80916F0082608093CF
:1006C0006F000895CF93C82F80E090E0892B51F000
:1006D00080918B018C1731F081E0C11101C080E065
:1006E0000E940000C0938B01CC2331F12FB7F89406
:1006F00080916E0190916F01A0917001B091710194
:100700002FBF482F392F2A2F8B2F40938C013093E6
:100710008D0120938E0180938F0180E090E0892BE2
:1007200081F080918B018C1761F081E0C11101C0D3
:1007300080E0CF910C94000040E030E020E080E0C9
:10074000E4CFCF9108958830910561F46623E9F0F4
:100750002CE12093050120E030E041E0232B81F0E3
:100760000C94000020E030E0232BD1F741E081150C
:1007700024E0920708F040E0611102C0842F089540
:1007800007970297D8F740E0F9CF20E030E0232B1D
:1007900039F741E0F3CF80916201882331F08091F5
:1007A000A1018F5F8093A10108950E94E202209130
:1007B000600130916101FB01E21BF30B20916901A3
:1007C00030916A01E217F30718F120916B01309123
:1007D0006C01709361016093600161E0609362015C
:1007E00078944091A0014F5F4093A0014091720125
:1007F000509173014130510591F158F0423051054B
:1008000009F4B5C04330510509F4EBC01092620100
:100810000895E217F30708F0CEC0809175018F5F4D
:10082000809375018B3090F381E090E09093730199
:100830008093720161E070E080919A010E94320120
:1008400010925F0182E590E090936C0180936B01C0
:1008500083E290E090936A0180936901D7CF409141
:100860005F014130B9F050F0433009F44AC04430E0
:1008700069F6E217F30708F04EC027C0E217F30746
:1008800028F460935F01E0935E01C0CF84E0809321
:100890005F01BCCFE217F30790F510925F019091D2
:1008A00075019F5F909375018E2FEE0F990B20912C
:1008B0005E01821B910927FD939597FF03C09195D7
:1008C0008195910943970CF4A1CF10927301109276
:1008D000720182E990E090936C0180936B0182E554
:1008E00090E090936A018093690110927501609184
:1008F0006D0170E080919A010E94320187CF83E000
:10090000C6CFE217F30708F380916D01833061F5DC
:1009100082E080936D0182E090E090937301809378
:10092000720182E990E090936C0180936B0182E503
:1009300090E090936A018093690110927701109280
:10094000790110927A0110927B0110927C01109231
:100950007D0110927E018091750180937801109243
:10096000750110927601C3CF40936D01D4CF5091A1
:1009700075015F5F5093750140917601440FE21756
:10098000F307E0F040937601583009F03FCFE09153
:100990007701E630A9F4109273011092720182E996
:1009A00090E090936C0180936B0182E590E09093CE
:1009B0006A01809369011092750128CF4160E2CFEE
:1009C00083E090E0909373018093720181E08E0F39
:1009D00080937701F0E0EE58FE4F80917601878397
:1009E00015CF409175014F5F40937501E217F307F2
:1009F000E0F4109273011092720182E990E09093FA
:100A00006C0180936B0182E590E090936A01809382
:100A1000690188E0E7E7F1E0AFE7B1E001900D920E
:100A20008A95E1F760937401F1CE80917701863069
:100A300009F4B1CF82E090E090937301809372014A
:100A40001092750110927601E1CE0E946203E9E8EE
:100A5000F1E081E087831086E2E9F1E088E0DF01E0
:100A60001D928A95E9F7089520E030E0232B11F0DC
:100A70000C9400000C9471118091810290E00E940E
:100A8000340580FF03C091E09093820281FF03C090
:100A900091E09093830282FF03C091E090938402DF
:100AA00083FF03C091E09093850284FF03C081E03F
:100AB000809386020895CF93DF9320919C0130911B
:100AC0009D012F3F320721F0C901DF91CF91089599
:100AD0008DE190E00E94340587FF2BC086FF0FC098
:100AE00089E090E00E943405C82F81E090E00E94E8
:100AF00034059C2F90939D0180939C0115C089E043
:100B000090E00E943405C82F81E090E00E943405F7
:100B100090E4C99F90011124207C31708F73282BA1
:100B200030939D0120939C0180919C0190919D01A7
:100B3000CCCF85FF0CC081E190E00E943405C82F26
:100B400082E190E00E943405C05CDD0BD2CF81E0F1
:100B500090E00E94340590E0CDCF0F931F93CF9388
:100B6000DF932CE0289FE001299FD00D1124E09114
:100B70008702F0918802EC0FFD1F21E030E0338303
:100B8000228325E0289F8001299F100D1124C80190
:100B90004F962091820226171706F9F00E9434051D
:100BA000E0918702F0918802EC0FFD1F082E000CE7
:100BB000990B97838683C80181960E943405209102
:100BC000870230918802C20FD31F90E099878887EF
:100BD000DF91CF911F910F9108950E943405E0910C
:100BE0008702F0918802EC0FFD1F992781950CF484
:100BF000909597838683C8018096DFCF1F93CF930C
:100C0000DF93EC01142F0E945B05C817D90790F001
:100C10009C012C5F3F4FC217D30760F4612F6170B6
:100C200070E09E01281B390BC901DF91CF911F9104
:100C30000C94AD05DF91CF911F9108950F931F93F1
:100C4000CF93DF93C82F85E0C89F80011124C8018E
:100C500082960E9434059CE0C99FE0011124E09136
:100C60008702F0918802EC0FFD1F90E0958384834A
:100C7000C80181960E943405E0918702F0918802B4
:100C8000EC0FFD1F90E091878087C80180960E943D
:100C90003405E0918702F0918802EC0FFD1F90E08F
:100CA00093878287C8014E960E943405E09187029F
:100CB000F0918802EC0FFD1F082E000C990B918318
:100CC0008083C8014F960E9434052091870230919D
:100CD0008802C20FD31F992781950CF490959F83AA
:100CE0008E83DF91CF911F910F91089561E08AE08B
:100CF0000E94650264E170E080E090E00E940703DA
:100D000060E08AE00E9465020E943C0580E00E944B
:100D10001E0681E00E941E0682E00E941E0683E0FD
:100D20000C941E061F93CF93DF9383319105C0F47B
:100D30008131910530F48130910519F089309105A8
:100D400031F42FEF3FEF30939D0120939C0120E081
:100D500030E0232B89F0DF91CF911F910C9400009C
:100D60008D319105A1F7209189012F73362F307CA9
:100D7000232B20938901E5CF162FEC010E947111DE
:100D80001817A1F0612FCE010E947911612FCE01B9
:100D90000E94760680E090E0892B41F080918901E5
:100DA00084FD04C0612FCE010E940000CE01DF91BE
:100DB000CF911F910C947111CF93DF93C9E8D1E0CB
:100DC0002881206128830E94920698819F7E9883C3
:100DD000DF91CF9108950C94DC06DF92EF92FF92A1
:100DE0000F931F93CF93DF938B01D42E82FF21C0EB
:100DF00083FF15C061E0C8010E94A3038823C9F1E5
:100E00006D2DC8010E9492068D1133C0DF91CF91E4
:100E10001F910F91FF90EF90DF900C94390360E0E9
:100E2000C8010E94A303882321F1C8010E94340550
:100E3000EBCF842F8770C1E0D0E07E0101C0EE0CC3
:100E40008A95EAF7D42FD870CB010E943405C82FB9
:100E5000D4FE1AC061E0C8010E94A303882349F0B0
:100E6000DD2379F0CE296C2FC8010E9492068C17E1
:100E700069F2DF91CF911F910F91FF90EF90DF907A
:100E80000895E094CE21EFCF60E0C8010E94A30353
:100E9000882379F3CE21DD2319F0C111B7CFE9CF33
:100EA000CC2309F4B3CFE5CFCF92DF92EF92FF923C
:100EB0000F931F93CF93DF937C016B01C42F122FED
:100EC000D42FD07E8091890187FF2AC0D03EB1F512
:100ED00080918A01882391F190E00E943405D82FF7
:100EE00080918A0190E001960E943405982F8D2F01
:100EF000E816F90619F56C2F70E0762F662766273D
:100F00007370612B6F5F7F4F402F8C2FDF91CF91DC
:100F10001F910F91FF90EF90DF90CF900C94ED0612
:100F200080FD36C0D03609F46EC088F4D03209F4A2
:100F30004CC0D03409F467C0DD2399F1DF91CF9123
:100F40001F910F91FF90EF90DF90CF900895D03ACE
:100F500009F491C0B0F4D03889F780E090E02C2FEC
:100F60002F7141E050E0892B49F3B601C701DF91B1
:100F7000CF911F910F91FF90EF90DF90CF900C9445
:100F80000000D03C09F485C0D03E09F4B4CFD6CFE0
:100F90000E945B058E159F0529F2E114F10411F200
:100FA000CDCF8C2F8E7051F680E090E0892B31F2FE
:100FB000C0FFC4CF81E0DF91CF911F910F91FF90CF
:100FC000EF90DF90CF900C940000CF71CF3109F0FB
:100FD000B5CF80E090E0892B09F4B0CF412F4F7757
:100FE00071F0413071F0111F1127111F212F30E0D6
:100FF0000FE710E0B601C7010E9400009FCF41E05B
:10100000F2CF40E0F0CF80E090E0892BC1F02C2FB0
:1010100030E08C2F8F71813029F030F0803121F059
:101020008131F9F440E001C041E025FB222720F99D
:101030000DE110E030E0B601C7010E94000080E041
:1010400090E0892B09F47ACF4C2FB601C701DF91CC
:10105000CF911F910F91FF90EF90DF90CF900C9464
:101060000000C901880F991F8E71C4FB442740F905
:10107000482B4250DACF80E090E0892B09F45ECF14
:101080002C2F2F7043E050E0C4FF6FCF42E050E0C0
:101090006CCFCF71CE3161F0CF3109F04FCF80E00E
:1010A00090E0212F45E050E0892B09F05ECF46CF3C
:1010B00080E090E0212F44E050E0892B09F055CFEB
:1010C0003DCF1F920F920FB60F9211242F933F9393
:1010D0004F935F936F937F938F939F93AF93BF9340
:1010E000EF93FF9382EA91E00E94D601FF91EF9186
:1010F000BF91AF919F918F917F916F915F914F9130
:101100003F912F910F900FBE0F901F9018951F9237
:101110000F920FB60F9211242F938F939F93EF93FB
:10112000FF93E091B201F091B3018081E091B801A9
:10113000F091B90182FD1BC090818091BB018F5F4E
:101140008F732091BC01821741F0E091BB01F0E068
:10115000EE55FE4F958F8093BB01FF91EF919F91CC
:101160008F912F910F900FBE0F901F901895808137
:10117000F4CF1F920F920FB60F9211242F933F932B
:101180008F939F93AF93BF9380916E0190916F0166
:10119000A0917001B09171013091640123E0230F9F
:1011A0002D3758F50196A11DB11D20936401809340
:1011B0006E0190936F01A0937001B09371018091C3
:1011C000650190916601A0916701B0916801019657
:1011D000A11DB11D8093650190936601A0936701E5
:1011E000B0936801BF91AF919F918F913F912F91E3
:1011F0000F900FBE0F901F90189526E8230F0296B0
:10120000A11DB11DD2CF1F920F920FB60F921124C4
:101210002F933F934F935F936F937F938F939F93FE
:10122000AF93BF93EF93FF93E0910301F09104011B
:101230000995FF91EF91BF91AF919F918F917F9110
:101240006F915F914F913F912F910F900FBE0F9033
:101250001F9018951F920F920FB60F9211242F9383
:101260003F934F935F936F937F938F939F93AF932E
:10127000BF93EF93FF93E0910101F0910201099573
:10128000FF91EF91BF91AF919F918F917F916F915E
:101290005F914F913F912F910F900FBE0F901F9034
:1012A00018951F920F920FB60F9211242F933F9310
:1012B0004F935F936F937F938F939F93AF93BF935E
:1012C000CF93DF93EF93FF9380916301C09163020B
:1012D000D0E087FF24C01092850010928400809196
:1012E00063018F5F8093630180916301082E000C7E
:1012F000990B8C179D0724F4809163018C30C4F105
:101300008091840090918500049680349C4908F473
:101310007AC08091840090918500049676C0809177
:101320006301082E000C990B8C179D07C4F6E09101
:1013300063018E2FEE0F990BFC01EE0FFF1FE80FDC
:10134000F91FE15CFD4F808186FFC9CFE091630109
:101350008E2FEE0F990BFC01EE0FFF1FE80FF91F08
:10136000E15CFD4F808160E08F730E946502B7CF22
:101370002091840030918500E09163018E2FEE0F63
:10138000990BFC01EE0FFF1FE80FF91FE15CFD4F09
:1013900081819281820F931F9093890080938800AE
:1013A000E09163018E2FEE0F990BFC01EE0FFF1FF2
:1013B000E80FF91FE15CFD4F808186FF11C0E091CD
:1013C00063018E2FEE0F990BFC01EE0FFF1FE80F4C
:1013D000F91FE15CFD4F808161E08F730E9465021F
:1013E000FF91EF91DF91CF91BF91AF919F918F913D
:1013F0007F916F915F914F913F912F910F900FBE11
:101400000F901F90189580E49CE990938900809339
:1014100088008FEF80936301E3CFCF93DF93CDB745
:10142000DEB728970FB6F894DEBF0FBECDBF10927F
:10143000A5011092A40188EE93E0A0E0B0E08093B3
:10144000A6019093A701A093A801B093A90180E5FC
:1014500091E09093A3018093A20185EC90E090939A
:10146000AF018093AE0184EC90E09093B101809342
:10147000B00180EC90E09093B3018093B20181ECD5
:1014800090E09093B5018093B40182EC90E090934A
:10149000B7018093B60186EC90E09093B9018093F8
:1014A000B8011092BB011092BC011092BD011092C4
:1014B000BE01809163028C3008F051C091E0980F1A
:1014C000909363028093910290E0FC01EE0FFF1F66
:1014D000E80FF91FE15CFD4F88EB9BE0928381836D
:1014E00080E390E00E942412909388028093870208
:1014F00088E780930E0188E0E9E8F2E0DE011196CA
:1015000001900D928A95E1F78CE18093810210920F
:10151000820210928302109284021092850210922D
:10152000860288E0FE013196A9E7B2E001900D92B3
:101530008A95E1F78091050190E021E020936F0208
:1015400010927002909367028093660228960FB6FD
:10155000F894DEBF0FBECDBFDF91CF9108958FEF1E
:1015600080939102BDCFCF93DF93CDB7DEB7A9971C
:101570000FB6F894DEBF0FBECDBF789484B58260FD
:1015800084BD84B5816084BD85B5826085BD85B527
:10159000816085BD80916E00816080936E001092A5
:1015A0008100809181008260809381008091810020
:1015B00081608093810080918000816080938000B1
:1015C0008091B10084608093B1008091B00081600F
:1015D0008093B00080917A00846080937A0080913B
:1015E0007A00826080937A0080917A008160809393
:1015F0007A0080917A00806880937A001092C1000E
:10160000E091B201F091B30182E08083E091AE01FC
:10161000F091AF011082E091B001F091B1018FEC37
:1016200080831092BA01E091B601F091B70186E093
:101630008083E091B401F091B50180818061808365
:10164000E091B401F091B501808188608083E091E0
:10165000B401F091B501808180688083E091B4018C
:10166000F091B50180818F7D808382EA91E0909333
:1016700065028093640228E4C22E21E0D22E34E475
:10168000E32E31E0F32E4CE4842E41E0942E5701FA
:101690008601D8017D908D0161E0872D0E94B10205
:1016A00060E0872D0E946502F50171905F0161E0A5
:1016B000872D0E94B10260E0872D0E94650280168E
:1016C000910639F761E08AE00E94B10261E08AE0A8
:1016D0000E94650261E084E00E94B10260E084E063
:1016E0000E94650210929A0182E080939B0160E063
:1016F0000E94B102E2E7F1E085E1DF011D928A95E7
:10170000E9F783E080936D0182E990E090936C01AA
:1017100080936B0182E590E090936A018093690168
:1017200063E070E080919A010E94320180EC809326
:10173000890189E780938A018FEF9FEF90939D0144
:1017400080939C0110929E018DE190E00E943405EF
:10175000682F606C8DE190E00E94920664E687E05D
:1017600090E00E9492066DE088E090E00E94920670
:1017700080E00E94250568EE73E080E090E00E9422
:10178000070388E790E00E943405883791F406E06B
:1017900011E09EE3A92E91E0B92EA016B10679F0D2
:1017A000F8018081618190E00E94DC060E5F1F4F8E
:1017B000F4CF81E090E00E9434058F3F41F30E9416
:1017C0003C0510E000E0912C8CE0882E892D0E94D1
:1017D0001E06809191028C3008F044C061E08BE0DD
:1017E0000E94B10280919102282F30E0F901EE0FA2
:1017F000FF1FE20FF31FE15CFD4F9081907C9B6027
:1018000090831092920210929302682D0E94EA1126
:10181000682F70E0889DA001112430E020E0CA010B
:10182000820F931FFC01EE0FFF1FE80FF91FE15C11
:10183000FD4F808186FD08C02F5F3F4F2C30310562
:1018400071F7CB010E945003E09191028E2F90E03E
:10185000FC01EE0FFF1FE80FF91FE15CFD4F8081D7
:1018600080648083D6016D906D0161E0862D0E94B9
:101870006502A0908702B0908802A00EB11EF5010B
:10188000848195810E94B600D5011A962D913C91D4
:101890001B978D919C91821793072CF461E0F701BF
:1018A00080810E94650232E3732E67E070E080E081
:1018B00090E00E9407037A947110F7CF60E0862DC4
:1018C0000E946502D50113961C921E921297E09118
:1018D00091028E2F90E0FC01EE0FFF1FE80FF91F21
:1018E000E15CFD4F80818F7B80839394BFEFEB1A87
:1018F000FB0A045F1F4FE4E09E1268CF60E08AE0BD
:101900000E9465023E01FAE26F0E711C0AE0802E11
:10191000912CA12CB12C10E0412E10E0512E809181
:101920006F02882321F010926F0210927002809152
:10193000640290916502DC01ED91FC910084F185D7
:10194000E02D099508970CF410C16E01B2E2CB0EA0
:10195000D11CB1E7EB2EB2E0FB2E8701809164022F
:1019600090916502DC01ED91FC910284F385E02DFC
:1019700009958053F60181936F01D8011D928D0165
:101980006E167F0659F79AA18AE03BA0989F300C0B
:1019900011242CA194E60DA1089F80011124299FF8
:1019A000000D111D11242EA1020F111D2FA1C8A47D
:1019B000C89E60011124299FC00CD11C112489A547
:1019C000C80ED11C083EB3E01B072CF4E8EECE167F
:1019D000E3E0DE061CF081E08093700289E08093F2
:1019E000710298E09093720290917002911180932D
:1019F000720280E090E0892B29F0A601B801832DC6
:101A00000E9400009BE0391609F4EFC0931598F08E
:101A1000A1E03A1609F468C03A1608F454C0B2E0DE
:101A20003B1609F464C0EAE03E1609F463C089E09D
:101A30008093720263C0FEE13F1609F4DBC0F31528
:101A400050F06CEE630D623090F770E0802F90E004
:101A50000E94AD0553C04FE13412E9CFE0916D0211
:101A6000F0916E02EE0FFF1FEA5FFE4F008110E063
:101A7000C8010E9487008091680280937302809160
:101A800069028093740280916A0280937502C80192
:101A90000E94340590E00E94870080916802809344
:101AA0007602809169028093770280916A02809326
:101AB000780280916D0290916E02019690936E0271
:101AC00080936D021BC081E090E00E9487008091AE
:101AD00068028093760280916902809377028091F8
:101AE0006A02809378020AC084E190E0EECF8FE131
:101AF00090E0EBCFB601C8010E94EB06C0906402F3
:101B0000D0906502D7012D917D0130E050E040E09A
:101B100019A28E010F5D1F4FCA01B901A5019401E1
:101B20000E94B911605DF80162938F0121153105A2
:101B30004105510589F7309781F001900020E9F7C0
:101B40003197AF01401B510BD601ED91FC91028002
:101B5000F381E02DB801C6010995E9E7F2E0EE1541
:101B6000FF0561F681E080936F0280918B018823ED
:101B7000F1F02FB7F89480916E0190916F01A091D0
:101B80007001B09171012FBF40918C0150918D0176
:101B900060918E0170918F01841B950BA60BB70B82
:101BA0004597A105B10518F080E00E9425058091B8
:101BB0007401882309F44CC0F89488E0EFE7F1E061
:101BC000A9E8B2E001900D928A95E1F710927401B4
:101BD000789430917F01E1E8F1E090E080E03917FE
:101BE000B1F0219182279F5FFACFC8010E9434058E
:101BF00090E06BCF809166029091670290936C02A7
:101C000080936B0210926E0210926D025ECF811172
:101C10001FC080E090E0892B21F089E892E00E94CB
:101C2000000080918B0281114AC190918C02911128
:101C300046C180E090E0892B19F080E00E9400000E
:101C400080918B01882309F436C181E00E946203F0
:101C500068E070E080E090E00E940703809100015E
:101C600020918702309188028901F12CE12C3E2CD1
:101C7000B4E0EB16F10409F411C16801C21AD30AE9
:101C8000F801428153814130510509F024C3E8161F
:101C900009F41FC387FF1FC3809191028C3008F0A5
:101CA00043C061E08BE00E94B10280919102282F35
:101CB00030E0F901EE0FFF1FE20FF31FE15CFD4F73
:101CC0009081907C9B60908310929202109293027C
:101CD0002CE0622F0E94EA11829FB001112430E0B3
:101CE00020E0AB01420F531FFA01EE0FFF1FE40F7C
:101CF000F51FE15CFD4F908196FD08C02F5F3F4FBF
:101D00002C30310571F790E00E945003E091910270
:101D10008E2F90E0FC01EE0FFF1FE80FF91FE15C32
:101D2000FD4F8081806480833092000161E08AE011
:101D30000E946502F701E85BFE4F308061E0832D71
:101D40000E94650261E070E080E090E00E9407037D
:101D500080918701909188019C012F5F3F4F3093C4
:101D600088012093870104970CF498C0F701EC5B7D
:101D7000FE4F8081D80114964D915C9115972D915D
:101D80003C9161E0241735070CF060E00E94650289
:101D9000F8012681378184819581820F931F958375
:101DA0008483121613067CF56085718568177907A0
:101DB00054F575836483138212828FEF8093000140
:101DC00080918302882349F025E02E9DC0012F9D3C
:101DD000900D112482960E94DC0660E08AE00E9449
:101DE000650260E0832D0E946502E09191028E2FD2
:101DF00090E0FC01EE0FFF1FE80FF91FE15CFD4FC3
:101E000080818F7B8083E0918702F0918802EC0DC6
:101E1000FD1D8681978197FF31C06285738584811E
:101E200095818617970754F5758364831382128210
:101E30008FEF8093000180918302882349F025E091
:101E40002E9DC0012F9D900D112482960E94DC06CC
:101E500060E08AE00E94650260E0832D0E946502D6
:101E6000E09191028E2F90E0FC01EE0FFF1FE80F32
:101E7000F91FE15CFD4F80818F7B80838091870219
:101E800090918802C80ED91ED60114968D919C910E
:101E90000E94B600109288011092870180E090E0C5
:101EA000892B09F43CCD0E94C201882309F433CD6B
:101EB0000E94000030CD81E00E942505C9CE90919E
:101EC0008B01992309F480C08057803108F079C0D4
:101ED00081E00E94620348E050E062E971E089E835
:101EE00092E00E944913892B61F01092910188E0E1
:101EF000E9E8F2E0A2E9B1E001900D928A95E1F7FC
:101F0000A7CE809191018F5F80939101809189028A
:101F1000833009F040C090918B02892F8770F09038
:101F20008C02853029F4F09290010E94390390CE02
:101F30000DE110E0843091F0282F30E08430F0F48F
:101F4000009190010023D1F00150110B000F111FDF
:101F5000000F111F020F131F0F5F1F4F93FF10C0C1
:101F600061E0C8010E94A303882309F471CE6F2D9C
:101F7000C8010E949206F8126BCED7CF8901ECCF30
:101F800060E0C8010E94A303882309F461CEC80160
:101F90000E943405F0CF843009F05ACE80918B0234
:101FA000682F70E0762F66276627737090918C02F9
:101FB000692B6F5F7F4F40918D028C700E94ED0600
:101FC00047CE80E00E942505E0918B02EF3F59F457
:101FD00080918C0281113CCE4114510409F438CE19
:101FE0000E94000035CEE7FD0DC000918E022091C9
:101FF0008D0240918C0270E060E08E2F90E00E9494
:10200000540726CEE03C08F053C19091890197FF18
:102010001FCE80918C02282F30E089010095109509
:10202000000F111F000F111F007C1170EF730E2B9A
:1020300035952795A22FA3703A2E2091890225303D
:1020400039F58C788C3021F50E945B05801791075B
:1020500021F00F3F114009F0FBCD00918C0210E000
:10206000102F00270027137080918D02080F111D7B
:102070000F5F1F4FF0908E0261E0C8010E94A30322
:102080006F2D882309F4E4CDC8010E949206E0CDAB
:102090006801E1E0CE1AD108CC0CDD1CCC0CDD1CB3
:1020A000C3287601FFEFEF1AFF0A80919E01882373
:1020B000F9F096FF41C0C70160E071E00E940A128A
:1020C000682F81E090E00E949206C701F7FE02C0EF
:1020D00081509F4F692F89E090E00E94920680E036
:1020E00090E0892B19F0C7010E94000010929E0118
:1020F0008091890180FD39C080918902843009F086
:102100004FC080918C028978813009F0A1CD80E0A8
:1021100090E0892B29F060918D02C7010E94000098
:10212000A0E0B0E0AB2B09F493CD40918D02632D7C
:10213000C7010E9400008CCDB8016F73772781E042
:1021400090E00E949206B80136E0759567953A9541
:10215000E1F789E090E00E949206A0E0B0E0AB2BAE
:1021600029F2C8010E940000C1CF86FF0DC00E9465
:102170005B058E159F0509F4BFCFBDEFEB16B7E0E9
:10218000FB060CF0B9CF64CD0E945B058017910768
:1021900009F4B2CF0F3FE1E01E0709F4ADCF58CDEF
:1021A000833049F540918C02B42FB170CB2E43FBA4
:1021B000DD24D0F847702D2DB801C7010E94FE051F
:1021C0008091890186FF0BC0E0E0F0E0EF2B09F47D
:1021D0003FCD4D2D6C2DC7010E94000039CD80E010
:1021E00090E0892B09F434CD2D2D4C2D632DC801A1
:1021F0000E9400002DCD863009F02ACD80918C02FE
:10220000982F9978913021F08F78803809F020CD7F
:102210008091890186FF28C00E945B058E159F056D
:10222000E9F480918D0290E0382F22272227337025
:1022300000918E02020F132F111D0F5F1F4FF090A0
:102240008F0295958795959587958370992782300C
:10225000910599F0039709F40FCFFACC9DEFE91699
:1022600097E0F906F4F6F4CC0E945B05801791071D
:10227000C1F20F3F1140A9F2EBCCF4FEE9CC61E0D2
:10228000C8010E94A303882309F4E2CCC8010E947C
:1022900034059F2D977061E070E001C0660F9A953C
:1022A000EAF7F3FE02C0682BEFCE60956823ECCE10
:1022B000E83E08F0CDCCE05CFF0B80918C020091F1
:1022C0008F0220918E0240918D0261E070E09E2F7E
:1022D00096CE382E29CDBFEFEB1AFB0A045F1F4FB5
:1022E000C6CCF999FECF92BD81BDF89A992780B5E9
:1022F0000895262FF999FECF1FBA92BD81BD20BD4A
:102300000FB6F894FA9AF99A0FBE01960895052E21
:1023100097FB1EF400940E949E1157FD07D00E9467
:10232000B91107FC03D04EF40C949E1150954095C2
:10233000309521953F4F4F4F5F4F08959095809571
:10234000709561957F4F8F4F9F4F08950E94DB11CD
:10235000A59F900DB49F900DA49F800D911D1124F9
:102360000895B7FF0C94A6110E94A611821B930B2F
:102370000895A1E21A2EAA1BBB1BFD010DC0AA1FC6
:10238000BB1FEE1FFF1FA217B307E407F50720F0DE
:10239000A21BB30BE40BF50B661F771F881F991F59
:1023A0001A9469F760957095809590959B01AC01A2
:1023B000BD01CF010895A29FB001B39FC001A39FAB
:1023C000700D811D1124911DB29F700D811D11246E
:1023D000911D0895991B79E004C0991F961708F084
:1023E000961B881F7A95C9F780950895AA1BBB1B79
:1023F00051E107C0AA1FBB1FA617B70710F0A61B05
:10240000B70B881F991F5A95A9F780959095BC0125
:10241000CD01089597FB072E16F4009407D077FDA1
:1024200009D00E94F61107FC05D03EF490958195E5
:102430009F4F0895709561957F4F0895EE0FFF1F90
:102440000590F491E02D09940F931F93CF93DF93A0
:102450008230910510F482E090E0E0919602F091D4
:10246000970230E020E0B0E0A0E0309799F4211529
:10247000310509F44AC0281B390B24303105D8F541
:102480008A819B816115710589F1FB0193838283A8
:10249000FE0111C040815181028113814817590703
:1024A000E0F04817590799F4109761F012960C93D1
:1024B000129713961C933296CF01DF91CF911F9103
:1024C0000F9108950093960210939702F4CF21156F
:1024D000310551F04217530738F0A901DB019A0189
:1024E000BD01DF01F801C1CFEF01F9CF9093970251
:1024F00080939602CDCFFE01E20FF31F819391935B
:102500002250310939832883D7CF2091940230910A
:102510009502232B41F420914001309141013093E9
:1025200095022093940220913E0130913F012115A4
:10253000310541F42DB73EB740914201509143011E
:10254000241B350BE0919402F0919502E217F307FA
:10255000A0F42E1B3F0B2817390778F0AC014E5F13
:102560005F4F2417350748F04E0F5F1F50939502B9
:1025700040939402819391939FCFF0E0E0E09CCF51
:10258000CF93DF930097E9F0FC0132971382128218
:10259000A0919602B0919702ED0130E020E01097F3
:1025A000A1F420813181820F931F209194023091F8
:1025B00095022817390709F061C0F0939502E0935E
:1025C0009402DF91CF910895EA01CE17DF07E8F575
:1025D0004A815B819E0141155105B1F7E901FB83F9
:1025E000EA8349915991C40FD51FEC17FD0761F497
:1025F000808191810296840F951FE90199838883D8
:10260000828193819B838A83F0E0E0E012968D9132
:102610009C9113970097B9F52D913C911197CD019D
:102620000296820F931F20919402309195022817F1
:10263000390739F6309751F51092970210929602A9
:10264000B0939502A0939402BCCFD383C283408100
:102650005181840F951FC817D90761F44E5F5F4FF2
:1026600088819981480F591F518340838A819B81BA
:10267000938382832115310509F0B0CFF09397023F
:10268000E09396029ECFFD01DC01C0CF138212823F
:10269000D7CFFB01DC0104C08D910190801921F49A
:1026A00041505040C8F7881B990B0895F894FFCF0C
:1026B000FF4F034F031C010109001100120000002D
:1026C00079637A001C021E5A1F05203C2178223CA7
:1026D000235A2405253C2678273C285A29052A3CDC
:1026E0002B782C3C2D5A2E052F3C3078313C0000A5
:1026F00098028000101112130C0D0E0F0000000044
:0E270000F801580185014502B6019401A801B7
:107E0000112484B714BE81FFF0D085E080938100F7
:107E100082E08093C00088E18093C10086E0809377
:107E2000C20080E18093C4008EE0C9D0259A86E02C
:107E300020E33CEF91E0309385002093840096BBD3
:107E4000B09BFECF1D9AA8958150A9F7CC24DD24C4
:107E500088248394B5E0AB2EA1E19A2EF3E0BF2EE7
:107E6000A2D0813461F49FD0082FAFD0023811F036
:107E7000013811F484E001C083E08DD089C08234E0
:107E800011F484E103C0853419F485E0A6D080C0E4
:107E9000853579F488D0E82EFF2485D0082F10E0AE
:107EA000102F00270E291F29000F111F8ED06801E7
:107EB0006FC0863521F484E090D080E0DECF843638
:107EC00009F040C070D06FD0082F6DD080E0C81688
:107ED00080E7D80618F4F601B7BEE895C0E0D1E017
:107EE00062D089930C17E1F7F0E0CF16F0E7DF06D8
:107EF00018F0F601B7BEE89568D007B600FCFDCFD4
:107F0000A601A0E0B1E02C9130E011968C91119780
:107F100090E0982F8827822B932B1296FA010C0160
:107F200087BEE89511244E5F5F4FF1E0A038BF0790
:107F300051F7F601A7BEE89507B600FCFDCF97BE46
:107F4000E89526C08437B1F42ED02DD0F82E2BD052
:107F50003CD0F601EF2C8F010F5F1F4F84911BD097
:107F6000EA94F801C1F70894C11CD11CFA94CF0C13
:107F7000D11C0EC0853739F428D08EE10CD085E9AC
:107F80000AD08FE07ACF813511F488E018D01DD067
:107F900080E101D065CF982F8091C00085FFFCCF94
:107FA0009093C60008958091C00087FFFCCF809118
:107FB000C00084FD01C0A8958091C6000895E0E648
:107FC000F0E098E1908380830895EDDF803219F02E
:107FD00088E0F5DFFFCF84E1DECF1F93182FE3DFCA
:107FE0001150E9F7F2DF1F91089580E0E8DFEE27F6
:047FF000FF270994CA
:027FFE00040479
:0400000300007E007B
:00000001FF
