:100000000C94D5000C940D130C94E6120C94BF12B2
:100010000C9498120C94FD000C94FD000C94711239
:100020000C94FD000C94FD000C94860F0C94F50FBD
:100030000C94FD000C94FD000C94FD000C94FD004C
:100040000C94B9140C9434130C94FD000C94FD0022
:100050000C94FD000C94FD000C94FD000C942712F0
:100060000C94FD000C94FD000C94FD000C94FD001C
:100070000C94FD000C94FD000C94FD000C94FD000C
:100080000C94FD000C94FD000C94FD000C94FD00FC
:100090000C94FD000C94FD000C94FD000C94FD00EC
:1000A0000C94FD000C94FD000C94FD000000000079
:1000B000240027002A002D0030000000000023004B
:1000C000260029002C002F000000000200090F006C
:1000D00000030401000C000000000000000000000C
:1000E00000000000000000080B00020202000009EE
:1000F0000400000102020000052400100105240193
:1001000001010424020605240600010705810310ED
:10011000004009040100020A000000070502024035
:1001200000000705830240000004030904120100D7
:1001300002EF020140412336800001010203014128
:10014000726475696E6F204C4C430041726475692E
:100150006E6F204C656F6E6172646F00000000006E
:10016000250028002B002E003100040404040403A1
:100170000405020202020403020202020606060647
:10018000060604040202020404040802011040806E
:10019000401020408040800802040180402010026E
:1001A0000110801020404020571511241FBECFEFB2
:1001B000DAE0DEBFCDBF11E0A0E0B1E0EEE6F0E4B2
:1001C00002C005900D92A63DB107D9F724E0A6ED37
:1001D000B1E001C01D92A934B207E1F710E0C5ED0E
:1001E000D0E004C02197FE010E94C01EC43DD1078B
:1001F000C9F70E94E5150C9435200C9400009C0171
:100200001092D4031092D50384369105B0F064E6C1
:1002100070E00E94571E6093D4038091D403A9011B
:1002200064E6869F401951091124CA016AE070E012
:100230000E94571E6093D50302C00A9770F7809101
:10024000D40394E6899F201911248091D5034AE0B4
:10025000849F201911242093D6030895853038F502
:10026000E82FF0E0EE0FFF1FE45FFE4F27E136E0DE
:1002700031832083823041F150F48130C9F0809184
:1002800069008C7F682B60936900E89A0895833039
:1002900041F18430A1F780916A008F7C94E0660F71
:1002A000771F9A95E1F7682B60936A00EE9A08959C
:1002B00080916900837F660F771F660F771F682B19
:1002C00060936900E99A0895809169008F7C34E019
:1002D000660F771F3A95E1F7682B60936900EA9AF9
:1002E0000895809169008F7326E0660F771F2A9525
:1002F000E1F7682B60936900EB9A0895FC01809107
:10030000C802882311F13FB7F89482E08093E90096
:100310002091F200822F90E01816190614F481E063
:1003200090E0882339F0289844E64093C702409132
:10033000F1004083222339F02091F200211103C003
:100340002BE62093E8003FBF08958FEF9FEF0895BD
:100350002FB7F89483E08093E9009091E800892F0B
:10036000807295FF04C09091F20080E4891B2FBF3A
:1003700008958091BF0281110DC082E08093BB027D
:1003800084E08093BC021092BE021092BD0281E014
:100390008093BF028BEB92E0089508950E94A8011C
:1003A00090E0089580E38093160108954091EB0159
:1003B0005091EC012091E9013091EA014217530775
:1003C000B4F49091E8009570E1F39091E80092FD0B
:1003D00019C08093F1008091EB019091EC0101969E
:1003E0008F739927892B19F48EEF8093E800809101
:1003F000EB019091EC0101969093EC018093EB015D
:1004000081E0089580E00895DF92EF92FF920F93CC
:100410001F93CF93DF93D82E8A01EB017B01E40E6B
:10042000F51ECE15DF0559F0D7FE12C0FE018491EE
:100430000E94D60121968111F4CF0FEF1FEFC80162
:10044000DF91CF911F910F91FF90EF90DF90089572
:100450008881EECF0F931F93CF93DF931F92CDB779
:10046000DEB782E0898342E450E067EE70E080E826
:100470000E9404020E94B901DC0112960D911C91A8
:100480000115110589F0D801ED91FC910280F381ED
:10049000E02DBE016F5F7F4FC801099597FD04C035
:1004A000F80100851185ECCF89810F90DF91CF9104
:1004B0001F910F910895615030F02091F100FC01DF
:1004C00020830196F8CF289884E68093C702089588
:1004D000CF93DF931F92CDB7DEB76983DC01ED9137
:1004E000FC910280F381E02D41E050E0BE016F5F9E
:1004F0007F4F09950F90DF91CF91089583E080930E
:10050000E9008091F200882319F08AE38093E800E3
:100510000895CF93DF931F92CDB7DEB7FC0184859A
:10052000958597FD08C02FEF3FEF358724870F9003
:10053000DF91CF910895CE0101960E947E0101972F
:1005400019F4898190E0F3CF8FEF9FEFF0CF0F93F5
:100550001F93CF93DF931F92CDB7DEB78C01FC01C1
:100560008485958597FF0BC0CE0101960E947E0180
:10057000019771F4898190E0F80195878487F801EB
:10058000848595850F90DF91CF911F910F910895EC
:100590008FEF9FEFF1CFFC018485958597FD0BC010
:1005A0009FB7F89482E08093E9008091F2009FBFAA
:1005B00090E0019608959FB7F89482E08093E90057
:1005C0008091F2009FBF90E0089581508F3008F035
:1005D00047C0E82FF0E0E151FD4F0C94C01E0C0322
:1005E0001003FE0204030803300330033003130337
:1005F00019031D032103270330032B03809180007F
:100600008F77809380000895809180008F7DF9CF4F
:1006100080918000877FF5CF84B58F7784BD089562
:1006200084B58F7DFBCF809190008F778093900071
:100630000895809190008F7DF9CF80919000877F01
:10064000F5CF8091C0008F778093C000089580918E
:10065000C0008F7DF9CF8091C200877F8093C20058
:100660000895CF93DF93282F30E0F901E853FF4F2F
:100670008491F901E757FE4FD491F901E659FE4FF5
:10068000C491CC23A1F081110E94E502EC2FF0E08F
:10069000EE0FFF1FE654FF4FA591B491EC91ED23AF
:1006A00081E090E009F480E0DF91CF91089580E04F
:1006B00090E0FACF1F93CF93DF93282F30E0F9011A
:1006C000E853FF4F8491F901E757FE4FD491F901A8
:1006D000E659FE4FC491CC23A9F0162F81110E9438
:1006E000E502EC2FF0E0EE0FFF1FE45AFE4FA5915C
:1006F000B4918FB7F894EC91111108C0D095DE2316
:10070000DC938FBFDF91CF911F910895DE2BF8CF3F
:10071000CF93DF9390E0FC01E757FE4F2491865979
:100720009E4FFC0184918823C9F090E0880F991FA7
:10073000FC01E455FF4FA591B491FC01E45AFE4F32
:10074000C591D49161110DC09FB7F8948C912095FB
:1007500082238C938881282328839FBFDF91CF91A8
:100760000895623051F49FB7F8943C91822F8095A0
:1007700083238C93E8812E2BEFCF8FB7F894EC91E5
:100780002E2B2C938FBFEACF3FB7F8948091E501D1
:100790009091E601A091E701B091E80126B5A89BF0
:1007A00005C02F3F19F00196A11DB11D3FBFBA2F03
:1007B000A92F982F8827BC01CD01620F711D811DC3
:1007C000911D42E0660F771F881F991F4A95D1F748
:1007D00008958F929F92AF92BF92CF92DF92EF9245
:1007E000FF924B015C010E94C4036B017C010E94DB
:1007F000C4036C197D098E099F09683E7340810509
:100800009105A8F321E0821A9108A108B10888EEA9
:10081000C80E83E0D81EE11CF11C81149104A104D0
:10082000B10429F7FF90EF90DF90CF90BF90AF9089
:100830009F908F9008958F929F92AF92BF92CF9288
:10084000DF92EF92FF920F931F93CF93DF936C0190
:100850007B018A0180910B01882309F45CC080919F
:10086000C802882309F457C08091EF0180FF05C0BA
:100870008091E00082608093E000E801B12C8AEF73
:10088000A82E93E0892E2AE3922E209711F4BB2004
:10089000D9F10E94A80181110AC0AA94AA20D9F115
:1008A00061E070E080E090E00E94E903EECF8C17F9
:1008B0001D0611F00CF08C2F9FB7F8948092E90080
:1008C0002091E80025FD02C09FBFDFCF282F30E038
:1008D000C21BD30BF701815020F041914093F100EE
:1008E000FACFE20EF31EBB2021F09092E800B12C6B
:1008F000EBCF8091E80085FDE7CF9092E800BB2424
:10090000B394209709F3F3CF5D9884E68093EE01CA
:10091000101611063CF081E090E0F601938382838B
:1009200010E000E0C801DF91CF911F910F91FF907F
:10093000EF90DF90CF90BF90AF909F908F900895F1
:100940002FB7F8946091E1017091E2018091E30189
:100950009091E4012FBF08950895FC018081807675
:10096000803611F4818108958081829586708E5F32
:100970000895CF92DF92EF92FF920F931F93CF9340
:10098000DF93EC0109E11EE2EE24E394F12C93E005
:10099000D92ECC24C394CE010E94AD048093D702FB
:1009A000E091D702E1501092D6028FEF9091D602DB
:1009B0009E1768F4A091D602AC0FBD2FB11D9C917B
:1009C00089279091D6029F5F9093D602EFCFEC0FCC
:1009D000FD2FF11D8083F8948091D502813059F468
:1009E0008091D402811738F01092D50280916F0067
:1009F0008D7F80936F0078948091D502813031F49F
:100A00008091D402843138F2C12CC5CF8091D502B7
:100A100081110EC0F89480916F008F7D80936F00DC
:100A2000B59B09C080916F00806280936F007894BD
:100A3000C110B1CF56C0E091D202F091D3028081B3
:100A40009091D102970101C0220F9A95EAF7822B6B
:100A5000808380918400909185008A5A9C4F909366
:100A6000D0028093CF028091CF029091D0029093D8
:100A70008900809388007894D093CE02C093CD02F1
:100A80001092D6021092CC0288818093CB02D09231
:100A9000D5021092D402B19A80916F008260809347
:100AA0006F008091D5028330E1F38091CC028823DE
:100AB000B1F0E091C902F091CA02E757FF4F80817F
:100AC000918101969183808383E090E0DF91CF91C3
:100AD0001F910F91FF90EF90DF90CF90089580913C
:100AE000D5021B3108F01150015009F052CF80910E
:100AF000630390916403019690936403809363036E
:100B000086E090E0E3CF1F93CF93DF93EC01653B4A
:100B1000710514F064EB70E0DB0177FF02C0B0E018
:100B2000A0E0A9831C812D81211B330B032E000C17
:100B3000440B550B542F432F322F22270E94C61EE1
:100B400024EB30E040E050E00E94A11E612F70E0F5
:100B500090E080E0982F872F762F6627620F731F13
:100B6000841F951F20E430E040E050E00E94A11E69
:100B70003B832A83DF91CF911F910895CF93C82F94
:100B800080E090E0892B51F0809169038C1731F05F
:100B900081E0C11101C080E00E940000C0936903A0
:100BA00060E070E0CB01C1110E94A00460936A0371
:100BB00070936B0380936C0390936D0380E090E0DF
:100BC000892B59F0809169038C1739F081E0C111AC
:100BD00001C080E0CF910C940000CF91089588303F
:100BE000910561F46623E9F020E32093160120E0EB
:100BF00030E041E0232B81F00C94000020E030E055
:100C0000232BD1F741E0811524E0920708F040E062
:100C1000611102C0842F089507970297D8F740E02A
:100C2000F9CF20E030E0232B39F741E0F3CF80917A
:100C3000DB01882331F080917F038F5F80937F03F6
:100C400008950E94C4032091D9013091DA01FB017B
:100C5000E21BF30B2091F1013091F201E217F3074F
:100C600018F12091F3013091F4017093DA0160934F
:100C7000D90161E06093DB01789440917E034F5F7E
:100C800040937E034091A0025091A1024130510552
:100C900091F158F04230510509F4B5C04330510587
:100CA00009F4EBC01092DB010895E217F30708F096
:100CB000CEC08091A3028F5F8093A3028B3090F30C
:100CC00081E090E09093A1028093A00261E070E047
:100CD000809178030E942E011092D80182E590E065
:100CE0009093F4018093F30183E290E09093F201FA
:100CF0008093F101D7CF4091D8014130B9F050F045
:100D0000433009F44AC0443069F6E217F30708F0AB
:100D10004EC027C0E217F30728F46093D801E09390
:100D2000D701C0CF84E08093D801BCCFE217F3078E
:100D300090F51092D8019091A3029F5F9093A30227
:100D40008E2FEE0F990B2091D701821B910927FD61
:100D5000939597FF03C091958195910943970CF462
:100D6000A1CF1092A1021092A00282E990E090938C
:100D7000F4018093F30182E590E09093F201809377
:100D8000F1011092A3026091F50170E08091780367
:100D90000E942E0187CF83E0C6CFE217F30708F346
:100DA0008091F501833061F582E08093F50182E066
:100DB00090E09093A1028093A00282E990E090934A
:100DC000F4018093F30182E590E09093F201809327
:100DD000F1011092A5021092A7021092A80210929F
:100DE000A9021092AA021092AB021092AC0280915A
:100DF000A3028093A6021092A3021092A402C3CF72
:100E00004093F501D4CF5091A3025F5F5093A302AA
:100E10004091A402440FE217F307E0F04093A402CC
:100E2000583009F03FCFE091A502E630A9F41092C6
:100E3000A1021092A00282E990E09093F4018093C5
:100E4000F30182E590E09093F2018093F10110921A
:100E5000A30228CF4160E2CF83E090E09093A1020B
:100E60008093A00281E08E0F8093A502F0E0E0560F
:100E7000FD4F8091A402878315CF4091A3024F5F5D
:100E80004093A302E217F307E0F41092A10210923C
:100E9000A00282E990E09093F4018093F30182E54F
:100EA00090E09093F2018093F10188E0E5EAF2E0AE
:100EB000ADEAB2E001900D928A95E1F76093A2024B
:100EC000F1CE8091A502863009F4B1CF82E090E0A6
:100ED0009093A1028093A0021092A3021092A40208
:100EE000E1CE0E94BE05E7E6F3E081E0878310864D
:100EF000E0E7F3E088E0DF011D928A95E9F70895C5
:100F00002F923F924F925F926F927F928F929F9219
:100F1000AF92BF92CF92DF92EF92FF920F931F9307
:100F2000CF93DF9300D000D0CDB7DEB79C838B8307
:100F30007C0141E8E40EF11C6C0150E8C50ED11CA7
:100F40008C010E571F4F8D579F4F2C018B819C8119
:100F50008C579F4F4C0122242A94AB80BC8097E889
:100F6000A90EB11CEB81FC81EB57FF4FFA83E9839B
:100F7000F7018081F6019081891709F4BEC0EB81E9
:100F8000FC81E80FF11D308037FE6FC0F8019081C1
:100F9000891739F0F501208131812F5F3F4F31836F
:100FA0002083F8018083F2012082832D8076F40172
:100FB000803609F443C0832D829586708E5F8083CE
:100FC000F8012081F4018081820F9927991F8138CF
:100FD0009105ACF180E8682E621AF894F601408120
:100FE000F7018081841708F046C0F8018081F42F52
:100FF000F81B8F2FF60180837894F70180814817C2
:10100000E8F5712C50E06B817C81CB01860D971D3A
:101010000E941A20F80160814B815C81460F511DAE
:10102000BA01A3018B819C810E941A20F701808163
:10103000F8019081891BF7018083F8011082F70184
:1010400090819F5F9083F8018081392F381B97FF33
:1010500002C0F7011082F2012081F4019081931700
:10106000B9F03226F201308283CFF4018081811100
:10107000E6CF3082A5CF862D840FBCCFF8016081EA
:10108000461B50E08B819C81860F911DBC01CACF0D
:1010900032122AC04B815C81480F511DCA01E9817F
:1010A000FA81408151814F5F5F4F51834083F70147
:1010B0003081F80130830097A1F20F900F900F90CC
:1010C0000F90DF91CF911F910F91FF90EF90DF90E4
:1010D000CF90BF90AF909F908F907F906F905F90D8
:1010E0004F903F902F900895F50180819181019656
:1010F0009183808390E080E0DACF90E080E0DDCFE4
:101100007F928F929F92AF92BF92CF92DF92EF9297
:10111000FF920F931F93CF93DF93CDB7DEB7EDB65A
:10112000FEB60E94A004AB01BC018091DC0190914D
:10113000DD01A091DE01B091DF01481759076A0770
:101140007B0748F04496A11DB11D481759076A074F
:101150007B0708F493C04093DC015093DD0160935A
:10116000DE017093DF01E091F601F091F701DF01FC
:1011700010E0109761F012968D919C911397892B36
:1011800009F01F5F16960D90BC91A02DF2CF112390
:1011900009F474C0812F90E0880F991F2DB73EB7D6
:1011A000281B390B0FB6F8943EBF0FBE2DBF8DB76D
:1011B0009EB701966C0120E0309789F042815381FF
:1011C000452B49F0A22FB0E0AA0FBB1FAC0DBD1DEF
:1011D000ED93FC932F5F0680F781E02DEDCF560154
:1011E000F601712C01E00117D9F0828193812191E0
:1011F0003191DC0112966D917C91D90112964D913D
:101200005C916417750750F4318320839F0122504D
:101210003109D9018D939C93772473940F5FE3CFA9
:101220007110DDCF00E0D601ED91FD916D0161E01F
:1012300080810E945A030F5F1013F5CF06B5D12CA1
:10124000C12C802E912CD501ED91FD915D01828103
:101250009381880D991D202F06B5021708F4D394A9
:10126000202FA601400F511D84179507A8F760E0B5
:1012700080810E945A0373941711E5CF0FB6F8943A
:10128000FEBE0FBEEDBE0FB6F894FEBE0FBEEDBEA5
:10129000DF91CF911F910F91FF90EF90DF90CF9052
:1012A000BF90AF909F908F907F90089520E030E0A6
:1012B000232B11F00C9400000C94411E8091ED033F
:1012C00090E00E94560980FF03C091E09093EE03E6
:1012D00081FF03C091E09093EF0382FF03C091E090
:1012E0009093F00383FF03C091E09093F10384FF98
:1012F00003C081E08093F2030895CF93DF932091A0
:101300007A0330917B032F3F320721F0C901DF912F
:10131000CF9108958DE190E00E94560987FF2BC080
:1013200086FF0FC089E090E00E945609C82F81E037
:1013300090E00E9456099C2F90937B0380937A0340
:1013400015C089E090E00E945609C82F81E090E026
:101350000E94560990E4C99F90011124207C3170AD
:101360008F73282B30937B0320937A0380917A0329
:1013700090917B03CCCF85FF0CC081E190E00E946F
:101380005609C82F82E190E00E945609C05CDD0B2F
:10139000D2CF81E090E00E94560990E0CDCFCF936C
:1013A000DF932091D601222359F08C32994141F4E8
:1013B000EB010E947D09C817D90729F41092D601C4
:1013C000DF91CF910895DF91CF910C947D090F9318
:1013D0001F93CF93DF93FC01808191818C329941DF
:1013E00031F08FEFDF91CF911F910F910895EB01B5
:1013F000088119810E947D090817190729F481E0E5
:101400008093D6018FE7EECF88819981019649F7C5
:101410000E947D0999838883F5CFCF93DF93409114
:10142000D601442391F08C32994179F481E06837F8
:10143000710540F4E901CB010E94560990E09983BF
:1014400088838FE7DF91CF9108958FEFFBCF0F93C4
:101450001F93CF93DF939C018CE0829FE001839FD9
:10146000D00D1124E091F303F091F403EC0FFD1F74
:1014700081E090E0918380839091EE03992331F095
:1014800091E042855385452B09F490E085E0829FE9
:101490008001839F100D11249801215E3F4F961704
:1014A000170601F1C9010E945609E091F303F0917A
:1014B000F403EC0FFD1F082E000C990B9583848319
:1014C000C80181960E9456092091F3033091F403DC
:1014D000C20FD31F90E09F838E83DF91CF911F9126
:1014E0000F910895C9010E945609E091F303F0910C
:1014F000F403EC0FFD1F992781950CF490959583CB
:101500008483C8018096DECF0F931F93CF93DF9320
:10151000C82F85E0C89F80011124C80182960E94CF
:1015200056099CE0C99FE0011124E091F303F0917A
:10153000F403EC0FFD1F90E093838283C801819632
:101540000E945609E091F303F091F403EC0FFD1FA4
:1015500090E097838683C80180960E945609E091A7
:10156000F303F091F403EC0FFD1F90E09187808767
:10157000C8014E960E945609E091F303F091F403DE
:10158000EC0FFD1F082E000C990B93878287C80172
:101590004F960E9456092091F3033091F403C20F35
:1015A000D31F992781950CF490959D838C83DF91AF
:1015B000CF911F910F9108950F931F93CF93DF93B6
:1015C0008C01D62FC091F2030E945E098091F20334
:1015D000882321F0C11102C01092F203C0E08C2FC9
:1015E0000E94840ACF5FC830D1F70837110549F44B
:1015F000D83739F48091BA02811103C081E0809319
:10160000BA02DF91CF911F910F9108951F93CF934D
:10161000DF9383319105C0F48131910530F481303D
:10162000910519F08930910531F42FEF3FEF309398
:101630007B0320937A0320E030E0232B89F0DF91B5
:10164000CF911F910C9400008D319105A1F720914D
:1016500067032F73362F307C232B20936703E5CF4E
:10166000162FEC010E94411E1817A1F0612FCE0128
:101670000E94491E612FCE010E94DC0A80E090E0AA
:10168000892B41F08091670384FD04C0612FCE0156
:101690000E940000CE01DF91CF911F910C94411E5A
:1016A000CF93DF93C7E6D3E02881206128830E948F
:1016B000060B98819F7E9883DF91CF9108959B01BF
:1016C0005091D601552361F08C32994149F4683725
:1016D000710540F4642FC9010E94500B8FE70895F3
:1016E0008FEF089581E00895CF92DF92EF92FF92FD
:1016F0000F931F93CF93DF93CDB7DEB760970FB6ED
:10170000F894DEBF0FBECDBFFC018081853E19F08D
:101710008D3E09F0D8C081818F3009F0D4C083811B
:10172000853009F0D0C0F480F110CDC04681DF01D2
:10173000CF01079621E0342F322339F017963C91E0
:101740001797306817963C931797220F11968A17B0
:101750009B0789F76F0116822581203209F4A6C004
:10176000213279F50780F085E02DEF3FFE07C9F5BE
:10177000D60119962D913C911A97232B91F51B9622
:101780002D913C912F3F3F4F61F520E030E0232B1E
:10179000C1F0B601655F7F4F0E9400008F3789F46A
:1017A000F6010385148547815085E12C30E020E067
:1017B0006281CE0101960E94EB14CE0101960E9437
:1017C000B9048F2D60960FB6F894DEBF0FBECDBF63
:1017D000DF91CF911F910F91FF90EF90DF90CF900D
:1017E0000895D6011D962C911D9721112BC01B9693
:1017F0004D915C911C9719966D917C919601255F96
:101800003F4FCF010E940D0A8F3791F4F6010385F7
:1018100014852185328547815085E12C6281CE0176
:1018200001960E94EB14CE0101960E94B9043BC0C0
:1018300087FDC7CFD6019C919F7724EB29839A839C
:101840008B83F1CF27FF23C026FD26C0B601655F3D
:101850007F4F0E94E7098F37D1F4F6010385148585
:101860004781508580E8E82E30E020E06281CE019B
:1018700001960E94EB146AE070E080E090E00E9424
:10188000E903CE0101960E94B904FF24F394D60126
:101890001D968C9186FF95CFF601638574858781AF
:1018A00090850E94CF09FF24F3948BCF4385548504
:1018B00061857285878190850E945F0B87FD81CF4E
:1018C000F6019081B9CFF12C7CCF0C94500B1F9373
:1018D000CF93DF93EC01142F8091B8028823A1F0FD
:1018E0006C2F81E090E00E94500B6D2F89E090E01A
:1018F0000E94500B61E08EE10E945A031092B802E0
:10190000DF91CF911F9108950E947D09C817D907D3
:10191000B8F39C01285F3F4FC217D30788F7612FA8
:10192000617070E09E01281B390BC901DF91CF91D6
:101930001F910C94270A662351F031E0411101C038
:1019400030E020E0432F70E060E00C94670C0895D5
:101950000F931F93CF93DF93FC014181242F30E03D
:101960006281C62FD0E0162F1695062F0795002707
:101970000795D801A078B770A42BB32B9081923B28
:1019800009F473C01196913B09F491C0A8F49338FF
:1019900009F47FC028F4923809F483C080E037C18D
:1019A000963A09F406C1903BC9F7462F4072607120
:1019B000CD010E949B0C63C09D3B09F460C088F47C
:1019C000943B09F420C19C3B49F780E090E0892BCF
:1019D00009F455C0462F40726071CD010E9400008D
:1019E0004EC0903D09F47BC0963EC1F680E090E089
:1019F000892B09F444C02481838190E02D3731F094
:101A0000A0E82A9F90011124822B932B26814581E7
:101A100050E02D3731F0B0E82B9F90011124422B7C
:101A2000532BA085278130E0AD3731F070E8A79FB8
:101A3000D00111242A2B3B2B7285018510E07D37C4
:101A400031F0A0E87A9FF00111240E2B1F2B62FDCC
:101A5000C5C04150510961FDC8C02150310960FD28
:101A6000CBC0015011096073B3C082E090E065FD06
:101A700002C081E090E020E030E0232B11F481E00F
:101A8000C6C0AA0FBB1F60718A0F9B1F0E94000077
:101A9000F6CF80E090E0892B91F381E00E94000076
:101AA000EECF80E090E0892B51F380E0F7CF66FF26
:101AB0000BC080E090E0892B11F3462F40726071DB
:101AC000CD010E940000DBCF80E090E0892BB9F2CD
:101AD000462F40716072CD010E940000D0CF407649
:101AE000403221F04036B9F14111C9CF80E090E099
:101AF000892B29F2C9019695982F88279795879564
:101B000080789F708C0F9D1F55E0359527955A95CD
:101B1000E1F72170019633814481E42FF0E0AF01B9
:101B20003D3731F070E8379FA00111244E0F5F1F41
:101B30006F7079F1623079F1643079F1663079F162
:101B4000683079F16A3079F16C3079F16E3079F181
:101B50000E94000094CF80E090E0892B09F48FCFA1
:101B60001381812F807D803109F089CF0481D1E0FC
:101B7000C1E041E0812F8D2309F040E0202F2D238B
:101B8000DD0F6C2F80E80E940000CF5FC53089F721
:101B900076CF61E4DDCF62E4DBCF63E4D9CF64E4E8
:101BA000D7CF65E4D5CF66E4D3CF67E4D1CF68E47F
:101BB000CFCF80E090E0892B09F461CFC9016D3768
:101BC00051F410E000E030E020E050E040E060E35D
:101BD0000E94000054CF802B912BF3CFE1E0F0E086
:101BE000DF01A41BB50BAD0136CFE1E0F0E0DF0172
:101BF000A21BB30B9D0133CFE1E0F0E0DF01A01B9E
:101C0000B10B8D0130CF81E04C3309F0C7CEDF91AD
:101C1000CF911F910F910895CF93DF93C82F88E73D
:101C200090E00E945609883769F4C7E1D1E081E06D
:101C3000C73AD80779F06A81888199810E94500B50
:101C40002396F5CF81E090E00E9456098F3F69F31B
:101C5000C111EBCFDF91CF9108950F931F93CF93D5
:101C6000DF93EB01042F82FF1BC083FF0CC061E0F8
:101C7000CE010E94EF05602F811129C0DF91CF9125
:101C80001F910F91089560E0CE010E94EF05882317
:101C9000A9F3CE01DF91CF911F910F910C945609BA
:101CA000CB010E945609182F04FF1BC061E0CE0132
:101CB0000E94EF05882311F3802F877061E070E0A8
:101CC00001C0660F8A95EAF703FF08C0612BCE01B9
:101CD000DF91CF911F910F910C94060B60956123BA
:101CE000F6CF60E0CE01DF91CF911F910F910C9460
:101CF000EF05CF92DF92EF92FF920F931F93CF9356
:101D0000DF937C016B01C42F122FD42FD07E8091E2
:101D1000670387FF2AC0D03EB1F58091680388230E
:101D200091F190E00E945609D82F8091680390E0CD
:101D300001960E945609982F8D2FE816F90619F57D
:101D40006C2F70E0762F662766277370612B6F5FAC
:101D50007F4F402F8C2FDF91CF911F910F91FF90DC
:101D6000EF90DF90CF900C942D0E80FD36C0D036D2
:101D700009F46EC088F4D03209F44CC0D03409F4B0
:101D800067C0DD2399F1DF91CF911F910F91FF90F3
:101D9000EF90DF90CF900895D03A09F491C0B0F45D
:101DA000D03889F780E090E02C2F2F7141E050E08F
:101DB000892B49F3B601C701DF91CF911F910F9194
:101DC000FF90EF90DF90CF900C940000D03C09F48E
:101DD00085C0D03E09F4B4CFD6CF0E947D098E15C0
:101DE0009F0529F2E114F10411F2CDCF8C2F8E70F2
:101DF00051F680E090E0892B31F2C0FFC4CF81E042
:101E0000DF91CF911F910F91FF90EF90DF90CF90D6
:101E10000C940000CF71CF3109F0B5CF80E090E095
:101E2000892B09F4B0CF412F4F7771F0413071F019
:101E3000111F1127111F212F30E00FE710E0B6010D
:101E4000C7010E9400009FCF41E0F2CF40E0F0CFF9
:101E500080E090E0892BC1F02C2F30E08C2F8F7127
:101E6000813029F030F0803121F08131F9F440E007
:101E700001C041E025FB222720F90DE110E030E010
:101E8000B601C7010E94000080E090E0892B09F4B0
:101E90007ACF4C2FB601C701DF91CF911F910F91DF
:101EA000FF90EF90DF90CF900C940000C901880F55
:101EB000991F8E71C4FB442740F9482B4250DACF5A
:101EC00080E090E0892B09F45ECF2C2F2F7043E047
:101ED00050E0C4FF6FCF42E050E06CCFCF71CE3105
:101EE00061F0CF3109F04FCF80E090E0212F45E045
:101EF00050E0892B09F05ECF46CF80E090E0212FA3
:101F000044E050E0892B09F055CF3DCF1F920F924E
:101F10000FB60F9211248F939F938091E1009091BF
:101F2000E100937F9093E10083FF0FC01092E900DE
:101F300091E09093EB001092EC0092E39093ED000F
:101F40001092C80298E09093F00082FF22C093E0C4
:101F50009093E9009091F200992319F09AE39093FD
:101F6000E8009091EE01992341F09091EE0191509B
:101F70009093EE01911101C05D9A9091C70299234F
:101F800041F09091C70291509093C702911101C006
:101F9000289A84FF18C08091E2008E7E8160809331
:101FA000E2008091E1008F7E8093E1008091EF015B
:101FB0008E7E80618093EF019F918F910F900FBE75
:101FC0000F901F90189580FFF7CF8091E2008E7ED2
:101FD00080618093E2008091E1008E7E8093E10039
:101FE0008091EF018E7E8160E5CF1F920F920FB638
:101FF0000F921124CF92DF92EF92FF920F931F93D3
:102000002F933F934F935F936F937F938F939F9300
:10201000AF93BF93EF93FF93CF93DF93CDB7DEB72B
:102020006C97DEBFCDBF1092E9008091E80083FF7E
:1020300025C068E0CE0145960E945B0282EF809346
:10204000E8008D8987FF39C09091E80090FFFCCFB0
:10205000982F907609F034C19E894F89588D2F8929
:10206000F88C911131C0803861F58091F001809336
:10207000F1001092F1008EEF8093E8006C960FB69D
:10208000F894DEBF0FBECDBFDF91CF91FF91EF91EE
:10209000BF91AF919F918F917F916F915F914F9180
:1020A0003F912F911F910F91FF90EF90DF90CF9074
:1020B0000F900FBE0F901F9018959EEF9093E80021
:1020C000C7CF1092F100D5CF913059F48111D3CF01
:1020D0004130510581F68091F0018D7F8093F001B0
:1020E000CACF933049F48111C6CF4130510519F65A
:1020F0008091F0018260F2CF953041F48091E80048
:1021000080FFFCCF20682093E300B5CF963009F024
:10211000A9C00B8D1C8D22E01092E9001092EC01F9
:102120001092EB01F2122EC01092EA011092E90116
:102130000E942A021F8299E09983FA8291E09E838D
:1021400090EA98879AEF99872091EB013091EC0102
:10215000275F3F4F3C832B838D831092E9001092C1
:10216000EC011092EB011093EA010093E90149E0C0
:1021700050E0BE016F5F7F4F80E00E9404020E942A
:102180002A0279CF1093EA010093E9010E94B90174
:10219000DC0112960D911C910115110509F451C134
:1021A000D801ED91FC910480F581E02DBE016B5EBC
:1021B0007F4FC8010995009709F03EC1F8010085DD
:1021C0001185EACFF3E0FF120EC08F89882309F44E
:1021D00040C0823061F440E860E18BE491E00E940D
:1021E0002415811148CF81E28093EB0047CF8130E5
:1021F00029F440E86BE08FE391E0F1CF833099F769
:102200000E94B901DC011296ED90FC908E010F5FE7
:102210001F4F6801E114F10479F0D701ED91FC91B1
:102220000680F781E02DB801C7010995080F111D3F
:10223000F701E084F184EECFD8011C92F601019001
:102240000020E9F73197BF016C197D0940E0C60114
:10225000C6CF69E271E0FB01449150E080E80E9442
:10226000040209CF973009F4BECF983021F481E001
:102270008093F10000CF993009F0FDCE837009F012
:10228000B2CFEEEAF1E081E031E096E32191222342
:1022900071F08093E9003093EB00DF0111972C91EE
:1022A0002093EC009093ED008F5F873079F78EE7F5
:1022B0008093EA001092EA008F898093C802DBCEF7
:1022C0008B8D9C8D1092E9001092EC011092EB0125
:1022D0009093EA018093E901898D811192C08E89E2
:1022E0009D89913A49F4813209F07DCF47E050E071
:1022F00064E071E080E0B3CF913209F074CF8332B3
:1023000069F48F89988DB0E0A0E0809300019093EC
:102310000101A0930201B0930301ADCE803269F4B4
:102320008091E80082FFFCCF67E084E091E00E94AA
:102330005B028BEF8093E8009ECE823209F09BCE49
:102340008F8980930B01EEEFFFE7859194918B3F8E
:102350009C4D51F1E0E0F8E080910401909105017D
:10236000A0910601B0910701803B9440A105B10501
:10237000F1F480910B0180FD1AC0EE3F8AE0F8076E
:1023800089F587E797E79183808380916000809348
:10239000ED0188E19BE00FB6F894A895809360006A
:1023A0000FBE9093600067CEEEEFFAE0D5CF80814C
:1023B00091818737974709F05ECEA895809160009C
:1023C0008861809360008091ED0180936000EE3F12
:1023D0002AE0F20789F08091FE0A9091FF0A91832A
:1023E000808349CE808191818737980751F29093FD
:1023F000FF0A8093FE0AC5CF1092FF0A1092FE0AD0
:102400003ACE0E94B901DC0112960D911C91011582
:10241000110509F4E8CED801ED91FC910190F0810D
:10242000E02DBE016B5E7F4FC8010995811123CE5F
:10243000F80100851185EBCF181619060CF41BCE98
:10244000D2CEF1E0FF12BECE6DE271E004CF1F925A
:102450000F920FB60F9211242F933F938F939F9358
:10246000AF93BF938091E1019091E201A091E301CC
:10247000B091E4013091E00123E0230F2D3758F5AE
:102480000196A11DB11D2093E0018093E10190937D
:10249000E201A093E301B093E4018091E501909102
:1024A000E601A091E701B091E8010196A11DB11DDF
:1024B0008093E5019093E601A093E701B093E801D2
:1024C000BF91AF919F918F913F912F910F900FBE30
:1024D0000F901F90189526E8230F0296A11DB11D9D
:1024E000D2CF1F920F920FB60F9211242F933F93CA
:1024F0004F935F936F937F938F939F93AF93BF930C
:10250000EF93FF93E0911401F09115010995FF916C
:10251000EF91BF91AF919F918F917F916F915F915B
:102520004F913F912F910F900FBE0F901F901895D4
:102530001F920F920FB60F9211242F933F934F9338
:102540005F936F937F938F939F93AF93BF93EF931B
:10255000FF93E0911201F09113010995FF91EF9122
:10256000BF91AF919F918F917F916F915F914F91AB
:102570003F912F910F900FBE0F901F9018951F92B3
:102580000F920FB60F9211242F933F934F935F93A7
:102590006F937F938F939F93AF93BF93EF93FF932B
:1025A000E0911001F09111010995FF91EF91BF9118
:1025B000AF919F918F917F916F915F914F913F91DB
:1025C0002F910F900FBE0F901F9018951F920F9292
:1025D0000FB60F9211242F933F934F935F936F93F6
:1025E0007F938F939F93AF93BF93EF93FF93E0916C
:1025F0000E01F0910F010995FF91EF91BF91AF91FD
:102600009F918F917F916F915F914F913F912F910A
:102610000F900FBE0F901F9018951F920F920FB63C
:102620000F9211242F933F934F935F936F937F9358
:102630008F939F93AF93BF93EF93FF93E0910C0120
:10264000F0910D010995FF91EF91BF91AF919F918D
:102650008F917F916F915F914F913F912F910F904B
:102660000FBE0F901F9018951F920F920FB60F92EA
:1026700011240F931F932F933F934F935F936F9367
:102680007F938F939F93AF93BF93CF93DF93EF93FA
:10269000FF938091CF029091D00280549C4F9093F1
:1026A000D0028093CF028091CF029091D00290937C
:1026B0008900809388008091D4028F5F8093D40238
:1026C0008091D502843009F040C08091D4028930D5
:1026D00018F58091CB0290E0959587958093CB0279
:1026E0004C9B05C08091CB0280688093CB02FF9108
:1026F000EF91DF91CF91BF91AF919F918F917F919A
:102700006F915F914F913F912F911F910F910F907A
:102710000FBE0F901F901895B59A80916F00806240
:1027200080936F008091C9029091CA024C9930C089
:10273000FC01E957FF4F808191810196918380834D
:102740001092D40281E08093D5028091D50283302B
:1027500009F049C0E091D202F091D302808140910A
:10276000D10229B190E0042E02C0959587950A9474
:10277000E2F730E054E0359527955A95E1F7822746
:1027800080FD17C01092D40282E08093D5022BC046
:102790004091CB02FC01E058FF4F208131E0320F25
:1027A0003083820F911DDC014C9337FFC9CF10821B
:1027B000C7CF8091D402893008F03EC02091CB026F
:1027C00081E090E001C0880F4A95EAF7908120FFF0
:1027D00031C08095892380838091CB0290E09595CC
:1027E00087958093CB028091D502823099F48091B5
:1027F000D40281118DC0E091D202F091D302808188
:102800009091D10221E030E001C0220F9A95EAF7C1
:10281000822B80838091D502813009F068CF80912E
:10282000D40281119BC0B59A80916F008062809321
:102830006F005DCF892BCFCF8091D402893059F4BE
:10284000208181E090E001C0880F4A95EAF78095E9
:1028500082238083C8CF8091D6028F5F8093D60277
:102860009091D702891750F51092D4028091CD0231
:102870009091CE02A091D602A80FB92FB11D8C91D4
:102880008093CB02808121E030E001C0220F4A9585
:10289000EAF7822B808380918400909185008A5A88
:1028A0009C4F9093D0028093CF028091CF02909161
:1028B000D002909389008093880095CF81E0809327
:1028C000CC02C091CD02D091CE020091C9021091EC
:1028D000CA02CE010E94AD0430E020E0D801A05829
:1028E000BF4F281788F4FE01E20FF31F4081EC91DF
:1028F00091E09E0F9C93E00FF12FF11D408397FD17
:102900001C922F5F3F4FEDCF1092D40281E03DCF5C
:102910008091D4028F3008F47DCFE091D202F09103
:10292000D30220813091D10281E090E001C0880F74
:102930003A95EAF78095822380831092D40281E051
:102940008093D502E091C902F091CA02E357FF4F8C
:10295000808191810196918380835CCF8091D402A4
:10296000883308F4C4CE1092D50280916F008D7F19
:102970005ECF1F920F920FB60F9211248F939F93E9
:10298000EF93FF93EFE6F0E080818F7D808380916D
:1029900086009091870080569A4F9093D002809342
:1029A000CF028091CF029091D002909389008093C2
:1029B0008800B19A80818260808384E08093D50210
:1029C0001092D402FF91EF919F918F910F900FBEC3
:1029D0000F901F901895EF920F931F93CF93DF9353
:1029E000FC0185EE80838FE0818385E08283613006
:1029F00041F589E483838BE484838FE185831682A8
:102A0000508747833287218714870387E586DF0154
:102A10001796AF01425F5F4F91E08D9187FF07C02E
:102A20002681292B2683ED0121978F778883990FA3
:102A3000A417B50791F7DF91CF911F910F91EF90F8
:102A4000089563831482D9CFEF92FF920F931F935F
:102A5000CF93DF93F82E192FE62E042F81E0860FF7
:102A6000880F0E94D60183E00E94D601CF2DD12F7E
:102A7000EC0EFD2EF11CCE15DF05B9F007FF13C0DB
:102A8000FE0184910E94D601182F80E00E94D60199
:102A9000812321968111EFCFDF91CF911F910F916B
:102AA000FF90EF9008958881EDCF81E0F5CFCF932F
:102AB000DF93CDB7DEB728970FB6F894DEBF0FBE11
:102AC000CDBF109283031092820388EE93E0A0E0C2
:102AD000B0E08093840390938503A0938603B09322
:102AE000870388EC91E090938103809380038FEFBC
:102AF0009FEF90938D0380938C03E5E0F4E02FEF3C
:102B000092E286E910822183138212829483858364
:102B100017821682389634E0E534F30799F70E945D
:102B2000A0046093010470930204809303049093C3
:102B300004040E94A0046093FD037093FE0380933D
:102B4000FF039093000480E690E00E94E81E9093BB
:102B5000F4038093F30388E790E09093240180933B
:102B6000230188E0E5EFF3E0DE01119601900D927C
:102B70008A95E1F78CE18093ED031092EE031092B9
:102B8000EF031092F0031092F1031092F20388E029
:102B9000FE013196A5EEB3E001900D928A95E1F722
:102BA0008091160190E021E02093DB031092DC037A
:102BB0009093D3038093D20328960FB6F894DEBF88
:102BC0000FBECDBFDF91CF910895CF93DF93CDB7E7
:102BD000DEB7A9970FB6F894DEBF0FBECDBF7894CD
:102BE00084B5826084BD84B5816084BD85B5826012
:102BF00085BD85B5816085BD80916E0081608093C3
:102C00006E0010928100809181008260809381002B
:102C1000809181008160809381008091800081603B
:102C200080938000809191008260809391008091D8
:102C300091008160809391008091900081608093E9
:102C400090008091C10084608093C1008091C10098
:102C500082608093C1008091C10081608093C10037
:102C60008091C30081608093C3008091C000826026
:102C70008093C0008091C20081608093C2008091E7
:102C80007A00846080937A0080917A0082608093D9
:102C90007A0080917A00816080937A0080917A0036
:102CA000806880937A001092C8021092F00110920E
:102CB000EF018091D70081608093D70080EA8093F4
:102CC000D80089B5806189BD89B5826089BD09B4A4
:102CD00000FEFDCF61E070E080E090E00E94E9033B
:102CE0008091D8008F7C80618093D8008091E00033
:102CF000807F8093E0008091E1008E7E8093E100F0
:102D00008DE08093E200559A209A62E087E00E946D
:102D1000880387E00E94310321E0892B09F020E03D
:102D20002093F80104EB802E01E0902E8CEBA82E6E
:102D300081E0B82E9CEBC92E91E0D92E750184015B
:102D4000D8017D908D0161E0872D0E94880360E0AD
:102D5000872D0E945A03F70171907F0161E0872D52
:102D60000E94880360E0872D0E945A03C016D10696
:102D700039F71092780313E01093790360E083E051
:102D80000E948803E0EAF2E085E1DF011D928A9566
:102D9000E9F71093F50182E990E09093F4018093B4
:102DA000F30182E590E09093F2018093F10163E0FA
:102DB00070E0809178030E942E0180EC809367037D
:102DC00089E7809368030FEF1FEF10937B03009355
:102DD0007A0310927C038DE190E00E945609682FDF
:102DE000606C8DE190E00E94060B64E687E090E065
:102DF0000E94060B6DE088E090E00E94060B80E0E8
:102E00000E94710760E273E080E090E00E94E903B5
:102E100080E00E940C0E0E945E098091F2038823DC
:102E200009F46EC08091F801882309F443C061E081
:102E300081E10E94880360E081E10E945A031093BF
:102E40008D0300938C0380E893E09093D1038093EB
:102E5000D00310910B016AE070E080E090E00E94E6
:102E6000E9031123B1F31092F203E8EDF2E08FE8E9
:102E7000DF011D928A95E9F761E08BE00E948803EB
:102E8000E4E9F1E02491E5E7F1E0E491F0E0EE0F10
:102E9000FF1FE45AFE4F4591549180E091E031E0EC
:102EA0002917C9F18F5F932F082E01C0990F0A943B
:102EB000EAF7F6CF10938D0300938C031092D103A1
:102EC0001092D00310910B016AE070E080E090E076
:102ED0000E94E9031123B1F3E9E0F2E08FE8DF019A
:102EE0001D928A95E9F710929D0210929C02109211
:102EF00099021092980210929B0210929A02B5CFFA
:102F000010938D0300938C0380E893E09093D1039A
:102F10008093D003AACF5093D3024093D2028093E0
:102F2000D10288ED92E09093CA028093C90254982E
:102F3000E091D202F091D30220813091D10281E060
:102F400090E001C0880F3A95EAF78095822380834C
:102F50001092800081E0809381001092D502B59A92
:102F600080916F00806280936F0080918100887FE4
:102F700081608093810061E081E10E94880360E0CC
:102F800081E10E945A0361E08EE10E94880360E0C3
:102F90008EE10E945A0305E014E0F12CE12C512C43
:102FA00033243A94852D0E94840AF40181914F01C3
:102FB000D8018C9311963C92119713961C921E92F5
:102FC00012972091F6013091F70117963C932E93BA
:102FD00016971093F7010093F60160E00E945A03E0
:102FE00061E0F80180810E9488036090F303709093
:102FF000F4036E0C7F1CD30112966D917C91C80175
:103000000E948305F50141905F0161E0842D0E94DB
:103010005A03B2E3CB2ED12C0E94800868E070E006
:1030200080E090E00E94E903F1E0CF1AD108A1F717
:1030300060E0842D0E945A03D3011D921C92539488
:10304000085F1F4FBCE0EB0EF11CE8E05E12AACF58
:103050008091F801811104C061E081E10E945A036E
:1030600061E08EE10E945A033E01FAE26F0E711C8C
:10307000AAE08A2E912CA12CB12CF0E04F2EF0E08A
:103080005F2E8091F203882309F4B0C180919C02E5
:1030900090919D02892B79F480919A0290919B02E4
:1030A000009709F470C090939D0280939C02109247
:1030B0009B0210929A0280919E0290919F020E9420
:1030C000A80C81110CC080919E0290919F020E94D9
:1030D000740B882321F010929D0210929C020091A3
:1030E0009C0210919D020115110509F160E081E13A
:1030F0000E945A030E94A0046093FD037093FE0394
:103100008093FF0390930004C8010E94AD04F82E41
:103110000E94A8018F1558F04F2D50E0B80180E8AB
:1031200093E00E941B0410929D0210929C028091D9
:10313000980290919902892B79F580E893E00E949A
:10314000CB022091980230919902892B29F1232BEF
:1031500019F580E893E00E948902E091890291E0EC
:103160009E0F90938902F0E0E75FFD4F808397FD0B
:103170001092890289E092E00E9480079093990260
:1031800080939802DACF88ED92E00E9480079093B6
:103190009D0280939C028FCF00919802109199021A
:1031A0000115110509F46BC0D8018C91813809F023
:1031B00001C110929902109298028CE0EDEFF1E0BB
:1031C00011928A95E9F785EE8093F90180E1809369
:1031D000FA0180E58093FB018093FC0181E08093FC
:1031E000FD0180915F039091600320916303309112
:1031F0006403820F931F19821A82AC015B838C8354
:1032000082E08D831E8280916503909166039F8387
:103210008887CE01019651E06EEF71E0EFEFF1E0AB
:1032200040E0DC012D91CD012F7720839D012150BD
:103230003109D9012C9127FF04C0DB012C91252BEA
:103240002C93550F3196433029F463E072E0E4E0AB
:10325000F2E051E04F5F483021F7E9EFF1E08FEF06
:103260009191892728E032E02E173F07C9F7809314
:10327000080289EF91E090939B0280939A020E944A
:10328000A0040091FD031091FE032091FF033091F3
:103290000004601B710B820B930B63337105810576
:1032A000910520F061E081E10E945A030E94A00490
:1032B0000091010410910204209103043091040450
:1032C000601B710B820B930B6333710581059105B4
:1032D00020F061E08EE10E945A038091BA028823B7
:1032E00029F081E00E940C0E1092BA028091B9027E
:1032F000811108C087E00E943103892BB1F481E07D
:103300008093B9021091B80287E00E9431030197BF
:1033100061F41092B90281E018271093B8021111DC
:1033200008C061E08EE10E945A038091B8028823B0
:1033300041F08091B7028F5F853108F0AEC1809374
:10334000B702809169038823B1F00E94A004009124
:103350006A0310916B0320916C0330916D03601B25
:10336000710B820B930B653171058105910518F086
:1033700080E00E9471078091A202882309F4C5C1F0
:10338000F89488E0EDEAF2E0A5EFB3E001900D9249
:103390008A95E1F71092A20278943091AD02EFEA9B
:1033A000F2E090E080E0391709F48EC12191822784
:1033B0009F5FF9CFC8010E94B904039709F05FCF5E
:1033C000C8010E94A80C109299021092980260E025
:1033D0008EE10E945A030E94A0046093010470933E
:1033E0000204809303049093040449CF8091DB038B
:1033F000882321F01092DB031092DC038091D0032C
:103400009091D103DC01ED91FC910084F185E02DD8
:10341000099508970CF419C16E01B2E2CB0ED11CCC
:10342000EDEDEE2EE3E0FE2E87018091D00390912A
:10343000D103DC01ED91FC910284F385E02D099527
:103440008053F60181936F01D8011D928D016E1694
:103450007F0659F79AA18AE03BA0989F300C11246F
:103460002CA194E60DA1089F80011124299F000D35
:10347000111D11242EA1020F111D2FA1C8A4C89E39
:1034800060011124299FC00CD11C112489A5C80EEC
:10349000D11C083EB3E01B072CF4E8EECE16E3E0A7
:1034A000DE061CF081E08093DC0389E08093DD037D
:1034B00098E09093DE039091DC0391118093DE03FA
:1034C00020E030E0232B29F0A601B801832D0E94D3
:1034D00000003BE0331609F4CEC0331598F041E00C
:1034E000341609F471C0341608F45DC082E0381651
:1034F00009F46DC09AE0391609F46CC089E0809334
:10350000DE036CC0AEE13A1609F4BAC0A31550F060
:103510006CEE630D623090F770E0802F90E00E94B7
:10352000270A5CC0BFE13B12E9CF8091D90390919B
:10353000DA03FC01EE0FFF1FE80FF91FE95EFE4FF3
:1035400000811181083EE3E01E0710F007EE13E052
:10355000C8010E94FF008091D4038093DF03809113
:10356000D5038093E0038091D6038093E103C801E3
:103570000E94560990E00E94FF008091D40380933E
:10358000E2038091D5038093E3038091D603809377
:10359000E4038091D9039091DA0301969093DA03C2
:1035A0008093D9031BC084E090E00E94FF008091CB
:1035B000D4038093E2038091D5038093E303809149
:1035C000D6038093E4030AC08BE090E0EECF8DE059
:1035D00090E0EBCFB601C8010E94650CC090D0030B
:1035E000D090D103D7012D917D0130E050E040E033
:1035F00019A28E010F5D1F4FCA01B901A5019401E7
:103600000E947F1E605DF80162938F0121153105D4
:103610004105510589F7309781F001900020E9F7C5
:103620003197AF01401B510BD601ED91FC91028007
:10363000F381E02DB801C6010995E5EEF3E0EE1542
:10364000FF0561F681E08093DB0388ED92E00E9444
:10365000800790939F0280939E02009709F43DCECD
:103660000E94A80C811139CE80919E0290919F02F8
:103670000E94740B32CEC8010E94560990E095CF8B
:103680008091D2039091D3039093D8038093D70372
:103690001092DA031092D90388CF1092B7028EE10C
:1036A0000E94310361E0892B09F060E08EE10E9405
:1036B0005A030E94A0046093010470930204809353
:1036C0000304909304043DCE81111FC020E030E03C
:1036D000232B21F085EF93E00E9400008091F703F7
:1036E0008111D5C09091F8039111D1C080E090E094
:1036F000892B19F080E00E940000809169038823E3
:1037000009F4C1C081E00E94BE050E94800868E003
:1037100070E080E090E00E94E903D12CC12CF12CF4
:10372000E12C35E0232E0091F3031091F4030C0DEE
:103730001D1DD8018D919C91019709F091C060E009
:1037400081E10E945A030E94A0046093FD037093DC
:10375000FE038093FF03909300048091B502909143
:10376000B6029C012F5F3F4F3093B6022093B50203
:1037700004970CF475C0F80162817381848195818E
:10378000680F791F73836283C70123E0880F991F35
:103790002A95E1F78B5F9B4F0E948305F701E45464
:1037A000FE4F308061E0832D0E945A031092B602D2
:1037B0001092B502D80114968D919C911597181608
:1037C00019062CF516966D917C91179712968D918E
:1037D0009C91139768177907D4F413967C936E9392
:1037E00012971D921C928091EF03882341F02E9C2A
:1037F000C0012F9C900D112482960E94500B60E016
:10380000832D0E945A0361E081E10E945A03E091F6
:10381000F303F091F403EC0DFD1D8481958197FF76
:103820001FC0608571858281938186179707C4F4D4
:1038300073836283118210828091EF03882341F0A9
:103840002E9CC0012F9C900D112482960E94500B3B
:1038500060E0832D0E945A0361E081E10E945A03D7
:10386000BFEFEB1AFB0AECE0CE0ED11CF8E0EF162E
:10387000F10409F058CF80E090E0892B09F401CCE5
:103880000E940000FACB81E00E9471073ECF909128
:103890006903992309F47BC08057803108F074C014
:1038A00081E00E94BE0548E050E060E773E085EFEC
:1038B00093E00E940D20892B61F010926F0388E045
:1038C000E5EFF3E0A0E7B3E001900D928A95E1F710
:1038D0001CCF80916F038F5F80936F038091F503FE
:1038E0008330E1F59091F703892F8770F090F8030A
:1038F000853019F4F0926E0308CF0DE110E08430AA
:1039000091F0282F30E08430E0F400916E03002322
:10391000C1F00150110B000F111F000F111F020FFA
:10392000131F0F5F1F4F93FF0EC061E0C8010E947D
:10393000EF056F2D882309F4E8CEC8010E94060B1D
:10394000E4CE8901EECF60E0C8010E94EF05882334
:1039500009F4DBCEC8010E945609D7CE843009F0A5
:10396000D4CE8091F703682F70E0762F6627662704
:1039700073709091F803692B6F5F7F4F4091F9034B
:103980008C700E942D0EC1CE80E00E947107E091E4
:10399000F703EF3F61F48091F8038111B6CE80E028
:1039A00090E0892B09F4B1CE0E940000AECEE7FD75
:1039B0000DC00091FA032091F9034091F80370E0E3
:1039C00060E08E2F90E00E94790E9FCEE03C08F0E0
:1039D00047C19091670397FF98CE8091F803282FF5
:1039E00030E0890100951095000F111F000F111F85
:1039F000007C1170EF730E2B35952795422F437085
:103A0000342E2091F5032530E1F48C788C30C9F404
:103A10000E947D098017910721F00F3F114009F0A6
:103A200074CE0091F80310E0102F002700271370C8
:103A30008091F903080F111D0F5F1F4FF090FA03DB
:103A400074CF6801A1E0CA1AD108CC0CDD1CCC0CE3
:103A5000DD1CC3287601BFEFEB1AFB0A80917C03C3
:103A60008823F9F096FF41C0C70160E071E00E9431
:103A70006B1E682F81E090E00E94060BC701F7FEE5
:103A800002C081509F4F692F89E090E00E94060B91
:103A900080E090E0892B19F0C7010E94000010928D
:103AA0007C038091670380FD39C08091F5038430E9
:103AB00009F04FC08091F8038978813009F025CE54
:103AC0006091F90380E090E0892B19F0C7010E9412
:103AD000000080E090E0892B09F417CE4091F903B3
:103AE000632DC7010E94000010CEB8016F737727C5
:103AF00081E090E00E94060BB801E6E075956795BD
:103B0000EA95E1F789E090E00E94060B80E090E002
:103B1000892B29F2C8010E940000C1CF86FF0DC089
:103B20000E947D098E159F0509F4BFCFEDEFEE16BB
:103B3000E7E0FE060CF0B9CFE8CD0E947D098017C2
:103B4000910709F4B2CF0F3FF1E01F0709F4ADCFA1
:103B5000DCCD833041F54091F803242F2170C22E33
:103B600043FBDD24D0F847702D2DB801C7010E941A
:103B7000670C8091670386FF0BC080E090E0892B83
:103B800009F4C3CD4D2D6C2DC7010E940000BDCDA1
:103B90004114510409F4B9CD2D2D4C2D632DC801CC
:103BA0000E940000B2CD863009F0AFCD8091F803BD
:103BB000982F9978913021F08F78803809F0A5CD31
:103BC0008091670386FF28C00E947D098E159F059E
:103BD000E9F48091F90390E0382F222722273370EF
:103BE0000091FA03020F132F111D0F5F1F4FF0906A
:103BF000FB039595879595958795837099278230D6
:103C0000910599F0039709F490CE7FCD3DEFE3162F
:103C100037E0F306F4F679CD0E947D09801791070D
:103C2000C1F20F3F1140A9F270CDF4FE6ECD61E0FC
:103C3000C8010E94EF05882309F467CDC8010E94DE
:103C400056099F2D977061E070E001C0660F9A954C
:103C5000EAF7F3FE02C0682B70CE609568236DCE44
:103C6000E83E08F052CDE05CFF0B8091F803009134
:103C7000FB032091FA034091F90361E070E09E2F6D
:103C8000A2CEF999FECF92BD81BDF89A992780B551
:103C90000895262FF999FECF1FBA92BD81BD20BD90
:103CA0000FB6F894FA9AF99A0FBE01960895AA1BD6
:103CB000BB1B51E107C0AA1FBB1FA617B70710F017
:103CC000A61BB70B881F991F5A95A9F78095909549
:103CD000BC01CD01089597FB072E16F4009407D080
:103CE00077FD09D00E94571E07FC05D03EF4909541
:103CF00081959F4F0895709561957F4F0895A1E23A
:103D00001A2EAA1BBB1BFD010DC0AA1FBB1FEE1F55
:103D1000FF1FA217B307E407F50720F0A21BB30BA0
:103D2000E40BF50B661F771F881F991F1A9469F71C
:103D300060957095809590959B01AC01BD01CF0178
:103D40000895052E97FB1EF400940E94B81E57FD9F
:103D500007D00E947F1E07FC03D04EF40C94B81EBF
:103D600050954095309521953F4F4F4F5F4F0895A7
:103D700090958095709561957F4F8F4F9F4F0895D7
:103D8000EE0FFF1F0590F491E02D0994B7FF0C94FE
:103D9000CE1E0E94CE1E821B930B08950E94D91E38
:103DA000A59F900DB49F900DA49F800D911D11248F
:103DB0000895A29FB001B39FC001A39F700D811D04
:103DC0001124911DB29F700D811D1124911D089524
:103DD0000F931F93CF93DF938230910510F482E00D
:103DE00090E0E0914704F091480430E020E0B0E03A
:103DF000A0E0309799F42115310509F44AC0281B39
:103E0000390B24303105D8F58A819B816115710504
:103E100089F1FB0193838283FE0111C040815181AE
:103E20000281138148175907E0F04817590799F4A0
:103E3000109761F012960C93129713961C9332967A
:103E4000CF01DF91CF911F910F9108950093470407
:103E500010934804F4CF2115310551F04217530750
:103E600038F0A901DB019A01BD01DF01F801C1CFE2
:103E7000EF01F9CF9093480480934704CDCFFE0122
:103E8000E20FF31F819391932250310939832883E4
:103E9000D7CF2091450430914604232B41F4209143
:103EA000A9013091AA013093460420934504209142
:103EB000A7013091A8012115310541F42DB73EB776
:103EC0004091AB015091AC01241B350BE0914504AE
:103ED000F0914604E217F307A0F42E1B3F0B2817BE
:103EE000390778F0AC014E5F5F4F2417350748F073
:103EF0004E0F5F1F50934604409345048193919366
:103F00009FCFF0E0E0E09CCFCF93DF930097E9F004
:103F1000FC01329713821282A0914704B0914804A9
:103F2000ED0130E020E01097A1F420813181820F73
:103F3000931F20914504309146042817390709F052
:103F400061C0F0934604E0934504DF91CF9108955A
:103F5000EA01CE17DF07E8F54A815B819E01411532
:103F60005105B1F7E901FB83EA8349915991C40FE7
:103F7000D51FEC17FD0761F4808191810296840FB3
:103F8000951FE90199838883828193819B838A832A
:103F9000F0E0E0E012968D919C9113970097B9F5AF
:103FA0002D913C911197CD010296820F931F209184
:103FB0004504309146042817390739F6309751F5F2
:103FC0001092480410924704B0934604A09345040D
:103FD000BCCFD383C28340815181840F951FC81702
:103FE000D90761F44E5F5F4F88819981480F591F4F
:103FF000518340838A819B8193838283211531057C
:1040000009F0B0CFF0934804E09347049ECFFD0140
:10401000DC01C0CF13821282D7CFFB01DC0104C0C8
:104020008D910190801921F441505040C8F7881BB0
:10403000990B08956817790768F4FB01DC01E40F18
:10404000F51FA40FB51F02C002900E9241505040C0
:10405000D8F708950C942C20FB01DC0102C00190DC
:0E4060000D9241505040D8F70895F894FFCFCC
:10406E00FFFFFFFF00E1000000000000AC04AC0405
:10407E00AC04AC04AC0430010001090000110000D6
:10408E001200000000007900637A00001C00021E7E
:10409E0000001F000520003C21007822003C230078
:1040AE000024000525003C26007827003C2800004F
:1040BE002900052A003C2B00782C003C2D00002EF8
:1040CE0000052F003C30007831003C3200003300F8
:1040DE000534003C35007836003C370000380005CA
:1040EE0039003C3A00783B003C3C00003D00053E68
:1040FE00003C3F007840003C410000420005430078
:10410E003C44007845003C00004904800000C1801A
:10411E00810000000A0908060C010002171615148A
:10412E0013120D050000000068021B04CE017E0272
:06413E00CB028902A7027A
:00000001FF
