:100000000C945D000C942A080C9403080C94850051
:100010000C9485000C9485000C9485000C9485004C
:100020000C9485000C9485000C9485000C9485003C
:100030000C9485000C9485000C9485000C9485002C
:100040000C94B9070C9485000C9487070C946107F5
:100050000C9485000C9485000C9485000C9485000C
:100060000C9485000C9485000000000024002700FB
:100070002A0000000000250028002B0004040404CE
:100080000404040402020202020203030303030342
:10009000010204081020408001020408102001021F
:1000A00004081020000000080002010000030407FB
:1000B0000000000000000000510811241FBECFEF17
:1000C000D8E0DEBFCDBF11E0A0E0B1E0EAE9F1E2A7
:1000D00002C005900D92AA37B107D9F722E0AAE72E
:1000E000B1E001C01D92A93AB207E1F710E0CDE5F9
:1000F000D0E004C02197FE010E94930FCC35D107B8
:10010000C9F70E94C3080C94CB100C9400009C010A
:1001100010927C0210927D0284369105B0F064E664
:1001200070E00E94490F60937C0280917C02A901DB
:1001300064E6869F401951091124CA016AE070E003
:100140000E94490F60937D0202C00A9770F7809168
:100150007C0294E6899F2019112480917D024AE057
:10016000849F2019112420937E0208958230F8F490
:10017000E82FF0E0EE0FFF1FEE5FFE4F26E333E0C7
:1001800031832083813041F0809169008C7F682B1E
:1001900060936900E89A089580916900837F660FF3
:1001A000771F660F771F682B60936900E99A08959F
:1001B00089E1809306010895AF92BF92CF92DF92BA
:1001C000EF92FF920F931F93CF93DF936C017B010C
:1001D0008B01040F151FEB015E01AE18BF08C0179D
:1001E000D10759F06991D601ED91FC910190F08110
:1001F000E02DC6010995892B79F7C501DF91CF91D3
:100200001F910F91FF90EF90DF90CF90BF90AF9034
:100210000895FC01538D448D252F30E0842F90E00C
:10022000821B930B541710F0CF96089501970895F1
:10023000FC01918D828D981761F0A28DAE0FBF2FBA
:10024000B11D5D968C91928D9F5F9F73928F90E010
:1002500008958FEF9FEF0895FC01918D828D98177F
:1002600031F0828DE80FF11D858D90E008958FEFBC
:100270009FEF0895FC01918D228D892F90E0805C85
:100280009F4F821B91098F73992708958BED91E001
:100290000E943A0121E0892B09F420E0822F089581
:1002A00080E090E0892B29F00E94460181110C9496
:1002B00000000895FC01A48DA80FB92FB11DA35A09
:1002C000BF4F2C91848D90E001968F739927848F76
:1002D000A689B7892C93A089B1898C918370806499
:1002E0008C93938D848D981306C00288F389E02D3A
:1002F00080818F7D80830895EF92FF920F931F93EB
:10030000CF93DF93EC0181E0888F9B8D8C8D9813C8
:100310001AC0E889F989808185FF15C09FB7F894D4
:10032000EE89FF896083E889F98980818370806420
:1003300080839FBF81E090E0DF91CF911F910F916B
:10034000FF90EF900895F62E0B8D10E00F5F1F4F7A
:100350000F731127E02E8C8D8E110CC00FB607FC89
:10036000FACFE889F989808185FFF5CFCE010E9417
:100370005A01F1CFEB8DEC0FFD2FF11DE35AFF4F2A
:10038000F0829FB7F8940B8FEA89FB8980818062A5
:10039000CFCFCF93DF93EC01888D8823B9F0AA8962
:1003A000BB89E889F9898C9185FD03C0808186FD30
:1003B0000DC00FB607FCF7CF8C9185FFF2CF80817F
:1003C00085FFEDCFCE010E945A01E9CFDF91CF9199
:1003D000089590E0FC01EC55FF4F2491FC01E0579B
:1003E000FF4F3491FC01E458FF4FE491EE23C9F034
:1003F000222339F0233001F1A8F4213019F1223001
:1004000029F1F0E0EE0FFF1FEE58FF4FA591B491D8
:100410008FB7F894EC91611126C030953E233C9340
:100420008FBF08952730A9F02830C9F0243049F74C
:10043000809180008F7D03C0809180008F778093B2
:100440008000DFCF84B58F7784BDDBCF84B58F7D0F
:10045000FBCF8091B0008F778093B000D2CF809196
:10046000B0008F7DF9CF3E2BDACFCF93DF9390E0B2
:10047000FC01E057FF4F249184589F4FFC01849169
:100480008823D1F090E0880F991FFC01E859FF4FB5
:10049000A591B491FC01EE58FF4FC591D491611123
:1004A0000EC09FB7F8948C91E22FE0958E238C9329
:1004B0002881E223E8839FBFDF91CF9108958FB712
:1004C000F894EC91E22BEC938FBFF6CF3FB7F89402
:1004D0008091800190918101A0918201B09183016E
:1004E00026B5A89B05C02F3F19F00196A11DB11D8F
:1004F0003FBFBA2FA92F982F8827BC01CD01620FCB
:10050000711D811D911D42E0660F771F881F991F85
:100510004A95D1F708958F929F92AF92BF92CF9252
:10052000DF92EF92FF926B017C010E9466024B0109
:100530005C01C114D104E104F104B9F00E94660227
:10054000681979098A099B09683E734081059105FC
:1005500080F321E0C21AD108E108F10888EE880E84
:1005600083E0981EA11CB11CE4CFFF90EF90DF90B8
:10057000CF90BF90AF909F908F90089561E08DE0F5
:100580000E94E90166E070E080E090E00E948B024A
:1005900060E08DE00C94E9010895CF93C82F80E0CE
:1005A00090E0892B51F08091C4018C1731F081E0EB
:1005B000C11101C080E00E940000C093C401CC239F
:1005C00031F12FB7F89480919E0190919F01A091F5
:1005D000A001B091A1012FBF482F392F2A2F8B2FB7
:1005E0004093C5013093C6012093C7018093C80191
:1005F00080E090E0892B81F08091C4018C1761F03C
:1006000081E0C11101C080E0CF910C94000040E076
:1006100030E020E080E0E4CFCF910895883091056C
:1006200061F46623E9F029E12093060120E030E03F
:1006300041E0232B81F00C94000020E030E0232BDC
:10064000D1F741E0811524E0920708F040E0611104
:1006500002C0842F089507970297D8F740E0F9CF9A
:1006600020E030E0232B39F741E0F3CF80917E0189
:10067000882331F08091DA018F5F8093DA01089549
:100680000E94660220917C0130917D01FB01E21BFA
:10069000F30B2091840130918501E217F30718F1E3
:1006A000209186013091870170937D0160937C01D8
:1006B00061E060937E0178944091D9014F5F40934F
:1006C000D9014091890150918A014130510591F140
:1006D00058F04230510509F4B5C04330510509F4D2
:1006E000EBC010927E010895E217F30708F0CEC028
:1006F00080918C018F5F80938C018B3090F381E02F
:1007000090E090938A018093890161E070E080918C
:10071000D3010E94B60010927B0182E590E0909395
:1007200087018093860183E290E090938501809316
:100730008401D7CF40917B014130B9F050F0433074
:1007400009F44AC0443069F6E217F30708F04EC0D6
:1007500027C0E217F30728F460937B01E0937A0146
:10076000C0CF84E080937B01BCCFE217F30790F504
:1007700010927B0190918C019F5F90938C018E2F42
:10078000EE0F990B20917A01821B910927FD939519
:1007900097FF03C091958195910943970CF4A1CFE0
:1007A00010928A011092890182E990E0909387016A
:1007B0008093860182E590E0909385018093840187
:1007C00010928C016091880170E08091D3010E94A9
:1007D000B60087CF83E0C6CFE217F30708F3809116
:1007E0008801833061F582E08093880182E090E0A7
:1007F00090938A018093890182E990E09093870128
:100800008093860182E590E0909385018093840136
:1008100010928E011092900110929101109292010B
:1008200010929301109294011092950180918C0185
:1008300080938F0110928C0110928D01C3CF409351
:100840008801D4CF50918C015F5F50938C0140910F
:100850008D01440FE217F307E0F040938D0158300B
:1008600009F03FCFE0918E01E630A9F410928A01A1
:100870001092890182E990E090938701809386012C
:1008800082E590E0909385018093840110928C0121
:1008900028CF4160E2CF83E090E090938A0180937B
:1008A000890181E08E0F80938E01F0E0E757FE4FC3
:1008B00080918D01878315CF40918C014F5F4093CC
:1008C0008C01E217F307E0F410928A01109289017B
:1008D00082E990E0909387018093860182E590E021
:1008E000909385018093840188E0EEE8F1E0A6E929
:1008F000B1E001900D928A95E1F760938B01F1CE02
:1009000080918E01863009F4B1CF82E090E090931F
:100910008A018093890110928C0110928D01E1CEA1
:100920000E94CD02E2ECF1E081E087831086EBECDF
:10093000F1E088E0DF011D928A95E9F7089520E053
:1009400030E0232B11F00C9400000C94330F8091B5
:10095000970290E00E949F0480FF03C091E0909373
:10096000980281FF03C091E09093990282FF03C037
:1009700091E090939A0283FF03C091E090939B02D1
:1009800084FF03C081E080939C020895CF93DF939E
:100990002091D5013091D6012F3F320721F0C901B6
:1009A000DF91CF9108958DE190E00E949F0487FF31
:1009B0002BC086FF0FC089E090E00E949F04C82FE3
:1009C00081E090E00E949F049C2F9093D601809339
:1009D000D50115C089E090E00E949F04C82F81E0F6
:1009E00090E00E949F0490E4C99F90011124207C14
:1009F00031708F73282B3093D6012093D5018091CD
:100A0000D5019091D601CCCF85FF0CC081E190E05B
:100A10000E949F04C82F82E190E00E949F04C05C66
:100A2000DD0BD2CF81E090E00E949F0490E0CDCF1B
:100A30001F93CF93DF93EC01142F0E94C604C817B5
:100A4000D907B8F09C01285F3F4FC217D30788F43D
:100A5000C81BE0918D02F0918E028CE0C89FE00DE2
:100A6000F11D112481E090E0918780871170168339
:100A70001782DF91CF911F9108950F931F93CF930A
:100A8000DF93C82F25E0829F80011124C8014F9673
:100A90000E949F049CE0C99FE0011124E0918D0217
:100AA000F0918E02EC0FFD1F2AE08202C00111249A
:100AB00095838483C80182960E949F0420918D02B1
:100AC00030918E02C20FD31F90E09B838A83DF9107
:100AD000CF911F910F910895CF9361E08DE00E9417
:100AE000E90164E170E080E090E00E948B0260E048
:100AF0008DE00E94E9018BE190E00E949F042AE0D2
:100B0000829FC001112490930101809300010E94F3
:100B1000A704C0E08C2F0E943D05CF5FC830D1F7FD
:100B2000CF9108951F93CF93DF9383319105C0F444
:100B30008131910530F48130910519F089309105AA
:100B400031F42FEF3FEF3093D6012093D50120E011
:100B500030E0232B89F0DF91CF911F910C9400009E
:100B60008D319105A1F72091C2012F73362F307C72
:100B7000232B2093C201E5CF162FEC010E94330FE7
:100B80001817A1F0612FCE010E943B0F612FCE01FB
:100B90000E946C0580E090E0892B41F08091C201B9
:100BA00084FD04C0612FCE010E940000CE01DF91C0
:100BB000CF911F910C94330FCF93DF93C2ECD1E010
:100BC0002881206128830E94920598819F7E9883C6
:100BD000DF91CF9108950C94DC05DF92EF92FF92A4
:100BE0000F931F93CF93DF938B01D42E82FF21C0ED
:100BF00083FF15C061E0C8010E940E038823C9F17C
:100C00006D2DC8010E9492058D1133C0DF91CF91E7
:100C10001F910F91FF90EF90DF900C94BE0260E067
:100C2000C8010E940E03882321F1C8010E949F047D
:100C3000EBCF842F8770C1E0D0E07E0101C0EE0CC5
:100C40008A95EAF7D42FD870CB010E949F04C82F51
:100C5000D4FE1AC061E0C8010E940E03882349F047
:100C6000DD2379F0CE296C2FC8010E9492058C17E4
:100C700069F2DF91CF911F910F91FF90EF90DF907C
:100C80000895E094CE21EFCF60E0C8010E940E03EA
:100C9000882379F3CE21DD2319F0C111B7CFE9CF35
:100CA000CC2309F4B3CFE5CFCF92DF92EF92FF923E
:100CB0000F931F93CF93DF937C016B01C42F122FEF
:100CC000D42FD07E8091C20187FF2AC0D03EB1F5DB
:100CD0008091C301882391F190E00E949F04D82F56
:100CE0008091C30190E001960E949F04982F8D2F60
:100CF000E816F90619F56C2F70E0762F662766273F
:100D00007370612B6F5F7F4F402F8C2FDF91CF91DE
:100D10001F910F91FF90EF90DF90CF900C94ED0515
:100D200080FD36C0D03609F46EC088F4D03209F4A4
:100D30004CC0D03409F467C0DD2399F1DF91CF9125
:100D40001F910F91FF90EF90DF90CF900895D03AD0
:100D500009F491C0B0F4D03889F780E090E02C2FEE
:100D60002F7141E050E0892B49F3B601C701DF91B3
:100D7000CF911F910F91FF90EF90DF90CF900C9447
:100D80000000D03C09F485C0D03E09F4B4CFD6CFE2
:100D90000E94C6048E159F0529F2E114F10411F298
:100DA000CDCF8C2F8E7051F680E090E0892B31F200
:100DB000C0FFC4CF81E0DF91CF911F910F91FF90D1
:100DC000EF90DF90CF900C940000CF71CF3109F0FD
:100DD000B5CF80E090E0892B09F4B0CF412F4F7759
:100DE00071F0413071F0111F1127111F212F30E0D8
:100DF0000FE710E0B601C7010E9400009FCF41E05D
:100E0000F2CF40E0F0CF80E090E0892BC1F02C2FB2
:100E100030E08C2F8F71813029F030F0803121F05B
:100E20008131F9F440E001C041E025FB222720F99F
:100E30000DE110E030E0B601C7010E94000080E043
:100E400090E0892B09F47ACF4C2FB601C701DF91CE
:100E5000CF911F910F91FF90EF90DF90CF900C9466
:100E60000000C901880F991F8E71C4FB442740F907
:100E7000482B4250DACF80E090E0892B09F45ECF16
:100E80002C2F2F7043E050E0C4FF6FCF42E050E0C2
:100E90006CCFCF71CE3161F0CF3109F04FCF80E010
:100EA00090E0212F45E050E0892B09F05ECF46CF3E
:100EB00080E090E0212F44E050E0892B09F055CFED
:100EC0003DCF1F920F920FB60F9211242F933F9395
:100ED0004F935F936F937F938F939F93AF93BF9342
:100EE000EF93FF938BED91E00E945A01FF91EF91F8
:100EF000BF91AF919F918F917F916F915F914F9132
:100F00003F912F910F900FBE0F901F9018951F9239
:100F10000F920FB60F9211242F938F939F93EF93FD
:100F2000FF93E091EB01F091EC018081E091F10100
:100F3000F091F20182FD1BC090818091F4018F5FDE
:100F40008F732091F501821741F0E091F401F0E0F8
:100F5000E552FE4F958F8093F401FF91EF919F91A1
:100F60008F912F910F900FBE0F901F901895808139
:100F7000F4CF1F920F920FB60F9211242F933F932D
:100F80008F939F93AF93BF9380919E0190919F0108
:100F9000A091A001B091A10130917F0123E0230F26
:100FA0002D3758F50196A11DB11D20937F01809327
:100FB0009E0190939F01A093A001B093A101809105
:100FC000800190918101A0918201B09183010196ED
:100FD000A11DB11D8093800190938101A093820196
:100FE000B0938301BF91AF919F918F913F912F91CA
:100FF0000F900FBE0F901F90189526E8230F0296B2
:10100000A11DB11DD2CF1F920F920FB60F921124C6
:101010002F933F934F935F936F937F938F939F9300
:10102000AF93BF93EF93FF93E0910401F09105011B
:101030000995FF91EF91BF91AF919F918F917F9112
:101040006F915F914F913F912F910F900FBE0F9035
:101050001F9018951F920F920FB60F9211242F9385
:101060003F934F935F936F937F938F939F93AF9330
:10107000BF93EF93FF93E0910201F0910301099573
:10108000FF91EF91BF91AF919F918F917F916F9160
:101090005F914F913F912F910F900FBE0F901F9036
:1010A0001895CF93DF93CDB7DEB728970FB6F89496
:1010B000DEBF0FBECDBFEBEDF1E01382128288EEF2
:1010C00093E0A0E0B0E084839583A683B7838CE6A9
:1010D00091E09183808385EC90E09587848784EC10
:1010E00090E09787868780EC90E0918B808B81ECF5
:1010F00090E0938B828B82EC90E0958B848B86ECD6
:1011000090E0978B868B118E128E138E148E88E052
:10111000EDE9F2E0DE01119601900D928A95E1F77A
:10112000EFE8F2E08CE18087118612861386148640
:10113000158688E0FE013196AFE8B2E001900D928D
:101140008A95E1F780E690E00E94990F90938E02D5
:1011500080938D0288E790E09093140180931301AF
:101160008091060190E0E8E7F2E021E02387148611
:101170009383828328960FB6F894DEBF0FBECDBF4F
:10118000DF91CF910895CF93DF93CDB7DEB7AB97C3
:101190000FB6F894DEBF0FBECDBF789484B58260E1
:1011A00084BD84B5816084BD85B5826085BD85B50B
:1011B000816085BD80916E00816080936E00109289
:1011C0008100809181008260809381008091810004
:1011D0008160809381008091800081608093800095
:1011E0008091B10084608093B1008091B0008160F3
:1011F0008093B00080917A00846080937A0080911F
:101200007A00826080937A0080917A008160809376
:101210007A0080917A00806880937A001092C100F1
:10122000E091EB01F091EC0182E08083E091E70135
:10123000F091E8011082E091E901F091EA018FEC70
:1012400080831092F301E091EF01F091F00186E0CC
:101250008083E091ED01F091EE01808180618083D7
:10126000E091ED01F091EE01808188608083E09152
:10127000ED01F091EE01808180688083E091ED01C5
:10128000F091EE0180818F7D80838BED91E09093D2
:1012900079028093780290E6A92E91E0B92E28E594
:1012A000C22E21E0D22E38E6832E31E0932E760135
:1012B0008501D8017D908D0161E0872D0E94350266
:1012C00060E0872D0E94E901F70171907F0161E0E4
:1012D000872D0E94350260E0872D0E94E90180166B
:1012E000910639F761E08DE00E94350261E08DE002
:1012F0000E94E9011092D30182E08093D40160E062
:101300000E943502E9E8F1E085E1DF011D928A954E
:10131000E9F783E08093880182E990E09093870168
:101320008093860182E590E090938501809384010B
:1013300063E070E08091D3010E94B60080EC80935E
:10134000C20189E78093C3018FEF9FEF9093D6018D
:101350008093D5011092D7018DE190E00E949F0407
:10136000682F606C8DE190E00E94920564E687E052
:1013700090E00E9492056DE088E090E00E94920566
:1013800080E00E94900468EE73E080E090E00E94AC
:101390008B0288E790E00E949F04883791F407E071
:1013A00011E082E5E82E81E0F82EE016F10679F0F2
:1013B000F8016281808191810E94DC050D5F1F4FE1
:1013C000F4CF81E090E00E949F048F3F41F30E94A0
:1013D000A7048BE190E00E949F04FAE08F9FC00178
:1013E00011249093010180930001A2E28A2E912C96
:1013F000512CF12CE12C66246394712CE0918D0228
:10140000F0918E02EE0DFF1D11821082852D0E943B
:101410003D05E0918D02F0918E02EE0DFF1D82815F
:101420009381029734F07382628261E0C4010E946A
:10143000DC0500918D0210918E020E0D1F1DD5014D
:101440008C91F6014080D80112962D913C91232B6E
:1014500009F4DDC061E00E94E90160E0842D0E9492
:10146000E90180919B02882399F0F80164817581DC
:10147000072E000C880B990B0E948B0260E0D501AF
:101480008C910E94E90160E0F60180810E94E901EF
:101490006091000170910101072E000C880B990BDF
:1014A0000E948B02D80119961C921E9218971296D0
:1014B0008D919C91139717969C938E931697BCE0F1
:1014C000EB0EF11C5394EFEFAE1ABE0AFFEFCF1AEA
:1014D000DF0A25E0820E911C48E054128FCF60E0B5
:1014E0008DE00E94E901CE018A969BA78AA7CC24B1
:1014F000C394D12C80918302882321F0109283021F
:10150000109284028091780290917902DC01ED9131
:10151000FC910084F185E02D099508970CF42AC10F
:101520008E010E5D1F4FE5E8AE2EE2E0BE2E750186
:101530008091780290917902DC01ED91FC91028416
:10154000F385E02D09958053F80181938F01D70130
:101550001D927D01EAA5FBA5E017F10749F79AA1C5
:101560008AE09BA0989F900C11242CA194E60DA1D9
:10157000089F80011124299F000D111D11242EA107
:10158000020F111D2FA1E8A4E89E70011124299FCC
:10159000E00CF11C112489A5E80EF11C083EF3E0D3
:1015A0001F072CF428EEE21623E0F2061CF081E07F
:1015B0008093840289E08093850298E0909386026C
:1015C0009091840291118093860280E090E0892BB3
:1015D00029F0A701B801892D0E9400009BE099160F
:1015E00009F408C19915C0F0A1E09A1609F47FC06A
:1015F0009A1608F46BC0B2E09B1609F47BC0EAE0CF
:101600009E1609F47AC089E0809386027AC060E071
:101610000E94E90161E022CFFEE19F1609F4EFC0CC
:10162000F91598F08CEE890D823068F7E0918D0203
:10163000F0918E024CE0049FE00DF11D1124D18643
:10164000C08690E0978386835CC02FE19212DBCF47
:101650008091810290918202FC01EE0FFF1FE80F42
:10166000F91FE95FFE4F00811181083E83E01807F2
:1016700010F007EE13E0C8010E94870080917C0201
:101680008093870280917D028093880280917E0200
:1016900080938902C8010E949F0490E00E94870005
:1016A00080917C0280938A0280917D0280938B02DC
:1016B00080917E0280938C028091810290918202BF
:1016C000019690938202809381021BC082E090E099
:1016D0000E94870080917C0280938A0280917D0223
:1016E00080938B0280917E0280938C020AC08AE0F4
:1016F00090E0EECF8EE090E0EBCFB701C8010E9402
:10170000EB05E0907802F0907902D5012D915D0112
:1017100030E050E040E019A28E010F5D1F4FCA017A
:10172000B9012AE030E040E050E00E94710F605DB6
:10173000F80162938F01211531054105510579F7B3
:10174000309781F001900020E9F73197AF01401BFD
:10175000510BD701ED91FC910280F381E02DB8018E
:10176000C7010995EDE8F2E0EA15FB0551F681E0C5
:10177000809383028091C4018823F1F02FB7F894FD
:1017800080919E0190919F01A091A001B091A10133
:101790002FBF4091C5015091C6016091C701709162
:1017A000C801841B950BA60BB70B4597A105B10586
:1017B00018F080E00E94900480918B01882309F446
:1017C0004CC0F89488E0E6E9F1E0ADE9B2E00190C0
:1017D0000D928A95E1F710928B01789430919601E1
:1017E000E8E9F1E090E080E03917B1F0219182273B
:1017F0009F5FFACFC8010E949F0490E069CF80915B
:101800007A0290917B029093800280937F021092E3
:101810008202109281025CCF81111FC080E090E0B3
:10182000892B21F08DE992E00E94000080919F02B7
:1018300081110AC19091A002911106C180E090E04F
:10184000892B19F080E00E9400008091C401882358
:1018500009F4F6C081E00E94CD02F12CE12C10E0E9
:1018600000E035E0732EA0908D02B0908E02AE0C99
:10187000BF1CD50118968D919C911997019709F07D
:101880004CC016968D909C90179712968D919C91B6
:1018900013978816990609F440C08D919C91892B65
:1018A000E1F561E08DE00E94E901F801E05AFE4FA8
:1018B0008081F801E85AFE4F608090919802981557
:1018C00009F4CCC261E00E94E90160E0862D0E942B
:1018D000E9019924F501938282822FB7F8948091CF
:1018E0009E0190919F01A091A001B091A1012FBFF5
:1018F000F801EE0FFF1FEE0FFF1FEE55FE4F808326
:101900009183A283B383E0918D02F0918E02EE0D5C
:10191000FF1DD182C082D386C286E0918D02F091F4
:101920008E02EE0DFF1D80819181019709F072C03A
:101930008FB7F89420909E0130909F014090A001B5
:101940005090A1018FBFF801EE0FFF1FEE0FFF1F98
:10195000EE55FE4F80819181A281B381281A390A08
:101960004A0A5B0AA0908D02B0908E02AE0CBF1C9A
:10197000D50114968D919C91092E000CAA0BBB0BDE
:10198000281639064A065B0660F1F50182859385C3
:10199000892B39F11386128680919B02882371F07E
:1019A00060E0F801E05AFE4F80810E94E90160E0AA
:1019B000F801E85AFE4F80810E94E9018091990266
:1019C000882359F0709EC001719E900D1124D5019D
:1019D00012966C9182960E94DC0560E08DE00E9478
:1019E000E901E0918D02F0918E02EE0DFF1D8481E0
:1019F00095812091000130910101820F931F092EE2
:101A0000000CAA0BBB0B281639064A065B0610F021
:101A1000118210820F5F1F4FBCE0EB0EF11C0830EB
:101A2000110509F020CF80E090E0892B09F462CD08
:101A30000E944601882309F45DCD0E9400005ACD22
:101A400081E00E94900409CF9091C401992309F488
:101A500080C08057803108F079C081E00E94CD02BB
:101A600048E050E06BEC71E08DE992E00E94BE101E
:101A7000892B61F01092CA0188E0EDE9F2E0ABEC4D
:101A8000B1E001900D928A95E1F7E7CE8091CA010D
:101A90008F5F8093CA0180919D02833009F040C01E
:101AA00090919F02892F8770F090A002853029F4D1
:101AB000F092C9010E94BE02D0CE0DE110E0843048
:101AC00091F0282F30E08430F0F40091C901002318
:101AD000D1F00150110B000F111F000F111F020F49
:101AE000131F0F5F1F4F93FF10C061E0C8010E94DA
:101AF0000E03882309F4B1CE6F2DC8010E94920510
:101B0000F812ABCED7CF8901ECCF60E0C8010E94BC
:101B10000E03882309F4A1CEC8010E949F04F0CFD0
:101B2000843009F09ACE80919F02682F70E0762F62
:101B30006627662773709091A002692B6F5F7F4FB5
:101B40004091A1028C700E94ED0587CE80E00E943A
:101B50009004E0919F02EF3F61F48091A002811117
:101B60007CCE80E090E0892B09F477CE0E940000C3
:101B700074CEE7FD0DC00091A2022091A102409118
:101B8000A00270E060E08E2F90E00E94540665CEC7
:101B9000E03C08F052C19091C20197FF5ECE809167
:101BA000A002282F30E0890100951095000F111F29
:101BB000000F111F007C1170EF730E2B35952795C8
:101BC000A22FA3709A2E20919D02253039F58C7892
:101BD0008C3021F50E94C6048017910721F00F3F39
:101BE000114009F03ACE0091A00210E0102F00271A
:101BF000002713708091A102080F111D0F5F1F4F66
:101C0000F090A20261E0C8010E940E036F2D8823AC
:101C100009F423CEC8010E9492051FCE5801E1E0CD
:101C2000AE1AB108AA0CBB1CAA0CBB1CA9287501D2
:101C3000FFEFEF1AFF0A8091D7018823F9F096FF92
:101C400041C0C70160E071E00E945D0F682F81E034
:101C500090E00E949205C701F7FE02C081509F4F9D
:101C6000692F89E090E00E94920580E090E0892B46
:101C700019F0C7010E9400001092D7018091C201A3
:101C800080FD39C080919D02843009F04FC0809161
:101C9000A0028978813009F0E0CDE0E0F0E0EF2BA0
:101CA00029F06091A102C7010E94000080E090E04D
:101CB000892B09F4D2CD4091A102692DC7010E9460
:101CC0000000CBCDB8016F73772781E090E00E94D0
:101CD0009205B801E6E075956795EA95E1F789E028
:101CE00090E00E94920580E090E0892B29F2C801E3
:101CF0000E940000C1CF86FF0DC00E94C6048E1551
:101D00009F0509F4BFCF9DEFE91697E0F9060CF0A7
:101D1000B9CFA3CD0E94C6048017910709F4B2CFB2
:101D20000F3FA1E01A0709F4ADCF97CD833049F5F5
:101D30004091A002942F9170A92E43FBBB24B0F8D0
:101D400047702B2DB801C7010E9418058091C20170
:101D500086FF0BC0A0E0B0E0AB2B09F47ECD4B2D8D
:101D60006A2DC7010E94000078CDE0E0F0E0EF2B83
:101D700009F473CD2B2D4A2D692DC8010E94000056
:101D80006CCD863009F069CD8091A002982F9978AA
:101D9000913021F08F78803809F05FCD8091C201B9
:101DA00086FF28C00E94C6048E159F05E9F4809125
:101DB000A10290E0382F2227222733700091A2023F
:101DC000020F132F111D0F5F1F4FF090A302959567
:101DD000879595958795837099278230910599F01D
:101DE000039709F40FCF39CDFDEFEF16F7E0FF06AB
:101DF000F4F633CD0E94C60480179107C1F20F3F5D
:101E00001140A9F22ACDF4FE28CD61E0C8010E945C
:101E10000E03882309F421CDC8010E949F049F2D41
:101E20009770B60101C0660F9A95EAF7F3FE02C0FB
:101E3000682BF0CE60956823EDCEE83E08F00DCD1E
:101E4000E05CFF0B8091A0020091A3022091A2020E
:101E50004091A10261E070E09E2F97CE60E00E9469
:101E6000E90161E033CDF999FECF92BD81BDF89AC9
:101E7000992780B50895262FF999FECF1FBA92BDF4
:101E800081BD20BD0FB6F894FA9AF99A0FBE01965B
:101E90000895AA1BBB1B51E107C0AA1FBB1FA617B1
:101EA000B70710F0A61BB70B881F991F5A95A9F703
:101EB00080959095BC01CD01089597FB072E16F4EF
:101EC000009407D077FD09D00E94490F07FC05D088
:101ED0003EF4909581959F4F0895709561957F4F41
:101EE0000895A1E21A2EAA1BBB1BFD010DC0AA1F5B
:101EF000BB1FEE1FFF1FA217B307E407F50720F073
:101F0000A21BB30BE40BF50B661F771F881F991FED
:101F10001A9469F760957095809590959B01AC0136
:101F2000BD01CF010895EE0FFF1F0590F491E02D44
:101F300009940F931F93CF93DF938230910510F490
:101F400082E090E0E091A702F091A80230E020E06A
:101F5000B0E0A0E0309799F42115310509F44AC0AA
:101F6000281B390B24303105D8F58A819B816115F6
:101F7000710589F1FB0193838283FE0111C04081C9
:101F800051810281138148175907E0F0481759071A
:101F900099F4109761F012960C93129713961C9374
:101FA0003296CF01DF91CF911F910F910895009349
:101FB000A7021093A802F4CF2115310551F0421762
:101FC000530738F0A901DB019A01BD01DF01F801D7
:101FD000C1CFEF01F9CF9093A8028093A702CDCF94
:101FE000FE01E20FF31F819391932250310939834F
:101FF0002883D7CF2091A5023091A602232B41F44C
:1020000020915401309155013093A6022093A502EE
:1020100020915201309153012115310541F42DB722
:102020003EB74091560150915701241B350BE0916A
:10203000A502F091A602E217F307A0F42E1B3F0BB6
:102040002817390778F0AC014E5F5F4F241735072A
:1020500048F04E0F5F1F5093A6024093A502819354
:1020600091939FCFF0E0E0E09CCFCF93DF93009778
:10207000E9F0FC01329713821282A091A702B0917D
:10208000A802ED0130E020E01097A1F42081318119
:10209000820F931F2091A5023091A60228173907BD
:1020A00009F061C0F093A602E093A502DF91CF9101
:1020B0000895EA01CE17DF07E8F54A815B819E01AA
:1020C00041155105B1F7E901FB83EA834991599123
:1020D000C40FD51FEC17FD0761F480819181029632
:1020E000840F951FE90199838883828193819B8363
:1020F0008A83F0E0E0E012968D919C91139700970F
:10210000B9F52D913C911197CD010296820F931F45
:102110002091A5023091A6022817390739F6309789
:1021200051F51092A8021092A702B093A602A093B4
:10213000A502BCCFD383C28340815181840F951FF8
:10214000C817D90761F44E5F5F4F88819981480FA6
:10215000591F518340838A819B81938382832115F8
:10216000310509F0B0CFF093A802E093A7029ECF0B
:10217000FD01DC01C0CF13821282D7CFFB01DC014D
:1021800004C08D910190801921F441505040C8F74E
:0A219000881B990B0895F894FFCF07
:10219A00F401CC02CC02190100010900001100006F
:1021AA001200000000007900637A00001B00321C54
:1021BA00000A1F000F22000024000F270000290038
:1021CA000F2C00002E000F31000033000F360000E4
:1021DA0038000F3B00003D000F40000042000F4551
:1021EA0000000000A90280000406080A0C0F11135F
:1021FA00030507090B0E1012000000007C01DC0029
:0A220A000901C9013A0118012C0175
:107E0000112484B714BE81FFF0D085E080938100F7
:107E100082E08093C00088E18093C10086E0809377
:107E2000C20080E18093C4008EE0C9D0259A86E02C
:107E300020E33CEF91E0309385002093840096BBD3
:107E4000B09BFECF1D9AA8958150A9F7CC24DD24C4
:107E500088248394B5E0AB2EA1E19A2EF3E0BF2EE7
:107E6000A2D0813461F49FD0082FAFD0023811F036
:107E7000013811F484E001C083E08DD089C08234E0
:107E800011F484E103C0853419F485E0A6D080C0E4
:107E9000853579F488D0E82EFF2485D0082F10E0AE
:107EA000102F00270E291F29000F111F8ED06801E7
:107EB0006FC0863521F484E090D080E0DECF843638
:107EC00009F040C070D06FD0082F6DD080E0C81688
:107ED00080E7D80618F4F601B7BEE895C0E0D1E017
:107EE00062D089930C17E1F7F0E0CF16F0E7DF06D8
:107EF00018F0F601B7BEE89568D007B600FCFDCFD4
:107F0000A601A0E0B1E02C9130E011968C91119780
:107F100090E0982F8827822B932B1296FA010C0160
:107F200087BEE89511244E5F5F4FF1E0A038BF0790
:107F300051F7F601A7BEE89507B600FCFDCF97BE46
:107F4000E89526C08437B1F42ED02DD0F82E2BD052
:107F50003CD0F601EF2C8F010F5F1F4F84911BD097
:107F6000EA94F801C1F70894C11CD11CFA94CF0C13
:107F7000D11C0EC0853739F428D08EE10CD085E9AC
:107F80000AD08FE07ACF813511F488E018D01DD067
:107F900080E101D065CF982F8091C00085FFFCCF94
:107FA0009093C60008958091C00087FFFCCF809118
:107FB000C00084FD01C0A8958091C6000895E0E648
:107FC000F0E098E1908380830895EDDF803219F02E
:107FD00088E0F5DFFFCF84E1DECF1F93182FE3DFCA
:107FE0001150E9F7F2DF1F91089580E0E8DFEE27F6
:047FF000FF270994CA
:027FFE00040479
:0400000300007E007B
:00000001FF
