:020000040000FA
:100000000C9462000C94D10B0C94AA0B0C948A00F3
:100010000C948A000C948A000C948A000C948A0038
:100020000C948A000C948A000C948A000C948A0028
:100030000C948A000C948A000C948A000C948A0018
:100040000C94600B0C948A000C942E0B0C94080BEF
:100050000C948A000C948A000C948A000C948A00F8
:100060000C948A000C948A000000000024002700F1
:100070002A0000000000250028002B0000000000DE
:1000800023002600290004040404040404040202DA
:100090000202020203030303030301020408102007
:1000A0004080010204081020010204081020000012
:1000B0000008000201000003040700000000000027
:1000C0000000F80B11241FBECFEFD8E0DEBFCDBF7C
:1000D00011E0A0E0B1E0EEE2F6E202C005900D9280
:1000E000A03BB107D9F722E0A0EBB1E001C01D921F
:1000F000A73FB207E1F710E0C2E6D0E004C02197C5
:10010000FE010E94DD11C136D107C9F70E94730CB0
:100110000C9415130C9400009C011092C9021092CB
:10012000CA0284369105B0F064E670E00E94B51111
:100130006093C9028091C902A90164E6869F4019B3
:1001400051091124CA016AE070E00E94B511609360
:10015000CA0202C00A9770F78091C90294E6899F8B
:10016000201911248091CA024AE0849F2019112489
:100170002093CB0208958230F8F4E82FF0E0EE0FE0
:10018000FF1FEB5FFE4F26EA32E031832083813090
:1001900041F0809169008C7F682B60936900E89A38
:1001A000089580916900837F660F771F660F771F20
:1001B000682B60936900E99A08958AE280930901A7
:1001C0000895AF92BF92CF92DF92EF92FF920F937A
:1001D0001F93CF93DF936C017B018B01040F151FDD
:1001E000EB015E01AE18BF08C017D10759F0699145
:1001F000D601ED91FC910190F081E02DC6010995A9
:10020000892B79F7C501DF91CF911F910F91FF9055
:10021000EF90DF90CF90BF90AF900895FC01538D89
:10022000448D252F30E0842F90E0821B930B5417D0
:1002300010F0CF96089501970895FC01918D828D5D
:10024000981761F0A28DAE0FBF2FB11D5D968C91F6
:10025000928D9F5F9F73928F90E008958FEF9FEF35
:100260000895FC01918D828D981731F0828DE80FF1
:10027000F11D858D90E008958FEF9FEF0895FC01AB
:10028000918D228D892F90E0805C9F4F821B910978
:100290008F739927089584E292E00E943F0121E044
:1002A000892B09F420E0822F089580E090E0892BCB
:1002B00029F00E944B0181110C9400000895FC016B
:1002C000A48DA80FB92FB11DA35ABF4F2C91848DB7
:1002D00090E001968F739927848FA689B7892C9314
:1002E000A089B1898C91837080648C93938D848D67
:1002F000981306C00288F389E02D80818F7D80836A
:100300000895EF92FF920F931F93CF93DF93EC0129
:1003100081E0888F9B8D8C8D98131AC0E889F989AC
:10032000808185FF15C09FB7F894EE89FF896083AF
:10033000E889F98980818370806480839FBF81E030
:1003400090E0DF91CF911F910F91FF90EF90089572
:10035000F62E0B8D10E00F5F1F4F0F731127E02E4D
:100360008C8D8E110CC00FB607FCFACFE889F98985
:10037000808185FFF5CFCE010E945F01F1CFEB8D2B
:10038000EC0FFD2FF11DE35AFF4FF0829FB7F89459
:100390000B8FEA89FB8980818062CFCFCF93DF9377
:1003A000EC01888D8823B9F0AA89BB89E889F9898D
:1003B0008C9185FD03C0808186FD0DC00FB607FCC2
:1003C000F7CF8C9185FFF2CF808185FFEDCFCE01F5
:1003D0000E945F01E9CFDF91CF910895833081F0D2
:1003E00028F4813099F08230A9F008958730A9F07F
:1003F0008830C9F08430B1F4809180008F7D03C0D3
:10040000809180008F7780938000089584B58F77E6
:1004100084BD089584B58F7DFBCF8091B0008F7728
:100420008093B00008958091B0008F7DF9CF1F9325
:10043000CF93DF93282F30E0F901E255FF4F8491ED
:10044000F901E656FF4FD491F901EA57FF4FC491E5
:10045000CC23A9F0162F81110E94EE01EC2FF0E0C1
:10046000EE0FFF1FEE58FF4FA591B4918FB7F89490
:10047000EC91111108C0D095DE23DC938FBFDF9182
:10048000CF911F910895DE2BF8CFCF93DF9390E0AB
:10049000FC01E656FF4F24918A579F4FFC0184913F
:1004A0008823C9F090E0880F991FFC01E859FF4F9D
:1004B000A591B491FC01EE58FF4FC591D491611103
:1004C0000DC09FB7F8948C91209582238C938881DE
:1004D000282328839FBFDF91CF910895623051F484
:1004E0009FB7F8943C91822F809583238C93E88169
:1004F0002E2BEFCF8FB7F894EC912E2B2C938FBF30
:10050000EACF3FB7F8948091BA019091BB01A091D6
:10051000BC01B091BD0126B5A89B05C02F3F19F0C5
:100520000196A11DB11D3FBFBA2FA92F982F882773
:10053000BC01CD01620F711D811D911D42E0660F4E
:10054000771F881F991F4A95D1F70895FF920F933F
:100550001F93CF93DF930E9481022091B3013091CA
:10056000B401EB01C21BD30B2091C0013091C1013A
:10057000C217D30708F45FC04091F4015091F50110
:100580004130510561F0E0911D02F0911E02208181
:1005900030911F0223233091BE0123134CC070936E
:1005A000B4016093B3010091C2011091C3014230C4
:1005B000510509F413C14330510509F44EC14130CE
:1005C000510561F48091B201813009F447C0C8F14E
:1005D000833009F482C0843009F4C9C08091F401E9
:1005E0009091F501019739F1C017D10708F06DC15D
:1005F0008091B0018F5F8093B0018B30E0F081E09B
:1006000090E09093F5018093F40161E070E08091B7
:100610001B020E94BB001092BE011092B20182E543
:1006200090E09093C3018093C20183E290E09093A5
:10063000C1018093C001DF91CF911F910F91FF9075
:100640000895C017D10730F481E08093B201C093C0
:10065000B101C4CF84E08093B201C0CFC017D107ED
:10066000D0F51092B2018091B0018F5F8093B001FC
:100670002091B1018C2F0C2E000C990B821B91093B
:1006800027FD939597FF03C091958195910949970F
:1006900094F21092F5011092F40182E990E09093A7
:1006A000C3018093C20182E590E09093C1018093E1
:1006B000C0011092B001F090BF016F2D70E08091E9
:1006C0001B020E94BB0080911F0293E0F91227C019
:1006D0008093BE0183CF83E0BECFC017D10708F55A
:1006E0001092F5011092F40182E990E09093C30119
:1006F0008093C20182E590E09093C1018093C00194
:100700001092B001F090BF016F2D70E080911B023C
:100710000E94BB0080911F0233E0F316C9F280E013
:10072000D7CF9091BF01933009F482E08093BF014D
:1007300082E090E09093F5018093F40182E990E0EB
:100740009093C3018093C20182E590E09093C10130
:100750008093C0011092FA018091B0018093FB0157
:100760001092F7011092F9011092F801CBCFC01747
:10077000D107A8F41092F5011092F40182E990E0FB
:100780009093C3018093C20182E590E09093C101F0
:100790008093C0011092B0011092F7018CCF82E0DB
:1007A00090E09093F5018093F40182E990E09093BA
:1007B000C3018093C20182E590E09093C1018093D0
:1007C000C0011092FA018091B0018093FB01109258
:1007D000F7011092F9011092F8016DCF9091F70195
:1007E0009F5F9093F7018091F801880FC017D107A0
:1007F000E0F08093F801983009F0F6CEE091FA012C
:10080000E630A9F41092F5011092F40182E990E02B
:100810009093C3018093C20182E590E09093C1015F
:100820008093C0011092F701D9CE8160E2CF83E0BE
:1008300090E09093F5018093F40181E08E0F809316
:10084000FA019091F801F0E0EC50FE4F9087809112
:10085000F90189278093F901C1CEC017D10728F586
:100860001092F5011092F4011092F70182E990E0E4
:100870009093C3018093C20182E590E09093C101FF
:100880008093C0018091F9018111B2CE88E0EAEF36
:10089000F1E0A2E0B2E001900D928A95E1F781E0EB
:1008A0008093F6011092B00199CE8091FA018630C2
:1008B00009F4A8CF82E090E09093F5018093F401D1
:1008C0001092F7011092F80189CE1092B001B3CEC8
:1008D0008F929F92AF92BF92CF92DF92EF92FF9250
:1008E0006B017C010E9481024B015C01C114D104A7
:1008F000E104F104B9F00E948102681979098A09BA
:100900009B09683E73408105910580F321E0C21A7E
:10091000D108E108F10888EE880E83E0981EA11C3A
:10092000B11CE4CFFF90EF90DF90CF90BF90AF90DD
:100930009F908F90089561E08BE00E94170266E01F
:1009400070E080E090E00E94680460E08BE00C942E
:1009500017020C949B042FB7F8946091B601709124
:10096000B7018091B8019091B9012FBF0895089502
:10097000CF93C82F80E090E0892B51F080910C023A
:100980008C1731F081E0C11101C080E00E940000AD
:10099000C0930C0260E070E0CB01C1110E94AB0477
:1009A00060930D0270930E0280930F0290931002D9
:1009B00080E090E0892B59F080910C028C1739F07F
:1009C00081E0C11101C080E0CF910C940000CF9173
:1009D00008958830910561F46623E9F02AE22093B6
:1009E000090120E030E041E0232B81F00C9400006D
:1009F00020E030E0232BD1F741E0811524E092077D
:100A000008F040E0611102C0842F08950797029713
:100A1000D8F740E0F9CF20E030E0232B39F741E070
:100A2000F3CF80E090E0892B29F08091230283FDB1
:100A30000C940000089520E1829FC0011124E091F0
:100A4000DA02F091DB02E80FF91F81E090E0918774
:100A5000808770E07783668308950E94B804EAE097
:100A6000F2E081E087831086E3E1F2E088E0DF01D5
:100A70001D928A95E9F7089520E030E0232B11F0CC
:100A80000C9400000C947D111092E5021092E60285
:100A90001092E7021092E8021092E9021092EA0224
:100AA0008091E40290E00E943C0580FF03C091E049
:100AB0009093E50281FF03C091E09093E60282FFEC
:100AC00003C091E09093E70283FF03C091E090930D
:100AD000E80284FF03C091E09093E90285FF03C020
:100AE00081E08093EA020895CF93DF932091200262
:100AF000309121022F3F320721F0C901DF91CF91C0
:100B000008958091230287FF2BC086FF0FC089E0E4
:100B100090E00E943C05C82F81E090E00E943C05D7
:100B20009C2F909321028093200215C089E090E0D1
:100B30000E943C05C82F81E090E00E943C0590E4B3
:100B4000C99F90011124207C31708F73282B309322
:100B50002102209320028091200290912102CECF89
:100B600085FF0CC081E190E00E943C05C82F82E126
:100B700090E00E943C05C05CDD0BD2CF81E090E0AC
:100B80000E943C0590E0CDCFEF92FF920F931F9310
:100B9000CF93DF93EC01062F8091EA02882349F17D
:100BA000F12CE12C10E0E091DA02F091DB02EE0D85
:100BB000FF1D848595858C179D0771F48685978523
:100BC00061E0892B21F0002321F060E002C00023C6
:100BD000E1F3812F0E941B051F5F80E1E80EF11CED
:100BE000143009F7DF91CF911F910F91FF90EF9093
:100BF00008950E9474059C01C817D90798F30496BC
:100C0000C817D90778F78C2F821BC21BD30B94E02F
:100C1000CC0FDD1F9A95E1F72091DA023091DB02CB
:100C2000C20FD31F2E853F8561E0232B21F00023C7
:100C300021F060E002C00023E1F3DF91CF911F912A
:100C40000F91FF90EF900C941B05CF92DF92EF92E3
:100C5000FF920F931F93CF93DF93082FC82ED12CB1
:100C6000E60194E0CC0FDD1F9A95E1F78091EA024E
:100C7000882309F450C0760128E2E20EF11CEE0C44
:100C8000FF1CC7010E943C05182FC70101960E9456
:100C90003C05E091DA02F091DB02EC0FFD1F982F8A
:100CA000812F95878487C6018A5B9F4F0E943C05F0
:100CB000E091DA02F091DB02EC0FFD1F90E09787E4
:100CC000868785E0089F80011124C8014F960E9405
:100CD0003C05E091DA02F091DB02EC0FFD1F2AE007
:100CE0008202C001112495838483C80182960E94E8
:100CF0003C052091DA023091DB02C20FD31F90E055
:100D00009B838A83DF91CF911F910F91FF90EF908A
:100D1000DF90CF900895E091DA02F091DB02EC0FC2
:100D2000FD1F15861486BFCF61E08BE00E9417027D
:100D300064E170E080E090E00E94680460E08BE095
:100D40000E9417028BE190E00E943C052AE0829FFE
:100D5000C001112490930401809303010E94440573
:100D600080E00E94250681E00E94250682E00E9424
:100D7000250683E00C9425061F93CF93DF93EC01A7
:100D8000162F83319105C8F48131910528F4813003
:100D9000910511F0099731F48FEF9FEF90932102A5
:100DA0008093200280E090E0892BA9F0612FCE0192
:100DB000DF91CF911F910C9400004D9799F7177F09
:100DC0001093230280910A028F73912F907C892BBC
:100DD00080930A02E1CFCE010E947D111817A1F085
:100DE000612FCE010E948511612FCE010E949406D1
:100DF00080E090E0892B41F080910A0284FD04C0DC
:100E0000612FCE010E940000CE01DF91CF911F9192
:100E10000C947D11CF93DF93CAE0D2E0288120614A
:100E200028830E94BC0698819F7E9883DF91CF9192
:100E300008950C940A07BF92CF92DF92EF92FF922F
:100E40000F931F93CF93DF938B01B42E690182FF21
:100E500023C083FF17C061E0C8010E94E904882312
:100E6000D9F16B2DC8010E94BC068B1135C0F6016B
:100E7000DF91CF911F910F91FF90EF90DF90CF9076
:100E8000BF90099460E0C8010E94E904882321F121
:100E9000C8010E943C05E9CF842F8770C1E0D0E0F3
:100EA0007E0101C0EE0C8A95EAF7D42FD870CB01F1
:100EB0000E943C05C82FB4FE1CC061E0C8010E941E
:100EC000E904882349F0DD2389F0CE296C2FC8017D
:100ED0000E94BC068C1759F2DF91CF911F910F91A0
:100EE000FF90EF90DF90CF90BF900895E094CE21D7
:100EF000EDCF60E0C8010E94E904882369F3CE21A8
:100F0000DD2319F0C111B3CFE7CFCC2309F4AFCF64
:100F1000E3CFCF92DF92EF92FF920F931F93CF9385
:100F2000DF937C016B01C42F122FD42FD07E8091D0
:100F30000A0287FF2CC0D03EC1F580910B028823A6
:100F4000A1F190E00E943C05D82F80910B0290E027
:100F500001960E943C05982F8D2FE816F90629F579
:100F60006C2F70E0762F662766277370612B6F5F9A
:100F70007F4F21E135E0402F8C2FDF91CF911F91E2
:100F80000F91FF90EF90DF90CF900C941B0780FDA6
:100F900036C0D03609F46DC088F4D03209F44BC0A5
:100FA000D03409F466C0DD2399F1DF91CF911F9110
:100FB0000F91FF90EF90DF90CF900895D03A09F411
:100FC00090C0B0F4D03889F780E090E02C2F2F71DA
:100FD00041E050E0892B49F3B601C701DF91CF9181
:100FE0001F910F91FF90EF90DF90CF900C94000035
:100FF000D03C09F484C0D03E09F4B2CFD6CF0E94D1
:1010000074058E159F0529F2E114F10411F2CDCF7C
:101010008C2F8E7051F680E090E0892B31F28C2F6E
:101020008170DF91CF911F910F91FF90EF90DF9032
:10103000CF900C940000CF71CF3109F0B6CF80E093
:1010400090E0892B09F4B1CF412F4F7771F04130F7
:1010500071F0111F1127111F212F30E00FE710E051
:10106000B601C7010E940000A0CF41E0F2CF40E0EE
:10107000F0CF80E090E0892BC1F02C2F30E08C2F56
:101080008F71813029F030F0803121F08131F9F415
:1010900040E001C041E025FB222720F90DE110E0EE
:1010A00030E0B601C7010E94000080E090E0892B8B
:1010B00009F47BCF4C2FB601C701DF91CF911F916F
:1010C0000F91FF90EF90DF90CF900C940000C9013A
:1010D000880F991F8E71C4FB442740F9482B42505A
:1010E000DACF80E090E0892B09F45FCF2C2F2F70AE
:1010F00043E050E0C4FF70CF42E050E06DCFCF71CD
:10110000CE3161F0CF3109F050CF80E090E0212F57
:1011100045E050E0892B09F05FCF47CF80E090E0B9
:10112000212F44E050E0892B09F056CF3ECFDF92CB
:10113000EF92FF920F931F93CF93DF9380910C0256
:101140008823B1F00E94AB0400910D0210910E02B1
:1011500020910F0230911002601B710B820B930BD8
:10116000653171058105910518F080E00E942D051B
:101170008091F6018823B9F1F89488E0E2E0F2E08A
:10118000ABEEB2E001900D928A95E1F71092F60174
:1011900078948091EB02E82FF0E0E351FD4F863028
:1011A00018F411928F5FFBCF80E090E0892B21F043
:1011B0008BEE92E00E9400008091ED0281111FC031
:1011C0009091EE0291111BC080E090E0892B19F004
:1011D00080E00E94000080910C02882361F081E091
:1011E0000E94B80481E0DF91CF911F910F91FF9091
:1011F000EF90DF90089581E00E942D05F3CF90914C
:101200000C02992309F482C08057803108F07BC01A
:1012100081E00E94B804C091EB0280911302C813D0
:101220000AC04C2F50E065E172E08DEE92E00E9422
:101230000813892B61F01092120288E0EBEEF2E0C5
:10124000A3E1B2E001900D928A95E1F7CBCF8091B6
:1012500012028F5F80931202C330E9F52091ED02F4
:10126000822F87701091EE02853029F410931102BD
:101270000E949B04B7CFCDE1D0E0843089F0C82F25
:10128000D0E0843060F480911102882341F08150D5
:10129000990B880F991F880F991FC80FD91F219686
:1012A00023FF0EC061E0CE010E94E904882309F407
:1012B00099CF612FCE010E94BC06181393CFD8CFCF
:1012C00060E0CE010E94E904882309F48BCFCE01AF
:1012D0000E943C05F2CFC43009F084CF8091ED022A
:1012E000682F70E0762F6627662773709091EE0264
:1012F000692B6F5F7F4F29EA34E04091EF028C70D9
:101300000E941B076FCF80E00E942D05E091ED0247
:10131000EF3F61F48091EE02811164CF80E090E0B4
:10132000892B09F45FCF0E9400005CCFE7FD0DC060
:101330000091F0022091EF024091EE0270E060E037
:101340008E2F90E00E9489074DCFE03C08F04FC1FE
:1013500090910A0297FF46CF8091EE02682F70E0CD
:10136000EB01C095D095CC0FDD1FCC0FDD1FC07CED
:10137000D170EF73CE2B75956795262F2370D22EE3
:101380002091EB02253039F58C788C3021F50E94C4
:1013900074058C179D0721F0CF3FD14009F022CF73
:1013A0008091EE0290E0982F882788279370C09153
:1013B000EF02C80FD92FD11D21961091F00261E0E4
:1013C000CE010E94E904612F882309F40BCFCE01DE
:1013D0000E94BC0607CF8E0101501109000F111F9A
:1013E000000F111F0D2978012FEFE21AF20A8091E8
:1013F00022028823F9F096FF41C0C70160E071E046
:101400000E94C911682F81E090E00E94BC06C701CC
:10141000F7FE02C081509F4F692F89E090E00E9443
:10142000BC0680E090E0892B19F0C7010E94000003
:101430001092220280910A0280FD39C08091EB0255
:10144000843009F04FC08091EE028978813009F034
:10145000C9CE80E090E0892B29F06091EF02C701AE
:101460000E94000080E090E0892B09F4BBCE4091FF
:10147000EF026D2DC7010E940000B4CEBE016F7354
:10148000772781E090E00E94BC06BE0146E075959A
:1014900067954A95E1F789E090E00E94BC0680E0FC
:1014A00090E0892B29F2CE010E940000C1CF86FF77
:1014B0000DC00E9474058E159F0509F4BFCF8DEFF6
:1014C000E81687E0F8060CF0B9CF8CCE0E947405C0
:1014D0008C179D0709F4B2CFCF3F21E0D20709F462
:1014E000ADCF80CE833039F54091EE02042F0170EC
:1014F00043FB112710F980E090E0892B31F0477011
:10150000212FBE01C7010E94000080910A0286FFC0
:1015100006C0412F602FC7010E94C40563CE80E042
:1015200090E0892B09F45ECE212F402F6D2DCE0146
:101530000E94000057CE863009F054CE8091EE0212
:10154000982F9978913021F08F78803809F04ACE21
:1015500080910A0286FF27C00E9474058E159F05A0
:10156000E1F48091EF0290E0382F22272227337098
:10157000C091F002C20FD32FD11D21961091F1021C
:1015800095958795959587958370992782309105D4
:1015900099F0039709F413CF25CE8DEFE81687E075
:1015A000F806FCF61FCE0E9474058C179D07C9F241
:1015B000CF3FD140B1F216CE14FF14CE61E0CE0180
:1015C0000E94E904882309F40DCECE010E943C0557
:1015D000912F977061E070E001C0660F9A95EAF76D
:1015E00013FF02C0682BF3CE60956823F0CEE83E6F
:1015F00008F0F8CDE05CFF0B8091EE020091F10263
:101600002091F0024091EF0261E070E09E2F9ACEAF
:101610001F920F920FB60F9211242F933F934F9367
:101620005F936F937F938F939F93AF93BF93EF934A
:10163000FF9384E292E00E945F01FF91EF91BF91DE
:10164000AF919F918F917F916F915F914F913F915A
:101650002F910F900FBE0F901F9018951F920F9211
:101660000FB60F9211242F938F939F93EF93FF93B5
:10167000E0913402F09135028081E0913A02F091DC
:101680003B0282FD1BC0908180913D028F5F8F7372
:1016900020913E02821741F0E0913D02F0E0EC5DC6
:1016A000FD4F958F80933D02FF91EF919F918F9118
:1016B0002F910F900FBE0F901F9018958081F4CF3F
:1016C0001F920F920FB60F9211242F933F938F9377
:1016D0009F93AF93BF938091B6019091B701A09172
:1016E000B801B091B9013091B50123E0230F2D3736
:1016F00058F50196A11DB11D2093B5018093B60147
:101700009093B701A093B801B093B9018091BA0149
:101710009091BB01A091BC01B091BD010196A11DAA
:10172000B11D8093BA019093BB01A093BC01B0930B
:10173000BD01BF91AF919F918F913F912F910F90DC
:101740000FBE0F901F90189526E8230F0296A11D3B
:10175000B11DD2CF1F920F920FB60F9211242F936B
:101760003F934F935F936F937F938F939F93AF9329
:10177000BF93EF93FF93E0910701F0910801099562
:10178000FF91EF91BF91AF919F918F917F916F9159
:101790005F914F913F912F910F900FBE0F901F902F
:1017A00018951F920F920FB60F9211242F933F930B
:1017B0004F935F936F937F938F939F93AF93BF9359
:1017C000EF93FF93E0910501F09106010995FF91D8
:1017D000EF91BF91AF919F918F917F916F915F91A9
:1017E0004F913F912F910F900FBE0F901F90189522
:1017F000CF93DF93CDB7DEB728970FB6F894DEBF4F
:101800000FBECDBFE4E2F2E01382128288EE93E0D5
:10181000A0E0B0E084839583A683B78382EA91E059
:101820009183808385EC90E09587848784EC90E0B9
:101830009787868780EC90E0918B808B81EC90E09D
:10184000938B828B82EC90E0958B848B86EC90E07E
:10185000978B868B118E128E138E148E88E0EBEE92
:10186000F2E0DE01119601900D928A95E1F7ECED20
:10187000F2E08CE180871186128613861486158625
:10188000168688E0FE013196ACEDB2E001900D9233
:101890008A95E1F780E490E00E94E3119093DB02E7
:1018A0008093DA0288E790E0909317018093160105
:1018B0008091090190E0E1ECF2E021E02787108AB5
:1018C0009383828380E590E09583848386E490E02F
:1018D0009783868328960FB6F894DEBF0FBECDBFE0
:1018E000DF91CF910895CF93DF93CDB7DEB7AD975A
:1018F0000FB6F894DEBF0FBECDBF789484B582607A
:1019000084BD84B5816084BD85B5826085BD85B5A3
:10191000816085BD80916E00816080936E00109221
:10192000810080918100826080938100809181009C
:10193000816080938100809180008160809380002D
:101940008091B10084608093B1008091B00081608B
:101950008093B00080917A00846080937A008091B7
:101960007A00826080937A0080917A00816080930F
:101970007A0080917A00806880937A001092C1008A
:10198000E0913402F091350282E08083E0913002F0
:10199000F09131021082E0913202F09133028FEC2B
:1019A000808310923C02E0913802F091390286E087
:1019B0008083E0913602F0913702808180618083DC
:1019C000E0913602F0913702808188608083E09157
:1019D0003602F0913702808180688083E091360280
:1019E000F091370280818F7D808384E292E0909332
:1019F000C2028093C102EAE9EE2EE1E0FE2E06E982
:101A000011E02EE831E03DA72CA7F2E96F2EF1E0BE
:101A10007F2EAEE94A2EA1E05A2E590148016701F6
:101A2000D6013D906D0161E0832D0E94450260E08A
:101A3000832D0E941702F40131904F0161E0832D44
:101A40000E94450260E0832D0E941702D5013D905F
:101A50005D0161E0832D0E94450260E0832D0E94BC
:101A6000170262E0F30181913F010E9445024C148C
:101A70005D04B1F661E08BE00E94450261E08BE01D
:101A80000E94170210921B0282E080931C02E8E879
:101A9000F0E0E491F0E0EE0FFF1FE458FF4F859176
:101AA000949190931E0280931D02ECE9F0E0E49182
:101AB000E0931F0260E082E00E944502E4EFF1E063
:101AC00086E1DF011D928A95E9F782E990E0909323
:101AD000C3018093C20182E590E09093C10180939D
:101AE000C00180EC80930A0289E780930B028FEF9C
:101AF0009FEF90932102809320021092220283E0B4
:101B00008093BF0180911F028093BE0163E070E06B
:101B100080911B020E94BB008DE190E00E943C0579
:101B2000682F606C8DE190E00E94BC0680932302D8
:101B300064E687E090E00E94BC066DE088E090E0FB
:101B40000E94BC0680E00E942D058BE790E00E9479
:101B50003C0581111BC06CE3C62ED12C64EF71E0F3
:101B600080E090E00E94680461E08BE00E94170230
:101B700064EF71E080E090E00E94680460E08BE038
:101B80000E941702B1E0CB1AD10841F760E08BE761
:101B900090E00E940A0768EE73E080E090E00E9407
:101BA000680488E790E00E943C058837F1F45BE226
:101BB000C52ED12CE1E0CE1AD108B9F0C601880FAC
:101BC000991F880F991F5601A81AB90AC501865F87
:101BD0009E4FFC01E058FF4F82589F4F6081DC010F
:101BE0008D919C910E940A07E5CF0E9444058BE1EC
:101BF00090E00E943C05BAE08B9FC00111249093B5
:101C000004018093030122E2822E912C512CB12CED
:101C1000A12C66246394712CE091DA02F091DB022E
:101C2000EA0DFB1D11821082852D0E942506E09190
:101C3000DA02F091DB02EA0DFB1D828193810297AB
:101C400034F07382628261E0C4010E940A07C0908E
:101C5000DA02D090DB02CA0CDB1CF7018081D801CC
:101C60003C90ECA5FDA54190FDA7ECA7D6011296EE
:101C70002D913C91232B09F400C161E00E941702D1
:101C800060E0832D0E94170261E0842D0E941702FC
:101C90008091E802882399F0F60164817581072E0E
:101CA000000C880B990B0E94680460E0D7018C91AE
:101CB0000E94170260E0F80180810E941702609183
:101CC000030170910401072E000C880B990B0E94F0
:101CD0006804D60119961C921E92189712968D913F
:101CE0009C91139717969C938E931697B0E1AB0E29
:101CF000B11C5394EFEFEE1AFE0A0F5F1F4FF5E091
:101D00008F0E911C94E0C92E5C1086CF61E08BE7AA
:101D100090E00E940A0760E08BE00E9417020AE050
:101D2000402E512C612C712C22242394312C9E01A5
:101D3000265D3F4F3BA72AA78091D002882321F040
:101D40001092D0021092D1028091C1029091C202F1
:101D5000DC01ED91FC910084F185E02D0995089757
:101D60000CF4E6C06E01B2E2CB0ED11C12EDE12EF6
:101D700012E0F12E87018091C1029091C202DC0134
:101D8000ED91FC910284F385E02D09958053F601D5
:101D900081936F01D8011D928D01AAA4BBA4AE1638
:101DA000BF0649F79AA18AE0BBA0989FB00C112406
:101DB0002CA194E60DA1089F80011124299F000DFC
:101DC000111D11242EA1020F111D2FA1C8A4C89E00
:101DD00060011124299FC00CD11C112489A5C80EB3
:101DE000D11C083E23E012072CF438EEC31633E072
:101DF000D3061CF081E08093D10289E08093D20267
:101E000098E09093D3029091D10291118093D302E4
:101E100040E050E0452B29F0A601B8018B2D0E942F
:101E2000000051E25B1508F444C2EB2DF0E0E55EE2
:101E3000F04F0C94DD11460F570F5A0F59115911DD
:101E4000591159115911591159115D0FF9105911A1
:101E50005911591159115911591159115911FE108E
:101E6000FE1059115911591159115911591159117E
:101E70005911041111114F11541160E00E94170201
:101E800061E0832D0E94170260E0FFCE90E080E0C9
:101E90000E948C008091C9028093D7028091CA026F
:101EA0008093D8028091CB028093D9020AC08AE045
:101EB00090E0EECF8FE190E0EBCFB601C8010E9439
:101EC0001907C090C102D090C202D7012D917D01A7
:101ED00030E050E040E019A28E010F5D1F4FCA01B3
:101EE000B901A30192010E949311605DF801629310
:101EF0008F01211531054105510589F7309781F092
:101F000001900020E9F73197AF01401B510BD6013A
:101F1000ED91FC910280F381E02DB801C601099595
:101F2000EAEDF2E0EE15FF0561F681E08093D00264
:101F30000E949708D12CC12C10E000E0E090DA025A
:101F4000F090DB02EC0CFD1CD70118968D919C9152
:101F50001997019709F048C01696AD90BC90179755
:101F600012968D919C911397A816B906E9F18D915F
:101F70009C91892BC9F561E08BE00E941702F80162
:101F8000E656FE4F8081F801EA56FE4F8080F80148
:101F9000E257FE4F90809091E5029A1509F48DC1A9
:101FA00061E00E94170260E0882D0E94170261E044
:101FB000892D0E941702BB24F701B382A2820E94DE
:101FC000AB04F801EE0FFF1FEE0FFF1FEC52FE4FA8
:101FD0006083718382839383D70111963C922E9202
:101FE0001B963C922E921A97E090DA02F090DB0258
:101FF000EC0CFD1CF70180819181019709F068C00C
:102000000E94AB04F801EE0FFF1FEE0FFF1FEC5212
:10201000FE4F80809180A280B3809B01AC01281983
:1020200039094A095B0949015A01D70114968D9172
:102030009C91092E000CAA0BBB0B88169906AA06C8
:10204000BB0668F1F70182859385892B41F11386E0
:1020500012868091E802882371F060E0F801E6566C
:10206000FE4F80810E94170260E0F801EA56FE4FA1
:1020700080810E9417028091E602882361F0F5E0DA
:10208000F09FC001F19F900D1124D70112966C9121
:1020900082960E940A0760E08BE00E941702E0919E
:1020A000DA02F091DB02EC0DFD1D84819581209117
:1020B000030130910401820F931F092E000CAA0B1B
:1020C000BB0B88169906AA06BB0610F01182108277
:1020D0000F5F1F4FB0E1CB0ED11C0430110509F08A
:1020E0002DCF0E9497088091E702882309F474C0DD
:1020F00044ECE42E41E0F42E10E000E099249394A7
:102100000E94AB04F70121913191419151917F01DE
:102110005B016C01A21AB30AC40AD50AB601A50173
:102120008091010190910201092E000CAA0BBB0BBA
:10213000481759076A077B0708F448C00E94AB0498
:10214000F70134976083718382839383F801EE569D
:10215000FE4F208130E0F901E255FF4F8491F901F3
:10216000E656FF4FC490F901EA57FF4FD490DD20A7
:1021700079F081110E94EE01ED2DF0E0EE0FFF1FCE
:10218000E458FF4FA591B491EC91CE2281E009F47F
:1021900080E090910001811199C09130B9F41092C2
:1021A0000001E091DA02F091DB02C80124E0880F1F
:1021B000991F2A95E1F7E80FF91F61E08281938169
:1021C000892B09F060E0802F0E941B050F5F1F4FD5
:1021D0000430110509F094CF80E090E0892B09F4D8
:1021E000ABCD0E944B01882309F4A6CD0E940000CC
:1021F0009ECDC8010E943C0590E04ACE6CEE6B0D6E
:10220000802F0E941B055DCE8091C3029091C40275
:102210009093CD028093CC021092CF021092CE0206
:1022200037CE8091CE029091CF02FC01EE0FFF1FBE
:10223000E80FF91FE65FFE4F00811181083E83E041
:10224000180710F007EE13E0C8010E948C0080917F
:10225000C9028093D4028091CA028093D5028091F2
:10226000CB028093D602C8010E943C0590E00E94F8
:102270008C008091C9028093D7028091CA0280931A
:10228000D8028091CB028093D9028091CE029091A6
:10229000CF0201969093CF028093CE0212CE80910E
:1022A000C5029091C602B4CF8091C7029091C80236
:1022B000AFCF89E08093D30204CE60E00E94170282
:1022C00061E0882D0E94170260E072CE91110BC070
:1022D0009092000184EFC82EDD24D394D0920201A5
:1022E000C092010173CF913009F070CF24E630E045
:1022F000309302012093010169CFF999FECF92BD7D
:1023000081BDF89A992780B50895262FF999FECFB7
:102310001FBA92BD81BD20BD0FB6F894FA9AF99A02
:102320000FBE01960895A1E21A2EAA1BBB1BFD0148
:102330000DC0AA1FBB1FEE1FFF1FA217B307E407A4
:10234000F50720F0A21BB30BE40BF50B661F771FFC
:10235000881F991F1A9469F76095709580959095DC
:102360009B01AC01BD01CF010895AA1BBB1B51E12C
:1023700007C0AA1FBB1FA617B70710F0A61BB70BF5
:10238000881F991F5A95A9F780959095BC01CD019A
:10239000089597FB072E16F4009407D077FD09D017
:1023A0000E94B51107FC05D03EF4909581959F4F92
:1023B0000895709561957F4F0895EE0FFF1F05906A
:1023C000F491E02D09940F931F93CF93DF93823004
:1023D000910510F482E090E0E091F502F091F602B0
:1023E00030E020E0B0E0A0E0309799F4211531050D
:1023F00009F44AC0281B390B24303105D8F58A81ED
:102400009B816115710589F1FB0193838283FE0134
:1024100011C0408151810281138148175907E0F0B2
:102420004817590799F4109761F012960C93129778
:1024300013961C933296CF01DF91CF911F910F918C
:1024400008950093F5021093F602F4CF211531059B
:1024500051F04217530738F0A901DB019A01BD0181
:10246000DF01F801C1CFEF01F9CF9093F60280931D
:10247000F502CDCFFE01E20FF31F8193919322501D
:10248000310939832883D7CF2091F3023091F402A8
:10249000232B41F420918A0130918B013093F40277
:1024A0002093F30220918801309189012115310593
:1024B00041F42DB73EB740918C0150918D01241B02
:1024C000350BE091F302F091F402E217F307A0F468
:1024D0002E1B3F0B2817390778F0AC014E5F5F4F7A
:1024E0002417350748F04E0F5F1F5093F4024093B6
:1024F000F302819391939FCFF0E0E0E09CCFCF93E4
:10250000DF930097E9F0FC01329713821282A091C9
:10251000F502B091F602ED0130E020E01097A1F451
:1025200020813181820F931F2091F3023091F402B8
:102530002817390709F061C0F093F402E093F30221
:10254000DF91CF910895EA01CE17DF07E8F54A81C0
:102550005B819E0141155105B1F7E901FB83EA83D7
:1025600049915991C40FD51FEC17FD0761F4808183
:1025700091810296840F951FE90199838883828156
:1025800093819B838A83F0E0E0E012968D919C9189
:1025900013970097B9F52D913C911197CD010296B3
:1025A000820F931F2091F3023091F402281739070C
:1025B00039F6309751F51092F6021092F502B09369
:1025C000F402A093F302BCCFD383C2834081518134
:1025D000840F951FC817D90761F44E5F5F4F88813C
:1025E0009981480F591F518340838A819B8193832E
:1025F00082832115310509F0B0CFF093F602E09304
:10260000F5029ECFFD01DC01C0CF13821282D7CF2D
:10261000FB01DC0104C08D910190801921F441502F
:102620005040C8F7881B990B0895F894FFCF0164B8
:1026300000F401B704B7042A0100010900001100E9
:10264000001200000000007900637A00007B0001A6
:102650001B00321C000E1F000F22000024000F2759
:10266000000029000F2C00002E000F310000460052
:10267000004700004800004900004A00004B0000ED
:102680004C00004D00005000015100005200025368
:102690000000540003550000560004570000580085
:1026A000055900005A00065B00005C00075D000051
:1026B0005E00085F00000000F70280001312111096
:1026C0000C0D0E0F0406080A0305070900000000A0
:0E26D0008101E1000E01CE013F011D0131012B
:107E0000112484B714BE81FFF0D085E080938100F7
:107E100082E08093C00088E18093C10086E0809377
:107E2000C20080E18093C4008EE0C9D0259A86E02C
:107E300020E33CEF91E0309385002093840096BBD3
:107E4000B09BFECF1D9AA8958150A9F7CC24DD24C4
:107E500088248394B5E0AB2EA1E19A2EF3E0BF2EE7
:107E6000A2D0813461F49FD0082FAFD0023811F036
:107E7000013811F484E001C083E08DD089C08234E0
:107E800011F484E103C0853419F485E0A6D080C0E4
:107E9000853579F488D0E82EFF2485D0082F10E0AE
:107EA000102F00270E291F29000F111F8ED06801E7
:107EB0006FC0863521F484E090D080E0DECF843638
:107EC00009F040C070D06FD0082F6DD080E0C81688
:107ED00080E7D80618F4F601B7BEE895C0E0D1E017
:107EE00062D089930C17E1F7F0E0CF16F0E7DF06D8
:107EF00018F0F601B7BEE89568D007B600FCFDCFD4
:107F0000A601A0E0B1E02C9130E011968C91119780
:107F100090E0982F8827822B932B1296FA010C0160
:107F200087BEE89511244E5F5F4FF1E0A038BF0790
:107F300051F7F601A7BEE89507B600FCFDCF97BE46
:107F4000E89526C08437B1F42ED02DD0F82E2BD052
:107F50003CD0F601EF2C8F010F5F1F4F84911BD097
:107F6000EA94F801C1F70894C11CD11CFA94CF0C13
:107F7000D11C0EC0853739F428D08EE10CD085E9AC
:107F80000AD08FE07ACF813511F488E018D01DD067
:107F900080E101D065CF982F8091C00085FFFCCF94
:107FA0009093C60008958091C00087FFFCCF809118
:107FB000C00084FD01C0A8958091C6000895E0E648
:107FC000F0E098E1908380830895EDDF803219F02E
:107FD00088E0F5DFFFCF84E1DECF1F93182FE3DFCA
:107FE0001150E9F7F2DF1F91089580E0E8DFEE27F6
:047FF000FF270994CA
:027FFE00040479
:00000001FF
