:100000000C9462000C94B40A0C948D0A0C948A002F
:100010000C948A000C948A000C948A000C948A0038
:100020000C948A000C948A000C948A000C948A0028
:100030000C948A000C948A000C948A000C948A0018
:100040000C94430A0C948A000C94110A0C94EB094A
:100050000C948A000C948A000C948A000C948A00F8
:100060000C948A000C948A000000000024002700F1
:100070002A0000000000250028002B0000000000DE
:1000800023002600290004040404040404040202DA
:100090000202020203030303030301020408102007
:1000A0004080010204081020010204081020000012
:1000B0000008000201000003040700000000000027
:1000C0000000DB0A11241FBECFEFD8E0DEBFCDBF9A
:1000D00011E0A0E0B1E0E4E0F3E202C005900D928F
:1000E000A636B107D9F722E0A6E6B1E001C01D921D
:1000F000A53AB207E1F710E0C2E6D0E004C02197CC
:10010000FE010E944810C136D107C9F70E944D0B6D
:100110000C9480110C9400009C01109278021092B3
:10012000790284369105B0F064E670E00E94FE0F1B
:100130006093780280917802A90164E6869F401955
:1001400051091124CA016AE070E00E94FE0F609319
:10015000790202C00A9770F78091780294E6899F2D
:1001600020191124809179024AE0849F20191124DA
:1001700020937A0208958230F8F4E82FF0E0EE0F31
:10018000FF1FEB5FFE4F2DE433E03183208381308E
:1001900041F0809169008C7F682B60936900E89A38
:1001A000089580916900837F660F771F660F771F20
:1001B000682B60936900E99A089581E180930901B1
:1001C0000895AF92BF92CF92DF92EF92FF920F937A
:1001D0001F93CF93DF936C017B018B01040F151FDD
:1001E000EB015E01AE18BF08C017D10759F0699145
:1001F000D601ED91FC910190F081E02DC6010995A9
:10020000892B79F7C501DF91CF911F910F91FF9055
:10021000EF90DF90CF90BF90AF900895FC01538D89
:10022000448D252F30E0842F90E0821B930B5417D0
:1002300010F0CF96089501970895FC01918D828D5D
:10024000981761F0A28DAE0FBF2FB11D5D968C91F6
:10025000928D9F5F9F73928F90E008958FEF9FEF35
:100260000895FC01918D828D981731F0828DE80FF1
:10027000F11D858D90E008958FEF9FEF0895FC01AB
:10028000918D228D892F90E0805C9F4F821B910978
:100290008F739927089587ED91E00E943F0121E037
:1002A000892B09F420E0822F089580E090E0892BCB
:1002B00029F00E944B0181110C9400000895FC016B
:1002C000A48DA80FB92FB11DA35ABF4F2C91848DB7
:1002D00090E001968F739927848FA689B7892C9314
:1002E000A089B1898C91837080648C93938D848D67
:1002F000981306C00288F389E02D80818F7D80836A
:100300000895EF92FF920F931F93CF93DF93EC0129
:1003100081E0888F9B8D8C8D98131AC0E889F989AC
:10032000808185FF15C09FB7F894EE89FF896083AF
:10033000E889F98980818370806480839FBF81E030
:1003400090E0DF91CF911F910F91FF90EF90089572
:10035000F62E0B8D10E00F5F1F4F0F731127E02E4D
:100360008C8D8E110CC00FB607FCFACFE889F98985
:10037000808185FFF5CFCE010E945F01F1CFEB8D2B
:10038000EC0FFD2FF11DE35AFF4FF0829FB7F89459
:100390000B8FEA89FB8980818062CFCFCF93DF9377
:1003A000EC01888D8823B9F0AA89BB89E889F9898D
:1003B0008C9185FD03C0808186FD0DC00FB607FCC2
:1003C000F7CF8C9185FFF2CF808185FFEDCFCE01F5
:1003D0000E945F01E9CFDF91CF910895833081F0D2
:1003E00028F4813099F08230A9F008958730A9F07F
:1003F0008830C9F08430B1F4809180008F7D03C0D3
:10040000809180008F7780938000089584B58F77E6
:1004100084BD089584B58F7DFBCF8091B0008F7728
:100420008093B00008958091B0008F7DF9CF1F9325
:10043000CF93DF93282F30E0F901E255FF4F8491ED
:10044000F901E656FF4FD491F901EA57FF4FC491E5
:10045000CC23A9F0162F81110E94EE01EC2FF0E0C1
:10046000EE0FFF1FEE58FF4FA591B4918FB7F89490
:10047000EC91111108C0D095DE23DC938FBFDF9182
:10048000CF911F910895DE2BF8CFCF93DF9390E0AB
:10049000FC01E656FF4F24918A579F4FFC0184913F
:1004A0008823C9F090E0880F991FFC01E859FF4F9D
:1004B000A591B491FC01EE58FF4FC591D491611103
:1004C0000DC09FB7F8948C91209582238C938881DE
:1004D000282328839FBFDF91CF910895623051F484
:1004E0009FB7F8943C91822F809583238C93E88169
:1004F0002E2BEFCF8FB7F894EC912E2B2C938FBF30
:10050000EACF3FB7F8948091700190917101A0916A
:100510007201B091730126B5A89B05C02F3F19F059
:100520000196A11DB11D3FBFBA2FA92F982F882773
:10053000BC01CD01620F711D811D911D42E0660F4E
:10054000771F881F991F4A95D1F708958F929F9220
:10055000AF92BF92CF92DF92EF92FF926B017C013C
:100560000E9481024B015C01C114D104E104F10439
:10057000B9F00E948102681979098A099B09683ECD
:1005800073408105910580F321E0C21AD108E1088A
:10059000F10888EE880E83E0981EA11CB11CE4CF00
:1005A000FF90EF90DF90CF90BF90AF909F908F9093
:1005B000089561E08BE00E94170266E070E080E041
:1005C00090E00E94A60260E08BE00C9417022FB727
:1005D000F89460916C0170916D0180916E01909121
:1005E0006F012FBF08950895CF93C82F80E090E04A
:1005F000892B51F08091C0018C1731F081E0C1113D
:1006000001C080E00E940000C093C00160E070E083
:10061000CB01C1110E94E7026093C1017093C20136
:100620008093C3019093C40180E090E0892B59F03E
:100630008091C0018C1739F081E0C11101C080E0C8
:10064000CF910C940000CF9108958830910561F40A
:100650006623E9F021E12093090120E030E041E048
:10066000232B81F00C94000020E030E0232BD1F705
:1006700041E0811524E0920708F040E0611102C0DA
:10068000842F089507970297D8F740E0F9CF20E02C
:1006900030E0232B39F741E0F3CF80916A018823C2
:1006A00031F08091D6018F5F8093D60108950E942A
:1006B00081022091680130916901FB01E21BF30B7B
:1006C0002091740130917501E217F30718F1209120
:1006D000760130917701709369016093680161E060
:1006E00060936A0178944091D5014F5F4093D501A2
:1006F0004091A9015091AA014130510591F158F062
:100700004230510509F4B5C04330510509F4EBC03E
:1007100010926A010895E217F30708F0CEC08091A5
:10072000AC018F5F8093AC018B3090F381E090E05F
:100730009093AA018093A90161E070E08091CF01BC
:100740000E94BB001092670182E590E090937701D0
:100750008093760183E290E0909375018093740119
:10076000D7CF409167014130B9F050F0433009F4E0
:100770004AC0443069F6E217F30708F04EC027C0BC
:10078000E217F30728F460936701E0936601C0CF96
:1007900084E080936701BCCFE217F30790F51092D5
:1007A00067019091AC019F5F9093AC018E2FEE0F8B
:1007B000990B20916601821B910927FD939597FF64
:1007C00003C091958195910943970CF4A1CF1092A4
:1007D000AA011092A90182E990E090937701809399
:1007E000760182E590E090937501809374011092F8
:1007F000AC016091780170E08091CF010E94BB0054
:1008000087CF83E0C6CFE217F30708F38091780122
:10081000833061F582E08093780182E090E09093EC
:10082000AA018093A90182E990E0909377018093D7
:10083000760182E590E090937501809374011092A7
:10084000AE011092B0011092B1011092B20110925B
:10085000B3011092B4011092B5018091AC01809364
:10086000AF011092AC011092AD01C3CF409378015B
:10087000D4CF5091AC015F5F5093AC014091AD017A
:10088000440FE217F307E0F04093AD01583009F050
:100890003FCFE091AE01E630A9F41092AA01109288
:1008A000A90182E990E0909377018093760182E537
:1008B00090E090937501809374011092AC0128CF61
:1008C0004160E2CF83E090E09093AA018093A90178
:1008D00081E08E0F8093AE01F0E0E755FE4F8091EE
:1008E000AD01878315CF4091AC014F5F4093AC01C0
:1008F000E217F307E0F41092AA011092A90182E92D
:1009000090E0909377018093760182E590E0909358
:1009100075018093740188E0EEEAF1E0A6EBB1E0A6
:1009200001900D928A95E1F76093AB01F1CE809131
:10093000AE01863009F4B1CF82E090E09093AA0135
:100940008093A9011092AC011092AD01E1CE0E94FA
:10095000F402EEEBF1E081E087831086E7ECF1E052
:1009600088E0DF011D928A95E9F7089520E030E0E4
:10097000232B11F00C9400000C94E80F809193024B
:1009800090E00E94B60480FF03C091E0909394022F
:1009900081FF03C091E09093950282FF03C091E034
:1009A0009093960283FF03C091E09093970284FF97
:1009B00003C081E0809398020895CF93DF93209144
:1009C000D1013091D2012F3F320721F0C901DF91CF
:1009D000CF9108958DE190E00E94B60487FF2BC06F
:1009E00086FF0FC089E090E00E94B604C82F81E026
:1009F00090E00E94B6049C2F9093D2018093D10185
:100A000015C089E090E00E94B604C82F81E090E014
:100A10000E94B60490E4C99F90011124207C31709B
:100A20008F73282B3093D2012093D1018091D10173
:100A30009091D201CCCF85FF0CC081E190E00E9463
:100A4000B604C82F82E190E00E94B604C05CDD0BC2
:100A5000D2CF81E090E00E94B60490E0CDCF1F930A
:100A6000CF93DF93EC01142F0E94DD04C817D90740
:100A7000B8F09C012C5F3F4FC217D30788F4C81B06
:100A8000E0918902F0918A028CE0C89FE00DF11D8F
:100A9000112481E090E0918780871170168317827E
:100AA000DF91CF911F9108950F931F93CF93DF9301
:100AB000C82F25E0829F80011124C8014F960E9413
:100AC000B6049CE0C99FE0011124E0918902F091F5
:100AD0008A02EC0FFD1F2AE08202C00111249583D7
:100AE0008483C80182960E94B604209189023091C5
:100AF0008A02C20FD31F90E09B838A83DF91CF913C
:100B00001F910F91089561E08BE00E94170264E14C
:100B100070E080E090E00E94A60260E08BE00E941E
:100B200017028BE190E00E94B6042AE0829FC00188
:100B3000112490930401809303010E94BE0480E07D
:100B40000E94540581E00E94540582E00E945405F1
:100B500083E00C9454051F93CF93DF938331910569
:100B6000C0F48131910530F48130910519F089305C
:100B7000910531F42FEF3FEF3093D2012093D10153
:100B800020E030E0232B89F0DF91CF911F910C946E
:100B900000008D319105A1F72091BE012F73362FF2
:100BA000307C232B2093BE01E5CF162FEC010E9451
:100BB000E80F1817A1F0612FCE010E94F00F612FEE
:100BC000CE010E94830580E090E0892B41F0809166
:100BD000BE0184FD04C0612FCE010E940000CE0141
:100BE000DF91CF911F910C94E80FCF93DF93CEEB61
:100BF000D1E02881206128830E94AB0598819F7EE7
:100C00009883DF91CF9108950C94F505DF92EF92D0
:100C1000FF920F931F93CF93DF938B01D42E82FF0C
:100C200021C083FF15C061E0C8010E94250388230D
:100C3000C9F16D2DC8010E94AB058D1133C0DF9144
:100C4000CF911F910F91FF90EF90DF900C94D902FC
:100C500060E0C8010E942503882321F1C8010E9499
:100C6000B604EBCF842F8770C1E0D0E07E0101C0D5
:100C7000EE0C8A95EAF7D42FD870CB010E94B60407
:100C8000C82FD4FE1AC061E0C8010E942503882342
:100C900049F0DD2379F0CE296C2FC8010E94AB0505
:100CA0008C1769F2DF91CF911F910F91FF90EF9018
:100CB000DF900895E094CE21EFCF60E0C8010E945C
:100CC0002503882379F3CE21DD2319F0C111B7CF95
:100CD000E9CFCC2309F4B3CFE5CFCF92DF92EF92E7
:100CE000FF920F931F93CF93DF937C016B01C42F6F
:100CF000122FD42FD07E8091BE0187FF2AC0D03E14
:100D0000B1F58091BF01882391F190E00E94B60473
:100D1000D82F8091BF0190E001960E94B604982FD1
:100D20008D2FE816F90619F56C2F70E0762F6627DF
:100D300066277370612B6F5F7F4F402F8C2FDF9181
:100D4000CF911F910F91FF90EF90DF90CF900C9477
:100D5000060680FD36C0D03609F46EC088F4D03265
:100D600009F44CC0D03409F467C0DD2399F1DF9158
:100D7000CF911F910F91FF90EF90DF90CF9008954A
:100D8000D03A09F491C0B0F4D03889F780E090E00F
:100D90002C2F2F7141E050E0892B49F3B601C70198
:100DA000DF91CF911F910F91FF90EF90DF90CF9047
:100DB0000C940000D03C09F485C0D03E09F4B4CFB7
:100DC000D6CF0E94DD048E159F0529F2E114F104AF
:100DD00011F2CDCF8C2F8E7051F680E090E0892BF0
:100DE00031F2C0FFC4CF81E0DF91CF911F910F910D
:100DF000FF90EF90DF90CF900C940000CF71CF3137
:100E000009F0B5CF80E090E0892B09F4B0CF412FF5
:100E10004F7771F0413071F0111F1127111F212FF1
:100E200030E00FE710E0B601C7010E9400009FCF3D
:100E300041E0F2CF40E0F0CF80E090E0892BC1F0BC
:100E40002C2F30E08C2F8F71813029F030F08031E1
:100E500021F08131F9F440E001C041E025FB222777
:100E600020F90DE110E030E0B601C7010E9400005A
:100E700080E090E0892B09F47ACF4C2FB601C701AE
:100E8000DF91CF911F910F91FF90EF90DF90CF9066
:100E90000C940000C901880F991F8E71C4FB442770
:100EA00040F9482B4250DACF80E090E0892B09F4DA
:100EB0005ECF2C2F2F7043E050E0C4FF6FCF42E095
:100EC00050E06CCFCF71CE3161F0CF3109F04FCF10
:100ED00080E090E0212F45E050E0892B09F05ECFC3
:100EE00046CF80E090E0212F44E050E0892B09F0CC
:100EF00055CF3DCFDF92EF92FF920F931F93CF9389
:100F0000DF938091C0018823B1F00E94E702009135
:100F1000C1011091C2012091C3013091C401601B35
:100F2000710B820B930B653171058105910518F0EA
:100F300080E00E94A7048091AB01811109C080E08C
:100F4000DF91CF911F910F91FF90EF90DF90089567
:100F5000F89488E0E6EBF1E0A9E9B2E001900D92A7
:100F60008A95E1F71092AB0178943091B601E8EBE5
:100F7000F1E090E080E0391721F0219182279F5F16
:100F8000FACF8111DCCF80E090E0892B21F089E954
:100F900092E00E94000080919B02811118C0909104
:100FA0009C02911114C080E090E0892B19F080E040
:100FB0000E9400008091C001882329F081E00E94F6
:100FC000F40281E0BDCF81E00E94A704FACF9091A6
:100FD000C001992309F47CC08057803108F075C0A6
:100FE00081E00E94F40248E050E067EC71E089E99A
:100FF00092E00E947311892B61F01092C60188E083
:10100000E9E9F2E0A7ECB1E001900D928A95E1F7F1
:10101000D8CF8091C6018F5F8093C60180919902DD
:101020008330E9F520919B02822F877010919C02FA
:10103000853029F41093C5010E94D902C2CFCDE1B9
:10104000D0E0843089F0C82FD0E0843060F4809103
:10105000C501882341F08150990B880F991F880F93
:10106000991FC80FD91F219623FF0EC061E0CE0142
:101070000E942503882309F4A4CF612FCE010E948A
:10108000AB0518139ECFD8CF60E0CE010E94250398
:10109000882309F496CFCE010E94B604F2CF8430A3
:1010A00009F08FCF80919B02682F70E0762F662722
:1010B0006627737090919C02692B6F5F7F4F409100
:1010C0009D028C700E9406067CCF80E00E94A704DF
:1010D000E0919B02EF3F61F480919C02811171CFFE
:1010E00080E090E0892B09F46CCF0E94000069CF6A
:1010F000E7FD0DC000919E0220919D0240919C024F
:1011000070E060E08E2F90E00E946D065ACFE03CC8
:1011100008F050C19091BE0197FF53CF80919C027F
:10112000682F70E0EB01C095D095CC0FDD1FCC0F80
:10113000DD1FC07CD170EF73CE2B75956795262F80
:101140002370D22E20919902253039F58C788C307D
:1011500021F50E94DD048C179D0721F0CF3FD1407F
:1011600009F02FCF80919C0290E0982F8827882744
:101170009370C0919D02C80FD92FD11D2196109157
:101180009E0261E0CE010E942503612F882309F4AD
:1011900018CFCE010E94AB0514CF8E01015011096A
:1011A000000F111F000F111F0D2978012FEFE21AF8
:1011B000F20A8091D3018823F9F096FF41C0C7015C
:1011C00060E071E00E941210682F81E090E00E94C0
:1011D000AB05C701F7FE02C081509F4F692F89E020
:1011E00090E00E94AB0580E090E0892B19F0C701E8
:1011F0000E9400001092D3018091BE0180FD39C091
:1012000080919902843009F04FC080919C028978C6
:10121000813009F0D6CE80E090E0892B29F06091F2
:101220009D02C7010E94000080E090E0892B09F434
:10123000C8CE40919D026D2DC7010E940000C1CE15
:10124000BE016F73772781E090E00E94AB05BE017D
:1012500046E0759567954A95E1F789E090E00E9430
:10126000AB0580E090E0892B29F2CE010E940000BE
:10127000C1CF86FF0DC00E94DD048E159F0509F4C5
:10128000BFCF8DEFE81687E0F8060CF0B9CF99CE06
:101290000E94DD048C179D0709F4B2CFCF3F21E0F7
:1012A000D20709F4ADCF8DCE833041F540919C0239
:1012B000042F017043FB112710F94770212FBE0145
:1012C000C7010E942F058091BE0186FF0BC080E000
:1012D00090E0892B09F475CE412F602FC7010E9441
:1012E00000006FCE80E090E0892B09F46ACE212FB8
:1012F000402F6D2DCE010E94000063CE863009F094
:1013000060CE80919C02982F9978913021F08F784F
:10131000803809F056CE8091BE0186FF27C00E941A
:10132000DD048E159F05E1F480919D0290E0382F39
:10133000222722273370C0919E02C20FD32FD11DC6
:10134000219610919F029595879595958795837025
:1013500099278230910599F0039709F412CF31CE85
:101360008DEFE81687E0F806FCF62BCE0E94DD0430
:101370008C179D07C9F2CF3FD140B1F222CE14FFA6
:1013800020CE61E0CE010E942503882309F419CE06
:10139000CE010E94B604912F977061E070E001C009
:1013A000660F9A95EAF713FF02C0682BF2CE60959C
:1013B0006823EFCEE83E08F004CEE05CFF0B80919E
:1013C0009C0200919F0220919E0240919D0261E04B
:1013D00070E09E2F99CE1F920F920FB60F9211249C
:1013E0002F933F934F935F936F937F938F939F932D
:1013F000AF93BF93EF93FF9387ED91E00E945F015E
:10140000FF91EF91BF91AF919F918F917F916F91DC
:101410005F914F913F912F910F900FBE0F901F90B2
:1014200018951F920F920FB60F9211242F938F933E
:101430009F93EF93FF93E091E701F091E8018081A2
:10144000E091ED01F091EE0182FD1BC09081809151
:10145000F0018F5F8F732091F101821741F0E091CD
:10146000F001F0E0E952FE4F958F8093F001FF917B
:10147000EF919F918F912F910F900FBE0F901F9022
:1014800018958081F4CF1F920F920FB60F921124FE
:101490002F933F938F939F93AF93BF9380916C0152
:1014A00090916D01A0916E01B0916F0130916B012F
:1014B00023E0230F2D3758F50196A11DB11D209370
:1014C0006B0180936C0190936D01A0936E01B093BA
:1014D0006F018091700190917101A0917201B091A2
:1014E00073010196A11DB11D80937001909371014C
:1014F000A0937201B0937301BF91AF919F918F91AF
:101500003F912F910F900FBE0F901F90189526E8D6
:10151000230F0296A11DB11DD2CF1F920F920FB6BD
:101520000F9211242F933F934F935F936F937F9369
:101530008F939F93AF93BF93EF93FF93E091070136
:10154000F09108010995FF91EF91BF91AF919F91A3
:101550008F917F916F915F914F913F912F910F905C
:101560000FBE0F901F9018951F920F920FB60F92FB
:1015700011242F933F934F935F936F937F938F9398
:101580009F93AF93BF93EF93FF93E0910501F09189
:1015900006010995FF91EF91BF91AF919F918F91B6
:1015A0007F916F915F914F913F912F910F900FBE5F
:1015B0000F901F901895CF93DF93CDB7DEB7289784
:1015C0000FB6F894DEBF0FBECDBFE7EDF1E013829A
:1015D000128288EE93E0A0E0B0E084839583A68336
:1015E000B78387E591E09183808385EC90E09587D0
:1015F000848784EC90E09787868780EC90E0918BDD
:10160000808B81EC90E0938B828B82EC90E0958BC9
:10161000848B86EC90E0978B868B118E128E138EC6
:10162000148E88E0E9E9F2E0DE01119601900D9256
:101630008A95E1F7EBE8F2E08CE18087118612866B
:1016400013861486158688E0FE013196ABE8B2E079
:1016500001900D928A95E1F780E390E00E944E1090
:1016600090938A028093890288E790E09093170113
:10167000809316018091090190E0E4E7F2E021E017
:10168000238714869383828328960FB6F894DEBF4F
:101690000FBECDBFDF91CF910895CF93DF93CDB72C
:1016A000DEB7AB970FB6F894DEBF0FBECDBF789410
:1016B00084B5826084BD84B5816084BD85B5826057
:1016C00085BD85B5816085BD80916E008160809308
:1016D0006E00109281008091810082608093810071
:1016E0008091810081608093810080918000816081
:1016F000809380008091B10084608093B1008091DC
:10170000B00081608093B00080917A008460809303
:101710007A0080917A00826080937A0080917A00CA
:10172000816080937A0080917A00806880937A004B
:101730001092C100E091E701F091E80182E080831E
:10174000E091E301F091E4011082E091E501F09174
:10175000E6018FEC80831092EF01E091EB01F091B4
:10176000EC0186E08083E091E901F091EA0180815B
:1017700080618083E091E901F091EA0180818860D5
:101780008083E091E901F091EA01808180688083A3
:10179000E091E901F091EA0180818F7D808387EDFE
:1017A00091E090937502809374023FE4E32E31E060
:1017B000F32E0BE411E023E431E03BA72AA743E535
:1017C000442E41E0542E57E4652E51E0752E590108
:1017D00048016701D6013D906D0161E0832D0E94B3
:1017E000450260E0832D0E941702F40131904F0101
:1017F00061E0832D0E94450260E0832D0E94170264
:10180000D5013D905D0161E0832D0E94450260E0BD
:10181000832D0E94170262E0F30181913F010E9433
:1018200045024C145D04B1F661E08BE00E94450274
:1018300061E08BE00E9417021092CF0182E080935A
:10184000D00160E00E944502E9EAF1E085E1DF01B4
:101850001D928A95E9F783E08093780182E990E010
:10186000909377018093760182E590E090937501E3
:101870008093740163E070E08091CF010E94BB000F
:1018800080EC8093BE0189E78093BF018FEF9FEFCB
:101890009093D2018093D1011092D3018DE190E019
:1018A0000E94B604682F606C8DE190E00E94AB0549
:1018B00064E687E090E00E94AB056DE088E090E090
:1018C0000E94AB0580E00E94A70468EE73E080E010
:1018D00090E00E94A60288E790E00E94B604883754
:1018E000A9F49AE0C92E91E0D92E2DE3A22E21E091
:1018F000B22EAC14BD0451F0F60162818081918159
:101900000E94F505F3E0CF0ED11CF3CF0E94BE0478
:101910008BE190E00E94B6042AE0829FC00111246E
:101920009093040180930301B2E28B2E912C512CF1
:10193000B12CA12C66246394712CE0918902F09162
:101940008A02EA0DFB1D11821082852D0E9454052A
:10195000E0918902F0918A02EA0DFB1D8281938158
:10196000029734F07382628261E0C4010E94F5053F
:10197000C0908902D0908A02CA0CDB1CD7018C91DE
:10198000F8013080AAA5BBA54D90BBA7AAA7F60178
:1019900022813381232B09F4DDC061E00E9417020C
:1019A00060E0832D0E94170261E0842D0E941702DF
:1019B000809197028823A1F0D60114966D917C91B5
:1019C000072E000C880B990B0E94A60260E0F7011D
:1019D00080810E94170260E0D8018C910E9417025A
:1019E0006091030170910401072E000C880B990B84
:1019F0000E94A602F6011186108682819381978348
:101A00008683FCE0AF0EB11C53942FEFE21AF20A6A
:101A10000F5F1F4F35E0830E911C44E054128DCFB1
:101A200060E08BE00E941702CC24C394D12C1E01ED
:101A30005AE2250E311C80917F02882321F01092FA
:101A40007F02109280028091740290917502DC01F5
:101A5000ED91FC910084F185E02D099508970CF437
:101A600031C18E010E5D1F4FF1E8AF2EF2E0BF2EA7
:101A700075018091740290917502DC01ED91FC91E9
:101A80000284F385E02D09958053F80181938F013D
:101A9000D7011D927D012E163F0659F79AA18AE0C3
:101AA0009BA0989F900C11242CA194E60DA1089F57
:101AB00080011124299F000D111D11242EA1020F58
:101AC000111D2FA1E8A4E89E70011124299FE00CAC
:101AD000F11C112489A5E80EF11C083EB3E01B0798
:101AE0002CF4E8EEEE16E3E0FE061CF081E08093B5
:101AF000800289E08093810298E090938202909125
:101B00008002911180938202E0E06E2EE0E07E2E52
:101B1000672829F0A701B801892D0E9400007BE009
:101B2000772E971409F428C27914E8F08824839456
:101B3000981409F483C0981408F46FC022E0921638
:101B400009F47FC03AE0931609F47EC089E08093DF
:101B500082027EC060E00E94170261E0832D0E9435
:101B6000170260E022CF4EE1941609F40AC249152B
:101B700098F08CEE890D823048F7E0918902F0915F
:101B80008A029CE0099FE00DF11D1124D186C086D8
:101B900090E0978386835CC05FE19512D7CF8091F8
:101BA0007D0290917E02FC01EE0FFF1FE80FF91FEE
:101BB000E65FFE4F00811181083EA3E01A0710F096
:101BC00007EE13E0C8010E948C0080917802809398
:101BD0008302809179028093840280917A028093BB
:101BE0008502C8010E94B60490E00E948C0080919A
:101BF0007802809386028091790280938702809197
:101C00007A028093880280917D0290917E020196F3
:101C100090937E0280937D021BC090E080E00E9442
:101C20008C00809178028093860280917902809363
:101C3000870280917A02809388020AC08AE090E04D
:101C4000EECF87E190E0EBCFB701C8010E94040618
:101C5000E0907402F0907502F50121915F0130E08F
:101C600050E040E019A28E010F5D1F4FCA01B9017B
:101C70002AE030E040E050E00E942610605DD8018C
:101C80006E938D01211531054105510579F71097A6
:101C900089F0FD0101900020E9F73197AF014A1B5F
:101CA0005B0BD701ED91FC910280F381E02DB8012F
:101CB000C7010995E9E8F2E0EA15FB0549F681E07C
:101CC00080937F020E947A07B12CA12C10E000E0E3
:101CD000E0908902F0908A02EA0CFB1CD70118966A
:101CE0008D919C911997019709F040C016968D909F
:101CF0009C90179712968D919C9113978816990630
:101D0000A9F18D919C91892B89F561E08BE00E946E
:101D10001702F801E15BFE4F8081F801E55BFE4FA1
:101D2000708090919402981509F438C161E00E9486
:101D3000170260E0872D0E9417029924F701938211
:101D400082820E94E702F801EE0FFF1FEE0FFF1FD5
:101D5000E757FE4F6083718382839383D701119687
:101D6000DC92CE921B96DC92CE921A97E09089027A
:101D7000F0908A02EA0CFB1CF701808191810197A7
:101D800009F068C00E94E702F801EE0FFF1FEE0F96
:101D9000FF1FE757FE4F40805180628073809B0198
:101DA000AC01241935094609570929013A01D7011F
:101DB00014968D919C91092E000CAA0BBB0B481612
:101DC00059066A067B0668F1F70182859385892B9F
:101DD00041F11386128680919702882371F060E0AA
:101DE000F801E15BFE4F80810E94170260E0F8017C
:101DF000E55BFE4F80810E94170280919502882347
:101E000061F0F5E0F09FC001F19F900D1124D70122
:101E100012966C9182960E94F50560E08BE00E941C
:101E20001702E0918902F0918A02EA0DFB1D84817C
:101E300095812091030130910401820F931F092E97
:101E4000000CAA0BBB0B481659066A067B0610F05D
:101E5000118210820F5F1F4FBCE0AB0EB11C04302B
:101E6000110509F035CF0E947A07809196028823E8
:101E700009F475C029E7A22E21E0B22E37E4E32E43
:101E800031E0F32E10E000E0552453940E94E70265
:101E9000F50121913191419151915F013B014C013B
:101EA000621A730A840A950AB401A30180910101A0
:101EB00090910201092E000CAA0BBB0B4817590781
:101EC0006A077B0708F442C00E94E702F5013497D5
:101ED0006083718382839383D7012C9130E0F90171
:101EE000E255FF4F8491F901E656FF4F8490F901C6
:101EF000EA57FF4F9490992079F081110E94EE01EA
:101F0000E92DF0E0EE0FFF1FE458FF4FA591B491CB
:101F1000EC918E2281E009F480E090910001811122
:101F200042C0913099F410920001E0918902F09141
:101F30008A02E00FF11F81E022813381232B09F017
:101F400080E0D186C08690E097838683045F1F4F30
:101F50002FEFE21AF20A0033110509F097CF80E063
:101F600090E0892B09F467CD0E944B01882309F486
:101F700062CD0E9400005BCDC8010E94B60490E0D3
:101F80004ECE809176029091770290937C0280935E
:101F90007B0210927E0210927D0241CE60E00E9490
:101FA000170261E0C7CE911109C050920001E4EF21
:101FB000F1E0F0930201E0930101C8CF913031F6D6
:101FC00084E6682E712C7092020160920101BECFEE
:101FD000F999FECF92BD81BDF89A992780B50895F1
:101FE000262FF999FECF1FBA92BD81BD20BD0FB635
:101FF000F894FA9AF99A0FBE01960895AA1BBB1B92
:1020000051E107C0AA1FBB1FA617B70710F0A61BF8
:10201000B70B881F991F5A95A9F780959095BC0119
:10202000CD01089597FB072E16F4009407D077FD95
:1020300009D00E94FE0F07FC05D03EF490958195D3
:102040009F4F0895709561957F4F0895A1E21A2ED4
:10205000AA1BBB1BFD010DC0AA1FBB1FEE1FFF1F4C
:10206000A217B307E407F50720F0A21BB30BE40B9C
:10207000F50B661F771F881F991F1A9469F76095E3
:102080007095809590959B01AC01BD01CF0108959D
:10209000EE0FFF1F0590F491E02D09940F931F930D
:1020A000CF93DF938230910510F482E090E0E091CD
:1020B000A302F091A40230E020E0B0E0A0E030976D
:1020C00099F42115310509F44AC0281B390B243035
:1020D0003105D8F58A819B816115710589F1FB0174
:1020E00093838283FE0111C040815181028113815B
:1020F00048175907E0F04817590799F4109761F00D
:1021000012960C93129713961C933296CF01DF917F
:10211000CF911F910F9108950093A3021093A402F1
:10212000F4CF2115310551F04217530738F0A901BA
:10213000DB019A01BD01DF01F801C1CFEF01F9CF49
:102140009093A4028093A302CDCFFE01E20FF31F70
:10215000819391932250310939832883D7CF2091DD
:10216000A1023091A202232B41F420913F01309132
:1021700040013093A2022093A10220913D013091B1
:102180003E012115310541F42DB73EB74091410183
:1021900050914201241B350BE091A102F091A20263
:1021A000E217F307A0F42E1B3F0B2817390778F02E
:1021B000AC014E5F5F4F2417350748F04E0F5F1F8D
:1021C0005093A2024093A102819391939FCFF0E09C
:1021D000E0E09CCFCF93DF930097E9F0FC013297CA
:1021E00013821282A091A302B091A402ED0130E00B
:1021F00020E01097A1F420813181820F931F20915C
:10220000A1023091A2022817390709F061C0F093AA
:10221000A202E093A102DF91CF910895EA01CE17C7
:10222000DF07E8F54A815B819E0141155105B1F751
:10223000E901FB83EA8349915991C40FD51FEC173B
:10224000FD0761F4808191810296840F951FE90159
:1022500099838883828193819B838A83F0E0E0E085
:1022600012968D919C9113970097B9F52D913C9101
:102270001197CD010296820F931F2091A1023091F8
:10228000A2022817390739F6309751F51092A402A7
:102290001092A302B093A202A093A102BCCFD38359
:1022A000C28340815181840F951FC817D90761F4FB
:1022B0004E5F5F4F88819981480F591F518340833A
:1022C0008A819B81938382832115310509F0B0CFE8
:1022D000F093A402E093A3029ECFFD01DC01C0CFE6
:1022E00013821282D7CFFB01DC0104C08D910190D3
:1022F000801921F441505040C8F7881B990B08956C
:04230000F894FFCF7F
:10230400016400F401F302F3021101000109000069
:102314001100001200000000007900637A00001B25
:1023240000321C000E1F000F22000024000F2700A3
:102334000029000F2C00002E000F3100000000A522
:10234400028000131211100C0D0E0F0406080A036C
:10235400050709000000008101E1000E01CE013FE4
:06236400011D0131010022
:107E0000112484B714BE81FFF0D085E080938100F7
:107E100082E08093C00088E18093C10086E0809377
:107E2000C20080E18093C4008EE0C9D0259A86E02C
:107E300020E33CEF91E0309385002093840096BBD3
:107E4000B09BFECF1D9AA8958150A9F7CC24DD24C4
:107E500088248394B5E0AB2EA1E19A2EF3E0BF2EE7
:107E6000A2D0813461F49FD0082FAFD0023811F036
:107E7000013811F484E001C083E08DD089C08234E0
:107E800011F484E103C0853419F485E0A6D080C0E4
:107E9000853579F488D0E82EFF2485D0082F10E0AE
:107EA000102F00270E291F29000F111F8ED06801E7
:107EB0006FC0863521F484E090D080E0DECF843638
:107EC00009F040C070D06FD0082F6DD080E0C81688
:107ED00080E7D80618F4F601B7BEE895C0E0D1E017
:107EE00062D089930C17E1F7F0E0CF16F0E7DF06D8
:107EF00018F0F601B7BEE89568D007B600FCFDCFD4
:107F0000A601A0E0B1E02C9130E011968C91119780
:107F100090E0982F8827822B932B1296FA010C0160
:107F200087BEE89511244E5F5F4FF1E0A038BF0790
:107F300051F7F601A7BEE89507B600FCFDCF97BE46
:107F4000E89526C08437B1F42ED02DD0F82E2BD052
:107F50003CD0F601EF2C8F010F5F1F4F84911BD097
:107F6000EA94F801C1F70894C11CD11CFA94CF0C13
:107F7000D11C0EC0853739F428D08EE10CD085E9AC
:107F80000AD08FE07ACF813511F488E018D01DD067
:107F900080E101D065CF982F8091C00085FFFCCF94
:107FA0009093C60008958091C00087FFFCCF809118
:107FB000C00084FD01C0A8958091C6000895E0E648
:107FC000F0E098E1908380830895EDDF803219F02E
:107FD00088E0F5DFFFCF84E1DECF1F93182FE3DFCA
:107FE0001150E9F7F2DF1F91089580E0E8DFEE27F6
:047FF000FF270994CA
:027FFE00040479
:0400000300007E007B
:00000001FF
