:020000040000FA
:100000000C9462000C94270E0C94000E0C948A0041
:100010000C948A000C948A000C948A000C948A0038
:100020000C948A000C948A000C948A000C944E0E56
:100030000C948A000C948A000C948A000C948A0018
:100040000C94B60D0C948A000C94840D0C945E0DE7
:100050000C948A000C948A000C948A000C948A00F8
:100060000C948A000C948A000000000024002700F1
:100070002A0000000000250028002B0000000008D6
:10008000000201000003040700000000000000005F
:10009000010204081020408001020408102001021F
:1000A000040810200000000023002600290004049A
:1000B0000404040404040202020202020303030310
:1000C00003030A0F11241FBECFEFD8E0DEBFCDBF60
:1000D00011E0A0E0B1E0ECE5F3E302C005900D9281
:1000E000A63CB107D9F724E0A6ECB1E001C01D920F
:1000F000A031B207E1F710E0C2E6D0E004C02197DA
:10010000FE010E949919C136D107C9F70E94A80FB4
:100110000C94AC190C9400009C011092EB0310920B
:10012000EC0384369105B0F064E670E00E9471192A
:100130006093EB038091EB03A90164E6869F40196D
:1001400051091124CA016AE070E00E94711960939C
:10015000EC0302C00A9770F78091EB0394E6899F45
:10016000201911248091EC034AE0849F2019112466
:100170002093ED0308958230F8F4E82FF0E0EE0FBD
:10018000FF1FEE5FFE4F2FEC32E031832083813082
:1001900041F0809169008C7F682B60936900E89A38
:1001A000089580916900837F660F771F660F771F20
:1001B000682B60936900E99A089582E380930601B1
:1001C0000895AF92BF92CF92DF92EF92FF920F937A
:1001D0001F93CF93DF936C017B018B01040F151FDD
:1001E000EB015E01AE18BF08C017D10759F0699145
:1001F000D601ED91FC910190F081E02DC6010995A9
:10020000892B79F7C501DF91CF911F910F91FF9055
:10021000EF90DF90CF90BF90AF900895FC01538D89
:10022000448D252F30E0842F90E0821B930B5417D0
:1002300010F0CF96089501970895FC01918D828D5D
:10024000981761F0A28DAE0FBF2FB11D5D968C91F6
:10025000928D9F5F9F73928F90E008958FEF9FEF35
:100260000895FC01918D828D981731F0828DE80FF1
:10027000F11D858D90E008958FEF9FEF0895FC01AB
:10028000918D228D892F90E0805C9F4F821B910978
:100290008F73992708958BEF92E00E943F0121E030
:1002A000892B09F420E0822F089580E090E0892BCB
:1002B00029F00E944B0181110C9400000895FC016B
:1002C000A48DA80FB92FB11DA35ABF4F2C91848DB7
:1002D00090E001968F739927848FA689B7892C9314
:1002E000A089B1898C91837080648C93938D848D67
:1002F000981306C00288F389E02D80818F7D80836A
:100300000895EF92FF920F931F93CF93DF93EC0129
:1003100081E0888F9B8D8C8D98131AC0E889F989AC
:10032000808185FF15C09FB7F894EE89FF896083AF
:10033000E889F98980818370806480839FBF81E030
:1003400090E0DF91CF911F910F91FF90EF90089572
:10035000F62E0B8D10E00F5F1F4F0F731127E02E4D
:100360008C8D8E110CC00FB607FCFACFE889F98985
:10037000808185FFF5CFCE010E945F01F1CFEB8D2B
:10038000EC0FFD2FF11DE35AFF4FF0829FB7F89459
:100390000B8FEA89FB8980818062CFCFCF93DF9377
:1003A000EC01888D8823B9F0AA89BB89E889F9898D
:1003B0008C9185FD03C0808186FD0DC00FB607FCC2
:1003C000F7CF8C9185FFF2CF808185FFEDCFCE01F5
:1003D0000E945F01E9CFDF91CF910895833081F0D2
:1003E00028F4813099F08230A9F008958730A9F07F
:1003F0008830C9F08430B1F4809180008F7D03C0D3
:10040000809180008F7780938000089584B58F77E6
:1004100084BD089584B58F7DFBCF8091B0008F7728
:100420008093B00008958091B0008F7DF9CFCF9375
:10043000DF93282F30E0F901E458FF4F8491F90150
:10044000E057FF4FD491F901E255FF4FC491CC23FF
:10045000A1F081110E94EE01EC2FF0E0EE0FFF1FE2
:10046000EC55FF4FA591B491EC91ED2381E090E024
:1004700009F480E0DF91CF91089580E090E0FACF19
:100480001F93CF93DF93282F30E0F901E458FF4FFB
:100490008491F901E057FF4FD491F901E255FF4FE4
:1004A000C491CC23A9F0162F81110E94EE01EC2FEC
:1004B000F0E0EE0FFF1FEE58FF4FA591B4918FB7FC
:1004C000F894EC91111108C0D095DE23DC938FBF16
:1004D000DF91CF911F910895DE2BF8CFCF93DF935B
:1004E00090E0FC01E057FF4F249182559F4FFC01A3
:1004F00084918823C9F090E0880F991FFC01E85986
:10050000FF4FA591B491FC01EE58FF4FC591D491D6
:1005100061110DC09FB7F8948C91209582238C9324
:100520008881282328839FBFDF91CF91089562306F
:1005300051F49FB7F8943C91822F809583238C933C
:10054000E8812E2BEFCF8FB7F894EC912E2B2C93C4
:100550008FBFEACF3FB7F8948091D2019091D30139
:10056000A091D401B091D50126B5A89B05C02F3F1D
:1005700019F00196A11DB11D3FBFBA2FA92F982FC9
:100580008827BC01CD01620F711D811D911D42E0C4
:10059000660F771F881F991F4A95D1F70895FF921C
:1005A0000F931F93CF93DF930E94AA022091CA0159
:1005B0003091CB01EB01C21BD30B2091D8013091BC
:1005C000D901C217D30708F45FC04091DC015091F4
:1005D000DD014130510561F0E0910502F091060224
:1005E00020813091070223233091D60123134CC080
:1005F0007093CB016093CA010091DA011091DB0185
:100600004230510509F413C14330510509F44EC17C
:100610004130510561F48091C901813009F447C02E
:10062000C8F1833009F482C0843009F4C9C08091D4
:10063000DC019091DD01019739F1C017D10708F075
:100640006DC18091C7018F5F8093C7018B30E0F04F
:1006500081E090E09093DD018093DC0161E070E047
:10066000809103020E94BB001092D6011092C90132
:1006700082E590E09093DB018093DA0183E290E0E1
:100680009093D9018093D801DF91CF911F910F9161
:10069000FF900895C017D10730F481E08093C9011D
:1006A000C093C801C4CF84E08093C901C0CFC017F4
:1006B000D107D0F51092C9018091C7018F5F809357
:1006C000C7012091C8018C2F0C2E000C990B821BA6
:1006D000910927FD939597FF03C091958195910905
:1006E000499794F21092DD011092DC0182E990E0CA
:1006F0009093DB018093DA0182E590E09093D90139
:100700008093D8011092C701F090D7016F2D70E04F
:10071000809103020E94BB008091070293E0F912CE
:1007200027C08093D60183CF83E0BECFC017D10707
:1007300008F51092DD011092DC0182E990E09093BF
:10074000DB018093DA0182E590E09093D9018093F8
:10075000D8011092C701F090D7016F2D70E0809101
:1007600003020E94BB008091070233E0F316C9F236
:1007700080E0D7CF9091D701933009F482E0809345
:10078000D70182E090E09093DD018093DC0182E963
:1007900090E09093DB018093DA0182E590E0909302
:1007A000D9018093D8011092E2018091C701809312
:1007B000E3011092DF011092E1011092E001CBCF32
:1007C000C017D107A8F41092DD011092DC0182E974
:1007D00090E09093DB018093DA0182E590E09093C2
:1007E000D9018093D8011092C7011092DF018CCFFC
:1007F00082E090E09093DD018093DC0182E990E05B
:100800009093DB018093DA0182E590E09093D90127
:100810008093D8011092E2018091C7018093E30197
:100820001092DF011092E1011092E0016DCF9091E2
:10083000DF019F5F9093DF018091E001880FC01777
:10084000D107E0F08093E001983009F0F6CEE09116
:10085000E201E630A9F41092DD011092DC0182E998
:1008600090E09093DB018093DA0182E590E0909331
:10087000D9018093D8011092DF01D9CE8160E2CFF7
:1008800083E090E09093DD018093DC0181E08E0FA6
:100890008093E2019091E001F0E0E452FE4F9087F6
:1008A0008091E10189278093E101C1CEC017D10772
:1008B00028F51092DD011092DC011092DF0182E92F
:1008C00090E09093DB018093DA0182E590E09093D1
:1008D000D9018093D8018091E1018111B2CE88E0E5
:1008E000E2EEF1E0AAEEB1E001900D928A95E1F717
:1008F00081E08093DE011092C70199CE8091E201E0
:10090000863009F4A8CF82E090E09093DD018093D7
:10091000DC011092DF011092E00189CE1092C70134
:10092000B3CE8F929F92AF92BF92CF92DF92EF920F
:10093000FF926B017C010E94AA024B015C01C11471
:10094000D104E104F104B9F00E94AA0268197909FE
:100950008A099B09683E73408105910580F321E077
:10096000C21AD108E108F10888EE880E83E0981ECB
:10097000A11CB11CE4CFFF90EF90DF90CF90BF900F
:10098000AF909F908F90089561E08DE00E944002AB
:1009900061E082E10E94400261E083E10E94400246
:1009A0006AE070E080E090E00E94910460E08DE0F9
:1009B0000E94400260E082E10E94400260E083E128
:1009C0000C9440020C94C4042FB7F8946091CE01AB
:1009D0007091CF018091D0019091D1012FBF0895E6
:1009E0002F923F924F925F926F927F928F929F923F
:1009F000AF92BF92CF92DF92EF92FF920F931F932D
:100A0000CF93DF936B017C010E94E4044B015C01F6
:100A1000C114D104E104F10441F4C090C303D090A7
:100A2000C403E090C503F090C603C1E046E0242E65
:100A300053E0352E68E0462E72E0572EE7E06E2E2A
:100A4000FAE07F2E04E0D9E015E08091BD0390919B
:100A5000BE03DC01ED91FC910084F185E02D099548
:100A6000892B09F4BAC060E070E0CB010E949104C8
:100A70002091DB038091BD039091BE03DC01ED91D9
:100A8000FC910284F385E02D21110BC00995809320
:100A9000C7038E37D1F68091DB038F5F8093DB0332
:100AA000D4CF09959091DB03E92FF0E0E354FC4F9C
:100AB0008287923069F1993089F1913059F58F3FF1
:100AC00049F11092DB03C093DD031092E003109212
:100AD000DF03C093E1031092E2030E94E40468196B
:100AE00079098A099B09C616D706E806F90608F0AF
:100AF000C1C01092DB031092DD031092E00310924C
:100B0000DF0381E08093E1031092E20380E06AC09A
:100B10008630B9F69F5F9093DB0397CF8F3E89F6BF
:100B2000E091CA038091CC0390E04091CD0350E066
:100B30006091CE0370E0762F66272091CF03620F7D
:100B4000711D2091C9032E0F3327331FF091CB0362
:100B50002F0F311D280F391F240F351FF091C803A7
:100B60002F0F311D3195219531096217730709F057
:100B7000A8CF1092DB03E13419F41092E2032DC0E8
:100B8000E093DE03982F8827480F591F5093E00306
:100B90004093DF03EA53E63108F063C0F0E0ED5222
:100BA000FA4F0C94991916062006E905E9052D0659
:100BB00005062A0631062D062D062D062D062D06C4
:100BC0002D062D062D0631062D062D062D062D0689
:100BD0002D061093DD03C093E1038091E103882388
:100BE00009F47BCFDF91CF911F910F91FF90EF9090
:100BF000DF90CF90BF90AF909F908F907F906F903D
:100C00005F904F903F902F90089540FF03C0D09386
:100C1000DD03E1CF41FF03C00093DD03DCCF437070
:100C20005527452BD1F27092DD03D5CF40FF03C08D
:100C30006092DD03D0CF41FFD0CF5092DD03CBCF08
:100C400040FF03C04092DD03C6CF41FFC6CF3092C4
:100C5000DD03C1CF2092DD03BECFBBE0B093DD0347
:100C6000BACFC093DD031092E0031092DF03C0936C
:100C7000E10383CF60E070E0CB010E949104E5CEF8
:100C80008093D403272F30E07093D6036093D7036B
:100C90004091D3039091D203490F5527551F840FDC
:100CA000952F911D4091D503840F911D820F931FA5
:100CB000680F792F711D7195619571097093D80333
:100CC0006093D903442379F08091E203882359F09B
:100CD00060E070E0CB010E94910460E070E0CB0125
:100CE0000E94F004F1CF8091BD039091BE03DC011E
:100CF000ED91FC910280F381E02D4AE050E061ED3E
:100D000073E009950E94E4046093BF037093C003ED
:100D10008093C1039093C2038091D50391E0811128
:100D200001C090E09093E203811106C06AE070E098
:100D300080E090E00C9491040895CF93C62F61E079
:100D40008DE00E9440020E94E4046093F6027093DA
:100D5000F7028093F8029093F90283E0C11101C079
:100D600082E08093F402CF9108950895CF92DF92AC
:100D7000EF92FF92CF93DF93EC01603282E078072D
:100D8000CCF5653B710514F064EB70E0898128E8CF
:100D900030E0281B310987FD3395220F331F220FC6
:100DA000331F6901330FEE08FF088A8128E532E01E
:100DB000281B310987FD3395220F331F220F331F64
:100DC000032E000C440B550B2C193D094E095F09ED
:100DD000DB0177FF02C0B0E0A0E00E942C1924EBF9
:100DE00030E040E050E00E940219C20ED31EE41E23
:100DF000F51EB601E881EC3070F5298188E890E0B5
:100E0000821B910927FD9395880F991F880F991FC1
:100E1000681779077CF02A8188E592E0821B9109A6
:100E200027FD9395880F991F880F991F68177907D9
:100E30000CF4CB010297880F991F4FB7F8942E2F0F
:100E400030E0F901EE0FFF1FE20FF31FE856FC4FF1
:100E5000928381834FBFDF91CF91FF90EF90DF901E
:100E6000CF900895CF93C82F80E090E0892B51F068
:100E70008091F4018C1731F081E0C11101C080E054
:100E80000E940000C093F40160E070E0CB01C1114A
:100E90000E94E4046093F5017093F6018093F701DA
:100EA0009093F80180E090E0892B59F08091F40153
:100EB0008C1739F081E0C11101C080E0CF910C9412
:100EC0000000CF91089581E080930001089588305B
:100ED000910561F46623E9F022E32093060120E006
:100EE00030E041E0232B81F00C94000020E030E062
:100EF000232BD1F741E0811524E0920708F040E070
:100F0000611102C0842F089507970297D8F740E037
:100F1000F9CF20E030E0232B39F741E0F3CF80E038
:100F200090E0892B29F080910B0283FD0C94000046
:100F300008958F929F92AF92BF92CF92DF92EF92DD
:100F4000FF920F931F93CF93DF93EC016A017B0114
:100F50000E94E404088119812A813B814B015C01D4
:100F6000801A910AA20AB30A950184010C151D0585
:100F70002E053F0590F0688379838A839B8381E007
:100F8000DF91CF911F910F91FF90EF90DF90CF9065
:100F9000BF90AF909F908F90089580E0F1CF8091A7
:100FA000F4028130C9F4109262021092630210922E
:100FB00064021092650283E08093F40261E08DE0A8
:100FC0000E9440020E94E4046093F6027093F702CC
:100FD0008093F8029093F90208950E943207E2EF9D
:100FE000F1E081E087831086EBEFF1E088E0DF013C
:100FF0001D928A95E9F7089520E030E0232B11F047
:101000000C9400000C94EC18CF93DF93209108020D
:10101000309109022F3F320721F0C901DF91CF91B2
:10102000089580910B0287FF2BC086FF0FC089E0D7
:1010300090E00E94FC07C82F81E090E00E94FC072E
:101040009C2F909309028093080215C089E090E0DC
:101050000E94FC07C82F81E090E00E94FC0790E40A
:10106000C99F90011124207C31708F73282B3093FD
:101070000902209308028091080290910902CECFC4
:1010800085FF0CC081E190E00E94FC07C82F82E13F
:1010900090E00E94FC07C05CDD0BD2CF81E090E0C5
:1010A0000E94FC0790E0CDCF0F931F93CF938C014C
:1010B000C62F0E9404080817190751F48091F50201
:1010C000823031F481E0C11101C080E0809361027F
:1010D000CF911F910F9108952F923F924F925F925F
:1010E0006F927F928F929F92AF92BF92CF92DF9238
:1010F000EF92FF920F931F93CF93DF931092000113
:1011000061E08DE00E9440020E94E4046093F602D8
:101110007093F7028093F8029093F9028EE190E0C9
:101120000E94FC078093F5028FE190E00E94FC078B
:1011300080E290E00E94FC0780933202AEE14A2EEA
:10114000A2E05A2EBAE1CB2EB2E0DB2EC6E1EC2EA5
:10115000C2E0FC2ED3E3AD2ED2E0BD2E1EE0612E08
:1011600012E0712E04E0802E04E0902ECDE2D0E05B
:1011700001E210E08CE0282EC8010E94FC07F20179
:1011800081932F01C80101960E94FC07F60181930B
:101190006F01C80102960E94FC07F7018083CE010F
:1011A0000E94FC07F2E38F9FC0011124F501819397
:1011B00091935F01CE0104960E94FC07F2E38F9F9A
:1011C000C0011124F301819391933F01F4018081C7
:1011D0008C3008F058C0FE01E658FE4F308061E0C8
:1011E000832D0E946E02F4018081482F50E09A0105
:1011F000220F331F240F351FF901E856FC4F232D12
:101200002F73322E9081907C392A3082F401118222
:101210001282622D0E946519829DD001112450E036
:1012200040E0BD01640F751F9B01220F331F260F85
:10123000371FF901E856FC4F908196FD16C04F5FAD
:101240005F4F4C30510569F781110FC0109280003B
:10125000F2E0F09381001092850010928400B19A20
:1012600080916F00826080936F00F401208130E0F4
:10127000C901880F991F820F931FFC01E856FC4F8C
:10128000808180648083F70161917F0170E0C401F7
:101290000E94B6060D5F1F4F2196F3E08F0E911C42
:1012A000C133D10509F068CF85E390E00E94FC07C7
:1012B00080934C0286E390E00E94FC07CAE08C9F7A
:1012C000C001112490934B0280934A0287E390E07F
:1012D0000E94FC078093400288E390E00E94FC0794
:1012E0008093C60189E390E00E94FC0780933B0253
:1012F0008AE390E00E94FC0722E3829FC001112450
:1013000090930D0280930C028BE390E00E94FC0707
:10131000282F30E0A8EEB3E00E9456196093F00247
:101320007093F1028093F2029093F3028CE390E0C9
:101330000E94FC078C9FC00111249093EB028093C4
:10134000EA028DE390E00E94FC07809379028EE32D
:1013500090E00E94FC07809370028FE390E00E946F
:10136000FC0780936F0206E612E0C6E4D0E0CE01EF
:101370000E94FC07F80181938F012196CE34D1059C
:10138000B1F78091C6018F3118F08EE18093C601CC
:101390008091C601811103C081E08093C6018091D4
:1013A000FA02882361F08091400270E060E08823B7
:1013B00019F06091C60170E086E00E9440068091BD
:1013C0003B02833010F010923B0260E08DE0DF9131
:1013D000CF911F910F91FF90EF90DF90CF90BF9032
:1013E000AF909F908F907F906F905F904F903F90C5
:1013F0002F900C9440021F93CF93DF93EC01162F94
:1014000083319105C8F48131910528F4813091052B
:1014100011F0099731F48FEF9FEF909309028093B9
:10142000080280E090E0892BA9F0612FCE01DF91C6
:10143000CF911F910C9400004D9799F7177F10934F
:101440000B028091F2018F73912F907C892B8093F6
:10145000F201E1CFCE010E94EC18181799F0612F2C
:10146000CE010E94F41881E08093000180E090E0BA
:10147000892B41F08091F20184FD04C0612FCE01DF
:101480000E940000CE01DF91CF911F910C94EC18C7
:10149000CF93DF93C2EFD1E02881206128830E949F
:1014A000FB0988818F7E8883DF91CF9108954F92C9
:1014B0005F926F927F92AF92BF92CF92DF92EF9244
:1014C000FF920F931F93CF93DF93CDB7DEB7A9970A
:1014D0000FB6F894DEBF0FBECDBF8091F203882314
:1014E00021F01092F2031092F3038091E3039091A4
:1014F000E403DC01ED91FC910084F185E02D099578
:1015000008970CF4DBC08E010E5D1F4F34EFC32E25
:1015100033E0D32E5E01BAE2AB0EB11C76018091AE
:10152000E3039091E403DC01ED91FC910284F385E7
:10153000E02D09958053F80181938F01D7011D9209
:101540007D01AE16BF0659F79AA18AE01BA1989FAC
:10155000100D11242CA194E6EDA0E89E7001112439
:10156000299FE00CF11C11242EA1E20EF11C2FA1E9
:10157000A8A4A89E50011124299FA00CB11C1124DD
:1015800089A5A80EB11CB8EEEB16B3E0FB062CF44F
:10159000E8EEAE16E3E0BE061CF081E08093F303B4
:1015A00089E08093F40398E09093F5039091F3031E
:1015B00091118093F50380E090E0892B29F0A5013B
:1015C000B701812F0E940000123208F0F7C0E12F0E
:1015D000F0E0E351F54F0C9499190F0B730B760B58
:1015E000DE0BDE0BDE0BDE0BDE0BDE0BDE0B790B18
:1015F0007E0BDE0BDE0BDE0BDE0BDE0BDE0BDE0B03
:10160000DE0B830B830BDE0BDE0BDE0BDE0BDE0B48
:10161000DE0BDE0BDE0B890B960BD40BD90B87E0B0
:1016200090E00E948C008091EB038093F9038091FD
:10163000EC038093FA038091ED038093FB038CEF1E
:10164000A82E83E0B82E9AE0492E512C612C712CE3
:101650000091E3031091E403D6012D916D0130E078
:1016600050E040E019A27E01B1E2EB0EF11CCA018C
:10167000B901A30192010E943419605DF7016293E0
:101680007F01211531054105510589F7309781F01A
:1016900001900020E9F73197AF014E195F09D80199
:1016A000ED91FC910280F381E02DB701C80109950D
:1016B000AC14BD0469F681E08093F203A9960FB6DD
:1016C000F894DEBF0FBECDBFDF91CF911F910F9178
:1016D000FF90EF90DF90CF90BF90AF907F906F9092
:1016E0005F904F9008958AE090E09BCF8FE190E06B
:1016F00098CFB501C7010E94480AA1CFC7010E9437
:10170000FC0790E08ECF6CEE610F8E2D0E949D063F
:1017100096CF8091E5039091E6039093EF03809339
:10172000EE031092F1031092F0037BCF8091F0034F
:101730009091F103FC01EE0FFF1FE80FF91FE95F25
:10174000FE4F00811181083EF3E01F0710F007EE05
:1017500013E0C8010E948C008091EB038093F60394
:101760008091EC038093F7038091ED038093F8035D
:10177000C8010E94FC0790E00E948C008091EB035E
:101780008093F9038091EC038093FA038091ED0339
:101790008093FB038091F0039091F1030196909365
:1017A000F1038093F0034BCF8091E7039091E8031E
:1017B000B4CF8091E9039091EA03AFCF89E08093A1
:1017C000F5033DCFBF92CF92DF92EF92FF920F933E
:1017D0001F93CF93DF938B01B42E690182FF23C047
:1017E00083FF17C061E0C8010E9467078823D9F111
:1017F0006B2DC8010E94FB098B1135C0F601DF91EA
:10180000CF911F910F91FF90EF90DF90CF90BF90FD
:10181000099460E0C8010E946707882321F1C8018C
:101820000E94FC07E9CF842F8770C1E0D0E07E01E1
:1018300001C0EE0C8A95EAF7D42FD870CB010E9434
:10184000FC07C82FB4FE1CC061E0C8010E946707F6
:10185000882349F0DD2389F0CE296C2FC8010E942E
:10186000FB098C1759F2DF91CF911F910F91FF90D7
:10187000EF90DF90CF90BF900895E094CE21EDCF10
:1018800060E0C8010E946707882369F3CE21DD2349
:1018900019F0C111B3CFE7CFCC2309F4AFCFE3CF19
:1018A000CF92DF92EF92FF920F931F93CF93DF932C
:1018B0007C016B01C42F122FD42FD07E8091F201B6
:1018C00087FF2CC0D03EC1F58091F3018823A1F1A0
:1018D00090E00E94FC07D82F8091F30190E00196E0
:1018E0000E94FC07982F8D2FE816F90629F56C2F1A
:1018F00070E0762F662766277370612B6F5F7F4FCE
:101900002FE837E0402F8C2FDF91CF911F910F915F
:10191000FF90EF90DF90CF900C94E20B80FD36C0EB
:10192000D03609F46DC088F4D03209F44BC0D034FD
:1019300009F466C0DD2399F1DF91CF911F910F91DA
:10194000FF90EF90DF90CF900895D03A09F490C0C7
:10195000B0F4D03889F780E090E02C2F2F7141E06F
:1019600050E0892B49F3B601C701DF91CF911F9158
:101970000F91FF90EF90DF90CF900C940000D03C3F
:1019800009F484C0D03E09F4B2CFD6CF0E94040837
:101990008E159F0529F2E114F10411F2CDCF8C2FA1
:1019A0008E7051F680E090E0892B31F28C2F81709F
:1019B000DF91CF911F910F91FF90EF90DF90CF902B
:1019C0000C940000CF71CF3109F0B6CF80E090E0E9
:1019D000892B09F4B1CF412F4F7771F0413071F06D
:1019E000111F1127111F212F30E00FE710E0B60162
:1019F000C7010E940000A0CF41E0F2CF40E0F0CF4D
:101A000080E090E0892BC1F02C2F30E08C2F8F717B
:101A1000813029F030F0803121F08131F9F440E05B
:101A200001C041E025FB222720F90DE110E030E064
:101A3000B601C7010E94000080E090E0892B09F404
:101A40007BCF4C2FB601C701DF91CF911F910F9132
:101A5000FF90EF90DF90CF900C940000C901880FA9
:101A6000991F8E71C4FB442740F9482B4250DACFAE
:101A700080E090E0892B09F45FCF2C2F2F7043E09A
:101A800050E0C4FF70CF42E050E06DCFCF71CE3157
:101A900061F0CF3109F050CF80E090E0212F45E098
:101AA00050E0892B09F05FCF47CF80E090E0212FF5
:101AB00044E050E0892B09F056CF3ECF1F920F92A1
:101AC0000FB60F9211242F933F934F935F936F9311
:101AD0007F938F939F93AF93BF93EF93FF938BEF7E
:101AE00092E00E945F01FF91EF91BF91AF919F91B2
:101AF0008F917F916F915F914F913F912F910F90B7
:101B00000FBE0F901F9018951F920F920FB60F9255
:101B100011242F938F939F93EF93FF93E0910B03E7
:101B2000F0910C038081E0911103F091120382FD8A
:101B30001BC09081809114038F5F8F7320911503D8
:101B4000821741F0E0911403F0E0E550FD4F958FCE
:101B500080931403FF91EF919F918F912F910F909C
:101B60000FBE0F901F9018958081F4CF1F920F9297
:101B70000FB60F9211242F933F938F939F93AF93A0
:101B8000BF938091CE019091CF01A091D001B091EF
:101B9000D1013091CD0123E0230F2D3758F5019667
:101BA000A11DB11D2093CD018093CE019093CF0153
:101BB000A093D001B093D1018091D2019091D30133
:101BC000A091D401B091D5010196A11DB11D8093C2
:101BD000D2019093D301A093D401B093D501BF91CA
:101BE000AF919F918F913F912F910F900FBE0F90CA
:101BF0001F90189526E8230F0296A11DB11DD2CF84
:101C00001F920F920FB60F9211242F933F934F9371
:101C10005F936F937F938F939F93AF93BF93EF9354
:101C2000FF93E0910401F09105010995FF91EF9177
:101C3000BF91AF919F918F917F916F915F914F91E4
:101C40003F912F910F900FBE0F901F9018951F92EC
:101C50000F920FB60F9211242F933F934F935F93E0
:101C60006F937F938F939F93AF93BF93EF93FF9364
:101C7000E0910201F09103010995FF91EF91BF916D
:101C8000AF919F918F917F916F915F914F913F9114
:101C90002F910F900FBE0F901F9018951F920F92CB
:101CA0000FB60F9211242F933F934F935F936F932F
:101CB0007F938F939F93AF93BF93CF93DF93EF93D4
:101CC000FF938091CC01C091BC03D0E087FF24C07A
:101CD00010928500109284008091CC018F5F8093D8
:101CE000CC018091CC01082E000C990B8C179D071C
:101CF00024F48091CC018C30C4F1809184009091C7
:101D00008500049680349C4908F47AC08091840050
:101D100090918500049676C08091CC01082E000C2D
:101D2000990B8C179D07C4F6E091CC018E2FEE0F16
:101D3000990BFC01EE0FFF1FE80FF91FE856FC4F4F
:101D4000808186FFC9CFE091CC018E2FEE0F990BD9
:101D5000FC01EE0FFF1FE80FF91FE856FC4F8081D2
:101D600060E08F730E944002B7CF209184003091D1
:101D70008500E091CC018E2FEE0F990BFC01EE0F48
:101D8000FF1FE80FF91FE856FC4F81819281820FF7
:101D9000931F9093890080938800E091CC018E2F4F
:101DA000EE0F990BFC01EE0FFF1FE80FF91FE8562D
:101DB000FC4F808186FF11C0E091CC018E2FEE0F89
:101DC000990BFC01EE0FFF1FE80FF91FE856FC4FBF
:101DD000808161E08F730E944002FF91EF91DF915B
:101DE000CF91BF91AF919F918F917F916F915F91B3
:101DF0004F913F912F910F900FBE0F901F9018950C
:101E000080E49CE990938900809388008FEF809311
:101E1000CC01E3CF1092FE021092FD0288EE93E017
:101E2000A0E0B0E08093FF0290930003A093010331
:101E3000B093020387EB91E09093FC028093FB0246
:101E400085EC90E0909308038093070384EC90E086
:101E500090930A038093090380EC90E090930C0325
:101E600080930B0381EC90E090930E0380930D031D
:101E700082EC90E09093100380930F0386EC90E047
:101E80009093120380931103109214031092150380
:101E90001092160310921703E4E0F4E020E134E01E
:101EA0004FEF68EB7BE08091BC038C3008F04EC0B4
:101EB00091E0980F9093BC03808390E0DC01AA0F1F
:101EC000BB1FA80FB91FA856BC4F12967C936E93E8
:101ED000119733962E173F0731F788E790E09093DC
:101EE0001401809313018091060190E021E020937A
:101EF000F2031092F3039093E6038093E5031092AC
:101F0000E8031092E7031092EA031092E90384EFCA
:101F100091E0A0E0B0E08093C3039093C403A0934A
:101F2000C503B093C6038AE0EDE9F1E0A1EDB3E0AB
:101F300001900D928A95E1F71092DB0382E0809385
:101F4000DC031092E1031092E20308954083C1CFB5
:101F5000CF93DF9300D000D000D0CDB7DEB7789418
:101F600084B5826084BD84B5816084BD85B582609E
:101F700085BD85B5816085BD80916E00816080934F
:101F80006E001092810080918100826080938100B8
:101F900080918100816080938100809180008160C8
:101FA000809380008091B10084608093B100809123
:101FB000B00081608093B00080917A00846080934B
:101FC0007A0080917A00826080937A0080917A0012
:101FD000816080937A0080917A00806880937A0093
:101FE0001092C10061E08DE00E946E0261E08DE020
:101FF0000E94400262E08BE00E946E0262E08CE090
:102000000E946E02E0910B03F0910C0382E080834A
:10201000E0910703F09108031082E0910903F09129
:102020000A038FEC808310921303E0910F03F09169
:10203000100386E08083E0910D03F0910E03808110
:1020400080618083E0910D03F0910E0380818860B0
:102050008083E0910D03F0910E038081806880837E
:10206000E0910D03F0910E0380818F7D80832BEF33
:1020700032E03093BE032093BD0381E08093D5030B
:1020800070E060E08CE00E94400660ED77E080E068
:1020900090E00E94F00468EC70E080E090E00E9424
:1020A00091041092E1038091DD03843041F1893085
:1020B00031F11092FA024BEF52E05093E403409357
:1020C000E30354E159838091FA02811102C00E9416
:1020D000570A8DE00E94170261E0892B09F060E049
:1020E0008DE00E94400264E670E080E090E00E9493
:1020F00091047981715079837111E5CF13C081E02A
:102100008093FA0270E060E087E00E94400662E09F
:1021100070E089E00E94400668EC70E080E090E0AA
:102120000E94910461E082E10E946E0260E082E11F
:102130000E94400261E083E10E946E0260E083E160
:102140000E9440026BEA71E07A83698362E0A981B0
:10215000BA818D91BA83A9830E946E02E981FA81C6
:10216000E35BF14099F71092030282E0809304024E
:10217000E0EBF0E0E491F0E0EE0FFF1FEC55FF4FD5
:10218000859194919093060280930502E2E9F0E034
:10219000E491E093070262E082E00E946E02ECEDBF
:1021A000F1E086E1DF011D928A95E9F782E990E08E
:1021B0009093DB018093DA0182E590E09093D9015E
:1021C0008093D80180EC8093F20189E78093F3013A
:1021D0008FEF9FEF909309028093080210920A02FA
:1021E00083E08093D701809107028093D60163E05A
:1021F00070E0809103020E94BB008DE190E00E949C
:10220000FC07682F606C8DE190E00E94FB098093D1
:102210000B0264E687E090E00E94FB096DE088E035
:1022200090E00E94FB0980E00E94ED078091FA0295
:10223000811102C00E94570A60E971E080E090E0DD
:102240000E9491048091FA02811102C00E94570AF3
:1022500060E971E080E090E00E9491048091FA02D0
:10226000811102C00E94570A88E790E00E94FC0793
:10227000883709F5E7E0F1E0FA83E98329813A81BB
:1022800041E02D393407B9F0D90112966C911297BB
:102290002D913C919091F20190619093F201C901CE
:1022A0000E94FB098091F2018F7E8093F201E98107
:1022B000FA813396E1CF8091000181110E946C0870
:1022C00060E08DE00E94400282E0282E8091F401BF
:1022D0008823B1F00E94E4040091F5011091F60109
:1022E0002091F7013091F801601B710B820B930B69
:1022F000653171058105910518F080E00E94ED07B8
:102300008091DE018823B1F1F89488E0EAEEF1E0F3
:10231000ACEFB3E001900D928A95E1F71092DE01E7
:1023200078948091FC03E82FF0E0E250FC4F863077
:1023300018F411928F5FFBCF20E030E0232B21F0C7
:102340008CEF93E00E9400008091FE038111E2C0B7
:102350009091FF039111DEC040E050E0452B11F059
:102360000E9400008091F401882309F4CFC081E02D
:102370000E9432078091FA02811102C00E94570A1E
:102380008091000181110E946C0844EF51E060E0EF
:1023900070E086EF92E00E949907882321F060E0C8
:1023A0008DE00E944002B091F502B983B11124C0C2
:1023B0008CE00E941702892BF9F462E370E080E060
:1023C00090E00E9491048CE00E941702892BA1F4F6
:1023D0008091F402811110C02092F40261E08DE03E
:1023E0000E9440020E94E4046093F6027093F70298
:1023F0008093F8029093F9028BE00E941702892BD8
:1024000069F462E370E080E090E00E9491048BE068
:102410000E941702892B11F40E94CF074091F0020D
:102420005091F1026091F2027091F3028CEE92E011
:102430000E94990781110E94CF07E981E13009F0DC
:1024400082C30AEC802E02E0902E8AEAE82E82E017
:10245000F82E0AE812E02BEA31E03A8329831E8243
:102460001D82332433944091EA025091EB02052EF1
:10247000000C660B770BC4010E949907882309F4AE
:10248000A6C2D8014D905D906D907C90ED81FE814B
:10249000EE57FD4F5F012D813E8126583D4F3C8315
:1024A0002B834D815E814F585D4F6A0153E0451685
:1024B0005104610471040CF49FC5D7012D913D9125
:1024C0004D915C91A4E6B0E00E942119A301920114
:1024D0000E940219F5018081AB81BC818C934090F0
:1024E0007902512C712C612C2415350546055705B0
:1024F0000CF042C230820E94E4046093EC027093BC
:10250000ED028093EE029093EF027EC581E00E947F
:10251000ED0730CF9091F401992309F497C08057CB
:10252000803108F090C081E00E9432075091FC0396
:1025300059838091FB0158130AC0452F50E06DEF7D
:1025400071E08EEF93E00E949F19892B61F0109249
:10255000FA0188E0ECEFF3E0ABEFB1E001900D920F
:102560008A95E1F707CF8091FA018F5F8093FA0196
:102570006981633009F04EC02091FE03822F87707D
:102580001091FF03853029F41093F9010E94C404CF
:10259000F1CE843069F1A82FB0E0BA83A9838430EA
:1025A00008F58091F9018823E9F08150990B880F93
:1025B000991F880F991FA80FB91F1196BA83A98375
:1025C00023FF1BC061E089819A810E9467078823ED
:1025D00009F4D0CE612F89819A810E94FB091813DA
:1025E000C9CED4CFE981FA813196FA83E983E8CF65
:1025F0004DE150E05A834983E3CF60E089819A81BD
:102600000E946707882309F4B5CE89819A810E94C8
:10261000FC07E5CF5981543009F0ACCE8091FE0320
:10262000682F70E0762F6627662773709091FF03FE
:10263000692B6F5F7F4F22EE34E0409100048C7075
:102640000E94E20B97CE80E00E94ED078091FE038E
:102650008F3F61F48091FF0381118CCE60E070E0C8
:10266000672B09F487CE0E94000084CE87FD0CC042
:1026700000910104209100044091FF0370E060E0AC
:1026800090E00E94500C76CE803C08F062C19091A0
:10269000F20197FF6FCE4091FF03242F30E0D90164
:1026A000A095B095AA0FBB1FAA0FBB1FA07CB1704D
:1026B0008F73A82BBA83A98335952795B22FB37052
:1026C000DB2E8091FC03853071F54C784C3059F548
:1026D0000E940408E981FA818E179F0721F0EF3FDD
:1026E000F14009F047CE3091FF03432F50E0742FA3
:1026F00066276627737080910004680F711D6F5FF5
:102700007F4F7A8369831091010461E089819A8106
:102710000E946707612F882309F42CCE89819A8152
:102720000E94FB0927CEE980FA8071E0E71AF108E0
:10273000EE0CFF1CEE0CFF1CED2887010F5F1F4FF6
:1027400080910A028823F9F096FF41C0C80160E039
:1027500071E00E948519682F81E090E00E94FB09DA
:10276000C80117FF02C081509F4F692F89E090E098
:102770000E94FB0980E090E0892B19F0C8010E94BB
:10278000000010920A028091F20180FD3CC080910D
:10279000FC03843009F052C08091FF0389788130B6
:1027A00009F0E8CD40E050E0452B29F060910004AD
:1027B000C8010E94000060E070E0672B09F4DACDE8
:1027C000409100046D2DC8010E940000D3CD6981A5
:1027D0007A816F73772781E090E00E94FB0969811D
:1027E0007A8146E0759567954A95E1F789E090E032
:1027F0000E94FB09A0E0B0E0AB2B19F289819A811D
:102800000E940000BECF86FF0CC00E940408801703
:10281000910709F4BCCF0D3FB7E01B070CF0B7CF11
:10282000A9CD0E940408E981FA818E179F0709F457
:10283000AECFEF3FF14009F4AACF9CCD833051F5E4
:102840004091FF03742F7170E72E43FBFF24F0F8D3
:1028500080E090E0892B39F047702F2D69817A81D3
:10286000C8010E9400008091F20186FF06C04F2D32
:102870006E2DC8010E9454087DCDA0E0B0E0AB2BC6
:1028800009F478CD2F2D4E2D6D2D89819A810E94CE
:10289000000070CD863009F06DCD8091FF03982F38
:1028A0009978913021F08F78803809F063CD80914C
:1028B000F20186FF26C00E94040880179107E9F400
:1028C0008091000490E0F82FEE27EE27F37020911E
:1028D0000104E20FF11D3196FA83E983109102049D
:1028E0009595879595958795837099278230910561
:1028F00099F0039709F409CF3DCD0D3F174004F738
:1029000039CD0E94040829813A8182179307C1F2C8
:102910002F3F3140A9F22ECD14FF2CCD61E08981EB
:102920009A810E946707882309F424CD89819A81BE
:102930000E94FC07912F977061E070E001C0660F64
:102940009A95EAF713FF02C0682BE8CE60956823DA
:10295000E5CE883E08F00ECD805C990B3091FF03E8
:1029600000910204209101044091000461E070E0B4
:10297000A32FB82FCD0185CE40907002512C712C21
:10298000612C42165306640675060CF026C3D60168
:102990009C919F5F9C9320916F02291708F435C387
:1029A000813051F40E94E4046093EC027093ED02D4
:1029B0008093EE029093EF02D7011D921D921D921B
:1029C0001C921397F8011082118212821382A9813E
:1029D000BA818D91BA83A9830E941702092E000C37
:1029E000AA0BBB0BF7014081518162817381840F77
:1029F000951FA61FB71F81939193A193B1937F0158
:102A0000F80180819181A281B3810196A11DB11D40
:102A100081939193A193B1938F012D813E812F5F7B
:102A20003F4F3E832D8334E0830E911C4D815E81A8
:102A30004830510509F017CDAAE7B2E012E8A12EFF
:102A400012E0B12E41E050E0F50181915F0181116A
:102A50002AC38C91813009F049C0FA01EB59FD4F2E
:102A60008080912C90E080E0782F9401082E02C0A5
:102A7000359527950A94E2F720FFD7C26CEF680FCF
:102A8000843008F4682FE62FF0E09F012E593D4F67
:102A90003C832B83F9012081223009F0CCC2F6E679
:102AA0006F2EF2E07F2E02E812E0F301E1903F0189
:102AB000F12C30E020E06701022E02C0D594C794CB
:102AC0000A94E2F7C0FEA3C2243008F4A0C2ECEFDF
:102AD000DE2ED20E6D119BC2743008F098C2F80140
:102AE000D080D11094C2EB81FC8110824F5F5F4F88
:102AF00011964930510509F0A7CF80916402909159
:102B00006302890F90916502890F90916202890F8B
:102B100080936E029091F402882309F4F1C2992304
:102B200011F0953081F42092F40261E08DE00E9472
:102B300040020E94E4046093F6027093F7028093CF
:102B4000F8029093F9028091F5028230F9F48091B5
:102B50006E0281111BC08091F40290916102992351
:102B600009F4EDC2882311F0853081F42092F4023B
:102B700061E08DE00E9440020E94E4046093F6024E
:102B80007093F7028093F8029093F9028091F40217
:102B90008230E9F481E592E09A8389830DE412E0C2
:102BA000FF24F3940E94E404A981BA816D937D937C
:102BB0008D939D93BA83A983F80111928F01F092AE
:102BC0000101A156B24071F784E08093F402809134
:102BD000F402833059F410924D0210924E0210927A
:102BE0004F021092500285E08093F4028091F4022B
:102BF000843009F0C3C080914C02813009F0A6C234
:102C000061E082E10E94400261E083E10E944002B3
:102C100080914D0290914E02892390914F02892319
:102C200090915002892380934502882309F4B3C20E
:102C30001092410210924D021092420210924E02E6
:102C40001092430210924F021092440210925002CE
:102C500080914002823070F48091FA02882351F012
:102C60000E94E40460933C0270933D0280933E0214
:102C700090933F020E94E4046093EC027093ED0293
:102C80008093EE029093EF0281E08093F402A3E33D
:102C9000AA2EA2E0BA2EB1E5CB2EB2E0DB2E1DE4C7
:102CA000E12E12E0F12E01E412E01A821982992439
:102CB0009394D5014D915D915D01052E000C660B3D
:102CC000770BC6010E949907811105C0F801808128
:102CD000813009F03FC0D7018C9181113BC0F801D0
:102CE00090824091320250E070E060E089819A81E8
:102CF000880F991F880F991F8E5D9D4F0E9499071D
:102D0000882341F1E981FA81E65EFD4F9081E981F6
:102D1000FA81EA5EFD4F8081A981BA81A25EBD4F32
:102D20002C91921708F454C28F5F8083808198178A
:102D300018F49083D7019C92608170E089819A8118
:102D4000880F991FE981FA818E0F9F1F8C5F9B4F1F
:102D50000E94B60629813A812F5F3F4F3A8329832B
:102D600034E0C30ED11C4FEFE41AF40A0F5F1F4F7B
:102D700069817A816430710509F09BCF8091F402FA
:102D8000853009F0D6C04EE0A42E42E0B42E51E5C5
:102D9000C52E52E0D52E6DE4E62E62E0F62E01E45B
:102DA00012E01A82198299249394D5014D915D9174
:102DB0005D01052E000C660B770BC6010E9499077A
:102DC000811105C0F8018081813009F03FC0D70131
:102DD0008C9181113BC0F80190824091320250E009
:102DE00070E060E089819A81880F991F880F991F90
:102DF0008E5D9D4F0E949907882341F1E981FA81F8
:102E0000E25EFD4F9081E981FA81EA5EFD4F8081AB
:102E1000A981BA81A65EBD4F2C91291708F4DAC1A9
:102E2000815080838081891718F49083D7019C9208
:102E3000608170E089819A81880F991FE981FA8108
:102E40008E0F9F1F8C5F9B4F0E94B60629813A818F
:102E50002F5F3F4F3A83298334E0C30ED11C4FEFDD
:102E6000E41AF40A0F5F1F4F69817A81643071059B
:102E700009F09BCF70914D0280914E027823809192
:102E80004F02782380915002782379837093450212
:102E900080914C02823011F540914A0250914B02D0
:102EA000052E000C660B770B86E492E00E949907D2
:102EB0008823A1F082E10E94170261E0892B09F0CA
:102EC00060E082E10E94400282E10E94170261E01C
:102ED000892B09F060E083E10E9440028981882308
:102EE00041F11092410210924D0210924202109252
:102EF0004E021092430210924F021092440210921E
:102F000050028091FA02882351F070E060E08EE078
:102F10000E94400661E070E089E10E94400660E0A6
:102F200082E10E94400260E083E10E944002109230
:102F3000F4028091F402813009F042C080914C0289
:102F4000823011F540914A0250914B02052E000C3F
:102F5000660B770B86E492E00E9499078823A1F024
:102F600082E10E94170261E0892B09F060E082E1B2
:102F70000E94400282E10E94170261E0892B09F061
:102F800060E083E10E94400240910C0250910D02EA
:102F9000052E000C660B770B8CE392E00E949907DC
:102FA000882371F08091FA02882351F070E060E08C
:102FB0008EE00E94400661E070E089E10E944006D8
:102FC000A0E0B0E0AB2B09F481C90E944B0188233B
:102FD00009F47AC90E94000077C9813051F40E9437
:102FE000E4046093EC027093ED028093EE02909300
:102FF000EF02D6011C92E0CCEB81FC818081D501EF
:103000008C93813009F477CAF6011082D5CC2F5FFA
:103010003F4F2830310509F04ECD0F5F1F4FFEE6C0
:103020006F16F2E07F0609F040CD019688309105D9
:1030300009F01ACD5BCD2130C1F7F6E64F2EF2E054
:103040005F2E02E812E0F201E1902F01F12C30E056
:1030500020E0722E6701022E02C0D594C7940A9414
:10306000E2F7C0FE13C0F3E0ECEFDE2ED20EF21753
:1030700008F0D22E6D110AC0743040F0E3E0E7157D
:1030800028F0F801D080DD2009F42DCD2F5F3F4FCF
:1030900028303105F1F60F5F1F4FFEE64F16F2E0C4
:1030A0005F0689F6C2CF813009F020CD8C91811165
:1030B0001DCDFA01EB59FD4F208130E090E080E01A
:1030C0008983B901082E02C0759567950A94E2F7C5
:1030D00060FF11C0E82FE450843008F4E82FF0E0DE
:1030E000EE59FD4F6081611106C0798162E0743054
:1030F00008F461E0608301968830910509F7F6CC09
:10310000913009F020CD83E08093F40261E08DE0FE
:103110000E9440020E94E4046093F6027093F7025A
:103120008093F8029093F9020E94E4046093EC0209
:103130007093ED028093EE029093EF0204CD813004
:1031400009F024CD83E08093F40212CD823009F09F
:103150005FCD40914A0250914B02052E000C660B48
:10316000770B86E492E00E949907882309F450CDFA
:1031700082E10E94170261E0892B09F060E082E1A0
:103180000E94400282E10E94170261E0892B09F44B
:103190003CCD60E03ACD80910101882309F477CDE0
:1031A000109201018091FA02882309F470CD609198
:1031B0003B0270E083E00E94400680914002823032
:1031C00009F065CD70E060E089E10E9440065FCDC6
:1031D0008150ABCD8F5F25CEF999FECF92BD81BDD9
:1031E000F89A992780B50895262FF999FECF1FBA2E
:1031F00092BD81BD20BD0FB6F894FA9AF99A0FBE20
:1032000001960895052E97FB1EF400940E9419194B
:1032100057FD07D00E94341907FC03D04EF40C94DC
:10322000191950954095309521953F4F4F4F5F4F5D
:10323000089590958095709561957F4F8F4F9F4F22
:1032400008950E945619A59F900DB49F900DA49FBC
:10325000800D911D11240895B7FF0C9421190E942F
:103260002119821B930B0895A1E21A2EAA1BBB1BE6
:10327000FD010DC0AA1FBB1FEE1FFF1FA217B30742
:10328000E407F50720F0A21BB30BE40BF50B661F58
:10329000771F881F991F1A9469F76095709580951C
:1032A00090959B01AC01BD01CF010895A29FB00193
:1032B000B39FC001A39F700D811D1124911DB29F6A
:1032C000700D811D1124911D0895991B79E004C092
:1032D000991F961708F0961B881F7A95C9F7809555
:1032E0000895AA1BBB1B51E107C0AA1FBB1FA6174D
:1032F000B70710F0A61BB70B881F991F5A95A9F79F
:1033000080959095BC01CD01089597FB072E16F48A
:10331000009407D077FD09D00E94711907FC05D0F1
:103320003EF4909581959F4F0895709561957F4FDC
:103330000895EE0FFF1F0590F491E02D0994FB0115
:10334000DC0104C08D910190801921F4415050405E
:10335000C8F7881B990B0895F894FFCF0101B506B3
:10336000B506320100010900001100001200000042
:1033700000007900637A00001E00011F0002200097
:103380003221001422006423001424001425006458
:103390002600142700142800642900142A00142B86
:1033A00000642C00142D00282E00322F0050300015
:1033B0005A31000A32000A33000A34000A3500028A
:1033C00036002837000138000A3900013A00643B12
:1033D000003C3C001E3D00323E00503F00054600D0
:1033E000014700024800044900084A00104B002031
:1033F0004C00404D00807800007EFF060001000078
:103400000000EF0E0F1011030405060708090A005B
:103410000000008101E1000E01CE013F011D0131DC
:023420000100A9
:107E0000112484B714BE81FFF0D085E080938100F7
:107E100082E08093C00088E18093C10086E0809377
:107E2000C20080E18093C4008EE0C9D0259A86E02C
:107E300020E33CEF91E0309385002093840096BBD3
:107E4000B09BFECF1D9AA8958150A9F7CC24DD24C4
:107E500088248394B5E0AB2EA1E19A2EF3E0BF2EE7
:107E6000A2D0813461F49FD0082FAFD0023811F036
:107E7000013811F484E001C083E08DD089C08234E0
:107E800011F484E103C0853419F485E0A6D080C0E4
:107E9000853579F488D0E82EFF2485D0082F10E0AE
:107EA000102F00270E291F29000F111F8ED06801E7
:107EB0006FC0863521F484E090D080E0DECF843638
:107EC00009F040C070D06FD0082F6DD080E0C81688
:107ED00080E7D80618F4F601B7BEE895C0E0D1E017
:107EE00062D089930C17E1F7F0E0CF16F0E7DF06D8
:107EF00018F0F601B7BEE89568D007B600FCFDCFD4
:107F0000A601A0E0B1E02C9130E011968C91119780
:107F100090E0982F8827822B932B1296FA010C0160
:107F200087BEE89511244E5F5F4FF1E0A038BF0790
:107F300051F7F601A7BEE89507B600FCFDCF97BE46
:107F4000E89526C08437B1F42ED02DD0F82E2BD052
:107F50003CD0F601EF2C8F010F5F1F4F84911BD097
:107F6000EA94F801C1F70894C11CD11CFA94CF0C13
:107F7000D11C0EC0853739F428D08EE10CD085E9AC
:107F80000AD08FE07ACF813511F488E018D01DD067
:107F900080E101D065CF982F8091C00085FFFCCF94
:107FA0009093C60008958091C00087FFFCCF809118
:107FB000C00084FD01C0A8958091C6000895E0E648
:107FC000F0E098E1908380830895EDDF803219F02E
:107FD00088E0F5DFFFCF84E1DECF1F93182FE3DFCA
:107FE0001150E9F7F2DF1F91089580E0E8DFEE27F6
:047FF000FF270994CA
:027FFE00040479
:00000001FF
