:020000040000FA
:100000000C9462000C94430A0C941C0A0C948A0011
:100010000C948A000C948A000C948A000C948A0038
:100020000C948A000C948A000C948A000C946A0A3E
:100030000C948A000C948A000C948A000C948A0018
:100040000C94D2090C948A000C94A0090C947A099F
:100050000C948A000C948A000C948A000C948A00F8
:100060000C948A000C948A000000000024002700F1
:100070002A0000000000250028002B0000000008D6
:10008000000201000003040700000000000000005F
:10009000010204081020408001020408102001021F
:1000A000040810200000000023002600290004049A
:1000B0000404040404040202020202020303030310
:1000C0000303260B11241FBECFEFD8E0DEBFCDBF48
:1000D00012E0A0E0B1E0E0E9F8E202C005900D9284
:1000E000A630B107D9F723E0A6E0B2E001C01D9227
:1000F000AF35B207E1F710E0C2E6D0E004C02197C7
:10010000FE010E940E13C136D107C9F70E94E50B0C
:100110000C9446140C9400009C0110921903109248
:100120001A0384369105B0F064E670E00E94E6128E
:100130006093190380911903A90164E6869F401911
:1001400051091124CA016AE070E00E94E61260932E
:100150001A0302C00A9770F78091190394E6899FE9
:100160002019112480911A034AE0849F2019112438
:1001700020931B0308958230F8F4E82FF0E0EE0F8F
:10018000FF1FE050FF4F2BE932E0318320838130A5
:1001900041F0809169008C7F682B60936900E89A38
:1001A000089580916900837F660F771F660F771F20
:1001B000682B60936900E99A089588E480930401AC
:1001C0000895AF92BF92CF92DF92EF92FF920F937A
:1001D0001F93CF93DF936C017B018B01040F151FDD
:1001E000EB015E01AE18BF08C017D10759F0699145
:1001F000D601ED91FC910190F081E02DC6010995A9
:10020000892B79F7C501DF91CF911F910F91FF9055
:10021000EF90DF90CF90BF90AF900895FC01538D89
:10022000448D252F30E0842F90E0821B930B5417D0
:1002300010F0CF96089501970895FC01918D828D5D
:10024000981761F0A28DAE0FBF2FB11D5D968C91F6
:10025000928D9F5F9F73928F90E008958FEF9FEF35
:100260000895FC01918D828D981731F0828DE80FF1
:10027000F11D858D90E008958FEF9FEF0895FC01AB
:10028000918D228D892F90E0805C9F4F821B910978
:100290008F73992708958FE492E00E943F0121E037
:1002A000892B09F420E0822F089580E090E0892BCB
:1002B00029F00E944B0181110C9400000895FC016B
:1002C000A48DA80FB92FB11DA35ABF4F2C91848DB7
:1002D00090E001968F739927848FA689B7892C9314
:1002E000A089B1898C91837080648C93938D848D67
:1002F000981306C00288F389E02D80818F7D80836A
:100300000895EF92FF920F931F93CF93DF93EC0129
:1003100081E0888F9B8D8C8D98131AC0E889F989AC
:10032000808185FF15C09FB7F894EE89FF896083AF
:10033000E889F98980818370806480839FBF81E030
:1003400090E0DF91CF911F910F91FF90EF90089572
:10035000F62E0B8D10E00F5F1F4F0F731127E02E4D
:100360008C8D8E110CC00FB607FCFACFE889F98985
:10037000808185FFF5CFCE010E945F01F1CFEB8D2B
:10038000EC0FFD2FF11DE35AFF4FF0829FB7F89459
:100390000B8FEA89FB8980818062CFCFCF93DF9377
:1003A000EC01888D8823B9F0AA89BB89E889F9898D
:1003B0008C9185FD03C0808186FD0DC00FB607FCC2
:1003C000F7CF8C9185FFF2CF808185FFEDCFCE01F5
:1003D0000E945F01E9CFDF91CF91089590E0FC0189
:1003E000E458FF4F2491FC01E057FF4F3491FC018A
:1003F000E255FF4FE491EE23C9F0222339F0233078
:1004000001F1A8F4213019F1223029F1F0E0EE0FCA
:10041000FF1FEE58FF4FA591B4918FB7F894EC9160
:10042000611126C030953E233C938FBF089527303D
:10043000A9F02830C9F0243049F7809180008F7DE1
:1004400003C0809180008F7780938000DFCF84B5D8
:100450008F7784BDDBCF84B58F7DFBCF8091B000DB
:100460008F778093B000D2CF8091B0008F7DF9CF8D
:100470003E2BDACFCF93DF9390E0FC01E057FF4FA4
:10048000249182559F4FFC0184918823C9F090E00C
:10049000880F991FFC01E859FF4FA591B491FC0109
:1004A000EE58FF4FC591D49161110DC09FB7F894DC
:1004B0008C91209582238C938881282328839FBF49
:1004C000DF91CF910895623051F49FB7F8943C9139
:1004D000822F809583238C93E8812E2BEFCF8FB7CB
:1004E000F894EC912E2B2C938FBFEACF3FB7F89462
:1004F00080910D0290910E02A0910F02B091100216
:1005000026B5A89B05C02F3F19F00196A11DB11D6E
:100510003FBFBA2FA92F982F8827BC01CD01620FAA
:10052000711D811D911D42E0660F771F881F991F65
:100530004A95D1F70895FF920F931F93CF93DF93BE
:100540000E9476022091090230910A02EB01C21B3F
:10055000D30B2091130230911402C217D30708F471
:100560005FC040911D0250911E024130510561F063
:10057000E0914802F0914902208130914A02232300
:100580003091110223134CC070930A026093090248
:1005900000911502109116024230510509F413C161
:1005A0004330510509F44EC14130510561F4809149
:1005B0000802813009F447C0C8F1833009F482C0D1
:1005C000843009F4C9C080911D0290911E020197E8
:1005D00039F1C017D10708F06DC1809106028F5F15
:1005E000809306028B30E0F081E090E090931E0251
:1005F00080931D0261E070E0809146020E94BB0082
:10060000109211021092080282E590E09093160277
:100610008093150283E290E090931402809313027A
:10062000DF91CF911F910F91FF900895C017D107CF
:1006300030F481E080930802C0930702C4CF84E0C5
:1006400080930802C0CFC017D107D0F510920802DE
:10065000809106028F5F80930602209107028C2F03
:100660000C2E000C990B821B910927FD939597FF87
:1006700003C0919581959109499794F210921E02B9
:1006800010921D0282E990E0909316028093150269
:1006900082E590E090931402809313021092060278
:1006A000F09012026F2D70E0809146020E94BB0014
:1006B00080914A0293E0F91227C08093110283CF00
:1006C00083E0BECFC017D10708F510921E0210922A
:1006D0001D0282E990E0909316028093150282E554
:1006E00090E0909314028093130210920602F0900F
:1006F00012026F2D70E0809146020E94BB00809133
:100700004A0233E0F316C9F280E0D7CF909112028B
:10071000933009F482E08093120282E090E090939B
:100720001E0280931D0282E990E09093160280934E
:10073000150282E590E090931402809313021092C8
:1007400023028091060280932402109220021092CC
:10075000220210922102CBCFC017D107A8F4109229
:100760001E0210921D0282E990E09093160280937F
:10077000150282E590E09093140280931302109288
:100780000602109220028CCF82E090E090931E022D
:1007900080931D0282E990E09093160280931502E7
:1007A00082E590E09093140280931302109223024A
:1007B000809106028093240210922002109222025D
:1007C000109221026DCF909120029F5F90932002A2
:1007D00080912102880FC017D107E0F08093210299
:1007E000983009F0F6CEE0912302E630A9F4109299
:1007F0001E0210921D0282E990E0909316028093EF
:10080000150282E590E090931402809313021092F7
:100810002002D9CE8160E2CF83E090E090931E0267
:1008200080931D0281E08E0F80932302909121021C
:10083000F0E0E35EFD4F908780912202892780934C
:100840002202C1CEC017D10728F510921E021092C5
:100850001D021092200282E990E09093160280938C
:10086000150282E590E09093140280931302809128
:1008700022028111B2CE88E0E3E2F2E0ABE2B2E024
:1008800001900D928A95E1F781E080931F0210920A
:10089000060299CE80912302863009F4A8CF82E027
:1008A00090E090931E0280931D02109220021092FD
:1008B000210289CE10920602B3CE8F929F92AF9200
:1008C000BF92CF92DF92EF92FF924B015C010E94A8
:1008D00076026B017C010E9476026C197D098E09FB
:1008E0009F09683E734081059105A8F321E0821AB3
:1008F0009108A108B10888EEC80E83E0D81EE11C5B
:10090000F11C81149104A104B10429F7FF90EF9028
:10091000DF90CF90BF90AF909F908F90089561E04F
:100920008CE00E94EE0161E08BE00E94EE0166E047
:1009300070E080E090E00E945D0460E08CE00E9446
:10094000EE0160E08BE00C94EE010C948F040895AE
:10095000CF92DF92EF92FF92CF93DF93EC01603260
:1009600082E07807CCF5653B710514F064EB70E02C
:10097000898128E830E0281B310987FD3395220F53
:10098000331F220F331F6901330FEE08FF088A81DE
:1009900028E532E0281B310987FD3395220F331FEC
:1009A000220F331F032E000C440B550B2C193D094D
:1009B0004E095F09DB0177FF02C0B0E0A0E00E94B2
:1009C000A11224EB30E040E050E00E947712C20E0A
:1009D000D31EE41EF51EB601E881EC3070F52981C6
:1009E00088E890E0821B910927FD9395880F991F55
:1009F000880F991F681779077CF02A8188E592E0B3
:100A0000821B910927FD9395880F991F880F991FC5
:100A1000681779070CF4CB010297880F991F4FB71D
:100A2000F8942E2F30E0F901EE0FFF1FE20FF31FB5
:100A3000E451FD4F928381834FBFDF91CF91FF90AF
:100A4000EF90DF90CF900895CF93C82F80E090E093
:100A5000892B51F0809137028C1731F081E0C11160
:100A600001C080E00E940000C0933702CC2331F126
:100A70002FB7F8948091190290911A02A0911B024D
:100A8000B0911C022FBF482F392F2A2F8B2F409354
:100A900038023093390220933A0280933B0280E07F
:100AA00090E0892B81F0809137028C1761F081E012
:100AB000C11101C080E0CF910C94000040E030E013
:100AC00020E080E0E4CFCF9108958830910561F473
:100AD0006623E9F028E42093040120E030E041E0BF
:100AE000232B81F00C94000020E030E0232BD1F781
:100AF00041E0811524E0920708F040E0611102C056
:100B0000842F089507970297D8F740E0F9CF20E0A7
:100B100030E0232B39F741E0F3CF80E090E0892BE0
:100B200029F080914E0283FD0C94000008950E94EC
:100B30002405E5E3F2E081E087831086EEE3F2E04E
:100B400088E0DF011D928A95E9F7089520E030E002
:100B5000232B11F00C9400000C94611210923303BB
:100B6000109234031092350310923603109237031B
:100B7000109238038091320390E00E94A60580FF16
:100B800003C091E09093330381FF03C091E0909301
:100B9000340382FF03C091E09093350383FF03C0C9
:100BA00091E09093360384FF03C091E09093370364
:100BB00085FF03C081E0809338030895CF93DF93CE
:100BC00020914B0230914C022F3F320721F0C90196
:100BD000DF91CF91089580914E0287FF2BC086FF51
:100BE0000FC089E090E00E94A605C82F81E090E048
:100BF0000E94A6059C2F90934C0280934B0215C037
:100C000089E090E00E94A605C82F81E090E00E9454
:100C1000A60590E4C99F90011124207C31708F7348
:100C2000282B30934C0220934B0280914B029091E1
:100C30004C02CECF85FF0CC081E190E00E94A6055A
:100C4000C82F82E190E00E94A605C05CDD0BD2CFE8
:100C500081E090E00E94A60590E0CDCF0F931F9316
:100C6000CF93DF93EC0124E0CC0FDD1F2A95E1F751
:100C7000E0913903F0913A03EC0FFD1F21E030E0E1
:100C80003183208325E0289F8001299F100D1124A6
:100C9000C8014F962091330326171706F9F00E94DA
:100CA000A605E0913903F0913A03EC0FFD1F082EE1
:100CB000000C990B95838483C80181960E94A60538
:100CC0002091390330913A03C20FD31F90E09F83E4
:100CD0008E83DF91CF911F910F9108950E94A605F9
:100CE000E0913903F0913A03EC0FFD1F99278195AC
:100CF0000CF4909595838483C8018096DFCFCF92C2
:100D0000DF92FF920F931F93CF93DF93EC01F62EA8
:100D100080913803882349F1D12CC12C10E000E0E8
:100D20000830110509F451C0E0913903F0913A03FC
:100D3000EC0DFD1D848595858C179D0781F48685B6
:100D4000978561E070E0892B29F0FF2029F070E0A1
:100D500060E002C0FF20D9F3C8010E942E060F5F99
:100D60001F4F20E1C20ED11CDBCF0E94DE05C81749
:100D7000D90758F19C01285F3F4FC217D30728F5C8
:100D80009E01281B390BC90144E0220F331F4A95ED
:100D9000E1F7E0913903F0913A03E20FF31F268562
:100DA000378561E070E0232B29F0FF2029F070E007
:100DB00060E002C0FF20D9F3DF91CF911F910F9126
:100DC000FF90DF90CF900C942E06DF91CF911F9172
:100DD0000F91FF90DF90CF900895CF92DF92EF9226
:100DE000FF920F931F93CF93DF93082FC82ED12C20
:100DF000E60194E0CC0FDD1F9A95E1F7809138036E
:100E0000882309F479C0760188E2E80EF11CEE0C23
:100E1000FF1CC7010E94A605182FC70101960E945A
:100E2000A605E0913903F0913A03EC0FFD1F982FCE
:100E3000812F95878487C6018A5B9F4F0E94A605F4
:100E4000E0913903F0913A03EC0FFD1F90E0978792
:100E5000868785E0089F80011124C80182960E9440
:100E6000A605E0913903F0913A03EC0FFD1F90E0E5
:100E700093838283C80181960E94A605E09139037D
:100E8000F0913A03EC0FFD1F90E097838683C80131
:100E900080960E94A605E0913903F0913A03EC0F89
:100EA000FD1F90E091878087C8014E960E94A6059D
:100EB000E0913903F0913A03EC0FFD1F082E000C6E
:100EC000990B93878287C8014F960E94A6052091AF
:100ED000390330913A03C20FD31F992781950CF43F
:100EE00090959D838C83DF91CF911F910F91FF90FF
:100EF000EF90DF90CF900895E0913903F0913A039D
:100F0000EC0FFD1F1586148696CFCF9361E08BE022
:100F10000E94EE0164E170E080E090E00E945D04D8
:100F200060E08BE00E94EE010E94AE05C0E08C2FD5
:100F30000E94ED06CF5FC830D1F7CF9108951F937F
:100F4000CF93DF93EC01162F83319105C8F48131E3
:100F5000910528F48130910511F0099731F48FEF54
:100F60009FEF90934C0280934B0280E090E0892B9E
:100F7000A9F0612FCE01DF91CF911F910C94000059
:100F80004D9799F7177F10934E02809135028F731A
:100F9000912F907C892B80933502E1CFCE010E9466
:100FA00061121817A1F0612FCE010E946912612F02
:100FB000CE010E94850780E090E0892B41F080916E
:100FC000350284FD04C0612FCE010E940000CE01D5
:100FD000DF91CF911F910C946112CF93DF93C5E302
:100FE000D2E02881206128830E949F0798819F7EFC
:100FF0009883DF91CF9108950C94ED07BF92CF9223
:10100000DF92EF92FF920F931F93CF93DF938B01A9
:10101000B42E690182FF23C083FF17C061E0C801BD
:101020000E9465058823D9F16B2DC8010E949F0796
:101030008B1135C0F601DF91CF911F910F91FF9079
:10104000EF90DF90CF90BF90099460E0C8010E94BC
:101050006505882321F1C8010E94A605E9CF842FE8
:101060008770C1E0D0E07E0101C0EE0C8A95EAF7FE
:10107000D42FD870CB010E94A605C82FB4FE1CC087
:1010800061E0C8010E946505882349F0DD2389F0ED
:10109000CE296C2FC8010E949F078C1759F2DF914F
:1010A000CF911F910F91FF90EF90DF90CF90BF9065
:1010B0000895E094CE21EDCF60E0C8010E9465055F
:1010C000882369F3CE21DD2319F0C111B3CFE7CF17
:1010D000CC2309F4AFCFE3CFCF92DF92EF92FF9210
:1010E0000F931F93CF93DF937C016B01C42F122FBB
:1010F000D42FD07E8091350287FF2CC0D03EC1F521
:10110000809136028823A1F190E00E94A605D82F95
:101110008091360290E001960E94A605982F8D2FAF
:10112000E816F90629F56C2F70E0762F66276627FA
:101130007370612B6F5F7F4F2DE835E0402F8C2F50
:10114000DF91CF911F910F91FF90EF90DF90CF90A3
:101150000C94FE0780FD36C0D03609F46DC088F4CB
:10116000D03209F44BC0D03409F466C0DD2399F1C4
:10117000DF91CF911F910F91FF90EF90DF90CF9073
:101180000895D03A09F490C0B0F4D03889F780E0DF
:1011900090E02C2F2F7141E050E0892B49F3B601EC
:1011A000C701DF91CF911F910F91FF90EF90DF90DA
:1011B000CF900C940000D03C09F484C0D03E09F4D8
:1011C000B2CFD6CF0E94DE058E159F0529F2E1141D
:1011D000F10411F2CDCF8C2F8E7051F680E090E0AB
:1011E000892B31F28C2F8170DF91CF911F910F915C
:1011F000FF90EF90DF90CF900C940000CF71CF3133
:1012000009F0B6CF80E090E0892B09F4B1CF412FEF
:101210004F7771F0413071F0111F1127111F212FED
:1012200030E00FE710E0B601C7010E940000A0CF38
:1012300041E0F2CF40E0F0CF80E090E0892BC1F0B8
:101240002C2F30E08C2F8F71813029F030F08031DD
:1012500021F08131F9F440E001C041E025FB222773
:1012600020F90DE110E030E0B601C7010E94000056
:1012700080E090E0892B09F47BCF4C2FB601C701A9
:10128000DF91CF911F910F91FF90EF90DF90CF9062
:101290000C940000C901880F991F8E71C4FB44276C
:1012A00040F9482B4250DACF80E090E0892B09F4D6
:1012B0005FCF2C2F2F7043E050E0C4FF70CF42E08F
:1012C00050E06DCFCF71CE3161F0CF3109F050CF0A
:1012D00080E090E0212F45E050E0892B09F05FCFBE
:1012E00047CF80E090E0212F44E050E0892B09F0C7
:1012F00056CF3ECF1F920F920FB60F9211242F930D
:101300003F934F935F936F937F938F939F93AF938D
:10131000BF93EF93FF938FE492E00E945F01FF91F0
:10132000EF91BF91AF919F918F917F916F915F915D
:101330004F913F912F910F900FBE0F901F901895D6
:101340001F920F920FB60F9211242F938F939F939A
:10135000EF93FF93E0915F02F09160028081E09152
:101360006502F091660282FD1BC090818091680247
:101370008F5F8F7320916902821741F0E0916802BC
:10138000F0E0E15BFD4F958F80936802FF91EF9154
:101390009F918F912F910F900FBE0F901F901895D6
:1013A0008081F4CF1F920F920FB60F9211242F93CA
:1013B0003F938F939F93AF93BF9380911902909126
:1013C0001A02A0911B02B0911C0230910C0223E082
:1013D000230F2D3758F50196A11DB11D20930C0246
:1013E0008093190290931A02A0931B02B0931C02DF
:1013F00080910D0290910E02A0910F02B091100207
:101400000196A11DB11D80930D0290930E02A09331
:101410000F02B0931002BF91AF919F918F913F91B6
:101420002F910F900FBE0F901F90189526E8230F55
:101430000296A11DB11DD2CF1F920F920FB60F922F
:1014400011242F933F934F935F936F937F938F93C9
:101450009F93AF93BF93EF93FF93E0910201F091BD
:1014600003010995FF91EF91BF91AF919F918F91EA
:101470007F916F915F914F913F912F910F900FBE90
:101480000F901F9018951F920F920FB60F92112474
:101490002F933F934F935F936F937F938F939F937C
:1014A000AF93BF93EF93FF93E0910001F09101019F
:1014B0000995FF91EF91BF91AF919F918F917F918E
:1014C0006F915F914F913F912F910F900FBE0F90B1
:1014D0001F9018951F920F920FB60F9211242F9301
:1014E0003F934F935F936F937F938F939F93AF93AC
:1014F000BF93CF93DF93EF93FF9380910B02C09143
:101500001003D0E087FF24C0109285001092840061
:1015100080910B028F5F80930B0280910B02082E4B
:10152000000C990B8C179D0724F480910B028C30D2
:10153000C4F18091840090918500049680349C4988
:1015400008F47AC08091840090918500049676C05A
:1015500080910B02082E000C990B8C179D07C4F686
:10156000E0910B028E2FEE0F990BFC01EE0FFF1F87
:10157000E80FF91FE451FD4F808186FFC9CFE0914C
:101580000B028E2FEE0F990BFC01EE0FFF1FE80FE1
:10159000F91FE451FD4F808160E08F730E94EE01DE
:1015A000B7CF2091840030918500E0910B028E2FFF
:1015B000EE0F990BFC01EE0FFF1FE80FF91FE4512E
:1015C000FD4F81819281820F931F909389008093B8
:1015D0008800E0910B028E2FEE0F990BFC01EE0FAD
:1015E000FF1FE80FF91FE451FD4F808186FF11C0F6
:1015F000E0910B028E2FEE0F990BFC01EE0FFF1FF7
:10160000E80FF91FE451FD4F808161E08F730E9464
:10161000EE01FF91EF91DF91CF91BF91AF919F913B
:101620008F917F916F915F914F913F912F910F908B
:101630000FBE0F901F90189580E49CE9909389004D
:10164000809388008FEF80930B02E3CFCF93DF93DB
:10165000CDB7DEB728970FB6F894DEBF0FBECDBF6B
:10166000109252021092510288EE93E0A0E0B0E096
:101670008093530290935402A0935502B093560264
:1016800087EF91E09093500280934F0285EC90E0B9
:1016900090935C0280935B0284EC90E090935E02F6
:1016A00080935D0280EC90E09093600280935F02F3
:1016B00081EC90E0909362028093610282EC90E072
:1016C000909364028093630286EC90E090936602AC
:1016D00080936502109268021092690210926A0269
:1016E00010926B02E3E4F3E02BE533E04FEF68EB9D
:1016F0007BE0809110038C3008F065C091E0980F7A
:1017000090931003808390E0DC01AA0FBB1FA80F09
:10171000B91FA451BD4F12967C936E9311973396C7
:101720002E173F0731F780E890E00E941413909342
:101730003A038093390388E790E0909312018093F5
:10174000110188E0EBE3F3E0DE01119601900D92C8
:101750008A95E1F78CE18093320310923303109263
:10176000340310923503109236031092370310920F
:10177000380388E0FE013196AAE2B3E001900D92B1
:101780008A95E1F78091040190E021E02093200305
:1017900010922103909314038093130380E590E04B
:1017A000909316038093150386E490E090931803BA
:1017B0008093170328960FB6F894DEBF0FBECDBFF7
:1017C000DF91CF9108954083AACFCF93DF93CDB718
:1017D000DEB7A9970FB6F894DEBF0FBECDBF7894E1
:1017E00084B5826084BD84B5816084BD85B5826026
:1017F00085BD85B5816085BD80916E0081608093D7
:101800006E0010928100809181008260809381003F
:10181000809181008160809381008091800081604F
:10182000809380008091B10084608093B1008091AA
:10183000B00081608093B00080917A0084608093D2
:101840007A0080917A00826080937A0080917A0099
:10185000816080937A0080917A00806880937A001A
:101860001092C100E0915F02F091600282E08083FB
:10187000E0915B02F0915C021082E0915D02F091D8
:101880005E028FEC808310926702E0916302F09118
:10189000640286E08083E0916102F09162028081BF
:1018A00080618083E0916102F091620280818860B2
:1018B0008083E0916102F091620280818068808380
:1018C000E0916102F091620280818F7D80838FE4DC
:1018D00092E09093120380931103B3EE8B2EB1E04C
:1018E0009B2E1BEE612E11E0712E0BEEC02E01E03F
:1018F000D02E73018401D801BD908D0161E08B2D44
:101900000E943A0260E08B2D0E94EE01F701B19037
:101910007F0161E08B2D0E943A0260E08B2D0E94D6
:10192000EE01C016D10639F761E08BE00E943A0261
:1019300061E08BE00E94EE011092460282E080930B
:101940004702E0EBF0E0E491F0E0EE0FFF1FEC5512
:10195000FF4F859194919093490280934802E2E968
:10196000F0E0E491E0934A0260E082E00E943A02F3
:10197000EDE1F2E086E1DF011D928A95E9F782E967
:1019800090E0909316028093150282E590E0909388
:1019900014028093130280EC8093350289E78093D0
:1019A00036028FEF9FEF90934C0280934B02109280
:1019B0004D0283E08093120280914A0280931102CB
:1019C00063E070E0809146020E94BB008DE190E0F0
:1019D0000E94A605682F606C8DE190E00E949F0731
:1019E00080934E0264E687E090E00E949F076DE0DE
:1019F00088E090E00E949F0780E00E94970568EED3
:101A000073E080E090E00E945D0488E790E00E942F
:101A1000A605883791F405E011E07DEDE72E71E031
:101A2000F72EE016F10679F0F8016281808191814C
:101A30000E94ED070D5F1F4FF4CF81E090E00E9400
:101A4000A6058F3F41F30E94AE0503E413E0B12CDD
:101A5000A12C512C5CE0452E62E0362E852D0E9493
:101A6000ED06D401FD904D01F80180818C3008F025
:101A700051C061E08F2D0E943A02D8018C91282F2D
:101A800030E0F901EE0FFF1FE20FF31FE451FD4FAD
:101A9000BF2DBF73FB2E9081907CF92AF082F80154
:101AA00011821282642D0E94DA12849DA0011124F9
:101AB00030E020E0BA01620F731FFB01EE0FFF1F41
:101AC000E60FF71FE451FD4F908196FD15C02F5F83
:101AD0003F4F2C30310571F781110EC010928000FC
:101AE000309281001092850010928400B19A80910A
:101AF0006F00826080936F00D801EC918E2F90E090
:101B0000FC01EE0FFF1FE80FF91FE451FD4F80812C
:101B100080648083E0903903F0903A03EA0CFB1C68
:101B2000F70162817381C8010E94A8041092180213
:101B300010921702C0901702D0901802F2E3CF164D
:101B4000D10474F468E070E080E090E00E945D04ED
:101B50004FEFC41AD40AD0921802C0921702EACFEB
:101B6000D3018D913D01F701428153812285338557
:101B700061E0241735070CF060E00E94EE01D70108
:101B80001D921C9253940D5F1F4FB0E1AB0EB11C20
:101B9000E8E05E1263CF60E08BE00E94EE013E0160
:101BA000FAE26F0E711CAAE08A2E912CA12CB12CA6
:101BB000F0E04F2EF0E05F2E80912003882321F08B
:101BC000109220031092210380911103909112032F
:101BD000DC01ED91FC910084F185E02D09950897D9
:101BE0000CF4DCC06E01B2E2CB0ED11CE2E2EE2EB0
:101BF000E3E0FE2E87018091110390911203DC0136
:101C0000ED91FC910284F385E02D09958053F60156
:101C100081936F01D8011D928D016E167F0659F7D1
:101C20009AA18AE03BA0989F300C11242CA194E645
:101C30000DA1089F80011124299F000D111D112461
:101C40002EA1020F111D2FA1C8A4C89E600111244E
:101C5000299FC00CD11C112489A5C80ED11C083E97
:101C6000B3E01B072CF4E8EECE16E3E0DE061CF032
:101C700081E08093210389E08093220398E0909390
:101C800023039091210391118093230380E090E03E
:101C9000892B29F0A601B801832D0E94000091E252
:101CA000931508F41DC1E32DF0E0E75AF14F0C94B1
:101CB0000E137B0E8C0E8F0E700F700F700F700F47
:101CC000700F700F700F920E0E0F700F700F700F5D
:101CD000700F700F700F700F700F130F130F700FC6
:101CE000700F700F700F700F700F700F700F1B0F51
:101CF000280F660F6B0F83E090E00E948C008091AC
:101D000019038093270380911A03809328038091FD
:101D10001B03809329030AC084E190E0EECF89E29F
:101D200090E0EBCFB601C8010E94FC07C090110300
:101D3000D0901203F70121917F0130E050E040E0A4
:101D400019A28E010F5D1F4FCA01B901A5019401AF
:101D50000E94A912605DD8016E938D012115310595
:101D60004105510589F7109789F0FD010190002088
:101D7000E9F73197AF014A1B5B0BD601ED91FC915E
:101D80000280F381E02DB801C6010995EAE2F3E093
:101D9000EE15FF0559F681E080932003809137020C
:101DA0008823F1F02FB7F8948091190290911A02CC
:101DB000A0911B02B0911C022FBF4091380250919C
:101DC000390260913A0270913B02841B950BA60B7D
:101DD000B70B4597A105B10518F080E00E94970563
:101DE00080911F02882309F49EC0F89488E0EBE2FA
:101DF000F2E0ABE3B3E001900D928A95E1F7109227
:101E00001F02789480913B03E82FF0E0E35CFC4FE5
:101E1000863008F069C011928F5FFACFC8010E9426
:101E2000A60590E06ACF6CEE630D70E0802F90E025
:101E30000E942E067BCF8091130390911403909300
:101E40001D0380931C0310921F0310921E0355CF95
:101E500080911E0390911F03FC01EE0FFF1FE80FFE
:101E6000F91FEB5FFE4F00811181083EA3E01A07C6
:101E700010F007EE13E0C8010E948C008091190356
:101E80008093240380911A038093250380911B0380
:101E900080932603C8010E94A60590E00E948C0052
:101EA000809119038093270380911A03809328035C
:101EB00080911B038093290380911E0390911F033F
:101EC000019690931F0380931E0330CF80911503DA
:101ED00090911603B4CF8091170390911803AFCF60
:101EE00089E08093230322CF80E090E0892B21F0CA
:101EF0008BE393E00E94000080913D038111D2C0EA
:101F000090913E039111CEC080E090E0892B19F0B2
:101F100080E00E94000080913702882309F4BEC04F
:101F200081E00E94240568E070E080E090E00E947B
:101F30005D04D12CC12CF12CE12C35E0332E009125
:101F4000390310913A030C0D1D1DD8018D919C9100
:101F5000019709F08BC061E08BE00E94EE01809157
:101F60003302909134029C012F5F3F4F3093340233
:101F70002093330204970CF479C0F701E551FE4F2A
:101F80008081F801428153812285338561E04217C7
:101F900053070CF460E00E94EE01D80114962D91D5
:101FA0003C91159712968D919C911397820F931FD8
:101FB00013969C938E93129712161306ECF41696B2
:101FC0006D917C91179768177907B4F413967C93F9
:101FD0006E9312971D921C9280913403882341F0D6
:101FE0003E9CC0013F9C900D112482960E94ED07FB
:101FF00060E08BE00E94EE01E0913903F0913A033A
:10200000EC0DFD1D8481958197FF1BC06085718556
:102010008281938186179707A4F473836283118268
:10202000108280913403882341F03E9CC0013F9C84
:10203000900D112482960E94ED0760E08BE00E94D3
:10204000EE01E0913903F0913A03EC0DFD1D628140
:102050007381C701880F991F8E0D9F1D8D5B9C4F4B
:102060000E94A8041092340210923302BFEFEB1AC0
:10207000FB0AE0E1CE0ED11CF8E0EF16F10409F006
:102080005ECF80E090E0892B09F496CD0E944B0151
:10209000882309F48DCD0E9400008ACD81E00E9442
:1020A000970541CF90913702992309F486C0805754
:1020B000803108F07FC081E00E94240510913B032D
:1020C00080913E0218130AC0412F50E060E472E094
:1020D0008DE393E00E943914892B61F010923D0248
:1020E00088E0EBE3F3E0AEE3B2E001900D928A9575
:1020F000E1F719CF80913D028F5F80933D0213304D
:1021000009F040C090913D03892F8770F0903E0305
:10211000853029F4F0923C020E948F0404CF0DE137
:1021200010E0843091F0282F30E08430F0F40091FA
:102130003C020023D1F00150110B000F111F000FC2
:10214000111F020F131F0F5F1F4F93FF10C061E09D
:10215000C8010E946505882309F4E5CE6F2DC801EA
:102160000E949F07F812DFCED7CF8901ECCF60E045
:10217000C8010E946505882309F4D5CEC8010E94D4
:10218000A605F0CF143009F0CECE80913D03682F24
:1021900070E0762F66276627737090913E03692B57
:1021A0006F5F7F4F25EA34E040913F038C700E94BF
:1021B000FE07B9CE80E00E949705E0913D03EF3F16
:1021C00061F480913E038111AECE80E090E0892BD6
:1021D00009F4A9CE0E940000A6CEE7FD0DC0009133
:1021E000400320913F0340913E0370E060E08E2F5A
:1021F00090E00E946C0897CEE03C08F051C19091AD
:10220000350297FF90CE80913E03282F30E0890160
:1022100000951095000F111F000F111F007C117009
:10222000EF730E2B35952795A22FA3703A2E209190
:102230003B03253039F58C788C3021F50E94DE0582
:102240008017910721F00F3F114009F06CCE0091EB
:102250003E0310E0102F00270027137080913F03EA
:10226000080F111D0F5F1F4FF090400361E0C80180
:102270000E9465056F2D882309F455CEC8010E9480
:102280009F0751CE6801E1E0CE1AD108CC0CDD1CCD
:10229000CC0CDD1CC3287601FFEFEF1AFF0A8091FA
:1022A0004D028823F1F096FF40C0C70160E071E065
:1022B0000E94FA12682F81E090E00E949F07C701F8
:1022C000F7FE02C081509F4F692F89E090E00E9485
:1022D0009F074114510419F0C7010E940000109299
:1022E0004D028091350280FD39C080913B038430DE
:1022F00009F04FC080913E038978813009F013CEF8
:1023000060913F03E0E0F0E0EF2B19F0C7010E947D
:10231000000080E090E0892B09F405CE40913F0356
:10232000632DC7010E940000FECDB8016F737727AF
:1023300081E090E00E949F07B801E6E075956795FF
:10234000EA95E1F789E090E00E949F0780E090E045
:10235000892B29F2C8010E940000C1CF86FF0DC061
:102360000E94DE058E159F0509F4BFCF9DEFE9168B
:1023700097E0F9060CF0B9CFD6CD0E94DE058017A4
:10238000910709F4B2CF0F3FA1E01A0709F4ADCFCE
:10239000CACD833041F540913E03942F9170C92EF0
:1023A00043FBDD24D0F8A0E0B0E0AB2B31F0477068
:1023B0002D2DB801C7010E9400008091350286FFD3
:1023C00006C04D2D6C2DC7010E947F06ACCDE0E00C
:1023D000F0E0EF2B09F4A7CD2D2D4C2D632DC80176
:1023E0000E940000A0CD863009F09DCD80913E0373
:1023F000982F9978913021F08F78803809F093CD1B
:102400008091350286FF28C00E94DE058E159F054B
:10241000E9F480913F0390E0382F22272227337080
:1024200000914003020F132F111D0F5F1F4FF090FB
:102430004103959587959595879583709927823067
:10244000910599F0039709F411CF6DCDFDEFEF16CB
:10245000F7E0FF06F4F667CD0E94DE0580179107CE
:10246000C1F20F3F1140A9F25ECDF4FE5CCD61E0F8
:10247000C8010E946505882309F455CDC8010E9452
:10248000A6059F2D977061E070E001C0660F9A95D8
:10249000EAF7F3FE02C0682BF1CE60956823EECE1A
:1024A000E83E08F040CDE05CFF0B80913E030091D8
:1024B00041032091400340913F0361E070E09E2F73
:1024C00098CEF999FECF92BD81BDF89A992780B533
:1024D0000895262FF999FECF1FBA92BD81BD20BD68
:1024E0000FB6F894FA9AF99A0FBE01960895052E40
:1024F00097FB1EF400940E948E1257FD07D00E9495
:10250000A91207FC03D04EF40C948E1250954095FE
:10251000309521953F4F4F4F5F4F0895909580958F
:10252000709561957F4F8F4F9F4F08950E94CB12FA
:10253000A59F900DB49F900DA49F800D911D112417
:102540000895B7FF0C9496120E949612821B930B6B
:102550000895A1E21A2EAA1BBB1BFD010DC0AA1FE4
:10256000BB1FEE1FFF1FA217B307E407F50720F0FC
:10257000A21BB30BE40BF50B661F771F881F991F77
:102580001A9469F760957095809590959B01AC01C0
:10259000BD01CF010895A29FB001B39FC001A39FC9
:1025A000700D811D1124911DB29F700D811D11248C
:1025B000911D0895991B79E004C0991F961708F0A2
:1025C000961B881F7A95C9F780950895AA1BBB1B97
:1025D00051E107C0AA1FBB1FA617B70710F0A61B23
:1025E000B70B881F991F5A95A9F780959095BC0144
:1025F000CD01089597FB072E16F4009407D077FDC0
:1026000009D00E94E61207FC05D03EF49095819512
:102610009F4F0895709561957F4F0895EE0FFF1FAE
:102620000590F491E02D09940F931F93CF93DF93BE
:102630008230910510F482E090E0E0915D03F0912A
:102640005E0330E020E0B0E0A0E0309799F421157F
:10265000310509F44AC0281B390B24303105D8F55F
:102660008A819B816115710589F1FB0193838283C6
:10267000FE0111C040815181028113814817590721
:10268000E0F04817590799F4109761F012960C93EF
:10269000129713961C933296CF01DF91CF911F9121
:1026A0000F91089500935D0310935E03F4CF2115FD
:1026B000310551F04217530738F0A901DB019A01A7
:1026C000BD01DF01F801C1CFEF01F9CF90935E03A7
:1026D00080935D03CDCFFE01E20FF31F81939193B1
:1026E0002250310939832883D7CF20915B03309161
:1026F0005C03232B41F42091DF013091E001309302
:102700005C0320935B032091DD013091DE012115F4
:10271000310541F42DB73EB74091E1015091E201FE
:10272000241B350BE0915B03F0915C03E217F30788
:10273000A0F42E1B3F0B2817390778F0AC014E5F31
:102740005F4F2417350748F04E0F5F1F50935C030F
:1027500040935B03819391939FCFF0E0E0E09CCFA7
:10276000CF93DF930097E9F0FC0132971382128236
:10277000A0915D03B0915E03ED0130E020E0109781
:10278000A1F420813181820F931F20915B0330914E
:102790005C032817390709F061C0F0935C03E093EC
:1027A0005B03DF91CF910895EA01CE17DF07E8F5CB
:1027B0004A815B819E0141155105B1F7E901FB8317
:1027C000EA8349915991C40FD51FEC17FD0761F4B5
:1027D000808191810296840F951FE90199838883F6
:1027E000828193819B838A83F0E0E0E012968D9151
:1027F0009C9113970097B9F52D913C911197CD01BC
:102800000296820F931F20915B0330915C0328177F
:10281000390739F6309751F510925E0310925D0337
:10282000B0935C03A0935B03BCCFD383C28340818E
:102830005181840F951FC817D90761F44E5F5F4F10
:1028400088819981480F591F518340838A819B81D8
:10285000938382832115310509F0B0CFF0935E0395
:10286000E0935D039ECFFD01DC01C0CF1382128295
:10287000D7CFFB01DC0104C08D910190801921F4B8
:1028800041505040C8F7881B990B0895F894FFCF2A
:10289000A704A7044801000109000011000012006C
:1028A000000000007900637A00001C00021E005A3C
:1028B0001F000520003C21007822003C23005A2400
:1028C000000525003C26007827003C28005A2900F6
:1028D000052A003C2B00782C003C2D005A2E0005C8
:1028E0002F003C30007831003C32005A3300053470
:1028F000003C35007836003C37005A380005390076
:102900003C3A00783B003C3C005A3D00053E003C10
:102910003F007840003C41005A42000543003C44DF
:10292000007845003C460000470000480000490090
:10293000004A00004B00004C00004D000050000118
:10294000510000520002530000540003550000568D
:1029500000045700005800055900005A00065B00AB
:10296000005C00075D00005E00085F000000005F83
:10297000038000030405060708090A131211100F4B
:102980000E0D0C000000008101E1000E01CE013FA0
:06299000011D01310100F0
:107E0000112484B714BE81FFF0D085E080938100F7
:107E100082E08093C00088E18093C10086E0809377
:107E2000C20080E18093C4008EE0C9D0259A86E02C
:107E300020E33CEF91E0309385002093840096BBD3
:107E4000B09BFECF1D9AA8958150A9F7CC24DD24C4
:107E500088248394B5E0AB2EA1E19A2EF3E0BF2EE7
:107E6000A2D0813461F49FD0082FAFD0023811F036
:107E7000013811F484E001C083E08DD089C08234E0
:107E800011F484E103C0853419F485E0A6D080C0E4
:107E9000853579F488D0E82EFF2485D0082F10E0AE
:107EA000102F00270E291F29000F111F8ED06801E7
:107EB0006FC0863521F484E090D080E0DECF843638
:107EC00009F040C070D06FD0082F6DD080E0C81688
:107ED00080E7D80618F4F601B7BEE895C0E0D1E017
:107EE00062D089930C17E1F7F0E0CF16F0E7DF06D8
:107EF00018F0F601B7BEE89568D007B600FCFDCFD4
:107F0000A601A0E0B1E02C9130E011968C91119780
:107F100090E0982F8827822B932B1296FA010C0160
:107F200087BEE89511244E5F5F4FF1E0A038BF0790
:107F300051F7F601A7BEE89507B600FCFDCF97BE46
:107F4000E89526C08437B1F42ED02DD0F82E2BD052
:107F50003CD0F601EF2C8F010F5F1F4F84911BD097
:107F6000EA94F801C1F70894C11CD11CFA94CF0C13
:107F7000D11C0EC0853739F428D08EE10CD085E9AC
:107F80000AD08FE07ACF813511F488E018D01DD067
:107F900080E101D065CF982F8091C00085FFFCCF94
:107FA0009093C60008958091C00087FFFCCF809118
:107FB000C00084FD01C0A8958091C6000895E0E648
:107FC000F0E098E1908380830895EDDF803219F02E
:107FD00088E0F5DFFFCF84E1DECF1F93182FE3DFCA
:107FE0001150E9F7F2DF1F91089580E0E8DFEE27F6
:047FF000FF270994CA
:027FFE00040479
:00000001FF
