:020000040000FA
:100000000C9462000C94500A0C94290A0C948A00F7
:100010000C948A000C948A000C948A000C948A0038
:100020000C948A000C948A000C948A000C94770A31
:100030000C948A000C948A000C948A000C948A0018
:100040000C94DF090C948A000C94AD090C94870978
:100050000C948A000C948A000C948A000C948A00F8
:100060000C948A000C948A000000000024002700F1
:100070002A0000000000250028002B0000000008D6
:10008000000201000003040700000000000000005F
:10009000010204081020408001020408102001021F
:1000A000040810200000000023002600290004049A
:1000B0000404040404040202020202020303030310
:1000C0000303330B11241FBECFEFD8E0DEBFCDBF3B
:1000D00011E0A0E0B1E0ECE2F9E202C005900D927F
:1000E000A039B107D9F723E0A0E9B1E001C01D9222
:1000F000AE35B207E1F710E0C2E6D0E004C02197C8
:10010000FE010E948114C136D107C9F70E94B20BCB
:100110000C9494140C9400009C01109239031092DA
:100120003A0384369105B0F064E670E00E945914F9
:100130006093390380913903A90164E6869F4019D1
:1001400051091124CA016AE070E00E9459146093B9
:100150003A0302C00A9770F78091390394E6899FA9
:100160002019112480913A034AE0849F2019112418
:1001700020933B0308958230F8F4E82FF0E0EE0F6F
:10018000FF1FEF5FFE4F26ED32E031832083813089
:1001900041F0809169008C7F682B60936900E89A38
:1001A000089580916900837F660F771F660F771F20
:1001B000682B60936900E99A089583E0611101C09A
:1001C00082E080936902089584E280930501089596
:1001D000AF92BF92CF92DF92EF92FF920F931F9355
:1001E000CF93DF936C017B018B01040F151FEB0193
:1001F0005E01AE18BF08C017D10759F06991D6014A
:10020000ED91FC910190F081E02DC6010995892BBB
:1002100079F7C501DF91CF911F910F91FF90EF907A
:10022000DF90CF90BF90AF900895FC01538D448D27
:10023000252F30E0842F90E0821B930B541710F091
:10024000CF96089501970895FC01918D828D98179E
:1002500061F0A28DAE0FBF2FB11D5D968C91928D76
:100260009F5F9F73928F90E008958FEF9FEF0895A7
:10027000FC01918D828D981731F0828DE80FF11D70
:10028000858D90E008958FEF9FEF0895FC01918D8B
:10029000228D892F90E0805C9F4F821B91098F7384
:1002A000992708958FE692E00E94460121E0892B6C
:1002B00009F420E0822F089580E090E0892B29F056
:1002C0000E94520181110C9400000895FC01A48D3C
:1002D000A80FB92FB11DA35ABF4F2C91848D90E068
:1002E00001968F739927848FA689B7892C93A0894B
:1002F000B1898C91837080648C93938D848D9813D5
:1003000006C00288F389E02D80818F7D8083089567
:10031000EF92FF920F931F93CF93DF93EC0181E055
:10032000888F9B8D8C8D98131AC0E889F9898081FC
:1003300085FF15C09FB7F894EE89FF896083E8892F
:10034000F98980818370806480839FBF81E090E021
:10035000DF91CF911F910F91FF90EF900895F62EAE
:100360000B8D10E00F5F1F4F0F731127E02E8C8D48
:100370008E110CC00FB607FCFACFE889F98980818D
:1003800085FFF5CFCE010E946601F1CFEB8DEC0F1A
:10039000FD2FF11DE35AFF4FF0829FB7F8940B8FAA
:1003A000EA89FB8980818062CFCFCF93DF93EC0114
:1003B000888D8823B9F0AA89BB89E889F9898C914D
:1003C00085FD03C0808186FD0DC00FB607FCF7CF09
:1003D0008C9185FFF2CF808185FFEDCFCE010E9409
:1003E0006601E9CFDF91CF910895833081F028F441
:1003F000813099F08230A9F008958730A9F08830D3
:10040000C9F08430B1F4809180008F7D03C0809169
:1004100080008F7780938000089584B58F7784BDA6
:10042000089584B58F7DFBCF8091B0008F77809346
:10043000B00008958091B0008F7DF9CFCF93DF9306
:10044000282F30E0F901E458FF4F8491F901E0577B
:10045000FF4FD491F901E255FF4FC491CC23A1F095
:1004600081110E94F501EC2FF0E0EE0FFF1FEC551B
:10047000FF4FA591B491EC91ED2381E090E009F458
:1004800080E0DF91CF91089580E090E0FACF1F9354
:10049000CF93DF93282F30E0F901E458FF4F849188
:1004A000F901E057FF4FD491F901E255FF4FC49194
:1004B000CC23A9F0162F81110E94F501EC2FF0E05A
:1004C000EE0FFF1FEE58FF4FA591B4918FB7F89430
:1004D000EC91111108C0D095DE23DC938FBFDF9122
:1004E000CF911F910895DE2BF8CFCF93DF9390E04B
:1004F000FC01E057FF4F249182559F4FFC018491EE
:100500008823C9F090E0880F991FFC01E859FF4F3C
:10051000A591B491FC01EE58FF4FC591D4916111A2
:100520000DC09FB7F8948C91209582238C9388817D
:10053000282328839FBFDF91CF910895623051F423
:100540009FB7F8943C91822F809583238C93E88108
:100550002E2BEFCF8FB7F894EC912E2B2C938FBFCF
:10056000EACF3FB7F89480919C0190919D01A091B2
:100570009E01B0919F0126B5A89B05C02F3F19F0A1
:100580000196A11DB11D3FBFBA2FA92F982F882713
:10059000BC01CD01620F711D811D911D42E0660FEE
:1005A000771F881F991F4A95D1F70895FF920F93DF
:1005B0001F93CF93DF930E94B10220919401309159
:1005C0009501EB01C21BD30B2091A2013091A30135
:1005D000C217D30708F45FC04091A6015091A7014C
:1005E0004130510561F0E091CF01F091D0012081BF
:1005F0003091D10123233091A00123134CC070937B
:100600009501609394010091A4011091A5014230DD
:10061000510509F413C14330510509F44EC141306D
:10062000510561F480919301813009F447C0C8F10C
:10063000833009F482C0843009F4C9C08091A601D6
:100640009091A701019739F1C017D10708F06DC14A
:10065000809191018F5F809391018B30E0F081E078
:1006600090E09093A7018093A60161E070E08091F3
:10067000CD010E94BB001092A0011092930182E56F
:1006800090E09093A5018093A40183E290E0909381
:10069000A3018093A201DF91CF911F910F91FF9051
:1006A0000895C017D10730F481E080939301C0937F
:1006B0009201C4CF84E080939301C0CFC017D107CB
:1006C000D0F510929301809191018F5F80939101F9
:1006D000209192018C2F0C2E000C990B821B9109FA
:1006E00027FD939597FF03C09195819591094997AF
:1006F00094F21092A7011092A60182E990E09093E3
:10070000A5018093A40182E590E09093A3018093DA
:10071000A20110929101F090A1016F2D70E08091E3
:10072000CD010E94BB008091D10193E0F91227C056
:100730008093A00183CF83E0BECFC017D10708F517
:100740001092A7011092A60182E990E09093A50172
:100750008093A40182E590E09093A3018093A2018D
:1007600010929101F090A1016F2D70E08091CD0168
:100770000E94BB008091D10133E0F316C9F280E002
:10078000D7CF9091A101933009F482E08093A10129
:1007900082E090E09093A7018093A60182E990E027
:1007A0009093A5018093A40182E590E09093A3012A
:1007B0008093A2011092AC01809191018093AD01D0
:1007C0001092A9011092AB011092AA01CBCFC017D1
:1007D000D107A8F41092A7011092A60182E990E037
:1007E0009093A5018093A40182E590E09093A301EA
:1007F0008093A201109291011092A9018CCF82E006
:1008000090E09093A7018093A60182E990E09093F5
:10081000A5018093A40182E590E09093A3018093C9
:10082000A2011092AC01809191018093AD011092D0
:10083000A9011092AB011092AA016DCF9091A9016C
:100840009F5F9093A9018091AA01880FC017D107DB
:10085000E0F08093AA01983009F0F6CEE091AC0167
:10086000E630A9F41092A7011092A60182E990E067
:100870009093A5018093A40182E590E09093A30159
:100880008093A2011092A901D9CE8160E2CF83E0CA
:1008900090E09093A7018093A60181E08E0F809352
:1008A000AC019091AA01F0E0EA55FE4F908780914B
:1008B000AB0189278093AB01C1CEC017D10728F5C2
:1008C0001092A7011092A6011092A90182E990E06E
:1008D0009093A5018093A40182E590E09093A301F9
:1008E0008093A2018091AB018111B2CE88E0ECEA45
:1008F000F1E0A4EBB1E001900D928A95E1F781E07F
:100900008093A8011092910199CE8091AC0186301C
:1009100009F4A8CF82E090E09093A7018093A6010C
:100920001092A9011092AA0189CE10929101B3CE22
:100930008F929F92AF92BF92CF92DF92EF92FF92EF
:100940004B015C010E94B1026B017C010E94B1026B
:100950006C197D098E099F09683E734081059105D8
:10096000A8F321E0821A9108A108B10888EEC80E08
:1009700083E0D81EE11CF11C81149104A104B10490
:1009800029F7FF90EF90DF90CF90BF90AF909F90AE
:100990008F90089561E08DE00E94470261E082E15E
:1009A0000E94470261E083E10E9447026AE070E032
:1009B00080E090E00E94980460E08DE00E94470291
:1009C00060E082E10E94470260E083E10C9447020C
:1009D0000C94CA042FB7F894609198017091990112
:1009E00080919A0190919B012FBF08950895CF9215
:1009F000DF92EF92FF92CF93DF93EC01603282E0BF
:100A00007807CCF5653B710514F064EB70E08981E3
:100A100028E830E0281B310987FD3395220F331F6A
:100A2000220F331F6901330FEE08FF088A8128E582
:100A300032E0281B310987FD3395220F331F220F27
:100A4000331F032E000C440B550B2C193D094E0986
:100A50005F09DB0177FF02C0B0E0A0E00E94141440
:100A600024EB30E040E050E00E94EA13C20ED31EB7
:100A7000E41EF51EB601E881EC3070F5298188E8A6
:100A800090E0821B910927FD9395880F991F880F8D
:100A9000991F681779077CF02A8188E592E0821B0C
:100AA000910927FD9395880F991F880F991F681743
:100AB00079070CF4CB010297880F991F4FB7F89470
:100AC0002E2F30E0F901EE0FFF1FE20FF31FE45F5E
:100AD000FC4F928381834FBFDF91CF91FF90EF90C6
:100AE000DF90CF900895CF93C82F80E090E0892BBE
:100AF00051F08091BE018C1731F081E0C11101C02D
:100B000080E00E940000C093BE0160E070E0CB0175
:100B1000C1110E94EA046093BF017093C0018093E9
:100B2000C1019093C20180E090E0892B59F080913F
:100B3000BE018C1739F081E0C11101C080E0CF9176
:100B40000C940000CF91089581E0809300010895F6
:100B50008830910561F46623E9F024E220930501D1
:100B600020E030E041E0232B81F00C94000020E0F5
:100B700030E0232BD1F741E0811524E0920708F003
:100B800040E0611102C0842F089507970297D8F7BB
:100B900040E0F9CF20E030E0232B39F741E0F3CFFC
:100BA00080E090E0892B29F08091D50183FD0C94A1
:100BB000000008958F929F92AF92BF92CF92DF92E2
:100BC000EF92FF920F931F93CF93DF93EC016A0193
:100BD0007B010E94EA04088119812A813B814B0133
:100BE0005C01801A910AA20AB30A950184010C15CE
:100BF0001D052E053F0590F0688379838A839B83CA
:100C000081E0DF91CF911F910F91FF90EF90DF90E6
:100C1000CF90BF90AF909F908F90089580E0F1CFDC
:100C20000E947305ECEBF1E081E087831086E5EC30
:100C3000F1E088E0DF011D928A95E9F7089520E050
:100C400030E0232B11F00C9400000C94D413CF93BC
:100C5000DF932091D2013091D3012F3F320721F051
:100C6000C901DF91CF9108958091D50187FF2BC0F5
:100C700086FF0FC089E090E00E941F06C82F81E028
:100C800090E00E941F069C2F9093D3018093D20185
:100C900015C089E090E00E941F06C82F81E090E017
:100CA0000E941F0690E4C99F90011124207C31709E
:100CB0008F73282B3093D3012093D2018091D201DE
:100CC0009091D301CECF85FF0CC081E190E00E94CE
:100CD0001F06C82F82E190E00E941F06C05CDD0B5A
:100CE000D2CF81E090E00E941F0690E0CDCF0F931D
:100CF0001F93CF938C01C62F0E9427060817190750
:100D000051F480916A02823031F481E0C11101C056
:100D100080E080932302CF911F910F9108952F922D
:100D20003F924F925F926F927F928F929F92AF927B
:100D3000BF92CF92DF92EF92FF920F931F93CF93C8
:100D4000DF931092000161E08DE00E9447028EE186
:100D500090E00E941F0680936A028FE190E00E945B
:100D60001F0680E290E00E941F068093EE01CFE014
:100D7000CC2EC2E0DC2ED3E04D2ED2E05D2E1BE067
:100D8000E12E12E0F12E0FEE602E01E0702E86EDC6
:100D9000A82E81E0B82E92E5892E93E0992ECDE21F
:100DA000D0E001E210E02CE0222EC8010E941F06D4
:100DB000D6018D936D01C80101960E941F06F201B4
:100DC00081932F01C80102960E941F06D7018C93C0
:100DD000CE010E941F06B2E38B9FC0011124F301D4
:100DE000819391933F01CE0104960E941F06F2E386
:100DF0008F9FC0011124D5018D939D935D01F40156
:100E000080818C3008F056C0FE01EB5BFE4F3080D5
:100E100061E0832D0E947502D4018C91282F30E06F
:100E2000F901EE0FFF1FE20FF31FE45FFC4FB32D3C
:100E3000BF733B2E9081907C392A3082F40111825D
:100E40001282622D0E944D14829DA001112430E077
:100E500020E0BA01620F731FFB01EE0FFF1FE60FC8
:100E6000F71FE45FFC4F908196FD16C02F5F3F4F48
:100E70002C30310571F781110FC010928000F2E023
:100E8000F09381001092850010928400B19A8091B5
:100E90006F00826080936F00D401EC918E2F90E000
:100EA000FC01EE0FFF1FE80FF91FE45FFC4F80818C
:100EB00080648083F70161917F0170E0C4010E942A
:100EC000F7040D5F1F4F2196F3E08F0E911CC13385
:100ED000D10509F06ACF85E390E00E941F06809358
:100EE000020286E390E00E941F062AE0829FC00172
:100EF0001124909301028093000287E390E00E9406
:100F00001F0688E390E00E941F068093900189E30A
:100F100090E00E941F06809190018F3118F08EE1C1
:100F20008093900180919001811103C081E08093B2
:100F3000900160E08DE0DF91CF911F910F91FF90C4
:100F4000EF90DF90CF90BF90AF909F908F907F9069
:100F50006F905F904F903F902F900C9447021F939B
:100F6000CF93DF93EC01162F83319105C8F48131C3
:100F7000910528F48130910511F0099731F48FEF34
:100F80009FEF9093D3018093D20180E090E0892B72
:100F9000A9F0612FCE01DF91CF911F910C94000039
:100FA0004D9799F7177F1093D5018091BC018F73EE
:100FB000912F907C892B8093BC01E1CFCE010E94C0
:100FC000D413181799F0612FCE010E94DC1381E031
:100FD0008093000180E090E0892B41F08091BC017A
:100FE00084FD04C0612FCE010E940000CE01DF917C
:100FF000CF911F910C94D413CF93DF93CCEBD1E01E
:101000002881206128830E94AF0788818F7E888392
:10101000DF91CF910895BF92CF92DF92EF92FF922E
:101020000F931F93CF93DF938B01B42E690182FF3F
:1010300023C083FF17C061E0C8010E94A805882370
:10104000D9F16B2DC8010E94AF078B1135C0F60195
:10105000DF91CF911F910F91FF90EF90DF90CF9094
:10106000BF90099460E0C8010E94A805882321F17F
:10107000C8010E941F06E9CF842F8770C1E0D0E02D
:101080007E0101C0EE0C8A95EAF7D42FD870CB010F
:101090000E941F06C82FB4FE1CC061E0C8010E9458
:1010A000A805882349F0DD2389F0CE296C2FC801DB
:1010B0000E94AF078C1759F2DF91CF911F910F91CA
:1010C000FF90EF90DF90CF90BF900895E094CE21F5
:1010D000EDCF60E0C8010E94A805882369F3CE2106
:1010E000DD2319F0C111B3CFE7CFCC2309F4AFCF83
:1010F000E3CFCF92DF92EF92FF920F931F93CF93A4
:10110000DF937C016B01C42F122FD42FD07E8091EE
:10111000BC0187FF2CC0D03EC1F58091BD01882362
:10112000A1F190E00E941F06D82F8091BD0190E0B0
:1011300001960E941F06982F8D2FE816F90629F5B3
:101140006C2F70E0762F662766277370612B6F5FB8
:101150007F4F20ED35E0402F8C2FDF91CF911F91F5
:101160000F91FF90EF90DF90CF900C940B0880FDD3
:1011700036C0D03609F46DC088F4D03209F44BC0C3
:10118000D03409F466C0DD2399F1DF91CF911F912E
:101190000F91FF90EF90DF90CF900895D03A09F42F
:1011A00090C0B0F4D03889F780E090E02C2F2F71F8
:1011B00041E050E0892B49F3B601C701DF91CF919F
:1011C0001F910F91FF90EF90DF90CF900C94000053
:1011D000D03C09F484C0D03E09F4B2CFD6CF0E94EF
:1011E00027068E159F0529F2E114F10411F2CDCFE7
:1011F0008C2F8E7051F680E090E0892B31F28C2F8D
:101200008170DF91CF911F910F91FF90EF90DF9050
:10121000CF900C940000CF71CF3109F0B6CF80E0B1
:1012200090E0892B09F4B1CF412F4F7771F0413015
:1012300071F0111F1127111F212F30E00FE710E06F
:10124000B601C7010E940000A0CF41E0F2CF40E00C
:10125000F0CF80E090E0892BC1F02C2F30E08C2F74
:101260008F71813029F030F0803121F08131F9F433
:1012700040E001C041E025FB222720F90DE110E00C
:1012800030E0B601C7010E94000080E090E0892BA9
:1012900009F47BCF4C2FB601C701DF91CF911F918D
:1012A0000F91FF90EF90DF90CF900C940000C90158
:1012B000880F991F8E71C4FB442740F9482B425078
:1012C000DACF80E090E0892B09F45FCF2C2F2F70CC
:1012D00043E050E0C4FF70CF42E050E06DCFCF71EB
:1012E000CE3161F0CF3109F050CF80E090E0212F76
:1012F00045E050E0892B09F05FCF47CF80E090E0D8
:10130000212F44E050E0892B09F056CF3ECF1F92A9
:101310000F920FB60F9211242F933F934F935F9329
:101320006F937F938F939F93AF93BF93EF93FF93AD
:101330008FE692E00E946601FF91EF91BF91AF911D
:101340009F918F917F916F915F914F913F912F91DD
:101350000F900FBE0F901F9018951F920F920FB60F
:101360000F9211242F938F939F93EF93FF93E0910C
:101370007F02F09180028081E0918502F0918602E7
:1013800082FD1BC09081809188028F5F8F732091B6
:101390008902821741F0E0918802F0E0E159FD4FA7
:1013A000958F80938802FF91EF919F918F912F915C
:1013B0000F900FBE0F901F9018958081F4CF1F9251
:1013C0000F920FB60F9211242F933F938F939F93F9
:1013D000AF93BF938091980190919901A0919A0148
:1013E000B0919B013091970123E0230F2D3758F5E1
:1013F0000196A11DB11D20939701809398019093B0
:101400009901A0939A01B0939B0180919C019091C6
:101410009D01A0919E01B0919F010196A11DB11D5A
:1014200080939C0190939D01A0939E01B0939F0196
:10143000BF91AF919F918F913F912F910F900FBED0
:101440000F901F90189526E8230F0296A11DB11D3D
:10145000D2CF1F920F920FB60F9211242F933F936A
:101460004F935F936F937F938F939F93AF93BF93AC
:10147000EF93FF93E0910301F09104010995FF912F
:10148000EF91BF91AF919F918F917F916F915F91FC
:101490004F913F912F910F900FBE0F901F90189575
:1014A0001F920F920FB60F9211242F933F934F93D9
:1014B0005F936F937F938F939F93AF93BF93EF93BC
:1014C000FF93E0910101F09102010995FF91EF91E5
:1014D000BF91AF919F918F917F916F915F914F914C
:1014E0003F912F910F900FBE0F901F9018951F9254
:1014F0000F920FB60F9211242F933F934F935F9348
:101500006F937F938F939F93AF93BF93CF93DF930B
:10151000EF93FF9380919601C0913003D0E087FF55
:1015200024C01092850010928400809196018F5FF4
:101530008093960180919601082E000C990B8C17D0
:101540009D0724F4809196018C30C4F18091840031
:1015500090918500049680349C4908F47AC080916B
:10156000840090918500049676C080919601082EA3
:10157000000C990B8C179D07C4F6E09196018E2FF5
:10158000EE0F990BFC01EE0FFF1FE80FF91FE45F50
:10159000FC4F808186FFC9CFE09196018E2FEE0F20
:1015A000990BFC01EE0FFF1FE80FF91FE45FFC4FE2
:1015B000808160E08F730E944702B7CF2091840042
:1015C00030918500E09196018E2FEE0F990BFC0172
:1015D000EE0FFF1FE80FF91FE45FFC4F818192813E
:1015E000820F931F9093890080938800E091960169
:1015F0008E2FEE0F990BFC01EE0FFF1FE80FF91F66
:10160000E45FFC4F808186FF11C0E09196018E2F30
:10161000EE0F990BFC01EE0FFF1FE80FF91FE45FBF
:10162000FC4F808161E08F730E944702FF91EF9130
:10163000DF91CF91BF91AF919F918F917F916F91EA
:101640005F914F913F912F910F900FBE0F901F9080
:10165000189580E49CE990938900809388008FEF2F
:1016600080939601E3CF109272021092710288EE7D
:1016700093E0A0E0B0E08093730290937402A09393
:101680007502B093760282E891E0909370028093A5
:101690006F0285EC90E090937C0280937B0284EC57
:1016A00090E090937E0280937D0280EC90E0909396
:1016B000800280937F0281EC90E09093820280937D
:1016C000810282EC90E0909384028093830286EC06
:1016D00090E0909386028093850210928802109287
:1016E000890210928A0210928B02E2E5F3E02EE565
:1016F00033E04FEF68EB7BE0809130038C3080F576
:1017000091E0980F90933003808390E0DC01AA0F62
:10171000BB1FA80FB91FA45FBC4F12967C936E939A
:10172000119733962E173F0739F788E790E090938B
:101730001301809312018091050190E021E0209334
:10174000400310924103909334038093330310922B
:101750003603109235031092380310923703089520
:101760004083DFCFCF93DF93CDB7DEB7A9970FB616
:10177000F894DEBF0FBECDBF789484B5826084BD7F
:1017800084B5816084BD85B5826085BD85B5816085
:1017900085BD80916E00816080936E001092810003
:1017A00080918100826080938100809181008160BE
:1017B000809381008091800081608093800080917F
:1017C000B10084608093B1008091B000816080930B
:1017D000B00080917A00846080937A0080917A00D2
:1017E000826080937A0080917A00816080937A0091
:1017F00080917A00806880937A001092C100E09115
:101800007F02F091800282E08083E0917B02F09180
:101810007C021082E0917D02F0917E028FEC808349
:1018200010928702E0918302F091840286E0808327
:10183000E0918102F0918202808180618083E09159
:101840008102F0918202808188608083E091810230
:10185000F0918202808180688083E0918102F09122
:10186000820280818F7D80838FE692E090933203A5
:101870008093310361E082E10E94750260E082E1C1
:101880000E94470261E083E10E94750260E083E10B
:101890000E94470206E711E062E0D8018D918D01B8
:1018A0000E947502B1E00E371B07B1F761E08DE0D1
:1018B0000E94750261E08DE00E94470262E08BE0C9
:1018C0000E94750262E08CE00E9475021092CD01C8
:1018D00082E08093CE01E0EBF0E0E491F0E0EE0FE7
:1018E000FF1FEC55FF4F859194919093D001809309
:1018F000CF01E2E9F0E0E491E093D10162E082E01F
:101900000E947502E6EAF1E086E1DF011D928A9508
:10191000E9F782E990E09093A5018093A40182E524
:1019200090E09093A3018093A20180EC8093BC018E
:1019300089E78093BD018FEF9FEF9093D301809350
:10194000D2011092D40183E08093A1018091D10152
:101950008093A00163E070E08091CD010E94BB0004
:101960008DE190E00E941F06682F606C8DE190E091
:101970000E94AF078093D50164E687E090E00E9463
:10198000AF076DE088E090E00E94AF0780E00E9422
:10199000100660E273E080E090E00E94980406E0A8
:1019A00011E0B1E002371B07A1F0F801628120814C
:1019B00031819091BC0190619093BC01C9010E945A
:1019C000AF078091BC018F7E8093BC010D5F1F4FDC
:1019D000E8CF8091000181110E948F0660E08DE0C8
:1019E0000E9447021E01FAE22F0E311C8091BE01B7
:1019F0008823B1F00E94EA040091BF011091C00158
:101A00002091C1013091C201601B710B820B930BBD
:101A1000653171058105910518F080E00E9410067E
:101A20008091A8018823B1F1F89488E0E4EBF1E01B
:101A3000AAE4B3E001900D928A95E1F71092A80113
:101A4000789480914A03E82FF0E0E45BFC4F863005
:101A500018F411928F5FFBCF80E090E0892B21F08A
:101A60008AE493E00E94000080914C038111B5C08C
:101A700090914D039111B1C0A0E0B0E0AB2B11F0FB
:101A80000E9400008091BE01882309F4A2C081E079
:101A90000E94730580914003882321F01092400337
:101AA000109241038091310390913203DC01ED915A
:101AB000FC910084F185E02D099508970CF4E8C2AB
:101AC0006E01B2E2CB0ED11CB2E4EB2EB3E0FB2EE2
:101AD00087018091310390913203DC01ED91FC91FB
:101AE0000284F385E02D09958053F60181936F01FF
:101AF000D8011D928D01E215F30559F79AA18AE0EC
:101B0000BBA0989FB00C11242CA194E60DA1089FB6
:101B100080011124299F000D111D11242EA1020FF7
:101B2000111D2FA1C8A4C89E60011124299FC00CBB
:101B3000D11C112489A5C80ED11C083EB3E01B0797
:101B40002CF4E8EECE16E3E0DE061CF081E0809394
:101B5000410389E08093420398E09093430390917E
:101B6000410391118093430380E090E0892B29F099
:101B7000A601B8018B2D0E940000F1E2FB1508F4CC
:101B8000F3C4EB2DF0E0E953F24F0C948114FD0FF8
:101B90004C124C12B412B412B412B412B412B412E5
:101BA000B4124F125412B412B412B412B412B412CA
:101BB000B412B412B41259125912B412B412B412AB
:101BC000B412B412B412B412B4125F126C12AA128C
:101BD000AF1281E00E9410065DCF9091BE01992363
:101BE00009F486C08057803108F07FC081E00E94F0
:101BF000730510914A038091C50118130AC0412F43
:101C000050E067EC71E08CE493E00E948714892B2C
:101C100061F01092C40188E0EAE4F3E0A5ECB1E0E1
:101C200001900D928A95E1F735CF8091C4018F5FC5
:101C30008093C401133009F040C090914C03892F68
:101C40008770F0904D03853029F4F092C3010E9413
:101C5000CA0420CF0DE110E0843091F0282F30E04D
:101C60008430F0F40091C3010023D1F00150110B36
:101C7000000F111F000F111F020F131F0F5F1F4FC7
:101C800093FF10C061E0C8010E94A805882309F4F1
:101C900001CF6F2DC8010E94AF07F812FBCED7CF3E
:101CA0008901ECCF60E0C8010E94A805882309F4EF
:101CB000F1CEC8010E941F06F0CF143009F0EACE21
:101CC00080914C03682F70E0762F6627662773702B
:101CD00090914D03692B6F5F7F4F28EE34E0409168
:101CE0004E038C700E940B08D5CE80E00E94100637
:101CF000E0914C03EF3F61F480914D038111CACE16
:101D0000E0E0F0E0EF2B09F4C5CE0E940000C2CE67
:101D1000E7FD0DC000914F0320914E0340914D030C
:101D200070E060E08E2F90E00E947908B3CEE03C36
:101D300008F052C19091BC0197FFACCE80914D0349
:101D4000282F30E0890100951095000F111F000F1A
:101D5000111F007C1170EF730E2B35952795F22F14
:101D6000F370BF2E20914A03253039F58C788C30E2
:101D700021F50E9427068017910721F00F3F11409F
:101D800009F088CE00914D0310E0102F00270027A6
:101D9000137080914E03080F111D0F5F1F4FF090BD
:101DA0004F0361E0C8010E94A8056F2D882309F444
:101DB00071CEC8010E94AF076DCE680141E0C41A20
:101DC000D108CC0CDD1CCC0CDD1CCB2876018FEFB0
:101DD000E81AF80A8091D4018823F9F096FF41C0EF
:101DE000C70160E071E00E946D14682F81E090E00F
:101DF0000E94AF07C701F7FE02C081509F4F692FB5
:101E000089E090E00E94AF07A0E0B0E0AB2B19F0B2
:101E1000C7010E9400001092D4018091BC0180FD96
:101E200039C080914A03843009F04FC080914D033E
:101E30008978813009F02ECE60914E0380E090E0E9
:101E4000892B19F0C7010E940000A0E0B0E0AB2B85
:101E500009F420CE40914E036B2DC7010E94000073
:101E600019CEB8016F73772781E090E00E94AF0729
:101E7000B80136E0759567953A95E1F789E090E00D
:101E80000E94AF07E0E0F0E0EF2B29F2C8010E94CA
:101E90000000C1CF86FF0DC00E9427068E159F054A
:101EA00009F4BFCFFDEFEF16F7E0FF060CF0B9CF56
:101EB000F1CD0E9427068017910709F4B2CF0F3F9A
:101EC00021E0120709F4ADCFE5CD833041F5409113
:101ED0004D03B42FB170CB2E43FBDD24D0F8E0E0EE
:101EE000F0E0EF2B31F047702D2DB801C7010E94B3
:101EF00000008091BC0186FF06C04D2D6C2DC701EE
:101F00000E947706C7CD80E090E0892B09F4C2CD0E
:101F10002D2D4C2D6B2DC8010E940000BBCD8630AD
:101F200009F0B8CD80914D03982F9978913021F028
:101F30008F78803809F0AECD8091BC0186FF28C033
:101F40000E9427068E159F05E9F480914E0390E0CC
:101F5000382F22272227337000914F03020F132FAF
:101F6000111D0F5F1F4FF090500395958795959524
:101F70008795837099278230910599F0039709F42A
:101F800010CF88CD9DEFE91697E0F906F4F682CDE3
:101F90000E94270680179107C1F20F3F1140A9F256
:101FA00079CDF4FE77CD61E0C8010E94A8058823B1
:101FB00009F470CDC8010E941F069F2D977061E043
:101FC00070E001C0660F9A95EAF7F3FE02C0682B35
:101FD000F0CE60956823EDCEE83E08F05BCDE05C86
:101FE000FF0B80914D030091500320914F034091CE
:101FF0004E0361E070E09E2F97CE87E090E00E9454
:102000008C00809139038093470380913A03809339
:10201000480380913B0380934903FAE4AF2EF3E039
:10202000BF2EC0903103D0903203D7012D917D0196
:1020300030E050E040E019A28E010F5D1F4FCA0151
:10204000B9012AE030E040E050E00E941C14605DDD
:10205000F80162938F01211531054105510579F78A
:10206000309781F001900020E9F73197AF01401BD4
:10207000510BD601ED91FC910280F381E02DB80166
:10208000C6010995AE14BF0461F681E08093400358
:102090008091000181110E948F0644EF51E060E0C1
:1020A00070E08BE692E00E94DA05882321F060E080
:1020B0008DE00E94470280916A02811159C28CE032
:1020C0000E941E02892B01F562E370E080E090E03F
:1020D0000E9498048CE00E941E02892BA9F4809132
:1020E0006902811111C082E08093690261E08DE094
:1020F0000E9447020E94EA0460936B0270936C0294
:1021000080936D0290936E028BE00E941E02892BD9
:1021100009F0E6C262E370E080E090E00E9498047B
:102120008BE00E941E02892B09F0DAC280916902BD
:10213000813009F0D5C283E08093690261E08DE0CF
:102140000E9447020E94EA0460936B0270936C0243
:1021500080936D0290936E02809169028330A9F49E
:10216000E3E0F2E08BE092E067E072E027E032E04B
:102170004191DC014D93CD01DB011D92BD012E1774
:102180003F07B1F785E0809369028091690284304E
:1021900009F093C080910202813009F0E0C261E051
:1021A00082E10E94470261E083E10E944702809140
:1021B0000702909108028923909109028923909146
:1021C0000A0289238093FB01882399F01092F7017A
:1021D000109207021092F801109208021092F90171
:1021E000109209021092FA0110920A0281E0809383
:1021F0006902AFEE8A2EA1E09A2EB3E1AB2EB2E0D7
:10220000BB2E17E0C12E12E0D12E07EFE02E01E029
:10221000F02E10E000E077247394F4014191519185
:102220004F01052E000C660B770BC5010E94DA05E5
:10223000811104C0D7018C91813081F5F601808134
:1022400081112CC0D7017C924091EE0150E070E0EA
:1022500060E0C801880F991F880F991F82529E4F16
:102260000E94DA058823D1F0F801E55FFD4F8081F7
:102270008F5F8083D801AD5FBD4F9C91981718F494
:102280009083D6017C92608170E0C801880F991F0D
:10229000800F911F8E5A9C4F0E94F7040F5F1F4FB3
:1022A000B4E0AB0EB11CEFEFCE1ADE0AFFEFEF1A6F
:1022B000FF0A0430110509F0B0CF80916902853022
:1022C00009F0B3C046ED842E41E0942E53E1A52ED3
:1022D00052E0B52E67E0C62E62E0D62E77EFE72EED
:1022E00071E0F72E10E000E077247394D4014D9153
:1022F0005D914D01052E000C660B770BC5010E9408
:10230000DA05811104C0F7018081813081F5D601A1
:102310008C9181112CC0F70170824091EE0150E048
:1023200070E060E0C801880F991F880F991F8252E2
:102330009E4F0E94DA058823D1F0F801E55FFD4F3A
:10234000808181508083D801A15FBD4F9C91891706
:1023500018F49083D6017C92608170E0C801880FE8
:10236000991F800F911F8E5A9C4F0E94F7040F5F98
:102370001F4FB4E0AB0EB11CEFEFCE1ADE0AFFEF39
:10238000EF1AFF0A0430110509F0B0CF10910702CF
:1023900080910802182380910902182380910A0273
:1023A00018231093FB0180910202823011F54091B5
:1023B000000250910102052E000C660B770B8CEF8A
:1023C00091E00E94DA058823A1F082E10E941E02BA
:1023D00061E0892B09F060E082E10E94470282E11E
:1023E0000E941E0261E0892B09F060E083E10E94F7
:1023F00047021123D1F01092F701109207021092B8
:10240000F801109208021092F9011092090210923C
:10241000FA0110920A0260E082E10E94470260E045
:1024200083E10E9447021092690280916902813023
:1024300031F580910202823011F5409100025091F5
:102440000102052E000C660B770B8CEF91E00E94C9
:10245000DA058823A1F082E10E941E0261E0892B47
:1024600009F060E082E10E94470282E10E941E02C0
:1024700061E0892B09F060E083E10E94470280E07F
:1024800090E0892B09F4B2CA0E945201882309F412
:10249000ADCA0E940000AACA8AE090E0B0CDB601A1
:1024A000C8010E94FC07B9CDC8010E941F0690E038
:1024B000A6CD6CEE6B0D802F0E94DD00AECD80911D
:1024C00033039091340390933D0380933C03109227
:1024D0003F0310923E0393CD80913E0390913F03C2
:1024E000FC01EE0FFF1FE80FF91FEA5FFE4F0081AE
:1024F0001181083E23E0120710F007EE13E0C80137
:102500000E948C00809139038093440380913A03A8
:102510008093450380913B0380934603C8010E944A
:102520001F0690E00E948C0080913903809347033E
:1025300080913A038093480380913B038093490341
:1025400080913E0390913F03019690933F038093C7
:102550003E0363CD8091350390913603B4CF8091D3
:10256000370390913803AFCF89E08093430355CD73
:10257000813009F0E4C049E4C42E42E0D42E59E28F
:10258000E52E52E0F52E61E4462E62E0562E79E308
:10259000672E72E0772E53018201E6E78E2EE1E08E
:1025A0009E2E44EF51E060E070E0C6010E94DA0523
:1025B000882379F0F70180819181D8012C91F50170
:1025C0002083853F91400CF049C01C92D7011D9299
:1025D0001C92F40181914F010E941E0221E030E023
:1025E000892B11F030E020E0D7018D919C91820F72
:1025F000931FF701819391937F01F4E0CF0ED11CDB
:102600000F5F1F4F2FEFA21AB20A49E6C41642E02D
:10261000D40639F6E4E2F2E045E452E020E032E0AC
:10262000D2018D912D01813041F4D3019C91911102
:1026300004C09081911101C08083D20113969C91B6
:10264000913079F4D30114966C91611104C06081CA
:10265000611101C03083882331F01DC0E1E0EC93AB
:10266000B5CF811116C0D3016C91613091F46081B6
:10267000623079F491110FC01082D30114969C91AD
:10268000913049F49081913031F4811104C010826D
:1026900002C0992391F38191280FBFEF6B1A7B0A37
:1026A0004415550509F0BCCF20932802809169029A
:1026B000222309F450C0882311F0853089F482E088
:1026C0008093690261E08DE00E9447020E94EA0463
:1026D00060936B0270936C0280936D0290936E0214
:1026E00080916902823009F037CD03E112E08FE07A
:1026F000A82E82E0B82E9BE0C92E92E0D92E27E0CA
:10270000E22E22E0F22E33E2832E32E0932E0E945C
:10271000EA04F80161937193819391938F01D5013C
:102720008D915D01F60181936F01D7011D927D01AD
:102730008016910661F784E0809369020DCD8230A6
:1027400079F6809128028111CBCF80916902909116
:1027500023029111B0CF813019F683E0B1CF8230DE
:1027600009F025CD4091000250910102052E000C88
:10277000660B770B8CEF91E00E94DA05882309F451
:1027800016CD82E10E941E0261E0892B09F060E013
:1027900082E10E94470282E10E941E0261E0892BD1
:1027A00009F402CD60E000CDF999FECF92BD81BD64
:1027B000F89A992780B50895262FF999FECF1FBA68
:1027C00092BD81BD20BD0FB6F894FA9AF99A0FBE5A
:1027D00001960895052E97FB1EF400940E940114A3
:1027E00057FD07D00E941C1407FC03D04EF40C9434
:1027F000011450954095309521953F4F4F4F5F4FB5
:10280000089590958095709561957F4F8F4F9F4F5C
:1028100008950E943E14A59F900DB49F900DA49F13
:10282000800D911D11240895B7FF0C9409140E9486
:102830000914821B930B0895A1E21A2EAA1BBB1B3D
:10284000FD010DC0AA1FBB1FEE1FFF1FA217B3077C
:10285000E407F50720F0A21BB30BE40BF50B661F92
:10286000771F881F991F1A9469F760957095809556
:1028700090959B01AC01BD01CF010895A29FB001CD
:10288000B39FC001A39F700D811D1124911DB29FA4
:10289000700D811D1124911D0895991B79E004C0CC
:1028A000991F961708F0961B881F7A95C9F780958F
:1028B0000895AA1BBB1B51E107C0AA1FBB1FA61787
:1028C000B70710F0A61BB70B881F991F5A95A9F7D9
:1028D00080959095BC01CD01089597FB072E16F4C5
:1028E000009407D077FD09D00E94591407FC05D049
:1028F0003EF4909581959F4F0895709561957F4F17
:102900000895EE0FFF1F0590F491E02D0994FB014F
:10291000DC0104C08D910190801921F44150504098
:10292000C8F7881B990B0895F894FFCF01F604F6B9
:102930000424010001090000110000120000000041
:10294000007900637A00001E00001F0002200014BE
:10295000210014220064230014240014250064269E
:1029600000142700142800642900142A00142B00E6
:10297000642C00142D003C2E00462F006430006EA5
:1029800031001432001433001434001435000236C0
:10299000002837000238000F3900017800000E0FC0
:1029A0001011030405060708090A00000000880149
:0C29B000E8001501D501460124013801A2
:107E0000112484B714BE81FFF0D085E080938100F7
:107E100082E08093C00088E18093C10086E0809377
:107E2000C20080E18093C4008EE0C9D0259A86E02C
:107E300020E33CEF91E0309385002093840096BBD3
:107E4000B09BFECF1D9AA8958150A9F7CC24DD24C4
:107E500088248394B5E0AB2EA1E19A2EF3E0BF2EE7
:107E6000A2D0813461F49FD0082FAFD0023811F036
:107E7000013811F484E001C083E08DD089C08234E0
:107E800011F484E103C0853419F485E0A6D080C0E4
:107E9000853579F488D0E82EFF2485D0082F10E0AE
:107EA000102F00270E291F29000F111F8ED06801E7
:107EB0006FC0863521F484E090D080E0DECF843638
:107EC00009F040C070D06FD0082F6DD080E0C81688
:107ED00080E7D80618F4F601B7BEE895C0E0D1E017
:107EE00062D089930C17E1F7F0E0CF16F0E7DF06D8
:107EF00018F0F601B7BEE89568D007B600FCFDCFD4
:107F0000A601A0E0B1E02C9130E011968C91119780
:107F100090E0982F8827822B932B1296FA010C0160
:107F200087BEE89511244E5F5F4FF1E0A038BF0790
:107F300051F7F601A7BEE89507B600FCFDCF97BE46
:107F4000E89526C08437B1F42ED02DD0F82E2BD052
:107F50003CD0F601EF2C8F010F5F1F4F84911BD097
:107F6000EA94F801C1F70894C11CD11CFA94CF0C13
:107F7000D11C0EC0853739F428D08EE10CD085E9AC
:107F80000AD08FE07ACF813511F488E018D01DD067
:107F900080E101D065CF982F8091C00085FFFCCF94
:107FA0009093C60008958091C00087FFFCCF809118
:107FB000C00084FD01C0A8958091C6000895E0E648
:107FC000F0E098E1908380830895EDDF803219F02E
:107FD00088E0F5DFFFCF84E1DECF1F93182FE3DFCA
:107FE0001150E9F7F2DF1F91089580E0E8DFEE27F6
:047FF000FF270994CA
:027FFE00040479
:00000001FF
