:020000040000FA
:100000000C9462000C949F0A0C94780A0C948A0059
:100010000C948A000C948A000C948A000C948A0038
:100020000C948A000C948A000C948A000C94C60AE2
:100030000C948A000C948A000C948A000C948A0018
:100040000C942E0A0C948A000C94FC090C94D6098A
:100050000C948A000C948A000C948A000C948A00F8
:100060000C948A000C948A000000000024002700F1
:100070002A0000000000250028002B0000000008D6
:10008000000201000003040700000000000000005F
:10009000010204081020408001020408102001021F
:1000A000040810200000000023002600290004049A
:1000B0000404040404040202020202020303030310
:1000C0000303820B11241FBECFEFD8E0DEBFCDBFEC
:1000D00011E0A0E0B1E0E4E0F9E202C005900D9289
:1000E000AE38B107D9F722E0AEE8B1E001C01D9209
:1000F000A03DB207E1F710E0C2E6D0E004C02197CE
:10010000FE010E944813C136D107C9F70E94360C80
:100110000C9480140C9400009C0110929F02109289
:10012000A00284369105B0F064E670E00E942013CE
:1001300060939F0280919F02A90164E6869F401907
:1001400051091124CA016AE070E00E9420136093F3
:10015000A00202C00A9770F780919F0294E6899FDF
:10016000201911248091A0024AE0849F20191124B3
:100170002093A1020895CF92DF92EF92FF92DC01CB
:10018000A03282E0B807D4F5A53BB10514F0A4EB8A
:10019000B0E04091CA0228E830E0241B310947FD55
:1001A0003395220F331F220F331F6901330FEE08DF
:1001B000FF084091CB0228E532E0241B310947FDBE
:1001C0003395220F331F220F331F032E000C440BD5
:1001D000550B2C193D094E095F09B7FF02C0B0E06D
:1001E000A0E00E94DB1224EB30E040E050E00E94EF
:1001F000B112C20ED31EE41EF51ED601E091C90253
:10020000EC3080F52091CA0288E890E0821B9109C9
:1002100027FD9395880F991F880F991FA817B90775
:1002200084F02091CB0288E592E0821B910927FDA2
:100230009395880F991F880F991FA817B9070CF479
:10024000CD010297880F991F4FB7F8942E2F30E0F9
:10025000F901EE0FFF1FE20FF31FEE58FD4F9283DF
:1002600081834FBFFF90EF90DF90CF900895823051
:10027000F8F4E82FF0E0EE0FFF1FEF5FFE4F23E7EB
:1002800033E031832083813041F0809169008C7F9D
:10029000682B60936900E89A089580916900837FD4
:1002A000660F771F660F771F682B60936900E99AC6
:1002B000089584E3809305010895AF92BF92CF9291
:1002C000DF92EF92FF920F931F93CF93DF936C0116
:1002D0007B018B01040F151FEB015E01AE18BF08F7
:1002E000C017D10759F06991D601ED91FC910190A9
:1002F000F081E02DC6010995892B79F7C501DF91C1
:10030000CF911F910F91FF90EF90DF90CF90BF9012
:10031000AF900895FC01538D448D252F30E0842F3C
:1003200090E0821B930B541710F0CF96089501971D
:100330000895FC01918D828D981761F0A28DAE0F0A
:10034000BF2FB11D5D968C91928D9F5F9F73928F91
:1003500090E008958FEF9FEF0895FC01918D828DBD
:10036000981731F0828DE80FF11D858D90E008958A
:100370008FEF9FEF0895FC01918D228D892F90E0E2
:10038000805C9F4F821B91098F739927089585ED9B
:1003900091E00E94BB0121E0892B09F420E0822F2B
:1003A000089580E090E0892B29F00E94C701811117
:1003B0000C9400000895FC01A48DA80FB92FB11D65
:1003C000A35ABF4F2C91848D90E001968F7399278B
:1003D000848FA689B7892C93A089B1898C91837069
:1003E00080648C93938D848D981306C00288F38962
:1003F000E02D80818F7D80830895EF92FF920F938F
:100400001F93CF93DF93EC0181E0888F9B8D8C8DC0
:1004100098131AC0E889F989808185FF15C09FB7B4
:10042000F894EE89FF896083E889F9898081837077
:10043000806480839FBF81E090E0DF91CF911F9126
:100440000F91FF90EF900895F62E0B8D10E00F5F47
:100450001F4F0F731127E02E8C8D8E110CC00FB61D
:1004600007FCFACFE889F989808185FFF5CFCE01B5
:100470000E94DB01F1CFEB8DEC0FFD2FF11DE35A54
:10048000FF4FF0829FB7F8940B8FEA89FB89808138
:100490008062CFCFCF93DF93EC01888D8823B9F0B2
:1004A000AA89BB89E889F9898C9185FD03C080817F
:1004B00086FD0DC00FB607FCF7CF8C9185FFF2CFFC
:1004C000808185FFEDCFCE010E94DB01E9CFDF9176
:1004D000CF91089590E0FC01E458FF4F2491FC0176
:1004E000E057FF4F3491FC01E255FF4FE491EE23BA
:1004F000C9F0222339F0233001F1A8F4213019F199
:10050000223029F1F0E0EE0FFF1FEE58FF4FA591CA
:10051000B4918FB7F894EC91611126C030953E23C9
:100520003C938FBF08952730A9F02830C9F02430BC
:1005300049F7809180008F7D03C0809180008F7784
:1005400080938000DFCF84B58F7784BDDBCF84B507
:100550008F7DFBCF8091B0008F778093B000D2CF9A
:100560008091B0008F7DF9CF3E2BDACFCF93DF9310
:1005700090E0FC01E057FF4F249182559F4FFC0112
:1005800084918823C9F090E0880F991FFC01E859F5
:10059000FF4FA591B491FC01EE58FF4FC591D49146
:1005A00061110DC09FB7F8948C91209582238C9394
:1005B0008881282328839FBFDF91CF9108956230DF
:1005C00051F49FB7F8943C91822F809583238C93AC
:1005D000E8812E2BEFCF8FB7F894EC912E2B2C9334
:1005E0008FBFEACFCF939091C9029C3008F052C0E0
:1005F000C82F61E00E94B6028091C902282F30E026
:10060000F901EE0FFF1FE20FF31FEE58FD4FCF73FE
:100610009081907CC92BC0831092CA021092CB02A9
:100620002CE0622F0E941413829FB001112430E04D
:1006300020E0AB01420F531FFA01EE0FFF1FE40F42
:10064000F51FEE58FD4F908196FD16C02F5F3F4F6E
:100650002C30310571F781110FC01092800082E0BB
:10066000809381001092850010928400B19A80914D
:100670006F00826080936F00E091C9028E2F90E03E
:10068000FC01EE0FFF1FE80FF91FEE58FD4F8081B0
:10069000806480838091C902CF9108953FB7F89418
:1006A0008091950190919601A0919701B091980148
:1006B00026B5A89B05C02F3F19F00196A11DB11DBD
:1006C0003FBFBA2FA92F982F8827BC01CD01620FF9
:1006D000711D811D911D42E0660F771F881F991FB4
:1006E0004A95D1F70895FF920F931F93CF93DF930D
:1006F0000E944E032091910130919201EB01C21BA7
:10070000D30B20919B0130919C01C217D30708F4B1
:100710005FC04091A3015091A4014130510561F0A7
:10072000E091CE01F091CF0120813091D0012323BF
:100730003091990123134CC0709392016093910101
:1007400000919D0110919E014230510509F413C1A1
:100750004330510509F44EC14130510561F4809197
:100760009001813009F447C0C8F1833009F482C098
:10077000843009F4C9C08091A3019091A40101972C
:1007800039F1C017D10708F06DC180918E018F5FDC
:1007900080938E018B30E0F081E090E09093A40193
:1007A0008093A30161E070E08091CC010E94370149
:1007B000109299011092900182E590E090939E0131
:1007C00080939D0183E290E090939C0180939B0134
:1007D000DF91CF911F910F91FF900895C017D1071E
:1007E00030F481E080939001C0938F01C4CF84E006
:1007F00080939001C0CFC017D107D0F5109290011F
:1008000080918E018F5F80938E0120918F018C2FBC
:100810000C2E000C990B821B910927FD939597FFD5
:1008200003C0919581959109499794F21092A40182
:100830001092A30182E990E090939E0180939D0124
:1008400082E590E090939C0180939B0110928E0131
:10085000F0909A016F2D70E08091CC010E943701D9
:100860008091D00193E0F91227C08093990183CF42
:1008700083E0BECFC017D10708F51092A4011092F3
:10088000A30182E990E090939E0180939D0182E50F
:1008900090E090939C0180939B0110928E01F090C8
:1008A0009A016F2D70E08091CC010E9437018091F8
:1008B000D00133E0F316C9F280E0D7CF90919A01CE
:1008C000933009F482E080939A0182E090E0909363
:1008D000A4018093A30182E990E090939E0180930C
:1008E0009D0182E590E090939C0180939B01109282
:1008F000A90180918E018093AA011092A601109205
:10090000A8011092A701CBCFC017D107A8F410926D
:10091000A4011092A30182E990E090939E0180933C
:100920009D0182E590E090939C0180939B01109241
:100930008E011092A6018CCF82E090E09093A401EA
:100940008093A30182E990E090939E0180939D01A2
:1009500082E590E090939C0180939B011092A90105
:1009600080918E018093AA011092A6011092A80195
:100970001092A7016DCF9091A6019F5F9093A60161
:100980008091A701880FC017D107E0F08093A701DD
:10099000983009F0F6CEE091A901E630A9F4109262
:1009A000A4011092A30182E990E090939E018093AC
:1009B0009D0182E590E090939C0180939B011092B1
:1009C000A601D9CE8160E2CF83E090E09093A401AC
:1009D0008093A30181E08E0F8093A9019091A701DC
:1009E000F0E0ED55FE4F90878091A8018927809314
:1009F000A801C1CEC017D10728F51092A40110920A
:100A0000A3011092A60182E990E090939E01809349
:100A10009D0182E590E090939C0180939B018091E1
:100A2000A8018111B2CE88E0E9EAF1E0A1EBB1E0E2
:100A300001900D928A95E1F781E08093A5011092D3
:100A40008E0199CE8091A901863009F4A8CF82E069
:100A500090E09093A4018093A3011092A6011092BC
:100A6000A70189CE10928E01B3CE8F929F92AF9242
:100A7000BF92CF92DF92EF92FF924B015C010E94F6
:100A80004E036B017C010E944E036C197D098E0997
:100A90009F09683E734081059105A8F321E0821A01
:100AA0009108A108B10888EEC80E83E0D81EE11CA9
:100AB000F11C81149104A104B10429F7FF90EF9077
:100AC000DF90CF90BF90AF909F908F90089561E09E
:100AD00084E00E946A0261E08AE00E946A0266E0A5
:100AE00070E080E090E00E94350560E084E00E94C4
:100AF0006A0260E08AE00C946A020C94670508952B
:100B0000CF93C82F80E090E0892B51F08091BD01F8
:100B10008C1731F081E0C11101C080E00E9400001B
:100B2000C093BD01CC2331F12FB7F89480919F0180
:100B30009091A001A091A101B091A2012FBF482FD7
:100B4000392F2A2F8B2F4093BE013093BF01209362
:100B5000C0018093C10180E090E0892B81F08091F9
:100B6000BD018C1761F081E0C11101C080E0CF911F
:100B70000C94000040E030E020E080E0E4CFCF9132
:100B800008958830910561F46623E9F024E3209309
:100B9000050120E030E041E0232B81F00C940000BF
:100BA00020E030E0232BD1F741E0811524E09207CB
:100BB00008F040E0611102C0842F08950797029762
:100BC000D8F740E0F9CF20E030E0232B39F741E0BF
:100BD000F3CF80E090E0892B29F08091D40183FD50
:100BE0000C94000008950E948005EBEBF1E081E099
:100BF00087831086E4ECF1E088E0DF011D928A959E
:100C0000E9F7089520E030E0232B11F00C94000068
:100C10000C949B121092B9021092BA021092BB026D
:100C20001092BC021092BD021092BE028091B802D6
:100C300090E00E94020680FF03C091E09093B90209
:100C400081FF03C091E09093BA0282FF03C091E05C
:100C50009093BB0283FF03C091E09093BC0284FF9A
:100C600003C091E09093BD0285FF03C081E08093B3
:100C7000BE020895CF93DF932091D1013091D2012C
:100C80002F3F320721F0C901DF91CF910895809164
:100C9000D40187FF2BC086FF0FC089E090E00E943F
:100CA0000206C82F81E090E00E9402069C2F9093DC
:100CB000D2018093D10115C089E090E00E94020624
:100CC000C82F81E090E00E94020690E4C99F900145
:100CD0001124207C31708F73282B3093D201209304
:100CE000D1018091D1019091D201CECF85FF0CC06E
:100CF00081E190E00E940206C82F82E190E00E940C
:100D00000206C05CDD0BD2CF81E090E00E940206BB
:100D100090E0CDCF0F931F93CF93DF93EC0124E0AE
:100D2000CC0FDD1F2A95E1F7E091BF02F091C002E0
:100D3000EC0FFD1F21E030E03383228325E0289F64
:100D40008001299F100D1124C8014F962091B902EE
:100D500026171706F9F00E940206E091BF02F091F3
:100D6000C002EC0FFD1F082E000C990B97838683A1
:100D7000C80181960E9402062091BF023091C002F4
:100D8000C20FD31F90E099878887DF91CF911F9181
:100D90000F9108950E940206E091BF02F091C002F7
:100DA000EC0FFD1F992781950CF49095978386830E
:100DB000C8018096DFCFCF92DF92FF920F931F93EF
:100DC000CF93DF93EC01F62E8091BE02882379F158
:100DD000D12CC12C10E000E0E091BF02F091C002E4
:100DE000EC0DFD1D848595858C179D0781F4868506
:100DF000978561E070E0892B29F0FF2029F070E0F1
:100E000060E002C0FF20D9F3C8010E948A060F5F8C
:100E10001F4F20E1C20ED11C04301105E9F6DF910D
:100E2000CF911F910F91FF90DF90CF9008950E9476
:100E30003A06C817D90798F39C012C5F3F4FC21799
:100E4000D30768F79E01281B390BC90144E0220F24
:100E5000331F4A95E1F7E091BF02F091C002E20F23
:100E6000F31F2685378561E070E0232B29F0FF20F2
:100E700029F070E060E002C0FF20D9F3DF91CF914C
:100E80001F910F91FF90DF90CF900C948A06CF9224
:100E9000DF92EF92FF920F931F93CF93DF93082F70
:100EA000C82ED12CE60194E0CC0FDD1F9A95E1F716
:100EB0008091BE02882309F479C0760188E2E80EA9
:100EC000F11CEE0CFF1CC7010E940206182FC7017F
:100ED00001960E940206E091BF02F091C002EC0F61
:100EE000FD1F982F812F95878487C6018A5B9F4FAE
:100EF0000E940206E091BF02F091C002EC0FFD1FBC
:100F000090E09787868785E0089F80011124C801BB
:100F100082960E940206E091BF02F091C002EC0F9F
:100F2000FD1F90E095838483C80181960E9402068C
:100F3000E091BF02F091C002EC0FFD1F90E091879D
:100F40008087C80180960E940206E091BF02F0915E
:100F5000C002EC0FFD1F90E093878287C8014E9678
:100F60000E940206E091BF02F091C002EC0FFD1F4B
:100F7000082E000C990B91838083C8014F960E9424
:100F800002062091BF023091C002C20FD31F9927E1
:100F900081950CF490959F838E83DF91CF911F9163
:100FA0000F91FF90EF90DF90CF900895E091BF02F6
:100FB000F091C002EC0FFD1F1586148696CF61E0FC
:100FC0008AE00E946A0264E170E080E090E00E94A2
:100FD000350560E08AE00E946A020E940A0680E00D
:100FE0000E94470781E00E94470782E00E9447076E
:100FF00083E00C9447071F93CF93DF93EC01162FE8
:1010000083319105C8F48131910528F4813091052F
:1010100011F0099731F48FEF9FEF9093D2018093F5
:10102000D10180E090E0892BA9F0612FCE01DF9102
:10103000CF911F910C9400004D9799F7177F109353
:10104000D4018091BB018F73912F907C892B809369
:10105000BB01E1CFCE010E949B121817A1F0612FB6
:10106000CE010E94A312612FCE010E94DF0780E013
:1010700090E0892B41F08091BB0184FD04C0612F79
:10108000CE010E940000CE01DF91CF911F910C9400
:101090009B12CF93DF93CBEBD1E028812061288393
:1010A0000E94FB0798819F7E9883DF91CF910895DE
:1010B0000C944908BF92CF92DF92EF92FF920F9368
:1010C0001F93CF93DF938B01B42E690182FF23C05E
:1010D00083FF17C061E0C8010E94C1058823D9F1D0
:1010E0006B2DC8010E94FB078B1135C0F601DF9103
:1010F000CF911F910F91FF90EF90DF90CF90BF9015
:10110000099460E0C8010E94C105882321F1C8014B
:101110000E940206E9CF842F8770C1E0D0E07E01F3
:1011200001C0EE0C8A95EAF7D42FD870CB010E944B
:101130000206C82FB4FE1CC061E0C8010E94C105B0
:10114000882349F0DD2389F0CE296C2FC8010E9445
:10115000FB078C1759F2DF91CF911F910F91FF90F0
:10116000EF90DF90CF90BF900895E094CE21EDCF27
:1011700060E0C8010E94C105882369F3CE21DD2308
:1011800019F0C111B3CFE7CFCC2309F4AFCFE3CF30
:10119000CF92DF92EF92FF920F931F93CF93DF9343
:1011A0007C016B01C42F122FD42FD07E8091BB0104
:1011B00087FF2CC0D03EC1F58091BC018823A1F1EE
:1011C00090E00E940206D82F8091BC0190E0019629
:1011D0000E940206982F8D2FE816F90629F56C2F2C
:1011E00070E0762F662766277370612B6F5F7F4FE5
:1011F00029EE35E0402F8C2FDF91CF911F910F9179
:10120000FF90EF90DF90CF900C945A0880FD36C08D
:10121000D03609F46DC088F4D03209F44BC0D03414
:1012200009F466C0DD2399F1DF91CF911F910F91F1
:10123000FF90EF90DF90CF900895D03A09F490C0DE
:10124000B0F4D03889F780E090E02C2F2F7141E086
:1012500050E0892B49F3B601C701DF91CF911F916F
:101260000F91FF90EF90DF90CF900C940000D03C56
:1012700009F484C0D03E09F4B2CFD6CF0E943A061A
:101280008E159F0529F2E114F10411F2CDCF8C2FB8
:101290008E7051F680E090E0892B31F28C2F8170B6
:1012A000DF91CF911F910F91FF90EF90DF90CF9042
:1012B0000C940000CF71CF3109F0B6CF80E090E000
:1012C000892B09F4B1CF412F4F7771F0413071F084
:1012D000111F1127111F212F30E00FE710E0B60179
:1012E000C7010E940000A0CF41E0F2CF40E0F0CF64
:1012F00080E090E0892BC1F02C2F30E08C2F8F7193
:10130000813029F030F0803121F08131F9F440E072
:1013100001C041E025FB222720F90DE110E030E07B
:10132000B601C7010E94000080E090E0892B09F41B
:101330007BCF4C2FB601C701DF91CF911F910F9149
:10134000FF90EF90DF90CF900C940000C901880FC0
:10135000991F8E71C4FB442740F9482B4250DACFC5
:1013600080E090E0892B09F45FCF2C2F2F7043E0B1
:1013700050E0C4FF70CF42E050E06DCFCF71CE316E
:1013800061F0CF3109F050CF80E090E0212F45E0AF
:1013900050E0892B09F05FCF47CF80E090E0212F0C
:1013A00044E050E0892B09F056CF3ECF1F920F92B8
:1013B0000FB60F9211242F933F934F935F936F9328
:1013C0007F938F939F93AF93BF93EF93FF9385ED9D
:1013D00091E00E94DB01FF91EF91BF91AF919F914E
:1013E0008F917F916F915F914F913F912F910F90CE
:1013F0000FBE0F901F9018951F920F920FB60F926D
:1014000011242F938F939F93EF93FF93E091E50126
:10141000F091E6018081E091EB01F091EC0182FD19
:101420001BC090818091EE018F5F8F732091EF013F
:10143000821741F0E091EE01F0E0EB52FE4F958F04
:101440008093EE01FF91EF919F918F912F910F90DB
:101450000FBE0F901F9018958081F4CF1F920F92AE
:101460000FB60F9211242F933F938F939F93AF93B7
:10147000BF9380919F019091A001A091A101B09193
:10148000A2013091940123E0230F2D3758F50196E6
:10149000A11DB11D2093940180939F019093A00101
:1014A000A093A101B093A201809195019091960122
:1014B000A0919701B09198010196A11DB11D809353
:1014C000950190939601A0939701B0939801BF91D5
:1014D000AF919F918F913F912F910F900FBE0F90E1
:1014E0001F90189526E8230F0296A11DB11DD2CF9B
:1014F0001F920F920FB60F9211242F933F934F9389
:101500005F936F937F938F939F93AF93BF93EF936B
:10151000FF93E0910301F09104010995FF91EF9190
:10152000BF91AF919F918F917F916F915F914F91FB
:101530003F912F910F900FBE0F901F9018951F9203
:101540000F920FB60F9211242F933F934F935F93F7
:101550006F937F938F939F93AF93BF93EF93FF937B
:10156000E0910101F09102010995FF91EF91BF9186
:10157000AF919F918F917F916F915F914F913F912B
:101580002F910F900FBE0F901F9018951F920F92E2
:101590000FB60F9211242F933F934F935F936F9346
:1015A0007F938F939F93AF93BF93CF93DF93EF93EB
:1015B000FF9380919301C0919602D0E087FF24C0F1
:1015C0001092850010928400809193018F5F809328
:1015D000930180919301082E000C990B8C179D07A5
:1015E00024F4809193018C30C4F180918400909117
:1015F0008500049680349C4908F47AC08091840068
:1016000090918500049676C080919301082E000C7D
:10161000990B8C179D07C4F6E09193018E2FEE0F66
:10162000990BFC01EE0FFF1FE80FF91FEE58FD4F5D
:10163000808186FFC9CFE09193018E2FEE0F990B29
:10164000FC01EE0FFF1FE80FF91FEE58FD4F8081E0
:1016500060E08F730E946A02B7CF209184003091BE
:101660008500E09193018E2FEE0F990BFC01EE0F98
:10167000FF1FE80FF91FEE58FD4F81819281820F05
:10168000931F9093890080938800E09193018E2F9F
:10169000EE0F990BFC01EE0FFF1FE80FF91FEE583C
:1016A000FD4F808186FF11C0E09193018E2FEE0FD8
:1016B000990BFC01EE0FFF1FE80FF91FEE58FD4FCD
:1016C000808161E08F730E946A02FF91EF91DF9148
:1016D000CF91BF91AF919F918F917F916F915F91CA
:1016E0004F913F912F910F900FBE0F901F90189523
:1016F00080E49CE990938900809388008FEF809329
:101700009301E3CFCF93DF93CDB7DEB728970FB622
:10171000F894DEBF0FBECDBF1092D8011092D70152
:1017200088EE93E0A0E0B0E08093D9019093DA01D5
:10173000A093DB01B093DC0180E891E09093D601A7
:101740008093D50185EC90E09093E2018093E101D4
:1017500084EC90E09093E4018093E30180EC90E0CE
:101760009093E6018093E50181EC90E09093E8018D
:101770008093E70182EC90E09093EA018093E90185
:1017800086EC90E09093EC018093EB011092EE01D7
:101790001092EF011092F0011092F10180919602E7
:1017A0008C3008F05FC091E0980F90939602809380
:1017B000C90290E0FC01EE0FFF1FE80FF91FEE5881
:1017C000FD4F88EB9BE09283818380E490E00E9450
:1017D0004E139093C0028093BF0288E780930E015E
:1017E00088E0E1ECF2E0DE01119601900D928A951D
:1017F000E1F78CE18093B8021092B9021092BA021C
:101800001092BB021092BC021092BD021092BE0256
:1018100088E0FE013196A0EBB2E001900D928A952E
:10182000E1F78091050190E021E02093A60210925B
:10183000A70290939A028093990280E590E090939A
:101840009C0280939B0286E490E090939E0280939A
:101850009D0228960FB6F894DEBF0FBECDBFDF9174
:10186000CF9108958FEF8093C902AFCFCF93DF93CD
:10187000CDB7DEB7A9970FB6F894DEBF0FBECDBFC8
:10188000789484B5826084BD84B5816084BD85B55B
:10189000826085BD85B5816085BD80916E00816067
:1018A00080936E001092810080918100826080930D
:1018B000810080918100816080938100809180000F
:1018C0008160809380008091B10084608093B1003A
:1018D0008091B00081608093B00080917A00846034
:1018E00080937A0080917A00826080937A00809160
:1018F0007A00816080937A0080917A00806880937A
:101900007A001092C100E091E501F091E60182E0D9
:101910008083E091E101F091E2011082E091E30126
:10192000F091E4018FEC80831092ED01E091E901E8
:10193000F091EA0186E08083E091E701F091E8010F
:10194000808180618083E091E701F091E8018081EE
:1019500088608083E091E701F091E80180818068F0
:101960008083E091E701F091E80180818F7D8083A1
:1019700085ED91E0909398028093970248E7E42EDA
:1019800041E0F42E04E711E05CE7852E51E0952E4E
:1019900058016701D6017D906D0161E0872D0E949D
:1019A000B60260E0872D0E946A02F50171905F0126
:1019B00061E0872D0E94B60260E0872D0E946A02D6
:1019C0008C149D0439F761E08AE00E94B60261E060
:1019D0008AE00E946A0261E084E00E94B60260E050
:1019E00084E00E946A021092CC0182E08093CD01D3
:1019F000E0EBF0E0E491F0E0EE0FFF1FEC55FF4F5D
:101A0000859194919093CF018093CE01E2E9F0E02B
:101A1000E491E093D00160E082E00E94B602E3EA44
:101A2000F1E086E1DF011D928A95E9F782E990E015
:101A300090939E0180939D0182E590E090939C019C
:101A400080939B0180EC8093BB0189E78093BC016C
:101A50008FEF9FEF9093D2018093D1011092D30129
:101A600083E080939A018091D0018093990163E093
:101A700070E08091CC010E9437018DE190E00E94DE
:101A80000206682F606C8DE190E00E94FB07809356
:101A9000D40164E687E090E00E94FB076DE088E0F7
:101AA00090E00E94FB0780E00E94F30568EE73E07F
:101AB00080E090E00E94350588E790E00E940206F1
:101AC0008837A9F496E0C92E91E0D92E2EE6A22EF1
:101AD00021E0B22EAC14BD0481F0F6018081618159
:101AE00090E00E944908F2E0CF0ED11CF3CF81E0D4
:101AF00090E00E9402068F3F29F30E940A068BE0C5
:101B000090E00E94F202912C812CB12C8B2D0E942E
:101B10004707C090BF02D090C002C80CD91CD601A4
:101B200014968D919C910E94BB00F70171907F01EA
:101B300061E0872D0E946A02D60114962D913C9196
:101B400015978D919C91821793072CF461E0F80111
:101B500080810E946A0282E3A82E6BE070E080E040
:101B600090E00E943505AA94A110F7CF60E0872D80
:101B70000E946A02D60113961C921E92129761E08F
:101B800070E080E090E00E943505B394B0E18B0EE8
:101B9000911C0F5F1F4FE4E0BE12B8CFE091C90265
:101BA0008E2F90E0FC01EE0FFF1FE80FF91FEE589B
:101BB000FD4F80818F7B808360E08AE00E946A0213
:101BC0003E01FAE26F0E711CBAE08B2E912CA12C13
:101BD000B12CF0E04F2EF0E05F2E8091A60288231A
:101BE00021F01092A6021092A70280919702909184
:101BF0009802DC01ED91FC910084F185E02D0995BE
:101C000008970CF4DBC06E01B2E2CB0ED11CE8EAFF
:101C1000EE2EE2E0FE2E87018091970290919802CD
:101C2000DC01ED91FC910284F385E02D0995805350
:101C3000F60181936F01D8011D928D016E167F060A
:101C400059F79AA18AE03BA0989F300C11242CA14F
:101C500094E60DA1089F80011124299F000D111DFC
:101C600011242EA1020F111D2FA1C8A4C89E60012E
:101C70001124299FC00CD11C112489A5C80ED11C88
:101C8000083EB3E01B072CF4E8EECE16E3E0DE06D8
:101C90001CF081E08093A70289E08093A80298E07D
:101CA0009093A9029091A70291118093A90280E0DC
:101CB00090E0892B29F0A601B801832D0E94000035
:101CC00091E2931508F413C1E32DF0E0E659F14FCA
:101CD0000C9448138C0E9D0EA00E770F770F770F84
:101CE000770F770F770F770FA30E1E0F770F770FF2
:101CF000770F770F770F770F770F770F230F230F5C
:101D0000770F770F770F770F770F770F770F770FA3
:101D10002B0F380F6D0F720F81E090E00E948C0046
:101D200080919F028093AD028091A0028093AE02C9
:101D30008091A1028093AF020AC084E190E0EECFCF
:101D400089E290E0EBCFB601C8010E945808C0902C
:101D50009702D0909802D7012D917D0130E050E09C
:101D600040E019A28E010F5D1F4FCA01B901A50104
:101D700094010E94E312605DF80162938F012115C6
:101D800031054105510589F7309781F00190002018
:101D9000E9F73197AF01401B510BD601ED91FC9152
:101DA0000280F381E02DB801C6010995E0EBF2E075
:101DB000EE15FF0561F681E08093A6028091BD01DA
:101DC0008823F1F02FB7F89480919F019091A001A2
:101DD000A091A101B091A2012FBF4091BE015091ED
:101DE000BF016091C0017091C101841B950BA60BCE
:101DF000B70B4597A105B10518F080E00E94F305E7
:101E00008091A501882309F495C0F89488E0E1EB5E
:101E1000F1E0A1ECB2E001900D928A95E1F7109209
:101E2000A50178948091C102E82FF0E0ED53FD4FB9
:101E3000863008F060C011928F5FFACFC8010E940F
:101E4000020690E06BCF6CEE630D70E0802F90E0A7
:101E50000E948A067CCF8091990290919A02909379
:101E6000A3028093A2021092A5021092A40256CF60
:101E7000E091A402F091A502EE0FFF1FEA5FFE4F72
:101E8000008110E0C8010E948C0080919F02809325
:101E9000AA028091A0028093AB028091A10280935C
:101EA000AC02C8010E94020690E00E948C00809162
:101EB0009F028093AD028091A0028093AE02809138
:101EC000A1028093AF028091A4029091A502019695
:101ED0009093A5028093A4023ACF80919B029091A7
:101EE0009C02BDCF80919D0290919E02B8CF89E067
:101EF0008093A9022CCF80E090E0892B21F081EC27
:101F000092E00E9400008091C3028111FFC0909175
:101F1000C4029111FBC080E090E0892B19F080E0B1
:101F20000E9400008091BD01882309F4EBC081E08C
:101F30000E94800568E070E080E090E00E94350536
:101F4000809100012091BF023091C0028901F12CE3
:101F5000E12CB4E0EB16F10409F4C7C06801C21A21
:101F6000D30AF801428153814130510509F0DDC2A5
:101F7000E81639F087FFD9C28BE090E00E94F202A8
:101F80008E2D8093000161E08AE00E946A02F701D1
:101F9000E858FE4F308061E0832D0E946A028091F4
:101FA000B9019091BA019C012F5F3F4F3093BA0164
:101FB0002093B90104970CF498C0F701EC58FE4F38
:101FC0008081D80114964D915C9115972D913C918B
:101FD00061E0241735070CF060E00E946A02F80106
:101FE0002681378184819581820F931F9583848315
:101FF000121613067CF5608571856817790754F50C
:1020000075836483138212828FEF80930001809125
:10201000BA02882349F025E02E9DC0012F9D900D26
:10202000112482960E94490860E08AE00E946A02B8
:1020300060E0832D0E946A02E091C9028E2F90E039
:10204000FC01EE0FFF1FE80FF91FEE58FD4F8081D6
:102050008F7B8083E091BF02F091C002EC0DFD1DEB
:102060008681978197FF31C06285738584819581D0
:102070008617970754F575836483138212828FEF56
:10208000809300018091BA02882349F025E02E9DBB
:10209000C0012F9D900D112482960E94490860E096
:1020A0008AE00E946A0260E0832D0E946A02E09149
:1020B000C9028E2F90E0FC01EE0FFF1FE80FF91F01
:1020C000EE58FD4F80818F7B80838091BF0290917D
:1020D000C002C80ED91ED60114968D919C910E9403
:1020E000BB001092BA011092B90180E090E0892BF8
:1020F00009F473CD0E94C701882309F46ACD0E94B8
:10210000000067CD81E00E94F30514CF9091BD01DE
:10211000992309F486C08057803108F07FC081E0A0
:102120000E9480051091C1028091C40118130AC059
:10213000412F50E066EC71E083EC92E00E94731452
:10214000892B61F01092C30188E0E1ECF2E0A4EC8D
:10215000B1E001900D928A95E1F7ECCE8091C30138
:102160008F5F8093C301133009F040C09091C30288
:10217000892F8770F090C402853029F4F092C20153
:102180000E946705D7CE0DE110E0843091F0282F32
:1021900030E08430F0F40091C2010023D1F001500E
:1021A000110B000F111F000F111F020F131F0F5FE4
:1021B0001F4F93FF10C061E0C8010E94C105882332
:1021C00009F4B8CE6F2DC8010E94FB07F812B2CEF9
:1021D000D7CF8901ECCF60E0C8010E94C1058823F8
:1021E00009F4A8CEC8010E940206F0CF143009F00D
:1021F000A1CE8091C302682F70E0762F66276627F4
:1022000073709091C402692B6F5F7F4F2DE735E0AB
:102210004091C5028C700E945A088CCE80E00E94CA
:10222000F305E091C302EF3F59F48091C40281119C
:1022300081CE4114510409F47DCE0E9400007ACE73
:10224000E7FD0DC00091C6022091C5024091C40275
:1022500070E060E08E2F90E00E94C8086BCEE03CFA
:1022600008F052C19091BB0197FF64CE8091C402E7
:10227000282F30E0890100951095000F111F000FE5
:10228000111F007C1170EF730E2B35952795A22F2F
:10229000A3703A2E2091C102253039F58C788C300C
:1022A00021F50E943A068017910721F00F3F114057
:1022B00009F040CE0091C40210E0102F0027002743
:1022C00013708091C502080F111D0F5F1F4FF09012
:1022D000C60261E0C8010E94C1056F2D882309F480
:1022E00029CEC8010E94FB0725CE6801E1E0CE1A85
:1022F000D108CC0CDD1CCC0CDD1CC3287601FFEF13
:10230000EF1AFF0A8091D3018823F9F096FF41C0AC
:10231000C70160E071E00E943413682F81E090E013
:102320000E94FB07C701F7FE02C081509F4F692F33
:1023300089E090E00E94FB0780E090E0892B19F093
:10234000C7010E9400001092D3018091BB0180FD63
:1023500039C08091C102843009F04FC08091C4021D
:102360008978813009F0E6CD6091C50280E090E087
:10237000892B19F0C7010E940000A0E0B0E0AB2B50
:1023800009F4D8CD4091C502632DC7010E94000019
:10239000D1CDB8016F73772781E090E00E94FB07F1
:1023A000B801E6E075956795EA95E1F789E090E078
:1023B0000E94FB07A0E0B0E0AB2B29F2C8010E940D
:1023C0000000C1CF86FF0DC00E943A068E159F0502
:1023D00009F4BFCFBDEFEB16B7E0FB060CF0B9CFA9
:1023E000A9CD0E943A068017910709F4B2CF0F3F9A
:1023F000E1E01E0709F4ADCF9DCD833041F540915A
:10240000C402B42FB170CB2E43FBDD24D0F8E0E042
:10241000F0E0EF2B31F047702D2DB801C7010E947D
:1024200000008091BB0186FF06C04D2D6C2DC701B9
:102430000E94DB067FCD80E090E0892B09F47ACD05
:102440002D2D4C2D632DC8010E94000073CD8630C8
:1024500009F070CD8091C402982F9978913021F0C5
:102460008F78803809F066CD8091BB0186FF28C047
:102470000E943A068E159F05E9F48091C50290E00E
:10248000382F2227222733700091C602020F132F04
:10249000111D0F5F1F4FF090C70295958795959579
:1024A0008795837099278230910599F0039709F4F5
:1024B00010CF40CD9DEFE91697E0F906F4F63ACD3E
:1024C0000E943A0680179107C1F20F3F1140A9F20E
:1024D00031CDF4FE2FCD61E0C8010E94C1058823F3
:1024E00009F428CDC8010E9402069F2D977061E073
:1024F00070E001C0660F9A95EAF7F3FE02C0682B00
:10250000F0CE60956823EDCEE83E08F013CDE05C98
:10251000FF0B8091C4020091C7022091C602409136
:10252000C50261E070E09E2F97CEBFEFEB1AFB0A69
:10253000005F1F4F0ECDF999FECF92BD81BDF89A75
:10254000992780B50895262FF999FECF1FBA92BD1D
:1025500081BD20BD0FB6F894FA9AF99A0FBE019684
:102560000895052E97FB1EF400940E94C81257FD93
:1025700007D00E94E31207FC03D04EF40C94C8125B
:1025800050954095309521953F4F4F4F5F4F08959F
:1025900090958095709561957F4F8F4F9F4F0895CF
:1025A0000E940513A59F900DB49F900DA49F800DD0
:1025B000911D11240895B7FF0C94D0120E94D012DF
:1025C000821B930B0895A1E21A2EAA1BBB1BFD01CF
:1025D0000DC0AA1FBB1FEE1FFF1FA217B307E40702
:1025E000F50720F0A21BB30BE40BF50B661F771F5A
:1025F000881F991F1A9469F760957095809590953A
:102600009B01AC01BD01CF010895A29FB001B39F12
:10261000C001A39F700D811D1124911DB29F700DEB
:10262000811D1124911D0895991B79E004C0991F03
:10263000961708F0961B881F7A95C9F7809508951C
:10264000AA1BBB1B51E107C0AA1FBB1FA617B707D8
:1026500010F0A61BB70B881F991F5A95A9F78095F4
:102660009095BC01CD01089597FB072E16F40094B8
:1026700007D077FD09D00E94201307FC05D03EF457
:10268000909581959F4F0895709561957F4F08951E
:10269000EE0FFF1F0590F491E02D09940F931F9307
:1026A000CF93DF938230910510F482E090E0E091C7
:1026B000CE02F091CF0230E020E0B0E0A0E0309711
:1026C00099F42115310509F44AC0281B390B24302F
:1026D0003105D8F58A819B816115710589F1FB016E
:1026E00093838283FE0111C0408151810281138155
:1026F00048175907E0F04817590799F4109761F007
:1027000012960C93129713961C933296CF01DF9179
:10271000CF911F910F9108950093CE021093CF0295
:10272000F4CF2115310551F04217530738F0A901B4
:10273000DB019A01BD01DF01F801C1CFEF01F9CF43
:102740009093CF028093CE02CDCFFE01E20FF31F14
:10275000819391932250310939832883D7CF2091D7
:10276000CC023091CD02232B41F4209170013091A5
:1027700071013093CD022093CC0220916E013091F3
:102780006F012115310541F42DB73EB7409172011B
:1027900050917301241B350BE091CC02F091CD02D6
:1027A000E217F307A0F42E1B3F0B2817390778F028
:1027B000AC014E5F5F4F2417350748F04E0F5F1F87
:1027C0005093CD024093CC02819391939FCFF0E040
:1027D000E0E09CCFCF93DF930097E9F0FC013297C4
:1027E00013821282A091CE02B091CF02ED0130E0AF
:1027F00020E01097A1F420813181820F931F209156
:10280000CC023091CD022817390709F061C0F0934E
:10281000CD02E093CC02DF91CF910895EA01CE176B
:10282000DF07E8F54A815B819E0141155105B1F74B
:10283000E901FB83EA8349915991C40FD51FEC1735
:10284000FD0761F4808191810296840F951FE90153
:1028500099838883828193819B838A83F0E0E0E07F
:1028600012968D919C9113970097B9F52D913C91FB
:102870001197CD010296820F931F2091CC023091C7
:10288000CD022817390739F6309751F51092CF024B
:102890001092CE02B093CD02A093CC02BCCFD383D2
:1028A000C28340815181840F951FC817D90761F4F5
:1028B0004E5F5F4F88819981480F591F5183408334
:1028C0008A819B81938382832115310509F0B0CFE2
:1028D000F093CF02E093CE029ECFFD01DC01C0CF8A
:1028E00013821282D7CFFB01DC0104C08D910190CD
:1028F000801921F441505040C8F7881B990B089566
:10290000F894FFCFFF7F057F053401010900110016
:102910001200000079637A001C021E5A1F05203C39
:102920002178223C235A2405253C2678273C285A26
:1029300029052A3C2B782C3C2D5A2E052F3C30782B
:10294000313C46004700480049004A004B004C001B
:102950004D005001510052025300540355005604DB
:102960005700580559005A065B005C075D005E0879
:102970005F000000D0028000101112130C0D0E0F2A
:1029800000000000FD015D018A014A02BB019901BE
:02299000AD0197
:107E0000112484B714BE81FFF0D085E080938100F7
:107E100082E08093C00088E18093C10086E0809377
:107E2000C20080E18093C4008EE0C9D0259A86E02C
:107E300020E33CEF91E0309385002093840096BBD3
:107E4000B09BFECF1D9AA8958150A9F7CC24DD24C4
:107E500088248394B5E0AB2EA1E19A2EF3E0BF2EE7
:107E6000A2D0813461F49FD0082FAFD0023811F036
:107E7000013811F484E001C083E08DD089C08234E0
:107E800011F484E103C0853419F485E0A6D080C0E4
:107E9000853579F488D0E82EFF2485D0082F10E0AE
:107EA000102F00270E291F29000F111F8ED06801E7
:107EB0006FC0863521F484E090D080E0DECF843638
:107EC00009F040C070D06FD0082F6DD080E0C81688
:107ED00080E7D80618F4F601B7BEE895C0E0D1E017
:107EE00062D089930C17E1F7F0E0CF16F0E7DF06D8
:107EF00018F0F601B7BEE89568D007B600FCFDCFD4
:107F0000A601A0E0B1E02C9130E011968C91119780
:107F100090E0982F8827822B932B1296FA010C0160
:107F200087BEE89511244E5F5F4FF1E0A038BF0790
:107F300051F7F601A7BEE89507B600FCFDCF97BE46
:107F4000E89526C08437B1F42ED02DD0F82E2BD052
:107F50003CD0F601EF2C8F010F5F1F4F84911BD097
:107F6000EA94F801C1F70894C11CD11CFA94CF0C13
:107F7000D11C0EC0853739F428D08EE10CD085E9AC
:107F80000AD08FE07ACF813511F488E018D01DD067
:107F900080E101D065CF982F8091C00085FFFCCF94
:107FA0009093C60008958091C00087FFFCCF809118
:107FB000C00084FD01C0A8958091C6000895E0E648
:107FC000F0E098E1908380830895EDDF803219F02E
:107FD00088E0F5DFFFCF84E1DECF1F93182FE3DFCA
:107FE0001150E9F7F2DF1F91089580E0E8DFEE27F6
:047FF000FF270994CA
:027FFE00040479
:00000001FF
