:100000000C9462000C948A000C948A000C948A0070
:100010000C948A000C948A000C948A000C948A0038
:100020000C948A000C948A000C94B7090C94410833
:100030000C948A000C948A000C948A000C948A0018
:100040000C94F7070C948A000C94C5070C949F0736
:100050000C948A000C948A000C948A000C948A00F8
:100060000C948A000C948A000000000024002700F1
:100070002A000000000023002600290000000008DC
:10008000000201000003040700000000000000005F
:1000900000000000250028002B00040404040404D0
:1000A0000404020202020202030303030303010227
:1000B00004081020408001020408102001020408F6
:1000C0001020E90911241FBECFEFD8E0DEBFCDBF5D
:1000D00011E0A0E0B1E0E2E5FFE102C005900D9281
:1000E000A432B107D9F723E0A4E2B1E001C01D9228
:1000F000AE33B207E1F710E0C2E6D0E004C02197CA
:10010000FE010E94860FC136D107C9F70E941F0A5F
:100110000C94A70F0C940000CF93DF93FC0129E10E
:100120008EE241E050E033E071E0908190769036CD
:10013000D1F491819093FC01A091FC01A150109207
:10014000FB019FEF6091FB016A1790F4C091FB01E6
:10015000CE0FDF2FD11D688196276091FB016F5F65
:100160006093FB01EFCF9081929596709E5FE2CFF6
:10017000AE0FBF2FB11D9C93F8949091FA0191306E
:1001800059F49091F901981738F01092FA01909172
:100190006F009D7F90936F0078949091FA01913059
:1001A00039F49091F901943108F4BFCF70E0BDCFDC
:1001B0009091FA0191110EC0F89490916F009F7D7B
:1001C00090936F00B59B09C090916F0090629093DF
:1001D0006F0078947111A9CF51C0A091F701B0912F
:1001E000F8019C916091F601EA0102C0CC0FDD1F7D
:1001F0006A95E2F79C2B9C93609184007091850036
:100200006A5A7C4F7093F5016093F4016091F40198
:100210007091F50170938900609388007894F09351
:10022000F301E093F2011092FB011092F101908131
:100230009093F0013093FA011092F901B19A9091E4
:100240006F00926090936F009091FA019330E1F308
:100250009091F101992381F0E091EE01F091EF018D
:10026000E757FF4F8081918101969183808383E0DE
:1002700090E0DF91CF9108959091FA018B3108F0D1
:100280008150215009F050CF8091880290918902CD
:100290000196909389028093880286E090E0E9CFEE
:1002A0009C0110922D0310922E0384369105B0F01C
:1002B00064E670E00E94500F60932D0380912D033F
:1002C000A90164E6869F401951091124CA016AE018
:1002D00070E00E94500F60932E0302C00A9770F7DF
:1002E00080912D0394E6899F2019112480912E037B
:1002F0004AE0849F2019112420932F030895EF9240
:100300000F931F93CF93DF93FC0185EE80838FE0E3
:10031000818385E08283613041F589E483838BE4C6
:1003200084838FE1858316825087478332872187B4
:1003300014870387E586DF011796AF01425F5F4FA1
:1003400091E08D9187FF07C02681292B2683ED013F
:1003500021978F778883990FA417B50791F7DF91BD
:10036000CF911F910F91EF90089563831482D9CF9D
:10037000AF92BF92CF92DF92EF92FF920F931F93B3
:10038000CF93DF936C017B018B01040F151FEB01F1
:100390005E01AE18BF08C017D10759F06991D601A8
:1003A000ED91FC910190F081E02DC6010995892B1A
:1003B00079F7C501DF91CF911F910F91FF90EF90D9
:1003C000DF90CF90BF90AF900895FC01538D448D86
:1003D000252F30E0842F90E0821B930B541710F0F0
:1003E000CF96089501970895FC01918D828D9817FD
:1003F00061F0A28DAE0FBF2FB11D5D968C91928DD5
:100400009F5F9F73928F90E008958FEF9FEF089505
:10041000FC01918D828D981731F0828DE80FF11DCE
:10042000858D90E008958FEF9FEF0895FC01918DE9
:10043000228D892F90E0805C9F4F821B91098F73E2
:10044000992708958CE892E00E94160221E0892BFA
:1004500009F420E0822F089580E090E0892B29F0B4
:100460000E94220281110C9400000895FC01A48DC9
:10047000A80FB92FB11DA35ABF4F2C91848D90E0C6
:1004800001968F739927848FA689B7892C93A089A9
:10049000B1898C91837080648C93938D848D981333
:1004A00006C00288F389E02D80818F7D80830895C6
:1004B000EF92FF920F931F93CF93DF93EC0181E0B4
:1004C000888F9B8D8C8D98131AC0E889F98980815B
:1004D00085FF15C09FB7F894EE89FF896083E8898E
:1004E000F98980818370806480839FBF81E090E080
:1004F000DF91CF911F910F91FF90EF900895F62E0D
:100500000B8D10E00F5F1F4F0F731127E02E8C8DA6
:100510008E110CC00FB607FCFACFE889F9898081EB
:1005200085FFF5CFCE010E943602F1CFEB8DEC0FA7
:10053000FD2FF11DE35AFF4FF0829FB7F8940B8F08
:10054000EA89FB8980818062CFCFCF93DF93EC0172
:10055000888D8823B9F0AA89BB89E889F9898C91AB
:1005600085FD03C0808186FD0DC00FB607FCF7CF67
:100570008C9185FFF2CF808185FFEDCFCE010E9467
:100580003602E9CFDF91CF910895833081F028F4CE
:10059000813099F08230A9F008958730A9F0883031
:1005A000C9F08430B1F4809180008F7D03C08091C8
:1005B00080008F7780938000089584B58F7784BD05
:1005C000089584B58F7DFBCF8091B0008F778093A5
:1005D000B00008958091B0008F7DF9CFCF93DF9365
:1005E000282F30E0F901E458FF4F8491F901E255DA
:1005F000FF4FD491F901E656FF4FC491CC23A1F0EF
:1006000081110E94C502EC2FF0E0EE0FFF1FEE58A3
:10061000FF4FA591B491EC91ED2381E090E009F4B6
:1006200080E0DF91CF91089580E090E0FACF1F93B2
:10063000CF93DF93282F30E0F901E458FF4F8491E6
:10064000F901E255FF4FD491F901E656FF4FC491ED
:10065000CC23A9F0162F81110E94C502EC2FF0E0E7
:10066000EE0FFF1FE057FF4FA591B4918FB7F8949D
:10067000EC91111108C0D095DE23DC938FBFDF9180
:10068000CF911F910895DE2BF8CFCF93DF9390E0A9
:10069000FC01E255FF4F249186569F4FFC01849147
:1006A0008823D1F090E0880F991FFC01E859FF4F93
:1006B000A591B491FC01E057FF4FC591D4916230F0
:1006C00071F49FB7F8943C91822F809583238C938B
:1006D000E8812E2B28839FBFDF91CF9108958FB79C
:1006E000F894EC912E2B2C938FBFF6CF3FB7F89454
:1006F0008091B9019091BA01A091BB01B091BC0168
:1007000026B5A89B05C02F3F19F00196A11DB11D6C
:100710003FBFBA2FA92F982F8827BC01CD01620FA8
:10072000711D811D911D42E0660F771F881F991F63
:100730004A95D1F708958F929F92AF92BF92CF9230
:10074000DF92EF92FF926B017C010E9476034B01D6
:100750005C01C114D104E104F104B9F00E947603F4
:10076000681979098A099B09683E734081059105DA
:1007700080F321E0C21AD108E108F10888EE880E62
:1007800083E0981EA11CB11CE4CFFF90EF90DF9096
:10079000CF90BF90AF909F908F9008959C01DC0107
:1007A000A058BF4FEC9191E09E0F9C93E20FF32F66
:1007B000F11D608397FD1C9208952F923F924F92F6
:1007C0005F926F927F928F929F92AF92BF92CF92E1
:1007D000DF92EF92FF920F931F93CF93DF9300D09E
:1007E00000D0CDB7DEB79C838B837C0141E8E40E5B
:1007F000F11C6C0150E8C50ED11C8C010E571F4F27
:100800008D579F4F2C018B819C818C579F4F4C01A2
:1008100022242A94AB80BC8097E8A90EB11CEB81FE
:10082000FC81EB57FF4FFA83E983F7018081F601E2
:100830009081891709F4BEC0EB81FC81E80FF11D9E
:10084000308037FE6FC0F8019081891739F0F501CB
:10085000208131812F5F3F4F31832083F8018083D6
:10086000F2012082832D8076F401803609F443C0A2
:10087000832D829586708E5F8083F8012081F4013C
:100880008081820F9927991F81389105ACF180E80A
:10089000682E621AF894F6014081F701808184176E
:1008A00008F046C0F8018081F42FF81B8F2FF60165
:1008B00080837894F70180814817E8F5712C50E027
:1008C0006B817C81CB01860D971D0E948C0FF801F6
:1008D00060814B815C81460F511DBA01A3018B8160
:1008E0009C810E948C0FF7018081F8019081891B07
:1008F000F7018083F8011082F70190819F5F908358
:10090000F8018081392F381B97FF02C0F701108250
:10091000F2012081F40190819317B9F03226F2019F
:10092000308283CFF40180818111E6CF3082A5CF60
:10093000862D840FBCCFF8016081461B50E08B816F
:100940009C81860F911DBC01CACF32122AC04B81F7
:100950005C81480F511DCA01E981FA8140815181B2
:100960004F5F5F4F51834083F7013081F80130833F
:100970000097A1F20F900F900F900F90DF91CF9101
:100980001F910F91FF90EF90DF90CF90BF90AF90AD
:100990009F908F907F906F905F904F903F902F909F
:1009A0000895F5018081918101969183808390E083
:1009B00080E0DACF90E080E0DDCF1F93CF93DF932C
:1009C00001979C0135952795122F1F77C92F662314
:1009D00079F1C06180FF2EC0C062DDE4D127DC2741
:1009E00062EB85E291E00E94CE03612F85E291E007
:1009F0000E94CE036C2F85E291E00E94CE036D2F02
:100A000085E291E00E94CE036FEF85E291E00E94C3
:100A1000CE0385E291E00E94DD039093EC01809388
:100A2000EB01009749F0DF91CF911F910C948C005E
:100A3000CF7ED0CFCF7DD1CFDF91CF911F910895C1
:100A40001F93CF93DF93EC01CC0FDD1FCE010E94EB
:100A50003A0F182FCE0101960E943A0F982F812F3E
:100A6000DF91CF911F910895CF93DF93409124019F
:100A7000442389F08E3B984171F481E06A3071051E
:100A800038F4E901CB010E942005998388838FE720
:100A9000DF91CF9108958FEFFBCFCF93DF9320911C
:100AA0002401222369F08E3B984151F4EB0190E040
:100AB00080E00E9420058C179D0711F410922401FC
:100AC000DF91CF9108950F931F93CF93DF93FC0194
:100AD000808191818E3B9841C9F4EB010881198195
:100AE00090E080E00E9420050817190749F481E092
:100AF000809324018FE7DF91CF911F910F9108958B
:100B00000F3F1F4F19F499838883F4CF8FEFF3CFF2
:100B10000F931F93CF93DF938B01EC01CC0FDD1F5D
:100B2000CE010E943A0F081721F0602FCE010E94DB
:100B3000420F2196CE010E943A0F181741F0612F03
:100B4000CE01DF91CF911F910F910C94420FDF9155
:100B5000CF911F910F910895683E23E0720710F026
:100B600067EE73E00C948805CF93DF93EC010E944D
:100B70002005883E934028F067EE73E0CE010E9486
:100B80008805CE01DF91CF910C9420054F925F92A2
:100B90006F927F92AF92BF92CF92DF92EF92FF92CD
:100BA0000F931F93CF93DF93CDB7DEB7A9970FB6FF
:100BB000F894DEBF0FBECDBF80913403882321F0AF
:100BC00010923403109235038091290390912A03E7
:100BD000DC01ED91FC910084F185E02D09950897E9
:100BE0000CF418C18E010E5D1F4F26E3E22E23E0A8
:100BF000F22E5E01BAE2AB0EB11C670180912903AF
:100C000090912A03DC01ED91FC910284F385E02DA3
:100C100009958053F80181938F01D6011D926D01D2
:100C2000AE16BF0659F78AA14AE09BA1849F900D9A
:100C300011248CA154E62DA1249F90011124859F9D
:100C4000200D311D11248EA1280F311D8FA168A503
:100C5000649FB0011124859F600D711D112489A529
:100C6000680F711D283EB3E03B0724F4683EE3E0C3
:100C70007E071CF081E08093350389E08093360382
:100C800048E0409337034091350341118093370387
:100C900081E08093ED019B3009F4D1C078F491306C
:100CA00009F470C008F45DC0923009F46EC09A3047
:100CB00009F46EC089E0809337036DC09E3109F45A
:100CC000C9C068F46CEE690F6230A0F780E090E074
:100CD000892B09F460C0822F0E9400005CC09F3104
:100CE00049F7809132039091330320E030E0232BC9
:100CF00011F00E9400008C01883E934010F007EE36
:100D000013E0C8010E94500180912D0380933803A5
:100D100080912E038093390380912F0380933A03AF
:100D2000C8010E94B405883EA3E09A0710F087EE40
:100D300093E00E94500180912D0380933B038091AA
:100D40002E0380933C0380912F0380933D03809179
:100D500032039091330301969093330380933203CF
:100D60001AC085E090E00E94500180912D0380938D
:100D70003B0380912E0380933C0380912F0380934B
:100D80003D0309C08BE090E0EECF86E190E0EBCF31
:100D9000C9010E94AC058EE3A82E83E0B82E9AE02C
:100DA000492E512C612C712CC0902903D0902A031C
:100DB000F70121917F0130E050E040E019A28E015F
:100DC0000F5D1F4FCA01B901A30192010E94640F78
:100DD000605DD8016E938D012115310541055105E6
:100DE00089F7109789F0FD0101900020E9F731970C
:100DF000AF014A1B5B0BD601ED91FC910280F381A0
:100E0000E02DB801C6010995AE14BF0469F681E072
:100E100080933403A9960FB6F894DEBF0FBECDBF02
:100E2000DF91CF911F910F91FF90EF90DF90CF90C6
:100E3000BF90AF907F906F905F904F900895C901E1
:100E40000E94B405883EF3E09F0708F48CCF87EE3C
:100E500093E089CF80912B0390912C0390933103E1
:100E60008093300310923303109232037CCF9B01A6
:100E700060912401662361F08E3B984149F42A3049
:100E8000310540F4BA01C9010E9488058FE7089531
:100E90008FEF089581E00895CF93DF93EC01809167
:100EA000E901813091F4BE0190E080E00E94880564
:100EB000EDEBF1E090E080E09E01280F391F2193D7
:100EC0003193019688309105B9F78091E90182301C
:100ED00051F4CE010297863E934028F4BE0181E092
:100EE00090E00E9488058091E901833051F4CE01A1
:100EF0000297863E934028F4BE0182E090E00E9473
:100F000088058091E9018823B9F08F5F843088F4E7
:100F10008093E9018091ED0181110EC061E00E9492
:100F2000170364EF71E080E090E0DF91CF910C94C3
:100F30009B031092E901EECFDF91CF9108951F92AC
:100F40000F920FB60F9211242F933F934F935F93FD
:100F50006F937F938F939F93AF93BF93EF93FF9381
:100F60008CE892E00E943602FF91EF91BF91AF9121
:100F70009F918F917F916F915F914F913F912F91B1
:100F80000F900FBE0F901F9018951F920F920FB6E3
:100F90000F9211242F938F939F93EF93FF93E091E0
:100FA0009C02F0919D028081E091A202F091A30247
:100FB00082FD1BC090818091A5028F5F8F7320916D
:100FC000A602821741F0E091A502F0E0E457FD4F40
:100FD000958F8093A502FF91EF919F918F912F9113
:100FE0000F900FBE0F901F9018958081F4CF1F9225
:100FF0000F920FB60F9211242F933F938F939F93CD
:10100000AF93BF938091B5019091B601A091B701C4
:10101000B091B8013091B40123E0230F2D3758F57A
:101020000196A11DB11D2093B4018093B501909349
:10103000B601A093B701B093B8018091B901909126
:10104000BA01A091BB01B091BC010196A11DB11DD7
:101050008093B9019093BA01A093BB01B093BC01F6
:10106000BF91AF919F918F913F912F910F900FBEA4
:101070000F901F90189526E8230F0296A11DB11D11
:10108000D2CF1F920F920FB60F921124CF92DF9200
:10109000EF92FF920F931F932F933F934F935F9382
:1010A0006F937F938F939F93AF93BF93CF93EF9360
:1010B000FF938091F4019091F50180549C4F90939F
:1010C000F5018093F4018091F4019091F5019093E2
:1010D0008900809388008091F9018F5F8093F901E6
:1010E0008091FA01843009F043C08091F901893080
:1010F00030F58091F00190E0959587958093F0010F
:10110000189B05C08091F00180688093F001FF91E9
:10111000EF91CF91BF91AF919F918F917F916F91FF
:101120005F914F913F912F911F910F91FF90EF9001
:10113000DF90CF900F900FBE0F901F901895B59A2B
:1011400080916F00806280936F008091EE0190919A
:10115000EF01189929C0FC01E957FF4F8081918167
:101160000196918380831092F90181E08093FA01C6
:101170008091FA018330B9F5E091F701F091F8011F
:1011800080812091F60133B190E0022E02C0959546
:1011900087950A94E2F7832780FD0BC01092F9012E
:1011A00082E08093FA011FC06091F0010E94CE039B
:1011B000DACF8091F901893008F03EC03091F0011A
:1011C00081E090E001C0880F2A95EAF7908130FF16
:1011D00031C08095892380838091F00190E09595BE
:1011E00087958093F0018091FA01823099F4809183
:1011F000F90181118BC0E091F701F091F801808134
:101200009091F60121E030E001C0220F9A95EAF7B3
:10121000822B80838091FA01813009F078CF809110
:10122000F901811199C0B59A80916F008062809315
:101230006F006DCF892BCFCF8091F901893059F4A0
:10124000308181E090E001C0880F2A95EAF780950F
:1012500083238083C8CF8091FB018F5F8093FB0144
:101260009091FC01891750F51092F9018091F201DB
:101270009091F301A091FB01A80FB92FB11D8C91A2
:101280008093F001808141E050E001C0440F2A9535
:10129000EAF7842B808380918400909185008A5A9C
:1012A0009C4F9093F5018093F4018091F40190910B
:1012B000F501909389008093880095CF81E0809319
:1012C000F101E090F201F090F301C090EE01D090B6
:1012D000EF01F70180818076803679F4C18110E0DA
:1012E00000E00C1778F4F701E00FF11F6081C601F0
:1012F0000E94CE030F5F1F4FF4CFC081C295C6700E
:10130000CE5FEDCF1092F90181E04BCF8091F901D2
:101310008F3008F47FCFE091F701F091F801208140
:101320003091F60181E090E001C0880F3A95EAF72C
:101330008095822380831092F90181E08093FA01E5
:10134000E091EE01F091EF01E357FF4F8081918131
:101350000196918380835ECF8091F901883308F4F0
:10136000D6CE1092FA0180916F008D7F60CF1F92D0
:101370000F920FB60F9211248F939F93EF93FF93C9
:10138000EFE6F0E080818F7D8083809186009091F0
:10139000870080569A4F9093F5018093F4018091D5
:1013A000F4019091F5019093890080938800B19A9F
:1013B00080818260808384E08093FA011092F90139
:1013C000FF91EF919F918F910F900FBE0F901F9003
:1013D0001895ECE8F2E01382128288EE93E0A0E028
:1013E000B0E084839583A683B78385E191E0918300
:1013F000808385EC90E09587848784EC90E09787E4
:10140000868780EC90E0918B808B81EC90E0938BD1
:10141000828B82EC90E0958B848B86EC90E0978BAE
:10142000868B118E128E138E148EE9E2F3E081E02A
:10143000838714868AE090E0938382830895CF9314
:10144000DF93CDB7DEB762970FB6F894DEBF0FBE5D
:10145000CDBF789484B5826084BD84B5816084BD3D
:1014600085B5826085BD85B5816085BD80916E0042
:10147000816080936E001092810080918100826073
:1014800080938100809181008160809381008091B0
:1014900080008160809380008091B100846080939F
:1014A000B1008091B00081608093B00080917A009B
:1014B000846080937A0080917A00826080937A00C1
:1014C00080917A00816080937A0080917A008068B0
:1014D00080937A001092C100E0919C02F0919D02ED
:1014E00082E08083E0919802F09199021082E0916D
:1014F0009A02F0919B028FEC80831092A402E091FB
:10150000A002F091A10286E08083E0919E02F0911A
:101510009F02808180618083E0919E02F0919F0212
:10152000808188608083E0919E02F0919F0280819B
:1015300080688083E0919E02F0919F0280818F7D80
:1015400080838CE892E090932A038093290351E0F2
:10155000A52E51E0B52E69E0C62E61E0D62E85019C
:101560006CE271E080E090E00E949B03D801FD9066
:101570008D0161E08F2D0E94450360E08F2D0E9458
:1015800017030E94C605C016D10651F764E670E045
:1015900080E090E00E949B038091ED01811134C0B6
:1015A00010922A03109229038CE892E00E94A5026F
:1015B000E0919E02F0919F0280818F7E8083E09176
:1015C0009E02F0919F028081877F8083E0919E023E
:1015D000F0919F0280818F778083E0919E02F0914D
:1015E0009F0280818F7D80838091A6028093A502D7
:1015F00062E081E00E94450361E080E00E944503D3
:1016000060E080E00E941703EDEFF1E08FE8DF017A
:101610001D928A95E9F761E087E00E944503E5EBBA
:10162000F0E02491E1EAF0E0E491F0E0EE0FFF1F3A
:10163000E057FF4F4591549180E091E031E0291748
:1016400041F08F5F932F082E01C0990F0A94EAF79B
:10165000F6CF5093F8014093F7018093F6018DEF98
:1016600091E09093EF018093EE012098E091F701D3
:10167000F091F80120813091F60181E090E001C005
:10168000880F3A95EAF78095822380831092800034
:1016900081E0809381001092FA01B59A80916F00E9
:1016A000806280936F0080918100887F8160809349
:1016B000810090E080E00E9420058C01893F9F40DE
:1016C00030F489E090E00E942005892BD1F467EE88
:1016D00073E089E090E00E94880561E070E090E0AE
:1016E00080E00E94880564E670E081E090E00E945E
:1016F000880568EC70E082E090E00E94880501E0D7
:1017000010E081E090E00E94200581369A4E30F092
:1017100064E670E081E090E00E94880582E090E05D
:101720000E94200581369A4E30F068EC70E082E02D
:1017300090E00E948805B801660F771F90E080E076
:101740000E949B03BDEBEB2EB1E0FB2E8DEC882EAF
:1017500081E0982E9DEDC92E91E0D92E29E0622ED0
:1017600021E0722E3DEC432E31E0532ED7010D9334
:101770001D937D01F401119211924F01D6011D922A
:101780006D01F50131905F0161E0832D0E94170327
:10179000D3012D903D0162E0822D0E944503822DF0
:1017A0000E94EE02892BB1F481E0F601319780832B
:1017B0000115110521F061E0C8010E94DD0480914E
:1017C000ED01811103C061E00E94170360E0832DE9
:1017D0000E94170368EC70E080E090E00E949B0399
:1017E0000F5F1F4F4E145F0409F6AA24A394B12C77
:1017F0004424439477247394E0E02E2EE0E03E2EC0
:101800008091ED0181110E94C6058DEF91E00E944B
:10181000DD036C019093EC018093EB01009709F4D8
:1018200014C1FC014181242F30E06281062F10E0B9
:10183000F62FF695FA8B562F579555275795598BB6
:10184000E989FA89E078F770E42BF32BDC019C91AD
:10185000923B09F4E9C03196913B09F4A4C108F028
:101860007CC0933809F48FC108F06BC0923809F43A
:1018700093C1953E19F09D3E09F0E7C04F3009F045
:10188000E4C0D60113968C911397853009F0DDC022
:1018900014968C9114978111D8C016964C91F6012C
:1018A000C601079621E0342F322319F037813068C2
:1018B0003783220F31968E179F07A9F7F6011682FC
:1018C0002581203209F478C2213209F0BEC0078098
:1018D000F085E02DEF3FFE0709F015C2D6011996FD
:1018E0002D913C911A97232B09F00DC21B962D9137
:1018F0003C912F3F3F4F09F006C2E0E0F0E0EF2BB4
:1019000009F4A3C0B601655F7F4F0E9400008F37C6
:1019100009F09BC0D6011B960D911C911C97179640
:101920004D915C911897E12C30E020E012966C917B
:10193000CE0101960E947F01CE0101960E948C008B
:1019400084C0963A09F4BBC1903B09F092CF64FF82
:101950007CC0CF010E944C0778C09D3B09F475C044
:1019600090F4943B09F471C09C3B09F082CFA0E055
:10197000B0E0AB2B09F469C0462F40726071CF0113
:101980000E94000062C0903D09F427C1963E09F014
:1019900070CF2114310409F458C0F60124818381E9
:1019A00090E02D3731F0F0E82F9F90011124822B29
:1019B000932BD60116962C91169715964C9150E0C4
:1019C0002D3731F0B0E82B9F90011124422B532B7F
:1019D000D6011896EC91189717962C9130E0ED37B8
:1019E00031F0B0E8EB9FF00111242E2B3F2BD601F4
:1019F0001A96EC911A9719960C9110E0ED3731F088
:101A0000B0E8EB9FF00111240E2B1F2B62FD6CC17F
:101A10004150510961FD6DC12150310960FD6EC118
:101A20000150110960735DC182E090E065FD02C064
:101A300081E090E020E030E0232B39F0EE0FFF1F33
:101A400060718E0F9F1F0E9400006090ED01611079
:101A500033C08091EA01811107C081E00E94EE024B
:101A6000892B81F47092EA0181E00E94EE020197D5
:101A700049F41092EA018091E901882309F4A9C18F
:101A80001092E9018091E5019091E601A091E701B2
:101A9000B091E8010196A11DB11D8938F3E19F07BE
:101AA000A105B1050CF098C18093E5019093E60182
:101AB000A093E701B093E801809100018F5F883027
:101AC0000CF0A1C18093000100910001002E000CD8
:101AD000110B980123523E4F4901D9015C90F80146
:101AE000E75FFE4F80810E94EE026801CC0CDD1C96
:101AF000F601E353FE4FE080F1805816190609F411
:101B0000AFC1BFEFEB1AFB0AF182E082552009F466
:101B10007DC181E090E00E9420052AE0FC012E9F1B
:101B2000C0012F9F900D1124E816F906F8F0F60178
:101B3000E354FE4F80819181181619061CF461E070
:101B40000E94DD04611004C061E080E00E94170380
:101B5000F801EF5FFE4F60E080810E941703D4011F
:101B60001C92F601E353FE4F1182108280E090E058
:101B7000892B09F445CE0E942202882309F438CE2D
:101B80000E94000035CE80E090E0892B09F45DCF03
:101B900081E00E94000059CF80E090E0892B09F499
:101BA00054CF80E0F6CF66FF0CC040E050E0452BFC
:101BB00009F44BCF462F40726071CF010E940000A4
:101BC00044CF80E090E0892B09F43FCF462F40714D
:101BD0006072CF010E94000038CF4076403221F081
:101BE0004036E1F1411131CFE0E0F0E0EF2B09F4B4
:101BF0002CCFC9019695982F88279795879580783F
:101C00009F70800F911F55E0359527955A95E1F704
:101C100021700196D60113963C91139714964C911E
:101C2000E42FF0E0AF013D3731F0B0E83B9FA00179
:101C300011244E0F5F1F6F7091F1623091F164308B
:101C400091F1663091F1683091F16A3091F16C3028
:101C500091F16E3091F10E940000F7CEE0E0F0E0EB
:101C6000EF2B09F4F2CE1396FC9013978F2D807D05
:101C7000803109F0EACE1496EC9001E011E041E0E9
:101C80008F2D802309F040E02E2D2023000F612F9F
:101C900080E80E9400001F5F153089F7D6CE61E40E
:101CA000DACF62E4D8CF63E4D6CF64E4D4CF65E47E
:101CB000D2CF66E4D0CF67E4CECF68E4CCCF211496
:101CC000310409F4C2CEC9016D3721F089899A899E
:101CD000842B932B10E000E030E020E050E040E067
:101CE00060E30E940000B1CEF501E41BF50BAF01EB
:101CF00091CED501A21BB30B9D0190CEF501E01B47
:101D0000F10B8F018FCED6011D962C911D972111BD
:101D100023C01B964D915C911C9719966D917C91F7
:101D20009601255F3F4FCF010E9434058F3751F454
:101D3000F601038514852185328547815085E12C84
:101D40006281F6CD87FD81CED6019C919F7724EBF1
:101D500029839A838B83F0CD27FF21C026FD24C0E1
:101D6000B601655F7F4F0E9463058F37C1F4F601AE
:101D7000038514854781508530E8E32E30E020E06C
:101D80006281CE0101960E947F016AE070E080E0EE
:101D900090E00E949B03CE0101960E948C00D60128
:101DA0001D968C9186FF51CEF601638574858781DF
:101DB00090850E944D0549CE438554856185728585
:101DC000878190850E94370787FD3FCEF60190817D
:101DD000BDCF7092E90156CE1092E5011092E60156
:101DE0001092E7011092E8018091E901882331F017
:101DF00080E00E94EE0261E0892B09F060E080E063
:101E00000E94170359CE109200015ECE82E090E04E
:101E10000E9420052AE0FC012E9FC0012F9F900DFB
:101E20001124E816F90608F4A1CEF601E354FE4F9A
:101E300080819181181619061CF460E00E94DD046F
:101E4000611004C061E080E00E941703F801EF5FB9
:101E5000FE4F61E080810E941703D4014C9281CE35
:101E6000E114F10409F482CEB1E0EB1AF108F18239
:101E7000E0827CCEF999FECF92BD81BDF89A992778
:101E800080B50895262FF999FECF1FBA92BD81BD66
:101E900020BD0FB6F894FA9AF99A0FBE01960895EC
:101EA000AA1BBB1B51E107C0AA1FBB1FA617B70780
:101EB00010F0A61BB70B881F991F5A95A9F780959C
:101EC0009095BC01CD010895A1E21A2EAA1BBB1B5F
:101ED000FD010DC0AA1FBB1FEE1FFF1FA217B307F6
:101EE000E407F50720F0A21BB30BE40BF50B661F0C
:101EF000771F881F991F1A9469F7609570958095D0
:101F000090959B01AC01BD01CF010895EE0FFF1F1D
:101F10000590F491E02D09946817790768F4FB01A6
:101F2000DC01E40FF51FA40FB51F02C002900E9252
:101F300041505040D8F708950C949E0FFB01DC01EE
:101F400002C001900D9241505040D8F70895F89486
:021F5000FFCFC1
:101F5200FF131211100F0E0D0C0203040506090ADD
:101F62000B000000005802B801E501A5021602F4B8
:041F72000108020060
:107E0000112484B714BE81FFF0D085E080938100F7
:107E100082E08093C00088E18093C10086E0809377
:107E2000C20080E18093C4008EE0C9D0259A86E02C
:107E300020E33CEF91E0309385002093840096BBD3
:107E4000B09BFECF1D9AA8958150A9F7CC24DD24C4
:107E500088248394B5E0AB2EA1E19A2EF3E0BF2EE7
:107E6000A2D0813461F49FD0082FAFD0023811F036
:107E7000013811F484E001C083E08DD089C08234E0
:107E800011F484E103C0853419F485E0A6D080C0E4
:107E9000853579F488D0E82EFF2485D0082F10E0AE
:107EA000102F00270E291F29000F111F8ED06801E7
:107EB0006FC0863521F484E090D080E0DECF843638
:107EC00009F040C070D06FD0082F6DD080E0C81688
:107ED00080E7D80618F4F601B7BEE895C0E0D1E017
:107EE00062D089930C17E1F7F0E0CF16F0E7DF06D8
:107EF00018F0F601B7BEE89568D007B600FCFDCFD4
:107F0000A601A0E0B1E02C9130E011968C91119780
:107F100090E0982F8827822B932B1296FA010C0160
:107F200087BEE89511244E5F5F4FF1E0A038BF0790
:107F300051F7F601A7BEE89507B600FCFDCF97BE46
:107F4000E89526C08437B1F42ED02DD0F82E2BD052
:107F50003CD0F601EF2C8F010F5F1F4F84911BD097
:107F6000EA94F801C1F70894C11CD11CFA94CF0C13
:107F7000D11C0EC0853739F428D08EE10CD085E9AC
:107F80000AD08FE07ACF813511F488E018D01DD067
:107F900080E101D065CF982F8091C00085FFFCCF94
:107FA0009093C60008958091C00087FFFCCF809118
:107FB000C00084FD01C0A8958091C6000895E0E648
:107FC000F0E098E1908380830895EDDF803219F02E
:107FD00088E0F5DFFFCF84E1DECF1F93182FE3DFCA
:107FE0001150E9F7F2DF1F91089580E0E8DFEE27F6
:047FF000FF270994CA
:027FFE00040479
:0400000300007E007B
:00000001FF
