:020000040000FA
:100000000C9462000C948A000C948A000C948A0070
:100010000C948A000C948A000C948A000C948A0038
:100020000C948A000C948A000C94160A0C9487088D
:100030000C948A000C948A000C948A000C948A0018
:100040000C943D080C948A000C940B080C94E50762
:100050000C948A000C948A000C948A000C948A00F8
:100060000C948A000C948A000000000024002700F1
:100070002A000000000023002600290000000008DC
:10008000000201000003040700000000000000005F
:1000900000000000250028002B00040404040404D0
:1000A0000404020202020202030303030303010227
:1000B00004081020408001020408102001020408F6
:1000C00010204C0A11241FBECFEFD8E0DEBFCDBFF9
:1000D00011E0A0E0B1E0E6EFFFE102C005900D9273
:1000E000A432B107D9F723E0A4E2B1E001C01D9228
:1000F000A334B207E1F710E0C2E6D0E004C02197D4
:10010000FE010E94D80FC136D107C9F70E94860AA6
:100110000C94F90F0C940000CF93DF93FC0129E1BC
:100120008EE241E050E033E071E0908190769036CD
:10013000D1F491819093FD01A091FD01A150109205
:10014000FC019FEF6091FC016A1790F4C091FC01E3
:10015000CE0FDF2FD11D688196276091FC016F5F64
:100160006093FC01EFCF9081929596709E5FE2CFF5
:10017000AE0FBF2FB11D9C93F8949091FB0191306D
:1001800059F49091FA01981738F01092FB01909170
:100190006F009D7F90936F0078949091FB01913058
:1001A00039F49091FA01943108F4BFCF70E0BDCFDB
:1001B0009091FB0191110EC0F89490916F009F7D7A
:1001C00090936F00B59B09C090916F0090629093DF
:1001D0006F0078947111A9CF51C0A091F801B0912E
:1001E000F9019C916091F701EA0102C0CC0FDD1F7B
:1001F0006A95E2F79C2B9C93609184007091850036
:100200006A5A7C4F7093F6016093F5016091F50195
:100210007091F60170938900609388007894F09350
:10022000F401E093F3011092FC011092F20190812D
:100230009093F1013093FB011092FA01B19A9091E1
:100240006F00926090936F009091FB019330E1F307
:100250009091F201992381F0E091EF01F091F0018A
:10026000E757FF4F8081918101969183808383E0DE
:1002700090E0DF91CF9108959091FB018B3108F0D0
:100280008150215009F050CF8091890290918A02CB
:10029000019690938A028093890286E090E0E9CFEC
:1002A0009C01109232031092330384369105B0F012
:1002B00064E670E00E94A20F6093320380913203E3
:1002C000A90164E6869F401951091124CA016AE018
:1002D00070E00E94A20F6093330302C00A9770F788
:1002E0008091320394E6899F201911248091330371
:1002F0004AE0849F20191124209334030895EF923B
:100300000F931F93CF93DF93FC0185EE80838FE0E3
:10031000818385E08283613041F589E483838BE4C6
:1003200084838FE1858316825087478332872187B4
:1003300014870387E586DF011796AF01425F5F4FA1
:1003400091E08D9187FF07C02681292B2683ED013F
:1003500021978F778883990FA417B50791F7DF91BD
:10036000CF911F910F91EF90089563831482D9CF9D
:10037000AF92BF92CF92DF92EF92FF920F931F93B3
:10038000CF93DF936C017B018B01040F151FEB01F1
:100390005E01AE18BF08C017D10759F06991D601A8
:1003A000ED91FC910190F081E02DC6010995892B1A
:1003B00079F7C501DF91CF911F910F91FF90EF90D9
:1003C000DF90CF90BF90AF900895FC01538D448D86
:1003D000252F30E0842F90E0821B930B541710F0F0
:1003E000CF96089501970895FC01918D828D9817FD
:1003F00061F0A28DAE0FBF2FB11D5D968C91928DD5
:100400009F5F9F73928F90E008958FEF9FEF089505
:10041000FC01918D828D981731F0828DE80FF11DCE
:10042000858D90E008958FEF9FEF0895FC01918DE9
:10043000228D892F90E0805C9F4F821B91098F73E2
:10044000992708958DE892E00E94160221E0892BF9
:1004500009F420E0822F089580E090E0892B29F0B4
:100460000E94220281110C9400000895FC01A48DC9
:10047000A80FB92FB11DA35ABF4F2C91848D90E0C6
:1004800001968F739927848FA689B7892C93A089A9
:10049000B1898C91837080648C93938D848D981333
:1004A00006C00288F389E02D80818F7D80830895C6
:1004B000EF92FF920F931F93CF93DF93EC0181E0B4
:1004C000888F9B8D8C8D98131AC0E889F98980815B
:1004D00085FF15C09FB7F894EE89FF896083E8898E
:1004E000F98980818370806480839FBF81E090E080
:1004F000DF91CF911F910F91FF90EF900895F62E0D
:100500000B8D10E00F5F1F4F0F731127E02E8C8DA6
:100510008E110CC00FB607FCFACFE889F9898081EB
:1005200085FFF5CFCE010E943602F1CFEB8DEC0FA7
:10053000FD2FF11DE35AFF4FF0829FB7F8940B8F08
:10054000EA89FB8980818062CFCFCF93DF93EC0172
:10055000888D8823B9F0AA89BB89E889F9898C91AB
:1005600085FD03C0808186FD0DC00FB607FCF7CF67
:100570008C9185FFF2CF808185FFEDCFCE010E9467
:100580003602E9CFDF91CF910895833081F028F4CE
:10059000813099F08230A9F008958730A9F0883031
:1005A000C9F08430B1F4809180008F7D03C08091C8
:1005B00080008F7780938000089584B58F7784BD05
:1005C000089584B58F7DFBCF8091B0008F778093A5
:1005D000B00008958091B0008F7DF9CFCF93DF9365
:1005E000282F30E0F901E458FF4F8491F901E255DA
:1005F000FF4FD491F901E656FF4FC491CC23A1F0EF
:1006000081110E94C502EC2FF0E0EE0FFF1FEE58A3
:10061000FF4FA591B491EC91ED2381E090E009F4B6
:1006200080E0DF91CF91089580E090E0FACF1F93B2
:10063000CF93DF93282F30E0F901E458FF4F8491E6
:10064000F901E255FF4FD491F901E656FF4FC491ED
:10065000CC23A9F0162F81110E94C502EC2FF0E0E7
:10066000EE0FFF1FE057FF4FA591B4918FB7F8949D
:10067000EC91111108C0D095DE23DC938FBFDF9180
:10068000CF911F910895DE2BF8CFCF93DF9390E0A9
:10069000FC01E255FF4F249186569F4FFC01849147
:1006A0008823D1F090E0880F991FFC01E859FF4F93
:1006B000A591B491FC01E057FF4FC591D4916230F0
:1006C00071F49FB7F8943C91822F809583238C938B
:1006D000E8812E2B28839FBFDF91CF9108958FB79C
:1006E000F894EC912E2B2C938FBFF6CF3FB7F89454
:1006F0008091BA019091BB01A091BC01B091BD0164
:1007000026B5A89B05C02F3F19F00196A11DB11D6C
:100710003FBFBA2FA92F982F8827BC01CD01620FA8
:10072000711D811D911D42E0660F771F881F991F63
:100730004A95D1F708958F929F92AF92BF92CF9230
:10074000DF92EF92FF926B017C010E9476034B01D6
:100750005C01C114D104E104F104B9F00E947603F4
:10076000681979098A099B09683E734081059105DA
:1007700080F321E0C21AD108E108F10888EE880E62
:1007800083E0981EA11CB11CE4CFFF90EF90DF9096
:10079000CF90BF90AF909F908F9008959C01DC0107
:1007A000A058BF4FEC9191E09E0F9C93E20FF32F66
:1007B000F11D608397FD1C9208952F923F924F92F6
:1007C0005F926F927F928F929F92AF92BF92CF92E1
:1007D000DF92EF92FF920F931F93CF93DF93CDB7EA
:1007E000DEB728970FB6F894DEBF0FBECDBF98874F
:1007F0008F83512C412C7C0121E8E20EF11C3C013D
:1008000030E8630E711C8C010E571F4F8D579F4FA0
:100810009C838B834F8158854C575F4F6A012224FC
:100820002A948F81988589579F4F9A838983EF8176
:10083000F885EB57FF4FFE83ED83F7018081F301CD
:100840009081891709F4DEC0F1E84F16510409F4CC
:10085000D9C0EF81F885E80FF11D308037FE85C0E3
:10086000F8019081891741F0E981FA812081318175
:100870002F5F3F4F31832083F8018083EB81FC8120
:100880002082832D8076F601803609F444C0832DC2
:10089000829586708E5F8083F801808190E0F601FA
:1008A0002081280F392F311D21383105ACF120E886
:1008B000822E912C881A990AF894F3014081F8014C
:1008C0008081841708F057C0F42FF81B8F2FF30195
:1008D00080837894F8018081481708F04FC050E079
:1008E0006F817885CB01880D991D0E94DE0FF8017C
:1008F00060812F813885260F311DB901A4018F81B8
:1009000098850E94DE0FF7018081F8019081891B94
:10091000F7018083F8011082F70120812F5F208387
:10092000F8018081422F50E090E0481B590B052EC2
:10093000000C660B770B27FF02C0F7011082EB81DA
:10094000FC812081F6013081832E912CB12CA12CC9
:1009500084169506A606B706F1F03226EB81FC81D7
:100960003082FFEF4F1A5F0A68CFF6018081811154
:10097000D3CF308291CF842F880DA9CF50E070E083
:1009800060E0481B510961097109EF81F885E80FA2
:10099000F11DBF01B4CF32122BC04F815885840F97
:1009A000951FED81FE81408151814F5F5F4F5183E3
:1009B0004083F7013081F8013083009771F2289667
:1009C0000FB6F894DEBF0FBECDBFDF91CF911F9160
:1009D0000F91FF90EF90DF90CF90BF90AF909F90DE
:1009E0008F907F906F905F904F903F902F900895E1
:1009F000E981FA818081918101969183808390E0E1
:100A000080E0D7CF90E080E0DACF1F93CF93DF93E1
:100A100001979C0135952795122F1F77C92F6623C3
:100A200079F1C06180FF2EC0C062DDE4D127DC27F0
:100A300062EB85E291E00E94CE03612F85E291E0B6
:100A40000E94CE036C2F85E291E00E94CE036D2FB1
:100A500085E291E00E94CE036FEF85E291E00E9473
:100A6000CE0385E291E00E94DD039093ED01809337
:100A7000EC01009749F0DF91CF911F910C948C000D
:100A8000CF7ED0CFCF7DD1CFDF91CF911F91089571
:100A90001F93CF93DF93EC01CC0FDD1FCE010E949B
:100AA0008C0F182FCE0101960E948C0F982F812F4A
:100AB000DF91CF911F910895CF93DF93409124014F
:100AC000442389F08E3B984171F481E06A307105CE
:100AD00038F4E901CB010E944805998388838FE7A8
:100AE000DF91CF9108958FEFFBCFCF93DF932091CC
:100AF0002401222369F08E3B984151F4EB0190E0F0
:100B000080E00E9448058C179D0711F41092240183
:100B1000DF91CF9108950F931F93CF93DF93FC0143
:100B2000808191818E3B9841C9F4EB010881198144
:100B300090E080E00E9448050817190749F481E019
:100B4000809324018FE7DF91CF911F910F9108953A
:100B50000F3F1F4F19F499838883F4CF8FEFF3CFA2
:100B60000F931F93CF93DF938B01EC01CC0FDD1F0D
:100B7000CE010E948C0F081721F0602FCE010E9439
:100B8000940F2196CE010E948C0F181741F0612F0F
:100B9000CE01DF91CF911F910F910C94940FDF91B3
:100BA000CF911F910F910895683E23E0720710F0D6
:100BB00067EE73E00C94B005CF93DF93EC010E94D5
:100BC0004805883E934028F067EE73E0CE010E940E
:100BD000B005CE01DF91CF910C9448054F925F9202
:100BE0006F927F92AF92BF92CF92DF92EF92FF927D
:100BF0000F931F93CF93DF93CDB7DEB7A9970FB6AF
:100C0000F894DEBF0FBECDBF80913903882321F059
:100C10001092390310923A0380912A0390912B038A
:100C2000DC01ED91FC910084F185E02D0995089798
:100C30000CF4DDC08E010E5D1F4F2BE3E22E23E08E
:100C4000F22E5E01BAE2AB0EB11C670180912A035D
:100C500090912B03DC01ED91FC910284F385E02D52
:100C600009958053F80181938F01D6011D926D0182
:100C7000AE16BF0659F78AA14AE09BA1849F900D4A
:100C800011248CA154E62DA1249F90011124859F4D
:100C9000200D311D11248EA1280F311D8FA168A5B3
:100CA000649FB0011124859F600D711D112489A5D9
:100CB000680F711D283EB3E03B0724F4683EE3E073
:100CC0007E071CF081E080933A0389E080933B0328
:100CD00048E040933C0340913A03411180933C0328
:100CE00081E08093EE01923208F003C1E92FF0E039
:100CF000E458F94F0C94D80F9E06AF06B206790758
:100D0000790779077907790779077907B5060C0715
:100D100079077907790779077907790779077907D3
:100D20001707170779077907790779077907790787
:100D30007907790722072F076F07740785E090E08E
:100D40000E945001809132038093400380913303CD
:100D500080934103809134038093420309C08BE068
:100D600090E0EECF89E190E0EBCFC9010E94D4057D
:100D700083E4A82E83E0B82E9AE0492E512C612CF2
:100D8000712CC0902A03D0902B03F70121917F0191
:100D900030E050E040E019A28E010F5D1F4FCA0104
:100DA000B901A30192010E94B60F605DD8016E9354
:100DB0008D01211531054105510589F7109789F0FD
:100DC000FD0101900020E9F73197AF014A1B5B0B51
:100DD000D601ED91FC910280F381E02DB801C601AE
:100DE0000995AE14BF0469F681E080933903A99692
:100DF0000FB6F894DEBF0FBECDBFDF91CF911F912C
:100E00000F91FF90EF90DF90CF90BF90AF907F90C9
:100E10006F905F904F900895C9010E94DC05883E55
:100E2000F3E09F0708F48CCF87EE93E089CF40E092
:100E300050E0452B09F49CCF6CEE690F822F0E9485
:100E4000000096CF80912C0390912D039093360350
:100E500080933503109238031092370371CF80913D
:100E600037039091380320E030E0232B11F00E94EB
:100E700000008C01883E934010F007EE13E0C8019B
:100E80000E9450018091320380933D03809133038F
:100E900080933E038091340380933F03C8010E94F6
:100EA000DC05883EA3E09A0710F087EE93E00E94ED
:100EB00050018091320380934003809133038093EB
:100EC00041038091340380934203809137039091D2
:100ED00038030196909338038093370349CF80916C
:100EE0002E0390912F03B2CF809130039091310364
:100EF000ADCF89E080933C033BCF9B0160912401FF
:100F0000662361F08E3B984149F42A30310540F464
:100F1000BA01C9010E94B0058FE708958FEF0895C7
:100F200081E00895CF93DF93EC018091EA01813055
:100F300091F4BE0190E080E00E94B005EEEBF1E09C
:100F400090E080E09E01280F391F21933193019694
:100F500088309105B9F78091EA01823051F4CE01D1
:100F60000297863E934028F4BE0181E090E00E9403
:100F7000B0058091EA01833051F4CE010297863E9C
:100F8000934028F4BE0182E090E00E94B005809179
:100F9000EA018823B9F08F5F843088F48093EA01F6
:100FA0008091EE0181110EC061E00E94170364EF91
:100FB00071E080E090E0DF91CF910C949B03109260
:100FC000EA01EECFDF91CF9108951F920F920FB6F5
:100FD0000F9211242F933F934F935F936F937F93BF
:100FE0008F939F93AF93BF93EF93FF938DE892E01E
:100FF0000E943602FF91EF91BF91AF919F918F9127
:101000007F916F915F914F913F912F910F900FBE04
:101010000F901F9018951F920F920FB60F921124E8
:101020002F938F939F93EF93FF93E0919D02F09105
:101030009E028081E091A302F091A40282FD1BC078
:1010400090818091A6028F5F8F732091A7028217F3
:1010500041F0E091A602F0E0E357FD4F958F8093B9
:10106000A602FF91EF919F918F912F910F900FBE4C
:101070000F901F9018958081F4CF1F920F920FB69A
:101080000F9211242F933F938F939F93AF93BF930E
:101090008091B6019091B701A091B801B091B901CA
:1010A0003091B50123E0230F2D3758F50196A11D8E
:1010B000B11D2093B5018093B6019093B701A09321
:1010C000B801B093B9018091BA019091BB01A09190
:1010D000BC01B091BD010196A11DB11D8093BA0163
:1010E0009093BB01A093BC01B093BD01BF91AF91A0
:1010F0009F918F913F912F910F900FBE0F901F9056
:10110000189526E8230F0296A11DB11DD2CF1F927C
:101110000F920FB60F921124CF92DF92EF92FF92AF
:101120000F931F932F933F934F935F936F937F93EF
:101130008F939F93AF93BF93CF93EF93FF93B19A06
:101140008091F5019091F60180549C4F9093F601A7
:101150008093F5018091F5019091F60190938900BB
:10116000809388008091B401882371F01092B401BB
:10117000189B26C081E08093FB01B59A80916F0097
:10118000806280936F001CC08091FA018F5F809312
:10119000FA018091FB01843009F043C08091FA018B
:1011A000893030F58091F10190E095958795809395
:1011B000F101189B05C08091F10180688093F101D5
:1011C000FF91EF91CF91BF91AF919F918F917F91BF
:1011D0006F915F914F913F912F911F910F91FF90D0
:1011E000EF90DF90CF900F900FBE0F901F9018954B
:1011F000B59A80916F00806280936F008091EF01BB
:101200009091F001189929C0FC01E957FF4F8081A6
:1012100091810196918380831092FA0181E08093FD
:10122000FB018091FB018330E9F5E091F801F09139
:10123000F90180812091F70133B190E0022E02C0C4
:10124000959587950A94E2F7832780FD11C0109247
:10125000FA0182E08093FB0125C06091F1010E94B8
:10126000CE0380E090E0892BB9F20E940000D4CF39
:101270008091FA01893008F043C03091F10181E09A
:1012800090E001C0880F2A95EAF7908130FF36C0C0
:101290008095892380838091F10190E095958795D1
:1012A0008093F1018091FB01823099F48091FA01E1
:1012B000811196C0E091F801F091F901808190913F
:1012C000F70121E030E001C0220F9A95EAF7822B66
:1012D00080838091FB01813009F072CF8091FA0107
:1012E000882309F44ACF8091FA01883308F468CF43
:1012F0001092FB0180916F008D7F43CF892BCACF65
:101300008091FA01893059F4308181E090E001C088
:10131000880F2A95EAF7809583238083C3CF809135
:10132000FC018F5F8093FC019091FD01891750F5BE
:101330001092FA018091F3019091F401A091FC01C7
:10134000A80FB92FB11D8C918093F101808141E0EC
:1013500050E001C0440F2A95EAF7842B80838091E6
:101360008400909185008A5A9C4F9093F601809357
:10137000F5018091F5019091F60190938900809399
:10138000880090CF81E08093F201E090F301F0902B
:10139000F401C090EF01D090F001F70180818076D8
:1013A000803679F4C18110E000E00C1778F4F70181
:1013B000E00FF11F6081C6010E94CE030F5F1F4F37
:1013C000F4CFC081C295C670CE5FEDCF80E090E0D3
:1013D000892B11F00E9400001092FA0181E03ACFAF
:1013E0008091FA018F3008F474CFE091F801F09108
:1013F000F90120813091F70181E090E001C0880F70
:101400003A95EAF78095822380831092FA0181E071
:101410008093FB01E091EF01F091F001E357FF4F62
:101420008081918101969183808353CF1F920F9287
:101430000FB60F9211248F939F93EF93FF93B59A5A
:10144000EFE6F0E080818F7D80838091860090912F
:10145000870080529E4F9093F6018093F501809112
:10146000F5019091F6019093890080938800B19ADC
:1014700080818260808384E08093FB011092FA0176
:1014800081E08093B401FF91EF919F918F910F9034
:101490000FBE0F901F901895EDE8F2E013821282B4
:1014A00088EE93E0A0E0B0E084839583A683B783C1
:1014B00086E191E09183808385EC90E09587848735
:1014C00084EC90E09787868780EC90E0918B808B0E
:1014D00081EC90E0938B828B82EC90E0958B848BF7
:1014E00086EC90E0978B868B118E128E138E148E65
:1014F000EAE2F3E081E08787108A8AE090E0938354
:10150000828315821482178216820895CF93DF9307
:10151000CDB7DEB762970FB6F894DEBF0FBECDBF72
:10152000789484B5826084BD84B5816084BD85B5BE
:10153000826085BD85B5816085BD80916E008160CA
:1015400080936E0010928100809181008260809370
:101550008100809181008160809381008091800072
:101560008160809380008091B10084608093B1009D
:101570008091B00081608093B00080917A00846097
:1015800080937A0080917A00826080937A008091C3
:101590007A00816080937A0080917A0080688093DD
:1015A0007A001092C100E0919D02F0919E0282E0CB
:1015B0008083E0919902F0919A021082E0919B025F
:1015C000F0919C028FEC80831092A502E091A10221
:1015D000F091A20286E08083E0919F02F091A00248
:1015E000808180618083E0919F02F091A0028081E0
:1015F00088608083E0919F02F091A00280818068E2
:101600008083E0919F02F091A00280818F7D808392
:101610008DE892E090932B0380932A0342E0442EBE
:1016200041E0542E32016CE271E080E090E00E94D3
:101630009B03D3011D913D0161E0812F0E94450371
:1016400060E0812F0E9417030E94EE05BAE06B163E
:10165000B1E07B0641F764E670E080E090E00E9434
:101660009B038091EE01811134C010922B031092E4
:101670002A038DE892E00E94A502E0919F02F0917A
:10168000A00280818F7E8083E0919F02F091A00272
:101690008081877F8083E0919F02F091A00280810A
:1016A0008F778083E0919F02F091A00280818F7DEF
:1016B00080838091A7028093A60262E081E00E946D
:1016C000450361E080E00E94450360E080E00E9405
:1016D0001703EEEFF1E08FE8DF011D928A95E9F73D
:1016E00061E087E00E944503E5EBF0E02491E1EA48
:1016F000F0E0E491F0E0EE0FFF1FE057FF4F45915F
:10170000549180E091E031E0291741F08F5F932FF1
:10171000082E01C0990F0A94EAF7F6CF5093F90109
:101720004093F8018093F7018EEF91E09093F001E0
:101730008093EF012098E091F801F091F901208168
:101740003091F70181E090E001C0880F3A95EAF707
:101750008095822380831092800081E080938100B5
:101760001092FB01B59A80916F00806280936F00A8
:1017700080918100887F81608093810090E080E08B
:101780000E9448058C01893F9F4030F489E090E039
:101790000E944805892BD1F467EE73E089E090E060
:1017A0000E94B00561E070E090E080E00E94B0052A
:1017B00064E670E081E090E00E94B00568EC70E0C3
:1017C00082E090E00E94B00501E010E081E090E04E
:1017D0000E94480581369A4E30F064E670E081E060
:1017E00090E00E94B00582E090E00E9448058136BA
:1017F0009A4E30F068EC70E082E090E00E94B00514
:101800008AE0809FB001819F700D112490E080E0FC
:101810000E949B03AEEBCA2EA1E0DA2EBEECAB2EEB
:10182000B1E0BB2E8EED882E81E0982E9AE0E92E55
:1018300091E0F92ED6010D931D936D01F5011192E2
:1018400011925F01D4011D924D0162E0F701819177
:101850007F010E9445030115110521F060E0C801D8
:101860000E94050561E0D2018D912D010E941703B0
:1018700064E670E080E090E00E949B030F5F1F4FE2
:1018800064147504B9F6AA24A394B12C4424439497
:1018900077247394E0E08E2EE0E09E2E8091EE019E
:1018A00081110E94EE058EEF91E00E94DD036C0134
:1018B0009093ED018093EC01009709F411C1FC01B4
:1018C0004181242F30E06281062F10E0362E3694BD
:1018D000262E279422242794F101E078F770E42B38
:1018E000F32BDC019C91923B09F4E9C03196913BCA
:1018F00009F4A1C108F07CC0933809F496C108F03E
:101900006BC0923809F494C1953E19F09D3E09F0E0
:10191000E7C04F3009F0E4C0D60113968C911397BD
:10192000853009F0DDC014968C9114978111D8C0D0
:1019300016964C91F601C601079621E0342F32230A
:1019400019F0378130683783220F31968E179F0741
:10195000A9F7F60116822581203209F47EC22132D0
:1019600009F0BEC00780F085E02DEF3FFE0709F0CB
:101970001BC2D60119962D913C911A97232B09F081
:1019800013C21B962D913C912F3F3F4F09F00CC283
:10199000E0E0F0E0EF2B09F4A3C0B601655F7F4FF4
:1019A0000E9400008F3709F09BC0D6011B960D9155
:1019B0001C911C9717964D915C911897E12C30E083
:1019C00020E012966C91CE0101960E947F01CE011B
:1019D00001960E948C0084C0963A09F4B6C1903BEF
:1019E00009F092CF64FF7CC0CF010E94920778C0BB
:1019F0009D3B09F475C090F4943B09F4C9C19C3B2C
:101A000009F082CF80E090E0892B09F469C0462F6D
:101A100040726071CF010E94000062C0903D09F4E5
:101A200024C1963E09F070CF8114910409F458C086
:101A3000F6012481838190E02D3731F0F0E82F9F6B
:101A400090011124822B932BD60116962C91169778
:101A500015964C9150E02D3731F0B0E82B9F900156
:101A60001124422B532BD6011896EC9118971796F8
:101A70002C9130E0ED3731F0B0E8EB9FF00111240C
:101A80002E2B3F2BD6011A96EC911A9719960C9192
:101A900010E0ED3731F0B0E8EB9FF00111240E2B90
:101AA0001F2B62FD66C14150510961FD67C1215084
:101AB000310960FD68C101501109607354C182E0B1
:101AC00090E065FD02C081E090E020E030E0232B53
:101AD00039F0EE0FFF1F60718E0F9F1F0E940000F4
:101AE0006090EE01611033C08091EB01811107C05D
:101AF00081E00E94EE02892B81F47092EB0181E07B
:101B00000E94EE02019749F41092EB018091EA01E4
:101B1000882309F4AFC11092EA018091E601909107
:101B2000E701A091E801B091E9010196A11DB11D65
:101B30008938F3E19F07A105B1050CF09EC18093A0
:101B4000E6019093E701A093E801B093E901809149
:101B50000101882309F45CC0809100018F5F883007
:101B60000CF0A2C18093000100910001002E000C36
:101B7000110B980122523E4F3A8B298BD9015C9070
:101B8000F801E65FFE4F80810E94EE026801CC0CF6
:101B9000DD1CF601E253FE4FE080F1805816190675
:101BA00009F4B0C1BFEFEB1AFB0AF182E0825520C5
:101BB00009F47DC181E090E00E9448052AE0FC0123
:101BC0002E9FC0012F9F900D1124E816F90600F1F9
:101BD000F601E254FE4F80819181181619061CF41B
:101BE00061E00E940505611004C061E080E00E9490
:101BF0001703F801EE5FFE4F60E080810E9417033B
:101C0000A989BA891C92F601E253FE4F1182108213
:101C100080E090E0892B09F441CE0E9422028823C3
:101C200009F434CE0E94000031CE7092010158CFE9
:101C30001092010155CF66FF0CC040E050E0452BEB
:101C400009F44ECF462F40726071CF010E94000010
:101C500047CF80E090E0892B09F442CF462F4071B6
:101C60006072CF010E9400003BCF4076403221F0ED
:101C70004036E1F1411134CF40E050E0452B09F40A
:101C80002FCFC9019695982F8827979587958078AB
:101C90009F70800F911F55E0359527955A95E1F774
:101CA00021700196D60113963C91139714964C918E
:101CB000E42FF0E0AF013D3731F0B0E83B9FA001E9
:101CC00011244E0F5F1F6F7081F1623081F164301B
:101CD00081F1663081F1683081F16A3081F16C30D8
:101CE00081F16E3081F10E940000FACEA0E0B0E0F8
:101CF000AB2B09F4F5CEF601F3808F2D807D80317A
:101D000009F0EECEE48001E011E041E08F2D802368
:101D100009F040E02E2D2023000F612F80E80E9463
:101D200000001F5F153089F7DBCE61E4DCCF62E491
:101D3000DACF63E4D8CF64E4D6CF65E4D4CF66E4E9
:101D4000D2CF67E4D0CF68E4CECF8114910409F4F8
:101D5000C7CEC9016D3751F410E000E030E020E05B
:101D600050E040E060E30E940000BACE822993294F
:101D7000F3CFF501E41BF50BAF0197CED501A21B04
:101D8000B30B9D0196CEF501E01BF10B8F0195CEB3
:101D90004C3309F0A5CE20E030E0232B09F4A0CE8F
:101DA0008CE30E9400009CCED6011D962C911D97BD
:101DB000211123C01B964D915C911C9719966D9132
:101DC0007C919601255F3F4FCF010E945C058F37C4
:101DD00051F4F601038514852185328547815085AC
:101DE000E12C6281F0CD87FD7BCED6019C919F775F
:101DF00024EB29839A838B83EACD27FF21C026FD1C
:101E000024C0B601655F7F4F0E948B058F37C1F4F8
:101E1000F601038514854781508530E8E32E30E0D4
:101E200020E06281CE0101960E947F016AE070E0AD
:101E300080E090E00E949B03CE0101960E948C00FE
:101E4000D6011D968C9186FF4BCEF6016385748575
:101E5000878190850E94750543CE438554856185B1
:101E60007285878190850E947D0787FD39CEF601B6
:101E70009081BDCF7092EA0150CE1092E60110928F
:101E8000E7011092E8011092E9018091EA018823AC
:101E900031F080E00E94EE0261E0892B09F060E001
:101EA00080E00E94170353CE109200015DCE82E0C5
:101EB00090E00E9448052AE0FC012E9FC0012F9F60
:101EC000900D1124E816F90608F4A2CEF601E254AA
:101ED000FE4F80819181181619061CF460E00E9463
:101EE0000505611004C061E080E00E941703F8015D
:101EF000EE5FFE4F61E080810E941703A989BA89D5
:101F00004C9281CEE114F10409F482CEB1E0EB1AD7
:101F1000F108F182E0827CCEF999FECF92BD81BDBD
:101F2000F89A992780B50895262FF999FECF1FBA00
:101F300092BD81BD20BD0FB6F894FA9AF99A0FBEF2
:101F400001960895AA1BBB1B51E107C0AA1FBB1F26
:101F5000A617B70710F0A61BB70B881F991F5A9535
:101F6000A9F780959095BC01CD010895A1E21A2EA4
:101F7000AA1BBB1BFD010DC0AA1FBB1FEE1FFF1F2D
:101F8000A217B307E407F50720F0A21BB30BE40B7D
:101F9000F50B661F771F881F991F1A9469F76095C4
:101FA0007095809590959B01AC01BD01CF0108957E
:101FB000EE0FFF1F0590F491E02D09946817790743
:101FC00068F4FB01DC01E40FF51FA40FB51F02C08C
:101FD00002900E9241505040D8F708950C94F00FA3
:101FE000FB01DC0102C001900D9241505040D8F736
:101FF0000895F894FFCFFF01131211100F0E0D0C6E
:102000000203040506090A0B000000005802B8018B
:0A201000E501A5021602F401080222
:107E0000112484B714BE81FFF0D085E080938100F7
:107E100082E08093C00088E18093C10086E0809377
:107E2000C20080E18093C4008EE0C9D0259A86E02C
:107E300020E33CEF91E0309385002093840096BBD3
:107E4000B09BFECF1D9AA8958150A9F7CC24DD24C4
:107E500088248394B5E0AB2EA1E19A2EF3E0BF2EE7
:107E6000A2D0813461F49FD0082FAFD0023811F036
:107E7000013811F484E001C083E08DD089C08234E0
:107E800011F484E103C0853419F485E0A6D080C0E4
:107E9000853579F488D0E82EFF2485D0082F10E0AE
:107EA000102F00270E291F29000F111F8ED06801E7
:107EB0006FC0863521F484E090D080E0DECF843638
:107EC00009F040C070D06FD0082F6DD080E0C81688
:107ED00080E7D80618F4F601B7BEE895C0E0D1E017
:107EE00062D089930C17E1F7F0E0CF16F0E7DF06D8
:107EF00018F0F601B7BEE89568D007B600FCFDCFD4
:107F0000A601A0E0B1E02C9130E011968C91119780
:107F100090E0982F8827822B932B1296FA010C0160
:107F200087BEE89511244E5F5F4FF1E0A038BF0790
:107F300051F7F601A7BEE89507B600FCFDCF97BE46
:107F4000E89526C08437B1F42ED02DD0F82E2BD052
:107F50003CD0F601EF2C8F010F5F1F4F84911BD097
:107F6000EA94F801C1F70894C11CD11CFA94CF0C13
:107F7000D11C0EC0853739F428D08EE10CD085E9AC
:107F80000AD08FE07ACF813511F488E018D01DD067
:107F900080E101D065CF982F8091C00085FFFCCF94
:107FA0009093C60008958091C00087FFFCCF809118
:107FB000C00084FD01C0A8958091C6000895E0E648
:107FC000F0E098E1908380830895EDDF803219F02E
:107FD00088E0F5DFFFCF84E1DECF1F93182FE3DFCA
:107FE0001150E9F7F2DF1F91089580E0E8DFEE27F6
:047FF000FF270994CA
:027FFE00040479
:00000001FF
