:020000040000FA
:100000000C9462000C948A000C948A000C948A0070
:100010000C948A000C948A000C948A000C948A0038
:100020000C948A000C948A000C944C0A0C94BD0821
:100030000C948A000C948A000C948A000C948A0018
:100040000C9473080C948A000C9441080C941B08BF
:100050000C948A000C948A000C948A000C948A00F8
:100060000C948A000C948A000000000024002700F1
:100070002A000000000023002600290000000008DC
:10008000000201000003040700000000000000005F
:1000900000000000250028002B00040404040404D0
:1000A0000404020202020202030303030303010227
:1000B00004081020408001020408102001020408F6
:1000C0001020820A11241FBECFEFD8E0DEBFCDBFC3
:1000D00011E0A0E0B1E0E8E4FCE202C005900D927E
:1000E000AE31B107D9F723E0AEE1B1E001C01D9216
:1000F000AB39B207E1F710E0C2E6D0E004C02197C7
:10010000FE010E940116C136D107C9F70E94BC0A40
:100110000C9422160C940000CF93DF93FC0129E18C
:100120008EE241E050E033E071E0908190769036CD
:10013000D1F4918190935502A0915502A150109253
:1001400054029FEF609154026A1790F4C0915402D8
:10015000CE0FDF2FD11D68819627609154026F5F0B
:1001600060935402EFCF9081929596709E5FE2CF9C
:10017000AE0FBF2FB11D9C93F89490915302913014
:1001800059F490915202981738F0109253029091BE
:100190006F009D7F90936F007894909153029130FF
:1001A00039F490915202943108F4BFCF70E0BDCF82
:1001B0009091530291110EC0F89490916F009F7D21
:1001C00090936F00B59B09C090916F0090629093DF
:1001D0006F0078947111A9CF51C0A0915002B091D5
:1001E00051029C9160914F02EA0102C0CC0FDD1FC9
:1001F0006A95E2F79C2B9C93609184007091850036
:100200006A5A7C4F70934E0260934D0260914D028A
:1002100070914E0270938900609388007894F093F7
:100220004C02E0934B021092540210924A029081C9
:10023000909349023093530210925202B19A9091D6
:100240006F00926090936F00909153029330E1F3AE
:1002500090914A02992381F0E0914702F09148027F
:10026000E757FF4F8081918101969183808383E0DE
:1002700090E0DF91CF910895909153028B3108F077
:100280008150215009F050CF8091E1029091E2021B
:1002900001969093E2028093E10286E090E0E9CF3C
:1002A0009C0110928A0310928B0384369105B0F062
:1002B00064E670E00E94CB1560938A0380918A0304
:1002C000A90164E6869F401951091124CA016AE018
:1002D00070E00E94CB1560938B0302C00A9770F701
:1002E00080918A0394E6899F2019112480918B03C1
:1002F0004AE0849F2019112420938C030895CF9302
:10030000DF93CDB7DEB760970FB6F894DEBF0FBEB0
:10031000CDBF0197880F991F9C01220F232F221F09
:10032000330B31952F71611120628E776DE7403864
:10033000510538F0BA01660F672F661F770B71956C
:100340006F7790ED99832A838B836C834F774D83EE
:10035000CE0101960E948C0060960FB6F894DEBF25
:100360000FBECDBFDF91CF910895EF920F931F93F2
:10037000CF93DF93FC0185EE80838FE0818385E05E
:100380008283613041F589E483838BE484838FE148
:100390008583168250874783328721871487038796
:1003A000E586DF011796AF01425F5F4F91E08D91C7
:1003B00087FF07C02681292B2683ED0121978F77A0
:1003C0008883990FA417B50791F7DF91CF911F91FB
:1003D0000F91EF90089563831482D9CFAF92BF92AB
:1003E000CF92DF92EF92FF920F931F93CF93DF9301
:1003F0006C017B018B01040F151FEB015E01AE1830
:10040000BF08C017D10759F06991D601ED91FC9151
:100410000190F081E02DC6010995892B79F7C5017E
:10042000DF91CF911F910F91FF90EF90DF90CF90D0
:10043000BF90AF900895FC01538D448D252F30E07F
:10044000842F90E0821B930B541710F0CF960895E1
:1004500001970895FC01918D828D981761F0A28D0E
:10046000AE0FBF2FB11D5D968C91928D9F5F9F73D4
:10047000928F90E008958FEF9FEF0895FC01918D8A
:10048000828D981731F0828DE80FF11D858D90E0F7
:1004900008958FEF9FEF0895FC01918D228D892F94
:1004A00090E0805C9F4F821B91098F73992708957C
:1004B00085EE92E00E944C0221E0892B09F420E0B5
:1004C000822F089580E090E0892B29F00E94580245
:1004D00081110C9400000895FC01A48DA80FB92F80
:1004E000B11DA35ABF4F2C91848D90E001968F735C
:1004F0009927848FA689B7892C93A089B1898C917B
:10050000837080648C93938D848D981306C00288C9
:10051000F389E02D80818F7D80830895EF92FF9293
:100520000F931F93CF93DF93EC0181E0888F9B8D16
:100530008C8D98131AC0E889F989808185FF15C0D0
:100540009FB7F894EE89FF896083E889F9898081F3
:100550008370806480839FBF81E090E0DF91CF91C2
:100560001F910F91FF90EF900895F62E0B8D10E0E4
:100570000F5F1F4F0F731127E02E8C8D8E110CC053
:100580000FB607FCFACFE889F989808185FFF5CF9E
:10059000CE010E946C02F1CFEB8DEC0FFD2FF11D0F
:1005A000E35AFF4FF0829FB7F8940B8FEA89FB89DB
:1005B00080818062CFCFCF93DF93EC01888D882339
:1005C000B9F0AA89BB89E889F9898C9185FD03C0B6
:1005D000808186FD0DC00FB607FCF7CF8C9185FF9B
:1005E000F2CF808185FFEDCFCE010E946C02E9CF72
:1005F000DF91CF910895833081F028F4813099F014
:100600008230A9F008958730A9F08830C9F084308D
:10061000B1F4809180008F7D03C0809180008F773E
:1006200080938000089584B58F7784BD089584B544
:100630008F7DFBCF8091B0008F778093B0000895BD
:100640008091B0008F7DF9CFCF93DF93282F30E0DA
:10065000F901E458FF4F8491F901E255FF4FD4911D
:10066000F901E656FF4FC491CC23A1F081110E94FD
:10067000FB02EC2FF0E0EE0FFF1FEE58FF4FA591AD
:10068000B491EC91ED2381E090E009F480E0DF91FA
:10069000CF91089580E090E0FACF1F93CF93DF933E
:1006A000282F30E0F901E458FF4F8491F901E25519
:1006B000FF4FD491F901E656FF4FC491CC23A9F026
:1006C000162F81110E94FB02EC2FF0E0EE0FFF1FAE
:1006D000E057FF4FA591B4918FB7F894EC911111A9
:1006E00008C0D095DE23DC938FBFDF91CF911F919F
:1006F0000895DE2BF8CFCF93DF9390E0FC01E25515
:10070000FF4F249186569F4FFC0184918823D1F09E
:1007100090E0880F991FFC01E859FF4FA591B49113
:10072000FC01E057FF4FC591D491623071F49FB73F
:10073000F8943C91822F809583238C93E8812E2B13
:1007400028839FBFDF91CF9108958FB7F894EC91E4
:100750002E2B2C938FBFF6CF3FB7F8948091B40126
:100760009091B501A091B601B091B70126B5A89BB3
:1007700005C02F3F19F00196A11DB11D3FBFBA2F33
:10078000A92F982F8827BC01CD01620F711D811DF3
:10079000911D42E0660F771F881F991F4A95D1F778
:1007A00008958F929F92AF92BF92CF92DF92EF9275
:1007B000FF926B017C010E94AC034B015C01C114F0
:1007C000D104E104F104B9F00E94AC03681979097D
:1007D0008A099B09683E73408105910580F321E0F9
:1007E000C21AD108E108F10888EE880E83E0981E4D
:1007F000A11CB11CE4CFFF90EF90DF90CF90BF9091
:10080000AF909F908F9008952FB7F8946091B001AA
:100810007091B1018091B2019091B3012FBF089501
:100820009C01DC01A058BF4FEC9191E09E0F9C937E
:10083000E20FF32FF11D608397FD1C9208952F9214
:100840003F924F925F926F927F928F929F92AF9260
:10085000BF92CF92DF92EF92FF920F931F93CF93AD
:10086000DF93CDB7DEB728970FB6F894DEBF0FBE83
:10087000CDBF98878F83512C412C7C0121E8E20E5B
:10088000F11C3C0130E8630E711C8C010E571F4FA8
:100890008D579F4F9C838B834F8158854C575F4F5B
:1008A0006A0122242A948F81988589579F4F9A83C1
:1008B0008983EF81F885EB57FF4FFE83ED83F701C6
:1008C0008081F3019081891709F4DEC0F1E84F16A9
:1008D000510409F4D9C0EF81F885E80FF11D30808B
:1008E00037FE85C0F8019081891741F0E981FA81CE
:1008F000208131812F5F3F4F31832083F801808336
:10090000EB81FC812082832D8076F601803609F40C
:1009100044C0832D829586708E5F8083F80180812C
:1009200090E0F6012081280F392F311D2138310543
:10093000ACF120E8822E912C881A990AF894F301E0
:100940004081F8018081841708F057C0F42FF81B0C
:100950008F2FF30180837894F8018081481708F085
:100960004FC050E06F817885CB01880D991D0E94A2
:100970000716F80160812F813885260F311DB901D6
:10098000A4018F8198850E940716F7018081F801E4
:100990009081891BF7018083F8011082F701208183
:1009A0002F5F2083F8018081422F50E090E0481BA8
:1009B000590B052E000C660B770B27FF02C0F701C1
:1009C0001082EB81FC812081F6013081832E912CF5
:1009D000B12CA12C84169506A606B706F1F0322696
:1009E000EB81FC813082FFEF4F1A5F0A68CFF6017E
:1009F00080818111D3CF308291CF842F880DA9CFF0
:100A000050E070E060E0481B510961097109EF8115
:100A1000F885E80FF11DBF01B4CF32122BC04F8112
:100A20005885840F951FED81FE81408151814F5F74
:100A30005F4F51834083F7013081F8013083009785
:100A400071F228960FB6F894DEBF0FBECDBFDF91CE
:100A5000CF911F910F91FF90EF90DF90CF90BF90BB
:100A6000AF909F908F907F906F905F904F903F904E
:100A70002F900895E981FA81808191810196918377
:100A8000808390E080E0D7CF90E080E0DACF1F93C2
:100A9000CF93DF9301979C0135952795122F1F77F0
:100AA000C92F662379F1C06180FF2EC0C062DDE4EA
:100AB000D127DC2762EB8FE191E00E941004612FC7
:100AC0008FE191E00E9410046C2F8FE191E00E9471
:100AD00010046D2F8FE191E00E9410046FEF8FE101
:100AE00091E00E9410048FE191E00E941F04909316
:100AF000440280934302009749F0DF91CF911F9108
:100B00000C948C00CF7ED0CFCF7DD1CFDF91CF9111
:100B10001F9108951F93CF93DF93EC01CC0FDD1F3E
:100B2000CE010E94B515182FCE0101960E94B51571
:100B3000982F812FDF91CF911F910895CF93DF934D
:100B400040911E01442389F0823F934071F481E07B
:100B50006A30710538F4E901CB010E948A05998356
:100B600088838FE7DF91CF9108958FEFFBCFCF93ED
:100B7000DF9320911E01222369F0823F934051F4BC
:100B8000EB0190E080E00E948A058C179D0711F42C
:100B900010921E01DF91CF9108950F931F93CF9371
:100BA000DF93FC0180819181823F9340C9F4EB0186
:100BB0000881198190E080E00E948A0508171907D2
:100BC00049F481E080931E018FE7DF91CF911F915F
:100BD0000F9108950F3F1F4F19F499838883F4CF25
:100BE0008FEFF3CF0F931F93CF93DF938B01EC0124
:100BF000CC0FDD1FCE010E94B515081721F0602F24
:100C0000CE010E94BD152196CE010E94B515181780
:100C100041F0612FCE01DF91CF911F910F910C9484
:100C2000BD15DF91CF911F910F910895683E23E08C
:100C3000720710F067EE73E00C94F205CF93DF9328
:100C4000EC010E948A05883E934028F067EE73E02D
:100C5000CE010E94F205CE01DF91CF910C948A055E
:100C60004F925F926F927F92AF92BF92CF92DF923C
:100C7000EF92FF920F931F93CF93DF93CDB7DEB721
:100C8000A9970FB6F894DEBF0FBECDBF8091910338
:100C9000882321F010929103109292038091820395
:100CA00090918303DC01ED91FC910084F185E02DAE
:100CB000099508970CF4DDC08E010E5D1F4F23E9E6
:100CC000E22E23E0F22E5E01BAE2AB0EB11C670108
:100CD0008091820390918303DC01ED91FC91028469
:100CE000F385E02D09958053F80181938F01D6019A
:100CF0001D926D01AE16BF0659F78AA14AE09BA16D
:100D0000849F900D11248CA154E62DA1249F900165
:100D10001124859F200D311D11248EA1280F311D16
:100D20008FA168A5649FB0011124859F600D711D7E
:100D3000112489A5680F711D283EB3E03B0724F4F8
:100D4000683EE3E07E071CF081E08093920389E037
:100D50008093930348E040939403409192034111A0
:100D60008093940381E080934602923208F003C19D
:100D7000E92FF0E0E254F94F0C940116E006F10679
:100D8000F406BB07BB07BB07BB07BB07BB07BB071B
:100D9000F7064E07BB07BB07BB07BB07BB07BB0775
:100DA000BB07BB0759075907BB07BB07BB07BB07F7
:100DB000BB07BB07BB07BB0764077107B107B607D3
:100DC00086E090E00E94500180918A03809398030E
:100DD00080918B038093990380918C0380939A0375
:100DE00009C084E190E0EECF87E190E0EBCFC9014C
:100DF0000E9416068BE9A82E83E0B82E9AE0492EB1
:100E0000512C612C712CC0908203D0908303F70188
:100E100021917F0130E050E040E019A28E010F5D8A
:100E20001F4FCA01B901A30192010E94DF15605D45
:100E3000D8016E938D01211531054105510589F7C2
:100E4000109789F0FD0101900020E9F73197AF017B
:100E50004A1B5B0BD601ED91FC910280F381E02DE2
:100E6000B801C6010995AE14BF0469F681E080930C
:100E70009103A9960FB6F894DEBF0FBECDBFDF91E8
:100E8000CF911F910F91FF90EF90DF90CF90BF9087
:100E9000AF907F906F905F904F900895C9010E942E
:100EA0001E06883EF3E09F0708F48CCF87EE93E0A0
:100EB00089CF40E050E0452B09F49CCF6CEE690FE0
:100EC000822F0E94000096CF809184039091850329
:100ED00090938E0380938D031092900310928F0352
:100EE00071CF80918F039091900320E030E0232B0D
:100EF00011F00E9400008C01883E934010F007EE34
:100F000013E0C8010E94500180918A0380939503E9
:100F100080918B038093960380918C038093970339
:100F2000C8010E941E06883EA3E09A0710F087EED3
:100F300093E00E94500180918A03809398038091EE
:100F40008B038093990380918C0380939A03809103
:100F50008F039091900301969093900380938F0359
:100F600049CF8091860390918703B2CF8091880307
:100F700090918903ADCF89E0809394033BCF9B018F
:100F800060911E01662361F0823F934049F42A304C
:100F9000310540F4BA01C9010E94F2058FE70895B6
:100FA0008FEF089581E00895CF93DF932091D101D1
:100FB0002223F1F1EC0161E08DE00E944D03D0931A
:100FC0000201C0930101BE0190E080E00E94F205A1
:100FD000D093E301C093E201CE0101969093E50125
:100FE0008093E40101969093E7018093E6012396B4
:100FF000D093E901C093E8011092D101C091410260
:10100000D0E00E940404CC0FDD1FCC0FDD1FC35DB8
:10101000DD4F688379838A839B83809146028111A7
:1010200004C060E08CE00E944D0381E080934502A3
:10103000DF91CF9108951F920F920FB60F92112456
:101040002F933F934F935F936F937F938F939F93D0
:10105000AF93BF93EF93FF9385EE92E00E946C02F3
:10106000FF91EF91BF91AF919F918F917F916F9180
:101070005F914F913F912F910F900FBE0F901F9056
:1010800018951F920F920FB60F9211242F938F93E2
:101090009F93EF93FF93E091F502F091F602808128
:1010A000E091FB02F091FC0282FD1BC090818091D7
:1010B000FE028F5F8F732091FF02821741F0E09153
:1010C000FE02F0E0EB51FD4F958F8093FE02FF9101
:1010D000EF919F918F912F910F900FBE0F901F90C6
:1010E00018958081F4CF1F920F920FB60F921124A2
:1010F0002F933F938F939F93AF93BF938091B001B2
:101100009091B101A091B201B091B3013091AF01C2
:1011100023E0230F2D3758F50196A11DB11D209313
:10112000AF018093B0019093B101A093B201B0934D
:10113000B3018091B4019091B501A091B601B09135
:10114000B7010196A11DB11D8093B4019093B50123
:10115000A093B601B093B701BF91AF919F918F91CA
:101160003F912F910F900FBE0F901F90189526E87A
:10117000230F0296A11DB11DD2CF1F920F920FB661
:101180000F921124CF92DF92EF92FF920F931F9351
:101190002F933F934F935F936F937F938F939F937F
:1011A000AF93BF93CF93EF93FF93B19A80914D028A
:1011B00090914E0280549C4F90934E0280934D022A
:1011C00080914D0290914E02909389008093880007
:1011D0008091AE01882371F01092AE01189B26C059
:1011E00081E080935302B59A80916F008062809372
:1011F0006F001CC0809152028F5F809352028091D9
:101200005302843009F043C080915202893030F596
:101210008091490290E09595879580934902189BAB
:1012200005C080914902806880934902FF91EF9147
:10123000CF91BF91AF919F918F917F916F915F916E
:101240004F913F912F911F910F91FF90EF90DF9061
:10125000CF900F900FBE0F901F901895B59A809168
:101260006F00806280936F008091470290914802E6
:10127000189929C0FC01E957FF4F8081918101969F
:10128000918380831092520281E080935302809177
:1012900053028330E9F5E0915002F09151028081D0
:1012A00020914F0233B190E0022E02C095958795B0
:1012B0000A94E2F7832780FD11C01092520282E067
:1012C0008093530225C0609149020E94100480E07F
:1012D00090E0892BB9F20E940000D4CF8091520295
:1012E000893008F043C03091490281E090E001C0AC
:1012F000880F2A95EAF7908130FF36C080958923C0
:1013000080838091490290E095958795809349026A
:1013100080915302823099F480915202811196C0DB
:10132000E0915002F0915102808190914F0221E0B2
:1013300030E001C0220F9A95EAF7822B80838091DA
:101340005302813009F072CF80915202882309F450
:101350004ACF80915202883308F468CF109253022A
:1013600080916F008D7F43CF892BCACF809152022D
:10137000893059F4308181E090E001C0880F2A95CE
:10138000EAF7809583238083C3CF809154028F5FD7
:101390008093540290915502891750F51092520291
:1013A00080914B0290914C02A0915402A80FB92F4A
:1013B000B11D8C9180934902808141E050E001C0D1
:1013C000440F2A95EAF7842B8083809184009091C2
:1013D00085008A5A9C4F90934E0280934D028091D3
:1013E0004D0290914E02909389008093880090CF97
:1013F00081E080934A02E0904B02F0904C02C09052
:101400004702D0904802F70180818076803679F4D7
:10141000C18110E000E00C1778F4F701E00FF11F34
:101420006081C6010E9410040F5F1F4FF4CFC0817E
:10143000C295C670CE5FEDCF80E090E0892B11F0B1
:101440000E9400001092520281E03ACF8091520235
:101450008F3008F474CFE0915002F0915102208156
:1014600030914F0281E090E001C0880F3A95EAF791
:101470008095822380831092520281E080935302F0
:10148000E0914702F0914802E357FF4F808191813C
:1014900001969183808353CF1F920F920FB60F92C4
:1014A00011248F939F93EF93FF93B59AEFE6F0E0AB
:1014B00080818F7D8083809186009091870080520B
:1014C0009E4F90934E0280934D0280914D029091D9
:1014D0004E029093890080938800B19A8081826047
:1014E000808384E0809353021092520281E08093C3
:1014F000AE01FF91EF919F918F910F900FBE0F90D2
:101500001F901895E5EEF2E01382128288EE93E0C8
:10151000A0E0B0E084839583A683B7838FE091E059
:101520009183808385EC90E09587848784EC90E0BC
:101530009787868780EC90E0918B808B81EC90E0A0
:10154000938B828B82EC90E0958B848B86EC90E081
:10155000978B868B118E128E138E148EE2E8F3E039
:1015600081E08787108A8AE090E0938382831582E6
:101570001482178216820895CF93DF93CDB7DEB71A
:1015800062970FB6F894DEBF0FBECDBF789484B5D6
:10159000826084BD84B5816084BD85B5826085BD6F
:1015A00085B5816085BD80916E00816080936E00FD
:1015B00010928100809181008260809381008091EF
:1015C00081008160809381008091800081608093A0
:1015D00080008091B10084608093B1008091B00060
:1015E00081608093B00080917A00846080937A005B
:1015F00080917A00826080937A0080917A00816085
:1016000080937A0080917A00806880937A001092AB
:10161000C10061E08CE00E947B0361E08CE00E94ED
:101620004D0362E08BE00E947B0361E08DE00E944D
:101630007B0361E08AE00E947B0361E089E00E9415
:101640007B0361E08DE00E944D0360E08AE00E9430
:101650004D0360E089E00E944D0364E670E080E0A5
:1016600090E00E94D103E091F502F091F60282E051
:101670008083E091F102F091F2021082E091F30296
:10168000F091F4028FEC80831092FD02E091F90258
:10169000F091FA0286E08083E091F702F091F8027F
:1016A000808180618083E091F702F091F80280816F
:1016B00088608083E091F702F091F8028081806871
:1016C0008083E091F702F091F80280818F7D808322
:1016D00085EE92E0909383038093820303E011E010
:1016E00064EF71E080E090E00E94D103D801FD90AA
:1016F0008D0161E08F2D0E947B0361E08F2D0E94A0
:101700004D030E94300664EF71E080E090E00E949B
:10171000D1030E943006B1E007301B0709F764E6E9
:1017200070E080E090E00E94D10380914602811138
:1017300063C0109283031092820385EE92E00E94B0
:10174000DB02E091F702F091F80280818F7E8083C6
:10175000E091F702F091F8028081877F8083E09129
:10176000F702F091F80280818F778083E091F70291
:10177000F091F80280818F7D80838091FF028093B9
:10178000FE0264E670E080E090E00E94D103E09108
:10179000F502F091F60282E08083E091F102F0918F
:1017A000F2021082E091F302F091F40287E080836C
:1017B0001092FD02E091F902F091FA0286E0808336
:1017C000E091F702F091F802808180618083E091DE
:1017D000F702F091F802808188608083E091F7023F
:1017E000F091F802808180688083E091F702F091A7
:1017F000F80280818F7D8083E6E5F2E08FE8DF01EB
:101800001D928A95E9F761E087E00E947B03E5EB92
:10181000F0E02491E1EAF0E0E491F0E0EE0FFF1F48
:10182000E057FF4F4591549180E091E031E0291756
:1018300041F08F5F932F082E01C0990F0A94EAF7A9
:10184000F6CF509351024093500280934F0286E5A9
:1018500092E090934802809347022098E0915002D2
:10186000F0915102208130914F0281E090E001C05F
:10187000880F3A95EAF78095822380831092800042
:1018800081E08093810010925302B59A80916F009D
:10189000806280936F0080918100887F8160809357
:1018A000810090E080E00E948A058C0181E090E058
:1018B0000E948A054AE0F42EFC01FE9EC001FF9EB4
:1018C000900D11249093C0018093BF0182E090E0BD
:1018D0000E948A059C01F29EC001F39E900D112486
:1018E0009093CE018093CD0183E090E00E948A0521
:1018F0009093F0018093EF0184E090E00E948A05CC
:101900009093B9018093B80185E090E00E948A0528
:10191000DC01FA9EC001FB9E900D11249093DD0125
:101920008093DC010D3FBFE01B0738F489E090E0B5
:101930000E948A05892B09F049C067EE73E089E0AF
:1019400090E00E94F20500910101109102018CEDDE
:1019500095E09093C0018093BF0120EA3FE030936F
:10196000CE012093CD0123E030E03093F0012093AD
:10197000EF0120E931E03093B9012093B801909351
:10198000DD018093DC01B80190E080E00E94F20567
:1019900066E970E081E090E00E94F20560E971E0A4
:1019A00082E090E00E94F20563E070E083E090E066
:1019B0000E94F20560E971E084E090E00E94F20587
:1019C00066E970E085E090E00E94F2058091BF0139
:1019D0009091C001845F91408D31954260F08CED13
:1019E00095E09093C0018093BF0166E970E081E0CB
:1019F00090E00E94F2058091CD019091CE01845F2C
:101A000091408D31954260F080EA9FE09093CE0145
:101A10008093CD0160E971E082E090E00E94F205E0
:101A20008091EF019091F0010297099750F083E0C7
:101A300090E09093F0018093EF0163E070E00E94EA
:101A4000F2058091B8019091B901C2978735934111
:101A500060F080E991E09093B9018093B80160E96A
:101A600071E084E090E00E94F2058091DC019091A9
:101A7000DD01845691098D3A964260F08CED95E037
:101A80009093DD018093DC0166E970E085E090E0F1
:101A90000E94F2058091EF019091F00101979093DF
:101AA000F0018093EF011092DE011092DF0110929D
:101AB000E0011092E10184E080934102B801660FD9
:101AC000771F90E080E00E94D103B5ECAB2EB1E02F
:101AD000BB2E81ECC82E81E0D82E97E0892E91E0B4
:101AE000992E23E0622E21E0722E32EEE32E31E0B9
:101AF000F32E55245394D7010D931D937D01F501C9
:101B0000119211925F01D6011D926D0160E0F30107
:101B100081913F010E944D03D4013D904D0162E04F
:101B2000832D0E947B0368EC70E080E090E00E94CF
:101B3000D103832D0E942403892B99F4F601319758
:101B400050821016110624F461E0C8010E94470576
:101B50008091E20181608093E20161E08DE00E946A
:101B60004D030F5F1F4FBAEEEB16B1E0FB0619F6FF
:101B70000E9404046093BA017093BB018093BC017E
:101B80009093BD01A8EDEA2EA1E0FA2E0DE312E03C
:101B900045EF51E02AEE31E0A1EFB1E0EDE2AE2EEB
:101BA000E2E0BE2EF5E0CF2EDD24D394CA94CC2003
:101BB000A9F0F701D1927F01F80111928F01FA018A
:101BC00011921192AF01F901D1929F01DD92F501BD
:101BD00061937193819391935F01E8CF10924202D8
:101BE000109241021092EE0181E08093BE011092AA
:101BF000D3011092D2011092D6011092D50180919A
:101C0000460281110FC085EE92E00E944C02892BA2
:101C100029F085EE92E00E942A02F5CF60E08CE088
:101C20000E944D0364E670E080E090E00E94D103E2
:101C300060E08DE00E944D0322242394312CFF2488
:101C4000F39455245394809145028823A9F110926E
:101C500045020DEF11E0E2EEAE2EE1E0BE2E62E3B2
:101C600070E080E090E00E94D103D8014D915D9139
:101C70008D01F501C190D1905F0160E0C6010E9425
:101C80007F0162E370E080E090E00E94D1031C14C9
:101C90001D0424F460E0C6010E94470525E032E0FF
:101CA00020173107E1F668EC70E080E090E00E94D8
:101CB000D103F0E0E0E0099586E592E00E941F0480
:101CC0006C019093440280934302009709F41EC173
:101CD000DC0111964C911197242F30E012966C91F3
:101CE000062F10E0B62FB695BA8BE62FE795EE27B4
:101CF000E795E98BE989FA89E078F770E42BF32B13
:101D0000DC019C91923B09F4F0C03196913B09F4BF
:101D10009AC108F082C0933809F485C108F070C0F8
:101D2000923809F489C1953E19F09D3E09F0EEC044
:101D30004F3009F0EBC0D60113968C911397853084
:101D400009F0E4C014968C9114978111DFC01696A7
:101D50004C91F6019601295F3F4F91E0842F892332
:101D600019F0878180688783990F3196E217F3070E
:101D7000A9F7D60116961C92169715968C91159771
:101D8000803209F47EC2813209F0C0C017960D91ED
:101D90001C910F3F100709F013C2D60119968D91BF
:101DA0009C911A97892B09F00BC21B968D919C91DF
:101DB000019609F005C220E030E0232B09F4A6C00B
:101DC000B601655F7F4FCF010E9400008F3709F099
:101DD0009DC0D6011B960D911C911C9717964D9195
:101DE0005C911897E12C30E020E012966C91CE01C6
:101DF00001960E94B501CE0101960E948C0086C01A
:101E0000963A09F4ACC1903B09F08DCF462F407251
:101E10006071CF010E94D40779C09D3B09F476C060
:101E200090F4943B09F4C0C19C3B09F07CCF80E066
:101E300090E0892B09F46AC0462F40726071CF018F
:101E40000E94000063C0903D09F417C1963E09F05E
:101E50006ACF80E090E0892B09F458C0F601248114
:101E6000838190E02D3731F0F0E82F9F900111240D
:101E7000822B932BD60116962C91169715964C9182
:101E800050E02D3731F0B0E82B9F90011124422B08
:101E9000532BD6011896EC91189717962C9130E099
:101EA000ED3731F0B0E8EB9FF00111242E2B3F2BE2
:101EB000D6011A96EC911A9719960C9110E0ED370D
:101EC00031F0B0E8EB9FF00111240E2B1F2B62FDC7
:101ED0005CC14150510961FD5DC12150310960FD76
:101EE0005EC10150110960734DC182E090E065FD53
:101EF00002C081E090E020E030E0232B39F0EE0FCB
:101F0000FF1F60718E0F9F1F0E940000809146028C
:101F10008111BCC385EE92E00E944C02892B09F42A
:101F20008EC2E09042020091410210E085EE92E004
:101F30000E942A022E2D30E0A901440F551F440FA4
:101F4000551F8C3A09F478C38A3A09F447C3893A91
:101F500009F43DC3853A09F433C3833A09F429C32C
:101F6000863A09F41FC38C3909F415C38A3909F478
:101F70000BC3893909F401C3853909F4F7C28339E0
:101F800009F4EDC2863909F4E3C28E3809F4D9C2E6
:101F90008D3809F4CFC28B3809F4C5C2813B09F4EE
:101FA000BBC2823B09F4B1C2843B09F4A0C2883BA6
:101FB00009F4A4C2843709F446C3823709F44AC33A
:101FC0008C3609F449C38A3609F448C3893609F4C2
:101FD00047C3853609F446C3833609F445C38636BC
:101FE00009F444C38C3509F443C38A3509F442C368
:101FF000893509F441C3853509F440C3833509F4B3
:102000003FC3863509F43EC38E3409F43DC39A01BB
:102010002B5F3D4F8D3409F042C1F901E00FF11FF4
:1020200082E28083E1C280E090E0892B09F46ECFE8
:1020300081E00E9400006ACF80E090E0892B09F4E3
:1020400065CF80E0F6CF66FF0CC080E090E0892B82
:1020500009F45CCF462F40726071CF010E940000EE
:1020600055CFA0E0B0E0AB2B09F450CF462F407124
:102070006072CF010E94000049CF4076403221F0CB
:102080004036E1F1411142CFE0E0F0E0EF2B09F4FE
:102090003DCFC9019695982F882797958795807889
:1020A0009F70800F911F55E0359527955A95E1F760
:1020B00021700196D60113963C91139714964C917A
:1020C000E42FF0E0AF013D3731F0B0E83B9FA001D5
:1020D00011244E0F5F1F6F7091F1623091F16430E7
:1020E00091F1663091F1683091F16A3091F16C3084
:1020F00091F16E3091F10E94000008CFE0E0F0E035
:10210000EF2B09F403CF1396EC9013978E2D807D5F
:10211000803109F0FBCE1496DC9001E011E041E043
:102120008E2D802309F040E02D2D2023000F612FFC
:1021300080E80E9400001F5F153089F7E7CE61E458
:10214000DACF62E4D8CF63E4D6CF64E4D4CF65E4D9
:10215000D2CF66E4D0CF67E4CECF68E4CCCF80E0C6
:1021600090E0892B09F4D2CEC9016D3721F089891D
:102170009A89842B932B10E000E030E020E050E0BF
:1021800040E060E30E940000C1CEF101E41BF50BCA
:10219000AF01A1CED101A21BB30B9D01A0CEF101D5
:1021A000E01BF10B8F019FCE4C3309F0AFCE80E0E6
:1021B00090E0892B09F4AACE8CE30E940000A6CE01
:1021C000F6019585911125C04385548561857285F9
:1021D0009601255F3F4FC8010E949E058F3779F415
:1021E000D6011B960D911C911C9719962D913C912F
:1021F0001A9717964D915C911897E12CF6CD87FDB3
:1022000085CEF60190819F7724EB29839A838B8377
:10221000F2CD97FF27C096FD29C0B601655F7F4FBD
:10222000C9010E94CD058F37E9F4D6011B960D91A7
:102230001C911C9717964D915C91189780E8E82E99
:1022400030E020E012966C91CE0101960E94B5011B
:102250006AE070E080E090E00E94D103CE01019638
:102260000E948C00F601858586FF50CED6011B9614
:102270006D917C911C9717968D919C910E94B7054A
:1022800045CEF601438554856185728587819085A9
:102290000E94BF0787FD3ACED6019C91B4CF8B3404
:1022A00029F4F901E00FF11F83E2BBCE873429F452
:1022B000F901E00FF11F84E2B4CE813729F4F9016E
:1022C000E00FF11F85E2ADCE883E29F4F901E00F61
:1022D000F11F86E2A6CE843E29F4F901E00FF11F3A
:1022E00087E29FCE823E29F4F901E00FF11F88E2D8
:1022F00098CE813D29F4F901E00FF11F89E291CEDA
:10230000893C29F4F901E00FF11F8AE28ACE853C6D
:1023100029F4F901E00FF11F8BE283CE883D29F407
:10232000F901E00FF11F8CE27CCE843D29F4F90124
:10233000E00FF11F8DE275CE823D29F4F901E00F27
:10234000F11F8EE26ECE8A3C29F4F901E00FF11FF5
:102350008FE267CE863C29F4F901E00FF11F80E39C
:1023600060CE8C3C29F4F901E00FF11F81E359CED6
:10237000883729F4F901E00FF11F82E352CE87314B
:1023800029F4F901E00FF11F83E34BCE8B3129F4DF
:10239000F901E00FF11F84E344CE8D3129F4F901F6
:1023A000E00FF11F85E33DCE8E3129F4F901E00FF6
:1023B000F11F86E336CE8E3229F4F901E00FF11FCA
:1023C00087E32FCE863329F4F901E00FF11F88E36C
:1023D00028CE8A3329F4F901E00FF11F89E321CED9
:1023E000873229F4F901E00FF11F8AE31ACE8B320C
:1023F00029F4F901E00FF11F8BE313CE8D3229F49C
:10240000F901E00FF11F8CE30CCE853329F4F901BB
:10241000E00FF11F8DE305CE893329F4F901E00FB8
:10242000F11F8EE3FECD833329F4F901E00FF11F94
:102430008FE3F7CD020F131F8FEFF8018083009118
:10244000410210E0809142026801CC0CDD1CCC0CF2
:10245000DD1C843008F43FC110924202F801E35CB5
:10246000FD4F10820E940404F601E35DFD4F60837E
:10247000718382839383F801EB5FFD4F8081843009
:1024800009F0A6C2808598EF980F983008F0A0C296
:102490004485442309F49CC22481F0E48F9FC00149
:1024A0001124482B522F9801220F331FF901E350BA
:1024B000FE4F51834083F801EF50FE4F8081D901D8
:1024C000AB50BE4F6D917C914617570709F4E1C0A0
:1024D0008F5F80836091EF017091F001861717067E
:1024E00009F008F4DAC05092EE01F082D6C04B5FDA
:1024F0005D4FFA01E00FF11F81E193CD4B5F5D4F1E
:10250000FA01E00FF11F82E18CCD4B5F5D4FFA01C4
:10251000E00FF11F80E185CD4B5F5D4FFA01E00FC9
:10252000F11F8FE07ECD4B5F5D4FFA01E00FF11F91
:102530008EE077CD4B5F5D4FFA01E00FF11F8DE02C
:1025400070CD4B5F5D4FFA01E00FF11F8CE069CD5C
:102550004B5F5D4FFA01E00FF11F8BE062CD4B5FE7
:102560005D4FFA01E00FF11F8AE05BCD4B5F5D4FDD
:10257000FA01E00FF11F89E054CD4B5F5D4FFA0186
:10258000E00FF11F88E04DCD4B5F5D4FFA01E00F8A
:10259000F11F87E046CD4B5F5D4FFA01E00FF11F61
:1025A00086E03FCD4B5F5D4FFA01E00FF11F85E004
:1025B00038CD4B5F5D4FFA01E00FF11F84E031CD64
:1025C0004B5F5D4FFA01E00FF11F83E02ACD4B5FB7
:1025D0005D4FFA01E00FF11F82E023CD4B5F5D4FAD
:1025E000FA01E00FF11FF082F801EB5FFD4F8081EF
:1025F000843009F024CF80858850F801E35CFD4FDA
:10260000883020F08081882309F419CFF08281E09E
:102610008E0D80934202823009F410820E940404DD
:10262000000F111F000F111FF801E35DFD4F6083C4
:1026300071838283938303CF4B5F5D4FFA01E00F79
:10264000F11F1082D1CF83E14B5F5D4FFA01E00FA4
:10265000F11FE7CC84E1F8CF85E1F6CF86E1F4CF36
:1026600087E1F2CF88E1F0CF89E1EECF8AE1ECCFCC
:102670008BE1EACF8CE1E8CF8DE1E6CF8EE1E4CFCC
:102680008FE1E2CF80E2E0CF81E2DECF0E94300630
:10269000D6CE815009F429CF80838091EE01882322
:1026A000D1F0C80186519E4F5C01DC018C918111F3
:1026B00012C02E513E4F61E0F901808191810E944C
:1026C0007F01F801E252FE4F808182608083109288
:1026D000EE01D501FC920E940404F801E852FE4F7D
:1026E0005F012081F601E35DFD4F60807180828093
:1026F0009380AB01BC01461957096809790980919B
:10270000DC019091DD01B0E0A0E084179507A607F9
:10271000B70708F462C1211162C18091D70181110C
:102720000CC08BE00E942403892B11F45092D70136
:102730008091D701882309F45DC08BE00E942403B7
:102740000197E9F51092D6011092D5011092D701A8
:102750008091D401882309F479C1609101017091BD
:10276000020190E080E00E94F20566E970E081E0FD
:1027700090E00E94F20560E971E082E090E00E9442
:10278000F20563E070E083E090E00E94F20560E90A
:1027900071E084E090E00E94F20566E970E085E077
:1027A00090E00E94F2051092D4011092D301109291
:1027B000D201509245028091D7018823D9F08BE055
:1027C0000E942403892BB1F48091D5019091D60108
:1027D00001969093D6018093D5018133954750F0AF
:1027E00061E08DE00E944D035092D4011092D60119
:1027F0001092D5018091CF019091D00101969093D4
:10280000D0018093CF018090CD019090CE0145E022
:10281000489D9001499D300D112428173907A0F4D7
:102820001092D0011092CF011092C6011092C501F2
:102830001092C8011092C7011092CA011092C901EA
:102840001092CC011092CB01809100018F5F8430F7
:102850000CF00CC18093000100910001002E000CCF
:10286000110BF801E95FFE4F80810E942403F801FB
:10287000EF53FE4F5F012081422F50E08417150671
:1028800089F16801CC0CDD1CF601EB53FE4F808111
:102890009181019691838083222309F4EAC02091DB
:1028A000BF013091C00128173907E0F4F601EE515D
:1028B000FE4F80819181181619061CF461E00E9478
:1028C0004705F801E252FE4F80818160808361E01C
:1028D0008DE00E944D03D5011C92F601EB53FE4F93
:1028E000118210828091D2019091D3010196909330
:1028F000D3018093D201893B9B4088F1E090BE01D7
:10290000EF24E092BE011092D3011092D201909078
:10291000D401911009C08091D1016E2D811101C0A7
:1029200060E08DE00E944D030EED11E082EEA82ED6
:1029300081E0B82E93E0C92E91E0D92ED8019D9167
:102940008D01F60181916F01992319F0992009F405
:10295000ACC060E00E944D03A016B10679F70E945A
:1029600004040091BA011091BB012091BC01309187
:10297000BD01AB01BC01401B510B620B730B80917D
:10298000B8019091B901B0E0A0E084179507A607BF
:10299000B70708F0DDC061E08CE00E944D0361E004
:1029A00070E080E090E00E94D1038AE00E9424035E
:1029B000182F89E00E94240311117DC08111B3C03A
:1029C0005092410261E08AE00E944D0360E07FC0C6
:1029D00010821482108614867ECE222331F062E3A8
:1029E00070E080E090E00E94D103980126513E4FB4
:1029F0004901D9018C918823F9F03801660C771CC4
:102A0000F301E350FE4F40815181F301EE51FE4F3F
:102A100060E0808191810E947F01F801E252FE4FC7
:102A200080818D7F8083F301EB50FE4F11821082F5
:102A3000F4011082D5011C920E940404F601E35DAA
:102A4000FD4F608371838283938367CE8091D10130
:102A50008F258093D1018CE00E94240361E0892BB3
:102A600009F060E08CE00E944D03A5CE10920001B9
:102A7000F3CE8816990608F035CFF601EE51FE4FD9
:102A800080819181181619061CF460E00E944705A8
:102A9000F801E252FE4F80818E7F808361E08DE0FD
:102AA0000E944D03F501F08218CF61E0913009F4E6
:102AB00051CF6E2D4FCF1130E9F581113BC082E02F
:102AC0008093410260E08AE00E944D0361E089E06A
:102AD0000E944D03109242028091410290E0FC015D
:102AE000EB5FFD4F1082148210861486835C9D4F2D
:102AF000DC01FC920E9404046093BA017093BB0154
:102B00008093BC019093BD0180914602811120C049
:102B100085EE92E00E944C02892B81F085EE92E0D6
:102B20000E942A02F5CF813029F483E0809341028C
:102B300061E0C9CF1092410260E045CF61E070E0F2
:102B400080E090E00E94D10360E08CE00E944D03A1
:102B500080E090E0892B09F476C80E94580288230F
:102B600009F46DC80E9400006AC8F999FECF92BDB1
:102B700081BDF89A992780B50895262FF999FECF3F
:102B80001FBA92BD81BD20BD0FB6F894FA9AF99A8A
:102B90000FBE01960895AA1BBB1B51E107C0AA1FD7
:102BA000BB1FA617B70710F0A61BB70B881F991FEE
:102BB0005A95A9F780959095BC01CD010895A1E2A1
:102BC0001A2EAA1BBB1BFD010DC0AA1FBB1FEE1FA7
:102BD000FF1FA217B307E407F50720F0A21BB30BF2
:102BE000E40BF50B661F771F881F991F1A9469F76E
:102BF00060957095809590959B01AC01BD01CF01CA
:102C00000895EE0FFF1F0590F491E02D09946817C9
:102C1000790768F4FB01DC01E40FF51FA40FB51F71
:102C200002C002900E9241505040D8F708950C9483
:102C30001916FB01DC0102C001900D924150504079
:102C4000D8F70895F894FFCFFF0100020304050EA2
:102C50000F1011000000008E02EE011B02DB024C7F
:062C6000022A023E020000
:107E0000112484B714BE81FFF0D085E080938100F7
:107E100082E08093C00088E18093C10086E0809377
:107E2000C20080E18093C4008EE0C9D0259A86E02C
:107E300020E33CEF91E0309385002093840096BBD3
:107E4000B09BFECF1D9AA8958150A9F7CC24DD24C4
:107E500088248394B5E0AB2EA1E19A2EF3E0BF2EE7
:107E6000A2D0813461F49FD0082FAFD0023811F036
:107E7000013811F484E001C083E08DD089C08234E0
:107E800011F484E103C0853419F485E0A6D080C0E4
:107E9000853579F488D0E82EFF2485D0082F10E0AE
:107EA000102F00270E291F29000F111F8ED06801E7
:107EB0006FC0863521F484E090D080E0DECF843638
:107EC00009F040C070D06FD0082F6DD080E0C81688
:107ED00080E7D80618F4F601B7BEE895C0E0D1E017
:107EE00062D089930C17E1F7F0E0CF16F0E7DF06D8
:107EF00018F0F601B7BEE89568D007B600FCFDCFD4
:107F0000A601A0E0B1E02C9130E011968C91119780
:107F100090E0982F8827822B932B1296FA010C0160
:107F200087BEE89511244E5F5F4FF1E0A038BF0790
:107F300051F7F601A7BEE89507B600FCFDCF97BE46
:107F4000E89526C08437B1F42ED02DD0F82E2BD052
:107F50003CD0F601EF2C8F010F5F1F4F84911BD097
:107F6000EA94F801C1F70894C11CD11CFA94CF0C13
:107F7000D11C0EC0853739F428D08EE10CD085E9AC
:107F80000AD08FE07ACF813511F488E018D01DD067
:107F900080E101D065CF982F8091C00085FFFCCF94
:107FA0009093C60008958091C00087FFFCCF809118
:107FB000C00084FD01C0A8958091C6000895E0E648
:107FC000F0E098E1908380830895EDDF803219F02E
:107FD00088E0F5DFFFCF84E1DECF1F93182FE3DFCA
:107FE0001150E9F7F2DF1F91089580E0E8DFEE27F6
:047FF000FF270994CA
:027FFE00040479
:00000001FF
