:100000000C9462000C948A000C948A000C948A0070
:100010000C948A000C948A000C948A000C948A0038
:100020000C948A000C948A000C94ED090C947708C7
:100030000C948A000C948A000C948A000C948A0018
:100040000C942D080C948A000C94FB070C94D50793
:100050000C948A000C948A000C948A000C948A00F8
:100060000C948A000C948A000000000024002700F1
:100070002A000000000023002600290000000008DC
:10008000000201000003040700000000000000005F
:1000900000000000250028002B00040404040404D0
:1000A0000404020202020202030303030303010227
:1000B00004081020408001020408102001020408F6
:1000C00010201F0A11241FBECFEFD8E0DEBFCDBF26
:1000D00011E0A0E0B1E0E6E7FBE202C005900D927E
:1000E000AE31B107D9F723E0AEE1B1E001C01D9216
:1000F000A639B207E1F710E0C2E6D0E004C02197CC
:10010000FE010E949815C136D107C9F70E94550A11
:100110000C94B9150C940000CF93DF93FC0129E1F6
:100120008EE241E050E033E071E0908190769036CD
:10013000D1F4918190935402A0915402A150109255
:1001400053029FEF609153026A1790F4C0915302DB
:10015000CE0FDF2FD11D68819627609153026F5F0C
:1001600060935302EFCF9081929596709E5FE2CF9D
:10017000AE0FBF2FB11D9C93F89490915202913015
:1001800059F490915102981738F0109252029091C0
:100190006F009D7F90936F00789490915202913000
:1001A00039F490915102943108F4BFCF70E0BDCF83
:1001B0009091520291110EC0F89490916F009F7D22
:1001C00090936F00B59B09C090916F0090629093DF
:1001D0006F0078947111A9CF51C0A0914F02B091D6
:1001E00050029C9160914E02EA0102C0CC0FDD1FCB
:1001F0006A95E2F79C2B9C93609184007091850036
:100200006A5A7C4F70934D0260934C0260914C028D
:1002100070914D0270938900609388007894F093F8
:100220004B02E0934A0210925302109249029081CD
:10023000909348023093520210925102B19A9091D9
:100240006F00926090936F00909152029330E1F3AF
:1002500090914902992381F0E0914602F091470282
:10026000E757FF4F8081918101969183808383E0DE
:1002700090E0DF91CF910895909152028B3108F078
:100280008150215009F050CF8091E0029091E1021D
:1002900001969093E1028093E00286E090E0E9CF3E
:1002A0009C01109285031092860384369105B0F06C
:1002B00064E670E00E946215609385038091850377
:1002C000A90164E6869F401951091124CA016AE018
:1002D00070E00E9462156093860302C00A9770F76F
:1002E0008091850394E6899F2019112480918603CB
:1002F0004AE0849F20191124209387030895CF9307
:10030000DF93CDB7DEB760970FB6F894DEBF0FBEB0
:10031000CDBF0197880F991F9C01220F232F221F09
:10032000330B31952F71611120628E776DE7403864
:10033000510538F0BA01660F672F661F770B71956C
:100340006F7790ED99832A838B836C834F774D83EE
:10035000CE0101960E948C0060960FB6F894DEBF25
:100360000FBECDBFDF91CF910895EF920F931F93F2
:10037000CF93DF93FC0185EE80838FE0818385E05E
:100380008283613041F589E483838BE484838FE148
:100390008583168250874783328721871487038796
:1003A000E586DF011796AF01425F5F4F91E08D91C7
:1003B00087FF07C02681292B2683ED0121978F77A0
:1003C0008883990FA417B50791F7DF91CF911F91FB
:1003D0000F91EF90089563831482D9CFAF92BF92AB
:1003E000CF92DF92EF92FF920F931F93CF93DF9301
:1003F0006C017B018B01040F151FEB015E01AE1830
:10040000BF08C017D10759F06991D601ED91FC9151
:100410000190F081E02DC6010995892B79F7C5017E
:10042000DF91CF911F910F91FF90EF90DF90CF90D0
:10043000BF90AF900895FC01538D448D252F30E07F
:10044000842F90E0821B930B541710F0CF960895E1
:1004500001970895FC01918D828D981761F0A28D0E
:10046000AE0FBF2FB11D5D968C91928D9F5F9F73D4
:10047000928F90E008958FEF9FEF0895FC01918D8A
:10048000828D981731F0828DE80FF11D858D90E0F7
:1004900008958FEF9FEF0895FC01918D228D892F94
:1004A00090E0805C9F4F821B91098F73992708957C
:1004B00084EE92E00E944C0221E0892B09F420E0B6
:1004C000822F089580E090E0892B29F00E94580245
:1004D00081110C9400000895FC01A48DA80FB92F80
:1004E000B11DA35ABF4F2C91848D90E001968F735C
:1004F0009927848FA689B7892C93A089B1898C917B
:10050000837080648C93938D848D981306C00288C9
:10051000F389E02D80818F7D80830895EF92FF9293
:100520000F931F93CF93DF93EC0181E0888F9B8D16
:100530008C8D98131AC0E889F989808185FF15C0D0
:100540009FB7F894EE89FF896083E889F9898081F3
:100550008370806480839FBF81E090E0DF91CF91C2
:100560001F910F91FF90EF900895F62E0B8D10E0E4
:100570000F5F1F4F0F731127E02E8C8D8E110CC053
:100580000FB607FCFACFE889F989808185FFF5CF9E
:10059000CE010E946C02F1CFEB8DEC0FFD2FF11D0F
:1005A000E35AFF4FF0829FB7F8940B8FEA89FB89DB
:1005B00080818062CFCFCF93DF93EC01888D882339
:1005C000B9F0AA89BB89E889F9898C9185FD03C0B6
:1005D000808186FD0DC00FB607FCF7CF8C9185FF9B
:1005E000F2CF808185FFEDCFCE010E946C02E9CF72
:1005F000DF91CF910895833081F028F4813099F014
:100600008230A9F008958730A9F08830C9F084308D
:10061000B1F4809180008F7D03C0809180008F773E
:1006200080938000089584B58F7784BD089584B544
:100630008F7DFBCF8091B0008F778093B0000895BD
:100640008091B0008F7DF9CFCF93DF93282F30E0DA
:10065000F901E458FF4F8491F901E255FF4FD4911D
:10066000F901E656FF4FC491CC23A1F081110E94FD
:10067000FB02EC2FF0E0EE0FFF1FEE58FF4FA591AD
:10068000B491EC91ED2381E090E009F480E0DF91FA
:10069000CF91089580E090E0FACF1F93CF93DF933E
:1006A000282F30E0F901E458FF4F8491F901E25519
:1006B000FF4FD491F901E656FF4FC491CC23A9F026
:1006C000162F81110E94FB02EC2FF0E0EE0FFF1FAE
:1006D000E057FF4FA591B4918FB7F894EC911111A9
:1006E00008C0D095DE23DC938FBFDF91CF911F919F
:1006F0000895DE2BF8CFCF93DF9390E0FC01E25515
:10070000FF4F249186569F4FFC0184918823D1F09E
:1007100090E0880F991FFC01E859FF4FA591B49113
:10072000FC01E057FF4FC591D491623071F49FB73F
:10073000F8943C91822F809583238C93E8812E2B13
:1007400028839FBFDF91CF9108958FB7F894EC91E4
:100750002E2B2C938FBFF6CF3FB7F8948091B30127
:100760009091B401A091B501B091B60126B5A89BB6
:1007700005C02F3F19F00196A11DB11D3FBFBA2F33
:10078000A92F982F8827BC01CD01620F711D811DF3
:10079000911D42E0660F771F881F991F4A95D1F778
:1007A00008958F929F92AF92BF92CF92DF92EF9275
:1007B000FF926B017C010E94AC034B015C01C114F0
:1007C000D104E104F104B9F00E94AC03681979097D
:1007D0008A099B09683E73408105910580F321E0F9
:1007E000C21AD108E108F10888EE880E83E0981E4D
:1007F000A11CB11CE4CFFF90EF90DF90CF90BF9091
:10080000AF909F908F9008952FB7F8946091AF01AB
:100810007091B0018091B1019091B2012FBF089504
:100820009C01DC01A058BF4FEC9191E09E0F9C937E
:10083000E20FF32FF11D608397FD1C9208952F9214
:100840003F924F925F926F927F928F929F92AF9260
:10085000BF92CF92DF92EF92FF920F931F93CF93AD
:10086000DF9300D000D0CDB7DEB79C838B837C01B3
:1008700041E8E40EF11C6C0150E8C50ED11C8C015E
:100880000E571F4F8D579F4F2C018B819C818C578A
:100890009F4F4C0122242A94AB80BC8097E8A90E7C
:1008A000B11CEB81FC81EB57FF4FFA83E983F70121
:1008B0008081F6019081891709F4BEC0EB81FC812B
:1008C000E80FF11D308037FE6FC0F8019081891765
:1008D00039F0F501208131812F5F3F4F3183208333
:1008E000F8018083F2012082832D8076F401803626
:1008F00009F443C0832D829586708E5F8083F80152
:100900002081F4018081820F9927991F81389105F8
:10091000ACF180E8682E621AF894F6014081F70184
:100920008081841708F046C0F8018081F42FF81BFD
:100930008F2FF60180837894F70180814817E8F5BE
:10094000712C50E06B817C81CB01860D971D0E943C
:100950009E15F80160814B815C81460F511DBA01E3
:10096000A3018B819C810E949E15F7018081F80173
:100970009081891BF7018083F8011082F701908133
:100980009F5F9083F8018081392F381B97FF02C049
:10099000F7011082F2012081F40190819317B9F0E0
:1009A0003226F201308283CFF40180818111E6CFBB
:1009B0003082A5CF862D840FBCCFF8016081461B05
:1009C00050E08B819C81860F911DBC01CACF3212F1
:1009D0002AC04B815C81480F511DCA01E981FA810F
:1009E000408151814F5F5F4F51834083F7013081D8
:1009F000F80130830097A1F20F900F900F900F90A5
:100A0000DF91CF911F910F91FF90EF90DF90CF90EA
:100A1000BF90AF909F908F907F906F905F904F901E
:100A20003F902F900895F5018081918101969183E7
:100A3000808390E080E0DACF90E080E0DDCF1F930C
:100A4000CF93DF9301979C0135952795122F1F7740
:100A5000C92F662379F1C06180FF2EC0C062DDE43A
:100A6000D127DC2762EB8FE191E00E941004612F17
:100A70008FE191E00E9410046C2F8FE191E00E94C1
:100A800010046D2F8FE191E00E9410046FEF8FE151
:100A900091E00E9410048FE191E00E941F04909366
:100AA000430280934202009749F0DF91CF911F915A
:100AB0000C948C00CF7ED0CFCF7DD1CFDF91CF9162
:100AC0001F9108951F93CF93DF93EC01CC0FDD1F8F
:100AD000CE010E944C15182FCE0101960E944C1594
:100AE000982F812FDF91CF911F910895CF93DF939E
:100AF00040911E01442389F0823F934071F481E0CC
:100B00006A30710538F4E901CB010E9462059983CE
:100B100088838FE7DF91CF9108958FEFFBCFCF933D
:100B2000DF9320911E01222369F0823F934051F40C
:100B3000EB0190E080E00E9462058C179D0711F4A4
:100B400010921E01DF91CF9108950F931F93CF93C1
:100B5000DF93FC0180819181823F9340C9F4EB01D6
:100B60000881198190E080E00E946205081719074A
:100B700049F481E080931E018FE7DF91CF911F91AF
:100B80000F9108950F3F1F4F19F499838883F4CF75
:100B90008FEFF3CF0F931F93CF93DF938B01EC0174
:100BA000CC0FDD1FCE010E944C15081721F0602FDD
:100BB000CE010E9454152196CE010E944C151817A3
:100BC00041F0612FCE01DF91CF911F910F910C94D5
:100BD0005415DF91CF911F910F910895683E23E046
:100BE000720710F067EE73E00C94CA05CF93DF93A1
:100BF000EC010E946205883E934028F067EE73E0A6
:100C0000CE010E94CA05CE01DF91CF910C946205FE
:100C10004F925F926F927F92AF92BF92CF92DF928C
:100C2000EF92FF920F931F93CF93DF93CDB7DEB771
:100C3000A9970FB6F894DEBF0FBECDBF80918C038D
:100C4000882321F010928C0310928D0380918103F0
:100C500090918203DC01ED91FC910084F185E02DFF
:100C6000099508970CF418C18E010E5D1F4F2EE8F0
:100C7000E22E23E0F22E5E01BAE2AB0EB11C670158
:100C80008091810390918203DC01ED91FC910284BB
:100C9000F385E02D09958053F80181938F01D601EA
:100CA0001D926D01AE16BF0659F78AA14AE09BA1BD
:100CB000849F900D11248CA154E62DA1249F9001B6
:100CC0001124859F200D311D11248EA1280F311D67
:100CD0008FA168A5649FB0011124859F600D711DCF
:100CE000112489A5680F711D283EB3E03B0724F449
:100CF000683EE3E07E071CF081E080938D0389E08D
:100D000080938E0348E040938F0340918D034111FF
:100D100080938F0381E0809345029B3009F4D1C01A
:100D200078F4913009F470C008F45DC0923009F491
:100D30006EC09A3009F46EC089E080938F036DC055
:100D40009E3109F4C9C068F46CEE690F6230A0F7F7
:100D500080E090E0892B09F460C0822F0E9400009F
:100D60005CC09F3149F780918A0390918B0320E00A
:100D700030E0232B11F00E9400008C01883E93404C
:100D800010F007EE13E0C8010E9450018091850326
:100D900080939003809186038093910380918703D1
:100DA00080939203C8010E94F605883EA3E09A074B
:100DB00010F087EE93E00E945001809185038093AC
:100DC000930380918603809394038091870380939B
:100DD000950380918A0390918B03019690938B03E6
:100DE00080938A031AC086E090E00E9450018091AF
:100DF000850380939303809186038093940380916D
:100E000087038093950309C084E190E0EECF86E1EB
:100E100090E0EBCFC9010E94EE0586E9A82E83E0A1
:100E2000B82E9AE0492E512C612C712CC090810370
:100E3000D0908203F70121917F0130E050E040E043
:100E400019A28E010F5D1F4FCA01B901A3019201C2
:100E50000E947615605DD8016E938D0121153105D4
:100E60004105510589F7109789F0FD010190002097
:100E7000E9F73197AF014A1B5B0BD601ED91FC916D
:100E80000280F381E02DB801C6010995AE14BF04BC
:100E900069F681E080938C03A9960FB6F894DEBFC3
:100EA0000FBECDBFDF91CF911F910F91FF90EF90BB
:100EB000DF90CF90BF90AF907F906F905F904F90FA
:100EC0000895C9010E94F605883EF3E09F0708F4E3
:100ED0008CCF87EE93E089CF809183039091840338
:100EE000909389038093880310928B0310928A0356
:100EF0007CCF9B0160911E01662361F0823F93408D
:100F000049F42A30310540F4BA01C9010E94CA05EA
:100F10008FE708958FEF089581E00895CF93DF93D1
:100F20002091D0012223F1F1EC0161E08DE00E94DB
:100F30004D03D0930201C0930101BE0190E080E017
:100F40000E94CA05D093E201C093E101CE0101964F
:100F50009093E4018093E30101969093E6018093DE
:100F6000E5012396D093E801C093E7011092D001E8
:100F7000C0914002D0E00E940404CC0FDD1FCC0FD2
:100F8000DD1FC45DDD4F688379838A839B838091F5
:100F90004502811104C060E08CE00E944D0381E0B5
:100FA00080934402DF91CF9108951F920F920FB664
:100FB0000F9211242F933F934F935F936F937F93DF
:100FC0008F939F93AF93BF93EF93FF9384EE92E041
:100FD0000E946C02FF91EF91BF91AF919F918F9111
:100FE0007F916F915F914F913F912F910F900FBE25
:100FF0000F901F9018951F920F920FB60F92112409
:101000002F938F939F93EF93FF93E091F402F091CE
:10101000F5028081E091FA02F091FB0282FD1BC093
:1010200090818091FD028F5F8F732091FE02821765
:1010300041F0E091FD02F0E0EC51FD4F958F80937F
:10104000FD02FF91EF919F918F912F910F900FBE15
:101050000F901F9018958081F4CF1F920F920FB6BA
:101060000F9211242F933F938F939F93AF93BF932E
:101070008091AF019091B001A091B101B091B20106
:101080003091AE0123E0230F2D3758F50196A11DB5
:10109000B11D2093AE018093AF019093B001A09356
:1010A000B101B093B2018091B3019091B401A091CC
:1010B000B501B091B6010196A11DB11D8093B30198
:1010C0009093B401A093B501B093B601BF91AF91D5
:1010D0009F918F913F912F910F900FBE0F901F9076
:1010E000189526E8230F0296A11DB11DD2CF1F929D
:1010F0000F920FB60F921124CF92DF92EF92FF92D0
:101100000F931F932F933F934F935F936F937F930F
:101110008F939F93AF93BF93CF93EF93FF93809160
:101120004C0290914D0280549C4F90934D028093BD
:101130004C0280914C0290914D02909389008093D3
:101140008800809151028F5F8093510280915202FA
:10115000843009F043C080915102893030F580918C
:10116000480290E09595879580934802189B05C0AA
:1011700080914802806880934802FF91EF91CF915F
:10118000BF91AF919F918F917F916F915F914F919F
:101190003F912F911F910F91FF90EF90DF90CF9093
:1011A0000F900FBE0F901F901895B59A80916F0009
:1011B000806280936F008091460290914702189957
:1011C00029C0FC01E957FF4F8081918101969183ED
:1011D00080831092510281E08093520280915202EA
:1011E0008330B9F5E0914F02F09150028081209157
:1011F0004E0233B190E0022E02C0959587950A9475
:10120000E2F7832780FD0BC01092510282E08093A9
:1012100052021FC0609148020E941004DACF8091F0
:101220005102893008F03EC03091480281E090E0E0
:1012300001C0880F2A95EAF7908130FF31C0809570
:10124000892380838091480290E0959587958093CB
:10125000480280915202823099F4809151028111AA
:101260008BC0E0914F02F0915002808190914E022C
:1012700021E030E001C0220F9A95EAF7822B8083AB
:1012800080915202813009F078CF80915102811112
:1012900099C0B59A80916F00806280936F006DCF86
:1012A000892BCFCF80915102893059F4308181E070
:1012B00090E001C0880F2A95EAF780958323808308
:1012C000C8CF809153028F5F809353029091540254
:1012D000891750F51092510280914A0290914B0269
:1012E000A0915302A80FB92FB11D8C918093480291
:1012F000808141E050E001C0440F2A95EAF7842B39
:10130000808380918400909185008A5A9C4F9093AD
:101310004D0280934C0280914C0290914D0290932B
:1013200089008093880095CF81E080934902E09006
:101330004A02F0904B02C0904602D0904702F7015B
:1013400080818076803679F4C18110E000E00C174E
:1013500078F4F701E00FF11F6081C6010E941004CC
:101360000F5F1F4FF4CFC081C295C670CE5FEDCF27
:101370001092510281E04BCF809151028F3008F4DE
:101380007FCFE0914F02F0915002208130914E02C8
:1013900081E090E001C0880F3A95EAF780958223BA
:1013A00080831092510281E080935202E0914602C4
:1013B000F0914702E357FF4F80819181019691831D
:1013C00080835ECF80915102883308F4D6CE10928C
:1013D000520280916F008D7F60CF1F920F920FB6E7
:1013E0000F9211248F939F93EF93FF93EFE6F0E01A
:1013F00080818F7D808380918600909187008056C8
:101400009A4F90934D0280934C0280914C029091A0
:101410004D029093890080938800B19A8081826008
:10142000808384E08093520210925102FF91EF91E9
:101430009F918F910F900FBE0F901F901895E4EE23
:10144000F2E01382128288EE93E0A0E0B0E08483A1
:101450009583A683B7838FE091E09183808385ECA9
:1014600090E09587848784EC90E09787868780EC6E
:1014700090E0918B808B81EC90E0938B828B82EC5F
:1014800090E0958B848B86EC90E0978B868B118E09
:10149000128E138E148EE1E8F3E081E083871486C8
:1014A0008AE090E0938382830895CF93DF93CDB752
:1014B000DEB762970FB6F894DEBF0FBECDBF78944B
:1014C00084B5826084BD84B5816084BD85B5826049
:1014D00085BD85B5816085BD80916E0081608093FA
:1014E0006E00109281008091810082608093810063
:1014F0008091810081608093810080918000816073
:10150000809380008091B10084608093B1008091CD
:10151000B00081608093B00080917A0084608093F5
:101520007A0080917A00826080937A0080917A00BC
:10153000816080937A0080917A00806880937A003D
:101540001092C10061E08CE00E947B0361E08CE0BE
:101550000E944D0362E08BE00E947B0361E08DE01E
:101560000E947B0361E08AE00E947B0361E089E0E6
:101570000E947B0361E08DE00E944D0360E08AE001
:101580000E944D0360E089E00E944D0364E670E034
:1015900080E090E00E94D103E091F402F091F50226
:1015A00082E08083E091F002F091F1021082E091FC
:1015B000F202F091F3028FEC80831092FC02E09132
:1015C000F802F091F90286E08083E091F602F09152
:1015D000F702808180618083E091F602F091F7024A
:1015E000808188608083E091F602F091F70280812B
:1015F00080688083E091F602F091F70280818F7D10
:10160000808384EE92E0909382038093810377E05D
:10161000C72E71E0D72E03E011E064EF71E080E0A7
:1016200090E00E94D103D801FD908D0161E08F2DE3
:101630000E947B0361E08F2D0E944D030E940806EB
:1016400064EF71E080E090E00E94D1030E94080600
:10165000C016D10611F764E670E080E090E00E94C9
:10166000D10380914502811163C0109282031092D0
:10167000810384EE92E00E94DB02E091F602F09199
:10168000F70280818F7E8083E091F602F091F7026D
:101690008081877F8083E091F602F091F70280815C
:1016A0008F778083E091F602F091F70280818F7D41
:1016B00080838091FE028093FD0264E670E080E00A
:1016C00090E00E94D103E091F402F091F50282E0F3
:1016D0008083E091F002F091F1021082E091F20239
:1016E000F091F30287E080831092FC02E091F8020F
:1016F000F091F90286E08083E091F602F091F70222
:10170000808180618083E091F602F091F702808110
:1017100088608083E091F602F091F7028081806812
:101720008083E091F602F091F70280818F7D8083C3
:10173000E5E5F2E08FE8DF011D928A95E9F761E0C7
:1017400087E00E947B03E5EBF0E02491E1EAF0E022
:10175000E491F0E0EE0FFF1FE057FF4F45915491E9
:1017600080E091E031E0291741F08F5F932F082E40
:1017700001C0990F0A94EAF7F6CF509350024093B4
:101780004F0280934E0285E592E09093470280934A
:1017900046022098E0914F02F09150022081309152
:1017A0004E0281E090E001C0880F3A95EAF78095FB
:1017B000822380831092800081E0809381001092C8
:1017C0005202B59A80916F00806280936F00809181
:1017D0008100887F81608093810090E080E00E949A
:1017E00062058C0181E090E00E9462055AE0F52ECE
:1017F000FC01FE9EC001FF9E900D11249093BF013D
:101800008093BE0182E090E00E9462053C01F69C5C
:10181000C001F79C900D11249093CD018093CC01D1
:1018200083E090E00E9462059093EF018093EE01C7
:1018300084E090E00E9462059093B8018093B70124
:1018400085E090E00E9462054C01F89CC001F99C83
:10185000900D11249093DC018093DB010D3F2FE06C
:10186000120738F489E090E00E946205892B09F0A4
:1018700049C067EE73E089E090E00E94CA050091DC
:101880000101109102018CED95E09093BF018093CE
:10189000BE0120EA3FE03093CD012093CC0123E04C
:1018A00030E03093EF012093EE0120E931E03093F6
:1018B000B8012093B7019093DC018093DB01B8015C
:1018C00090E080E00E94CA0566E970E081E090E067
:1018D0000E94CA0560E971E082E090E00E94CA05BA
:1018E00063E070E083E090E00E94CA0560E971E087
:1018F00084E090E00E94CA0566E970E085E090E02F
:101900000E94CA058091BE019091BF01845F914001
:101910008D31954260F08CED95E09093BF018093FE
:10192000BE0166E970E081E090E00E94CA05809106
:10193000CC019091CD01845F91408D31954260F052
:1019400080EA9FE09093CD018093CC0160E971E043
:1019500082E090E00E94CA058091EE019091EF0133
:101960000297099750F083E090E09093EF01809305
:10197000EE0163E070E00E94CA058091B70190918A
:10198000B801C2978735934160F080E991E0909368
:10199000B8018093B70160E971E084E090E00E94B3
:1019A000CA058091DB019091DC01845691098D3A42
:1019B000964260F08CED95E09093DC018093DB0122
:1019C00066E970E085E090E00E94CA058091EE0132
:1019D0009091EF0101979093EF018093EE011092A7
:1019E000DD011092DE011092DF011092E00184E02F
:1019F00080934002B801660F771F90E080E00E945C
:101A0000D103B4ECAB2EB1E0BB2E80ECC82E81E04C
:101A1000D82E97E0692E91E0792E29EE422E21E012
:101A2000522E33E0832E31E0932E41EEE42E41E03E
:101A3000F42E22242394F701019311937F01D50101
:101A40001D921D925D01F60111926F0160E0D401BB
:101A50008D914D010E944D03F30131903F0162E0F1
:101A6000832D0E947B03832D0E942403892B99F4EC
:101A7000F601319720821016110624F461E0C801A6
:101A80000E941F058091E10181608093E10161E086
:101A90008DE00E944D0364E670E080E090E00E94DB
:101AA000D1030F5F1F4F4E145F0429F60E940404F8
:101AB0006093B9017093BA018093BB019093BC010C
:101AC00047EDE42E41E0F42E0CE312E044EF51E048
:101AD00029EE31E0A0EFB1E0ECE2AE2EE2E0BE2E66
:101AE000F5E0CF2EDD24D394CA94CC20A9F0F701E1
:101AF000D1927F01F80111928F01FA011192119296
:101B0000AF01F901D1929F01DD92F50161937193CB
:101B1000819391935F01E8CF1092410210924002AD
:101B20001092ED0181E08093BD011092D2011092DC
:101B3000D1011092D5011092D401809145028111FA
:101B40000FC084EE92E00E944C02892B29F084EEB3
:101B500092E00E942A02F5CF60E08CE00E944D03E3
:101B600064E670E080E090E00E94D10360E08DE0E8
:101B70000E944D0344244394512C20E0222E20E067
:101B8000322EFF24F394BB24B39480914402882323
:101B9000B9F1109244020CEF11E091EE892E91E020
:101BA000992E6AE070E080E090E00E94D103D801B5
:101BB0004D915D918D01F401C190D1904F0160E094
:101BC000C6010E947F016AE070E080E090E00E9420
:101BD000D1031C141D0424F460E0C6010E941F05FB
:101BE00084E0682E82E0782E60167106D1F664E6F5
:101BF00070E080E090E00E94D103F0E0E0E0099521
:101C000085E592E00E941F046C019093430280934B
:101C10004202009709F422C1DC0111964C91119700
:101C2000242F30E012966C91062F10E0B62FB69557
:101C3000BA8BE62FE795EE27E795E98BE989FA89D4
:101C4000E078F770E42BF32BDC019C91923B09F4D4
:101C5000F2C03196913B09F49EC108F084C09338DC
:101C600009F489C108F072C0923809F48DC1953E1B
:101C700019F09D3E09F0F2C04F3009F0EFC0D601D7
:101C800013968C911397853009F0E8C014968C91C7
:101C900014978111E3C016964C91F6019601295FC5
:101CA0003F4F91E0842F892319F0878180688783D3
:101CB000990F3196E217F307A9F7D60116961C92F1
:101CC000169715968C911597803209F477C2813258
:101CD00009F0C4C017960D911C910F3F100709F031
:101CE0000CC2D60119968D919C911A97892B09F0F7
:101CF00004C21B968D919C91019609F0FEC190E063
:101D0000692E90E0792E672809F4A8C0B601655FB6
:101D10007F4FCF010E9400008F3709F09FC0D6018E
:101D20001B960D911C911C9717964D915C911897DD
:101D3000E12C30E020E012966C91CE0101960E94D9
:101D4000B501CE0101960E948C0088C0963A09F434
:101D5000AFC1903B09F08BCF462F40726071CF012D
:101D60000E948E077BC09D3B09F478C090F4943BA1
:101D700009F474C09C3B09F07ACF80E090E0892B95
:101D800009F46CC0462F40726071CF010E940000C0
:101D900065C0903D09F41BC1963E09F068CF80E014
:101DA00090E0892B09F45AC0F6012481838190E0E8
:101DB0002D3731F0F0E82F9F90011124822B932BC7
:101DC000D60116962C91169715964C9150E02D370A
:101DD00031F0B0E82B9F90011124422B532BD601F8
:101DE0001896EC91189717962C9130E0ED3731F05A
:101DF000B0E8EB9FF00111242E2B3F2BD6011A9651
:101E0000EC911A9719960C9110E0ED3731F0B0E88B
:101E1000EB9FF00111240E2B1F2B62FD5FC141507F
:101E2000510961FD60C12150310960FD61C101505E
:101E30001109607350C182E090E065FD02C081E04D
:101E400090E0B0E06B2EB0E07B2E672839F0EE0F0B
:101E5000FF1F60718E0F9F1F0E940000809145023E
:101E60008111B1C384EE92E00E944C02892B09F4E7
:101E700083C2E09041020091400210E084EE92E0C3
:101E80000E942A022E2D30E0A901440F551F440F55
:101E9000551F8C3A09F46DC38A3A09F43CC3893A58
:101EA00009F432C3853A09F428C3833A09F41EC3FE
:101EB000863A09F414C38C3909F40AC38A3909F43F
:101EC00000C3893909F4F6C2853909F4ECC28339B3
:101ED00009F4E2C2863909F4D8C28E3809F4CEC2B8
:101EE0008D3809F4C4C28B3809F4BAC2813B09F4B5
:101EF000B0C2823B09F4A6C2843B09F495C2883B78
:101F000009F499C2843709F43BC3823709F43FC30B
:101F10008C3609F43EC38A3609F43DC3893609F488
:101F20003CC3853609F43BC3833609F43AC386368D
:101F300009F439C38C3509F438C38A3509F437C339
:101F4000893509F436C3853509F435C3833509F479
:101F500034C3863509F433C38E3409F432C39A018D
:101F60002C5F3D4F8D3409F037C1F901E00FF11FAF
:101F700082E28083D6C280E090E0892B09F46ECFA4
:101F800081E00E9400006ACF80E090E0892B09F494
:101F900065CF80E0F6CF66FF0EC070E0872E70E060
:101FA000972E892809F45ACF462F40726071CF01CD
:101FB0000E94000053CF20E030E0232B09F44ECFE5
:101FC000462F40716072CF010E94000047CF4076DB
:101FD000403221F04036E1F1411140CFE0E0F0E045
:101FE000EF2B09F43BCFC9019695982F8827979539
:101FF000879580789F70800F911F55E035952795C4
:102000005A95E1F721700196D60113963C911397EA
:1020100014964C91E42FF0E0AF013D3731F0B0E879
:102020003B9FA00111244E0F5F1F6F7089F162303A
:1020300089F1643089F1663089F1683089F16A305C
:1020400089F16C3089F16E3089F10E94000006CF71
:102050002114310409F402CF1396EC9013978E2DBE
:10206000807D803109F0FACE1496DC9001E011E019
:1020700041E08E2D802309F040E02D2D2023000F1C
:10208000612F80E80E9400001F5F153089F7E6CEBF
:1020900061E4DBCF62E4D9CF63E4D7CF64E4D5CF8A
:1020A00065E4D3CF66E4D1CF67E4CFCF68E4CDCF8A
:1020B00080E090E0892B09F4D1CEC9016D3721F081
:1020C00089899A89842B932B10E000E030E020E08E
:1020D00050E040E060E30E940000C0CEF201E41B4B
:1020E000F50BAF019ECE3201621A730A93019DCEA9
:1020F0004201801A910A84019CCEF60195859111C6
:1021000025C043855485618572859601255F3F4FC3
:10211000C8010E9476058F3779F4D6011B960D9180
:102120001C911C9719962D913C911A9717964D91D9
:102130005C911897E12CFFCD87FD90CEF601908140
:102140009F7724EB29839A838B83FBCD97FF27C04E
:1021500096FD29C0B601655F7F4FC9010E94A505A4
:102160008F37E9F4D6011B960D911C911C97179699
:102170004D915C91189780E8E82E30E020E01296AF
:102180006C91CE0101960E94B5016AE070E080E09A
:1021900090E00E94D103CE0101960E948C00F601CE
:1021A000858586FF5BCED6011B966D917C911C9731
:1021B00017968D919C910E948F0550CEF601438514
:1021C000548561857285878190850E94790787FD96
:1021D00045CED6019C91B4CF8B3429F4F901E00FA0
:1021E000F11F83E2C6CE873429F4F901E00FF11F15
:1021F00084E2BFCE813729F4F901E00FF11F85E2B7
:10220000B8CE883E29F4F901E00FF11F86E2B1CE85
:10221000843E29F4F901E00FF11F87E2AACE823E45
:1022200029F4F901E00FF11F88E2A3CE813D29F4E2
:10223000F901E00FF11F89E29CCE893C29F4F901F4
:10224000E00FF11F8AE295CE853C29F4F901E00FF9
:10225000F11F8BE28ECE883D29F4F901E00FF11FCA
:102260008CE287CE843D29F4F901E00FF11F8DE265
:1022700080CE823D29F4F901E00FF11F8EE279CE84
:102280008A3C29F4F901E00FF11F8FE272CE863CFF
:1022900029F4F901E00FF11F80E36BCE8C3C29F4A7
:1022A000F901E00FF11F81E364CE883729F4F901C9
:1022B000E00FF11F82E35DCE873129F4F901E00FD1
:1022C000F11F83E356CE8B3129F4F901E00FF11FA2
:1022D00084E34FCE8D3129F4F901E00FF11F85E33E
:1022E00048CE8E3129F4F901E00FF11F86E341CE8B
:1022F0008E3229F4F901E00FF11F87E33ACE8633DD
:1023000029F4F901E00FF11F88E333CE8A3329F471
:10231000F901E00FF11F89E32CCE873229F4F9018E
:10232000E00FF11F8AE325CE8B3229F4F901E00F8B
:10233000F11F8BE31ECE8D3229F4F901E00FF11F5E
:102340008CE317CE853329F4F901E00FF11F8DE3FB
:1023500010CE893329F4F901E00FF11F8EE309CE85
:10236000833329F4F901E00FF11F8FE302CE020F4E
:10237000131F8FEFF80180830091400210E08091DD
:1023800041026801CC0CDD1CCC0CDD1C843008F44F
:102390003FC110924102F801E45CFD4F10820E949F
:1023A0000404F601E45DFD4F6083718382839383AF
:1023B000F801EC5FFD4F8081843009F0D9C280853F
:1023C00098EF980F983008F0D3C24485442309F45D
:1023D000CFC22481F0E48F9FC0011124482B522FDB
:1023E0009801220F331FF901E450FE4F51834083BF
:1023F000F801E051FE4F8081D901AC50BE4F6D9184
:102400007C914617570709F4E1C08F5F8083609184
:10241000EE017091EF018617170609F008F4DAC093
:10242000B092ED01F082D6C04C5F5D4FFA01E00F33
:10243000F11F81E19ECD4C5F5D4FFA01E00FF11F6E
:1024400082E197CD4C5F5D4FFA01E00FF11F80E113
:1024500090CD4C5F5D4FFA01E00FF11F8FE089CD09
:102460004C5F5D4FFA01E00FF11F8EE082CD4C5FB3
:102470005D4FFA01E00FF11F8DE07BCD4C5F5D4FAA
:10248000FA01E00FF11F8CE074CD4C5F5D4FFA0153
:10249000E00FF11F8BE06DCD4C5F5D4FFA01E00F57
:1024A000F11F8AE066CD4C5F5D4FFA01E00FF11F2E
:1024B00089E05FCD4C5F5D4FFA01E00FF11F88E0CE
:1024C00058CD4C5F5D4FFA01E00FF11F87E051CD11
:1024D0004C5F5D4FFA01E00FF11F86E04ACD4C5F83
:1024E0005D4FFA01E00FF11F85E043CD4C5F5D4F7A
:1024F000FA01E00FF11F84E03CCD4C5F5D4FFA0123
:10250000E00FF11F83E035CD4C5F5D4FFA01E00F26
:10251000F11F82E02ECD4C5F5D4FFA01E00FF11FFD
:10252000F082F801EC5FFD4F8081843009F024CF08
:1025300080858850F801E45CFD4F883020F0808170
:10254000882309F419CFF08281E08E0D8093410237
:10255000823009F410820E940404000F111F000F42
:10256000111FF801E45DFD4F6083718382839383C3
:1025700003CF4C5F5D4FFA01E00FF11F1082D1CF06
:1025800083E14C5F5D4FFA01E00FF11FF2CC84E173
:10259000F8CF85E1F6CF86E1F4CF87E1F2CF88E18D
:1025A000F0CF89E1EECF8AE1ECCF8BE1EACF8CE18D
:1025B000E8CF8DE1E6CF8EE1E4CF8FE1E2CF80E29C
:1025C000E0CF81E2DECF0E940806D6CE815009F42A
:1025D00029CF80838091ED018823D1F0C8018751F4
:1025E0009E4F4C01DC018C91811112C02F513E4F46
:1025F00061E0F901808191810E947F01F801E3523D
:10260000FE4F8081826080831092ED01D401FC92A4
:102610000E940404F601E45DFD4F20813181428176
:1026200053813B014C01621A730A840A950AB40172
:10263000A3018091DB019091DC01B0E0A0E0841760
:102640009507A607B70730F0F801E952FE4F8081E1
:10265000882391F1980127513E4F3901D9018C917E
:10266000882309F14801880C991CF401E450FE4FBD
:1026700040815181F401EF51FE4F60E080819181F2
:102680000E947F01F801E352FE4F80818D7F80839D
:10269000F401EC50FE4F11821082F3011082F80118
:1026A000E952FE4F10820E940404F601E45DFD4FE2
:1026B00060837183828393838091D60181110CC0E2
:1026C0008BE00E942403892B11F4B092D6018091F3
:1026D000D601882309F45DC08BE00E942403019792
:1026E000E9F51092D5011092D4011092D601809193
:1026F000D301882309F441C1609101017091020165
:1027000090E080E00E94CA0566E970E081E090E018
:102710000E94CA0560E971E082E090E00E94CA056B
:1027200063E070E083E090E00E94CA0560E971E038
:1027300084E090E00E94CA0566E970E085E090E0E0
:102740000E94CA051092D3011092D2011092D101B9
:10275000B09244028091D6018823D9F08BE00E9488
:102760002403892BB1F48091D4019091D501019675
:102770009093D5018093D4018133954750F061E067
:102780008DE00E944D03B092D3011092D5011092BA
:10279000D4018091CE019091CF0101969093CF0109
:1027A0008093CE016090CC017090CD0145E0469DB4
:1027B0009001479D300D112428173907A0F410927D
:1027C000CF011092CE011092C5011092C401109257
:1027D000C7011092C6011092C9011092C80110924F
:1027E000CB011092CA01809100018F5F84300CF000
:1027F000D4C08093000100910001002E000C110B49
:10280000F801E95FFE4F80810E9424039801205463
:102810003E4F4901D9012C91422F50E084171506F3
:1028200089F16801CC0CDD1CF601EC53FE4F808170
:102830009181019691838083222309F4B1C0209174
:10284000BE013091BF0128173907E0F4F601EF51BE
:10285000FE4F80819181181619061CF461E00E94D8
:102860001F05F801E352FE4F80818160808361E0A3
:102870008DE00E944D03F4011082F601EC53FE4FEF
:10288000118210828091D1019091D2010196909392
:10289000D2018093D101893B9B4088F1E090BD013A
:1028A000EF24E092BD011092D2011092D101A090CC
:1028B000D301A11009C08091D0016E2D811101C0FA
:1028C00060E08DE00E944D030DED11E081EE882E59
:1028D00081E0982E93E0C92E91E0D92EF8019191D4
:1028E0008F01D6018D916D01992319F0AA2009F469
:1028F00073C060E00E944D038016910679F70E9434
:1029000004040091B9011091BA012091BB013091EA
:10291000BC01AB01BC01401B510B620B730B8091DE
:10292000B7019091B801B0E0A0E084179507A60721
:10293000B70708F0A4C061E08CE00E944D0361E09D
:1029400070E080E090E00E94D1038AE00E942403BE
:10295000182F89E00E942403111144C081117AC00C
:10296000B092400261E08AE00E944D0360E046C000
:1029700010821482108614864BCE8091D0018F2550
:102980008093D0018CE00E94240361E0892B09F040
:1029900060E08CE00E944D03DDCE109200012BCF51
:1029A0006816790608F06ECFF601EF51FE4F808170
:1029B0009181181619061CF460E00E941F05F801A9
:1029C000E352FE4F80818E7F808361E08DE00E9424
:1029D0004D03D401FC9251CF61E0913009F48ACFCC
:1029E0006E2D88CF1130E9F581113BC082E08093D4
:1029F000400260E08AE00E944D0361E089E00E94AD
:102A00004D03109241028091400290E0FC01EC5F86
:102A1000FD4F1082148210861486845C9D4FFC0149
:102A2000F0820E9404046093B9017093BA0180930C
:102A3000BB019093BC0180914502811120C084EEBE
:102A400092E00E944C02892B81F084EE92E00E9479
:102A50002A02F5CF813029F483E08093400261E0BF
:102A6000C9CF1092400260E07ECF61E070E080E06C
:102A700090E00E94D10360E08CE00E944D0380E072
:102A800090E0892B09F481C80E945802882309F438
:102A900074C80E94000071C8F999FECF92BD81BD33
:102AA000F89A992780B50895262FF999FECF1FBA75
:102AB00092BD81BD20BD0FB6F894FA9AF99A0FBE67
:102AC00001960895AA1BBB1B51E107C0AA1FBB1F9B
:102AD000A617B70710F0A61BB70B881F991F5A95AA
:102AE000A9F780959095BC01CD010895A1E21A2E19
:102AF000AA1BBB1BFD010DC0AA1FBB1FEE1FFF1FA2
:102B0000A217B307E407F50720F0A21BB30BE40BF1
:102B1000F50B661F771F881F991F1A9469F7609538
:102B20007095809590959B01AC01BD01CF010895F2
:102B3000EE0FFF1F0590F491E02D099468177907B7
:102B400068F4FB01DC01E40FF51FA40FB51F02C000
:102B500002900E9241505040D8F708950C94B01551
:102B6000FB01DC0102C001900D9241505040D8F7AA
:062B70000895F894FFCF68
:102B7600FF0100020304050E0F1011000000008E75
:0E2B860002EE011B02DB024C022A023E02009C
:107E0000112484B714BE81FFF0D085E080938100F7
:107E100082E08093C00088E18093C10086E0809377
:107E2000C20080E18093C4008EE0C9D0259A86E02C
:107E300020E33CEF91E0309385002093840096BBD3
:107E4000B09BFECF1D9AA8958150A9F7CC24DD24C4
:107E500088248394B5E0AB2EA1E19A2EF3E0BF2EE7
:107E6000A2D0813461F49FD0082FAFD0023811F036
:107E7000013811F484E001C083E08DD089C08234E0
:107E800011F484E103C0853419F485E0A6D080C0E4
:107E9000853579F488D0E82EFF2485D0082F10E0AE
:107EA000102F00270E291F29000F111F8ED06801E7
:107EB0006FC0863521F484E090D080E0DECF843638
:107EC00009F040C070D06FD0082F6DD080E0C81688
:107ED00080E7D80618F4F601B7BEE895C0E0D1E017
:107EE00062D089930C17E1F7F0E0CF16F0E7DF06D8
:107EF00018F0F601B7BEE89568D007B600FCFDCFD4
:107F0000A601A0E0B1E02C9130E011968C91119780
:107F100090E0982F8827822B932B1296FA010C0160
:107F200087BEE89511244E5F5F4FF1E0A038BF0790
:107F300051F7F601A7BEE89507B600FCFDCF97BE46
:107F4000E89526C08437B1F42ED02DD0F82E2BD052
:107F50003CD0F601EF2C8F010F5F1F4F84911BD097
:107F6000EA94F801C1F70894C11CD11CFA94CF0C13
:107F7000D11C0EC0853739F428D08EE10CD085E9AC
:107F80000AD08FE07ACF813511F488E018D01DD067
:107F900080E101D065CF982F8091C00085FFFCCF94
:107FA0009093C60008958091C00087FFFCCF809118
:107FB000C00084FD01C0A8958091C6000895E0E648
:107FC000F0E098E1908380830895EDDF803219F02E
:107FD00088E0F5DFFFCF84E1DECF1F93182FE3DFCA
:107FE0001150E9F7F2DF1F91089580E0E8DFEE27F6
:047FF000FF270994CA
:027FFE00040479
:0400000300007E007B
:00000001FF
