:100000000C9461000C944E030C9427030C947E0016
:100010000C947E000C947E000C947E000C947E0068
:100020000C947E000C947E000C94F4040C947503E4
:100030000C947E000C947E000C947E000C947E0048
:100040000C94DD020C947E000C947E000C947E00D7
:100050000C947E000C947E000C947E000C947E0028
:100060000C947E000C947E00000000002400270009
:100070002A000000000023002600290000000008DC
:10008000000201000003040700000000000000005F
:1000900000000000250028002B00040404040404D0
:1000A0000404020202020202030303030303010227
:1000B00004081020408001020408102001020408F6
:1000C000102011241FBECFEFD8E0DEBFCDBF11E05E
:1000D000A0E0B1E0E4EBF5E102C005900D92A8309C
:1000E000B107D9F721E0A8E0B1E001C01D92A83C1A
:1000F000B207E1F70E9426050C94D80A0C94000080
:10010000CF93DF93FC0129E18EE241E050E033E040
:1001100071E0908190769036D1F49181909338017E
:10012000A0913801A150109237019FEF60913701E3
:100130006A1790F4C0913701CE0FDF2FD11D68816F
:100140009627609137016F5F60933701EFCF908101
:10015000929596709E5FE2CFAE0FBF2FB11D9C931C
:10016000F89490913601913059F490913501981797
:1001700038F01092360190916F009D7F90936F0040
:10018000789490913601913039F490913501943101
:1001900008F4BFCF70E0BDCF9091360191110EC031
:1001A000F89490916F009F7D90936F00B59B09C06C
:1001B00090916F00906290936F0078947111A9CF25
:1001C00051C0A0913301B09134019C9160913201F2
:1001D000EA0102C0CC0FDD1F6A95E2F79C2B9C93CD
:1001E00060918400709185006A5A7C4F7093310150
:1001F00060933001609130017091310170938900FA
:10020000609388007894F0932F01E0932E01109270
:10021000370110922D01908190932C01309336017B
:1002200010923501B19A90916F00926090936F0097
:10023000909136019330E1F390912D01992381F053
:10024000E0912A01F0912B01E757FF4F80819181C6
:1002500001969183808383E090E0DF91CF910895B0
:10026000909136018B3108F08150215009F050CF28
:100270008091C4019091C50101969093C50180932E
:10028000C40186E090E0E9CF833081F028F481302A
:1002900099F08230A9F008958730A9F08830C9F02C
:1002A0008430B1F4809180008F7D03C08091800004
:1002B0008F7780938000089584B58F7784BD0895EB
:1002C00084B58F7DFBCF8091B0008F778093B00095
:1002D00008958091B0008F7DF9CFCF93DF93282FC1
:1002E00030E0F901E458FF4F8491F901E255FF4FE6
:1002F000D491F901E656FF4FC491CC23A1F08111AE
:100300000E944401EC2FF0E0EE0FFF1FEE58FF4F6C
:10031000A591B491EC91ED2381E090E009F480E0A7
:10032000DF91CF91089580E090E0FACF1F93CF93B3
:10033000DF93282F30E0F901E458FF4F8491F90151
:10034000E255FF4FD491F901E656FF4FC491CC23FB
:10035000A9F0162F81110E944401EC2FF0E0EE0F5E
:10036000FF1FE057FF4FA591B4918FB7F894EC9120
:10037000111108C0D095DE23DC938FBFDF91CF91A0
:100380001F910895DE2BF8CFCF93C82F8823A9F0B3
:100390001092250110921B0161E08AE00E949601F3
:1003A00060E089E00E94960160E08EE00E94960184
:1003B0006C2F83E0CF910C949601809125018111DF
:1003C000F3CF61E089E00E94960160E08AE0EACF25
:1003D000CF93DF9390E0FC01E255FF4F24918656C6
:1003E0009F4FFC0184918823C9F090E0880F991FEA
:1003F000FC01E859FF4FA591B491FC01E057FF4F74
:10040000C591D49161110DC09FB7F8948C9120953E
:1004100082238C938881282328839FBFDF91CF91EB
:100420000895623051F49FB7F8943C91822F8095E3
:1004300083238C93E8812E2BEFCF8FB7F894EC9128
:100440002E2B2C938FBFEACF2091000190E4299F9F
:10045000900111248E50822B80937C0080917A0031
:10046000806480937A0080917A0086FDFCCF809131
:1004700078009091790008953FB7F89480910D012C
:1004800090910E01A0910F01B091100126B5A89B8B
:1004900005C02F3F19F00196A11DB11D3FBFBA2F16
:1004A000A92F982F8827BC01CD01620F711D811DD6
:1004B000911D42E0660F771F881F991F4A95D1F75B
:1004C00008958F929F92AF92BF92CF92DF92EF9258
:1004D000FF924B015C010E943C026B017C010E9477
:1004E0003C026C197D098E099F09683E73408105A5
:1004F0009105A8F321E0821A9108A108B10888EEBD
:10050000C80E83E0D81EE11CF11C81149104A104E3
:10051000B10429F7FF90EF90DF90CF90BF90AF909C
:100520009F908F9008952FB7F89460910901709172
:100530000A0180910B0190910C012FBF08950E9438
:1005400093026093120170931301809314019093AE
:10055000150181E08093110108950895CF93DF93F1
:1005600081E08093290180E10E942402C6E2D1E06B
:10057000BC01990F880B990B0E94C4092CEF39EA32
:1005800041EB5EE30E94280A0E948C0968838FE099
:100590000E942402BC01990F880B990B0E94C40988
:1005A00025ED38E749E05FE30E94280A0E948C09A4
:1005B00069831A82DF91CF9108951F920F920FB62F
:1005C0000F9211242F933F938F939F93AF93BF93D9
:1005D0008091090190910A01A0910B01B0910C0149
:1005E0003091080123E0230F2D3758F50196A11D06
:1005F000B11D209308018093090190930A01A093F3
:100600000B01B0930C0180910D0190910E01A0910E
:100610000F01B09110010196A11DB11D80930D0134
:1006200090930E01A0930F01B0931001BF91AF9171
:100630009F918F913F912F910F900FBE0F901F9020
:10064000189526E8230F0296A11DB11DD2CF1F9247
:100650000F920FB60F9211242F933F934F935F93F6
:100660006F937F938F939F93AF93BF93EF93FF937A
:10067000E0910301F09104010995FF91EF91BF9181
:10068000AF919F918F917F916F915F914F913F912A
:100690002F910F900FBE0F901F9018951F920F92E1
:1006A0000FB60F9211242F933F934F935F936F9345
:1006B0007F938F939F93AF93BF93EF93FF93E091BB
:1006C0000101F09102010995FF91EF91BF91AF9166
:1006D0009F918F917F916F915F914F913F912F915A
:1006E0000F900FBE0F901F9018951F920F920FB68C
:1006F0000F9211242F933F934F935F936F938F9398
:100700009F93AF93BF93CF93DF93EF93FF9380912A
:1007100030019091310180549C4F9093310180932E
:100720003001809130019091310190938900809344
:100730008800809135018F5F80933501809136016B
:100740008430E9F580913501893000F580912C01E4
:1007500090E09595879580932C01189B05C080911A
:100760002C01806880932C01FF91EF91DF91CF9154
:10077000BF91AF919F918F916F915F914F913F91F9
:100780002F910F900FBE0F901F901895B59A8091E2
:100790006F00806280936F0080912A0190912B01FD
:1007A00018992AC0FC01E957FF4F80819181019679
:1007B000918380831092350181E08093360180918E
:1007C0003601833009F043C0E0913301F0913401E8
:1007D00080812091320133B190E0022E02C09595C4
:1007E00087950A94E2F7832780FD17C010923501A0
:1007F00082E0809336012BC040912C01FC01E0582F
:10080000FF4F208131E0320F3083820F911DDC01D8
:100810004C9337FFCFCF1082CDCF809135018930F7
:1008200008F03EC030912C0181E090E001C0880FBB
:100830002A95EAF7908130FF31C080958923808323
:1008400080912C0190E09595879580932C01809163
:100850003601823099F480913501811194C0E09184
:100860003301F091340180819091320121E030E038
:1008700001C0220F9A95EAF7822B8083809136017E
:10088000813009F071CF809135018111A2C0B59AF4
:1008900080916F00806280936F0066CF892BCFCFED
:1008A00080913501893059F4308181E090E001C0B8
:1008B000880F2A95EAF7809583238083C8CF80919B
:1008C00037018F5F8093370190913801891750F578
:1008D0001092350180912E0190912F01A091370146
:1008E000A80FB92FB11D8C9180932C01808141E01C
:1008F00050E001C0440F2A95EAF7842B8083809151
:100900008400909185008A5A9C4F90933101809386
:100910003001809130019091310190938900809352
:10092000880095CF81E080932D01E0912E01F09118
:100930002F0140912A0150912B01808180768036D1
:10094000C9F4818130E020E0EA01C058DF4F281768
:10095000B0F4DF01A20FB31F6C91A88191E09A0F50
:100960009883A40FB52FB11D6C9397FD18822F5F4C
:100970003F4FEDCF8081829586708E5FE3CF1092DE
:10098000350181E036CF809135018F3008F476CF84
:10099000E0913301F091340120813091320181E006
:1009A00090E001C0880F3A95EAF780958223808312
:1009B0001092350181E080933601E0912A01F09197
:1009C0002B01E357FF4F80819181019691838083B2
:1009D00055CF80913501883308F4C6CE1092360188
:1009E00080916F008D7F57CF1F920F920FB60F929D
:1009F00011248F939F93EF93FF93EFE6F0E08081B4
:100A00008F7D8083809186009091870080569A4FD9
:100A100090933101809330018091300190913101A8
:100A20009093890080938800B19A8081826080834E
:100A300084E08093360110923501FF91EF919F91F0
:100A40008F910F900FBE0F901F901895CF93DF934B
:100A5000CDB7DEB760970FB6F894DEBF0FBECDBF3F
:100A6000789484B5826084BD84B5816084BD85B589
:100A7000826085BD85B5816085BD80916E00816095
:100A800080936E001092810080918100826080933B
:100A9000810080918100816080938100809180003D
:100AA0008160809380008091B10084608093B10068
:100AB0008091B00081608093B00080917A00846062
:100AC00080937A0080917A00826080937A0080918E
:100AD0007A00816080937A0080917A0080688093A8
:100AE0007A001092C10061E08AE00E94E80161E0B2
:100AF00089E00E94E80161E083E00E94E80161E092
:100B00008EE00E94E80162E084E00E94E80160E07B
:100B100082E00E94E80160E083E00E94960160E0CC
:100B20008EE00E94960161E08AE00E94960161E0F9
:100B300089E00E9496011092250110921B011092EB
:100B4000110110922901E9E3F1E08FE8DF011D9224
:100B50008A95E9F761E087E00E94E801E5EBF0E0C3
:100B60002491E1EAF0E0E491F0E0EE0FFF1FE0579E
:100B7000FF4F4591549180E091E031E0291741F019
:100B80008F5F932F082E01C0990F0A94EAF7F6CFD2
:100B900050933401409333018093320189E391E013
:100BA00090932B0180932A012098E0913301F091DA
:100BB000340120813091320181E090E001C0880F42
:100BC0003A95EAF78095822380831092800081E035
:100BD0008093810010923601B59A80916F008062F7
:100BE00080936F0080918100887F81608093810075
:100BF0001092260183E08093000168EE73E080E0AC
:100C000090E00E9461028FE992E09093020180934C
:100C10000101809169008C7F826080936900E89A6D
:100C200084E00E946D0121E0892B09F020E02093EF
:100C300024010E9493026093120170931301809328
:100C40001401909315010E94930260932001709308
:100C5000210180932201909323010E9493026093CB
:100C60001C0170931D0180931E0190931F010E942F
:100C7000930260931601709317018093180190936B
:100C8000190170E0672E70E0772EE0E0EE2EE0E0D4
:100C9000FE2EF0E0CF2EF0E0DF2EA0E0AA2EA0E0A6
:100CA000BA2E60E0862E60E0962E5524539450E8CC
:100CB000252E33243A948091BA019091B901891775
:100CC00009F4C4C0E82FF0E0E75CFE4F408047FE27
:100CD00071C09091BB01891751F02091C0013091F2
:100CE000C1012F5F3F4F3093C1012093C00180931A
:100CF000BB013092BC01842D80768036C9F41092FD
:100D0000BD018091BA018F5F8093BA01E091BB0170
:100D1000282F2E1B87FD1092BA018091BC01909163
:100D2000BD01291709F458C048264092BC01C3CF21
:100D3000842D829586708E5F8093BD012091BB01CA
:100D40008091BD01820F9927991F81389105CCF2BE
:100D5000022D021BF8944091B9018091BA018417C9
:100D600080F58091BB01B42FB81B8B2F8093B90104
:100D700078948091BA01481738F510E050E069E3A3
:100D800071E0C801875C9E4F0E94BD0A6091BB0163
:100D900070E0675C7E4FA80189E391E00E94BD0A84
:100DA0008091BA019091BB01891B8093BA01109286
:100DB000BB01A7CF8091BD018111A3CF4092BD019E
:100DC000BDCF802F840FD2CF6091BB01461B50E076
:100DD00070E0675C7E4FE0CF481246C1F0E0E75C10
:100DE000FE4F2091BE013091BF012F5F3F4F3093E6
:100DF000BF012093BE019091BA019093BB0130973F
:100E000009F492CFA1812A2F30E06281462F50E071
:100E1000CA019695982F882797958795807897701F
:100E20008A2B932B7081723B09F02BC122E030E0BA
:100E300065FD02C021E030E06114710439F0880FD3
:100E4000991F6071820F931F0E94000080912901F9
:100E5000882389F180912801209127014091260162
:100E600096EE99839CE09A831B8292E09C831D827C
:100E7000942F9F779E8350E0440F452F441F550BBE
:100E80004F83922F9F77988730E0220F232F221FC6
:100E9000330B2987982F9F779A8790E0880F892FA7
:100EA000881F990B8B87CE0101960E9480000397C3
:100EB00011F4109229010E949302009116011091E1
:100EC00017012091180130911901601B710B820BE1
:100ED000930B61367A4E8105910560F00E94930272
:100EE0006093160170931701809318019093190174
:100EF00010921B010E949302109125012091120172
:100F0000309113014091140150911501621B730B34
:100F1000840B950B653671058105910508F46EC14A
:100F200010921101111108C060E08AE00E94960140
:100F300061E089E00E9496010E9493026093120191
:100F400070931301809314019093150180912501F2
:100F5000882309F481C080912401882309F455C0B5
:100F60000E94930200911C0110911D0120911E010D
:100F700030911F01601B710B820B930B693B7B400F
:100F80008105910508F441C010911B011530E8F569
:100F90000E94930260931C0170931D0180931E01B7
:100FA00090931F011F5F10931B0161E08AE00E9474
:100FB000960161E08EE00E94960164E670E080E0B8
:100FC00090E00E94610261E083E00E94960162E38A
:100FD00070E080E090E00E946102EAE04E2E10E0B6
:100FE00000E08FE00E942402080F191F4A9441106C
:100FF000F8CF60E00C31174008F47AC183E00E941A
:10100000960160E08AE00E9496010E94930200919E
:101010002001109121012091220130912301601BB8
:10102000710B820B930B6D32714081059105A0F01D
:1010300089E00E946D0161E0892B09F060E089E0A0
:101040000E9496010E9493026093200170932101F7
:10105000809322019093230180E090E0892B09F492
:1010600026CE0E9400001DCE2091C0013091C1010A
:101070002F5F3F4F3093C1012093C001F0E0E0E0CB
:10108000BACE0196713B61F148F47338D1F0703BF0
:10109000E1F0723809F0DACE80E014C0703DB1F1B1
:1010A000763E09F49CC07C3B09F0D0CE20E030E0D5
:1010B000232B09F4CBCE462F407260710E940000B2
:1010C000C5CE81E00E94C401C1CE20E030E0232BD8
:1010D00009F4BCCE462F407260710E940000B6CE6B
:1010E00066FF0AC0C114D10409F4B0CE462F407285
:1010F00060710E940000AACEE114F10409F4A6CEAA
:10110000462F407160720E940000A0CEA076A032EF
:1011100021F0A036B9F1A11199CEA114B10409F4BE
:1011200095CEC9019695982F8827979587958078B1
:101130009F70840F951F05E0359527950A95E1F777
:101140002170019633814481E42FF0E0AF013D37F7
:1011500031F070E8379FA00111244E0F5F1F6F70B0
:1011600071F1623071F1643071F1663071F16830A3
:1011700071F16A3071F16C3071F16E3071F10E9471
:10118000000064CE8114910409F460CE4380842D64
:10119000807D803109F05ACE348001E011E041E0D9
:1011A000842D802309F040E0232D2023000F612FA0
:1011B00080E80E9400001F5F153089F747CE61E488
:1011C000DECF62E4DCCF63E4DACF64E4D8CF65E459
:1011D000D6CF66E4D4CF67E4D2CF68E4D0CF8481A1
:1011E000A0E88A9FC00111242381822B029709F075
:1011F0002DCE66FF2BCE0E94AE0228CE809111012B
:10120000882309F4A3CE111108C061E083E00E9495
:10121000960161E08AE00E94960180E10E9424022A
:10122000BC0190910601E92F092E000CFF0B4091A3
:1012300005019F0120573E4F2617370708F04AC087
:101240002CEB32E02E1B3F0B6217730708F042C0F5
:10125000442329F09195909306011092050160E0D6
:10126000112309F441C083E00E946D01892B09F428
:101270006DCE8FE00E942402111168CE863D92400F
:1012800030F180911A018F5F80931A018B3008F43E
:101290005DCE60E083E00E94960160E08AE00E94FB
:1012A000960161E089E00E94960182E88983CE017F
:1012B00001960E948000509225010E949302609343
:1012C0001C0170931D0180931E0190931F011092C9
:1012D0001A013CCE411105C09195909306015092A0
:1012E00005011111C0CF61E089E00E949601BBCFDA
:1012F0008EE00E94960161E083E00E94960161E029
:101300008AE00E94960183E88983CE0101960E94BB
:1013100080001092250179CE0E9493096894B11142
:101320000C94220A08950E94070A88F09F5798F0AB
:10133000B92F9927B751B0F0E1F0660F771F881FDA
:10134000991F1AF0BA95C9F714C0B13091F00E94F4
:10135000210AB1E008950C94210A672F782F88277D
:10136000B85F39F0B93FCCF3869577956795B3951B
:10137000D9F73EF490958095709561957F4F8F4F8A
:101380009F4F0895E89409C097FB3EF4909580958F
:10139000709561957F4F8F4F9F4F9923A9F0F92F3B
:1013A00096E9BB279395F695879577956795B795B9
:1013B000F111F8CFFAF4BB0F11F460FF1BC06F5F9F
:1013C0007F4F8F4F9F4F16C0882311F096E911C0B1
:1013D000772321F09EE8872F762F05C0662371F0D2
:1013E00096E8862F70E060E02AF09A95660F771FE6
:1013F000881FDAF7880F9695879597F9089557FD16
:101400009058440F551F59F05F3F71F04795880F72
:1014100097FB991F61F09F3F79F087950895121609
:1014200013061406551FF2CF4695F1DF08C01616B5
:1014300017061806991FF1CF869571056105089466
:101440000895E894BB2766277727CB0197F908957D
:101450000E943B0A0C94AC0A0E949E0A38F00E943B
:10146000A50A20F0952311F00C94950A0C949B0A80
:1014700011240C94220A0E94FF0970F3959FC1F376
:10148000950F50E0551F629FF001729FBB27F00D32
:10149000B11D639FAA27F00DB11DAA1F649F662787
:1014A000B00DA11D661F829F2227B00DA11D621FD6
:1014B000739FB00DA11D621F839FA00D611D221F90
:1014C000749F3327A00D611D231F849F600D211D74
:1014D000822F762F6A2F11249F5750409AF0F1F0F7
:1014E00088234AF0EE0FFF1FBB1F661F771F881F60
:1014F00091505040A9F79E3F510580F00C94950AF9
:101500000C94220A5F3FE4F3983ED4F386957795D6
:101510006795B795F795E7959F5FC1F7FE2B880F05
:10152000911D9695879597F9089597F99F6780E89B
:1015300070E060E008959FEF80EC089500240A9425
:101540001616170618060906089500240A9412169E
:101550001306140605060895092E0394000C11F4D1
:10156000882352F0BB0F40F4BF2B11F460FF04C07E
:101570006F5F7F4F8F4F9F4F08956817790768F40B
:10158000FB01DC01E40FF51FA40FB51F02C00290A0
:101590000E9241505040D8F708950C94CF0AFB01A9
:1015A000DC0102C001900D9241505040D8F70895DF
:0415B000F894FFCFDD
:0815B40001AD02AD02010500CA
:107E0000112484B714BE81FFF0D085E080938100F7
:107E100082E08093C00088E18093C10086E0809377
:107E2000C20080E18093C4008EE0C9D0259A86E02C
:107E300020E33CEF91E0309385002093840096BBD3
:107E4000B09BFECF1D9AA8958150A9F7CC24DD24C4
:107E500088248394B5E0AB2EA1E19A2EF3E0BF2EE7
:107E6000A2D0813461F49FD0082FAFD0023811F036
:107E7000013811F484E001C083E08DD089C08234E0
:107E800011F484E103C0853419F485E0A6D080C0E4
:107E9000853579F488D0E82EFF2485D0082F10E0AE
:107EA000102F00270E291F29000F111F8ED06801E7
:107EB0006FC0863521F484E090D080E0DECF843638
:107EC00009F040C070D06FD0082F6DD080E0C81688
:107ED00080E7D80618F4F601B7BEE895C0E0D1E017
:107EE00062D089930C17E1F7F0E0CF16F0E7DF06D8
:107EF00018F0F601B7BEE89568D007B600FCFDCFD4
:107F0000A601A0E0B1E02C9130E011968C91119780
:107F100090E0982F8827822B932B1296FA010C0160
:107F200087BEE89511244E5F5F4FF1E0A038BF0790
:107F300051F7F601A7BEE89507B600FCFDCF97BE46
:107F4000E89526C08437B1F42ED02DD0F82E2BD052
:107F50003CD0F601EF2C8F010F5F1F4F84911BD097
:107F6000EA94F801C1F70894C11CD11CFA94CF0C13
:107F7000D11C0EC0853739F428D08EE10CD085E9AC
:107F80000AD08FE07ACF813511F488E018D01DD067
:107F900080E101D065CF982F8091C00085FFFCCF94
:107FA0009093C60008958091C00087FFFCCF809118
:107FB000C00084FD01C0A8958091C6000895E0E648
:107FC000F0E098E1908380830895EDDF803219F02E
:107FD00088E0F5DFFFCF84E1DECF1F93182FE3DFCA
:107FE0001150E9F7F2DF1F91089580E0E8DFEE27F6
:047FF000FF270994CA
:027FFE00040479
:0400000300007E007B
:00000001FF
