:100000000C9461000C9424040C94FD030C947E0069
:100010000C947E000C947E000C947E000C947E0068
:100020000C947E000C947E000C94CA050C944B0436
:100030000C947E000C947E000C947E000C947E0048
:100040000C94B3030C947E000C947E000C947E0000
:100050000C947E000C947E000C947E000C947E0028
:100060000C947E000C947E00000000002400270009
:100070002A000000000023002600290000000008DC
:10008000000201000003040700000000000000005F
:1000900000000000250028002B00040404040404D0
:1000A0000404020202020202030303030303010227
:1000B00004081020408001020408102001020408F6
:1000C000102011241FBECFEFD8E0DEBFCDBF11E05E
:1000D000A0E0B1E0EEEFF0E202C005900D92AA3090
:1000E000B107D9F721E0AAE0B1E001C01D92AC3F11
:1000F000B207E1F70E94FC050C947D100C940000FF
:10010000CF93DF93FC0129E18EE241E050E033E040
:1001100071E0908190769036D1F4918190936C014A
:10012000A0916C01A15010926B019FEF60916B0147
:100130006A1790F4C0916B01CE0FDF2FD11D68813B
:10014000962760916B016F5F60936B01EFCF908199
:10015000929596709E5FE2CFAE0FBF2FB11D9C931C
:10016000F89490916A01913059F49091690198172F
:1001700038F010926A0190916F009D7F90936F000C
:10018000789490916A01913039F490916901943199
:1001900008F4BFCF70E0BDCF90916A0191110EC0FD
:1001A000F89490916F009F7D90936F00B59B09C06C
:1001B00090916F00906290936F0078947111A9CF25
:1001C00051C0A0916701B09168019C916091660156
:1001D000EA0102C0CC0FDD1F6A95E2F79C2B9C93CD
:1001E00060918400709185006A5A7C4F709365011C
:1001F000609364016091640170916501709389005E
:10020000609388007894F0936301E0936201109208
:100210006B011092610190819093600130936A01AB
:1002200010926901B19A90916F00926090936F0063
:1002300090916A019330E1F390916101992381F0EB
:10024000E0915E01F0915F01E757FF4F808191815E
:1002500001969183808383E090E0DF91CF910895B0
:1002600090916A018B3108F08150215009F050CFF4
:100270008091F8019091F90101969093F901809392
:10028000F80186E090E0E9CFEF920F931F93CF93B0
:10029000DF93FC0185EE80838FE0818385E082839C
:1002A000613041F589E483838BE484838FE1858326
:1002B0001682508747833287218714870387E58614
:1002C000DF011796AF01425F5F4F91E08D9187FF8D
:1002D00007C02681292B2683ED0121978F778883FC
:1002E000990FA417B50791F7DF91CF911F910F9147
:1002F000EF90089563831482D9CF833081F028F47E
:10030000813099F08230A9F008958730A9F08830C3
:10031000C9F08430B1F4809180008F7D03C080915A
:1003200080008F7780938000089584B58F7784BD97
:10033000089584B58F7DFBCF8091B0008F77809337
:10034000B00008958091B0008F7DF9CFCF93DF93F7
:10035000282F30E0F901E458FF4F8491F901E2556C
:10036000FF4FD491F901E656FF4FC491CC23A1F081
:1003700081110E947D01EC2FF0E0EE0FFF1FEE587F
:10038000FF4FA591B491EC91ED2381E090E009F449
:1003900080E0DF91CF91089580E090E0FACF1F9345
:1003A000CF93DF93282F30E0F901E458FF4F849179
:1003B000F901E255FF4FD491F901E656FF4FC49180
:1003C000CC23A9F0162F81110E947D01EC2FF0E0C3
:1003D000EE0FFF1FE057FF4FA591B4918FB7F89430
:1003E000EC91111108C0D095DE23DC938FBFDF9113
:1003F000CF911F910895DE2BF8CFCF93DF9390E03C
:10040000FC01E255FF4F249186569F4FFC018491D9
:100410008823C9F090E0880F991FFC01E859FF4F2D
:10042000A591B491FC01E057FF4FC591D4916111A2
:100430000DC09FB7F8948C91209582238C9388816E
:10044000282328839FBFDF91CF910895623051F414
:100450009FB7F8943C91822F809583238C93E881F9
:100460002E2BEFCF8FB7F894EC912E2B2C938FBFC0
:10047000EACF8E50806480937C0080917A00806403
:1004800080937A0080917A0086FDFCCF809178007D
:100490009091790008953FB7F8948091110190915F
:1004A0001201A0911301B091140126B5A89B05C0BB
:1004B0002F3F19F00196A11DB11D3FBFBA2FA92FE3
:1004C000982F8827BC01CD01620F711D811D911DE0
:1004D00042E0660F771F881F991F4A95D1F708954C
:1004E0008F929F92AF92BF92CF92DF92EF92FF9244
:1004F0004B015C010E944B026B017C010E944B028C
:100500006C197D098E099F09683E7340810591052C
:10051000A8F321E0821A9108A108B10888EEC80E5C
:1005200083E0D81EE11CF11C81149104A104B104E4
:1005300029F7FF90EF90DF90CF90BF90AF909F9002
:100540008F9008952FB7F89460910D0170910E016E
:1005500080910F01909110012FBF08950895CF93BE
:10056000DF9381E080935B0180E10E943902C5E561
:10057000D1E0BC01990F880B990B0E94550F2CEA12
:100580003CE14AEC5FE30E94B90F0E941D0F7983A2
:1005900068838FE00E943902BC01990F880B990B88
:1005A0000E94550F28E539E34CE150E40E94B90F51
:1005B0000E941D0F7B836A8382E10E9439028B5463
:1005C00091099D838C83DF91CF9108958091500193
:1005D000811108C061E089E00E94CF0160E08AE0FB
:1005E0000E94CF0160E08EE00E94CF0160E083E0D6
:1005F0000C94CF0180910A018F5F80930A018630AD
:1006000080F00E94A20260931601709317018093FC
:1006100018019093190181E08093150185E0809382
:100620000A0108951F93CF93DF93EC01CC0FDD1FD8
:10063000CE010E94070F182FCE0101960E94070FCE
:10064000982F812FDF91CF911F910895CF93DF9342
:1006500040910B01442389F08C3F934071F481E079
:100660006F30710538F4E901CB010E9412039983C0
:1006700088838FE7DF91CF9108958FEFFBCFCF93E2
:10068000DF9320910B01222369F08C3F934051F4BA
:10069000EB0190E080E00E9412038C179D0711F49B
:1006A00010920B01DF91CF9108950F931F93CF9379
:1006B000DF93FC01808191818C3F9340C9F4EB0171
:1006C0000881198190E080E00E9412030817190741
:1006D00049F481E080930B018FE7DF91CF911F9167
:1006E0000F9108950F3F1F4F19F499838883F4CF1A
:1006F0008FEFF3CF0F931F93CF93DF938B01EC0119
:10070000CC0FDD1FCE010E94070F081721F0602FCC
:10071000CE010E940F0F2196CE010E94070F1817DD
:1007200041F0612FCE01DF91CF911F910F910C9479
:100730000F0FDF91CF911F910F9108959B01609151
:100740000B01662361F08C3F934049F42F30310553
:1007500040F4BA01C9010E947A038FE708958FEF30
:10076000089581E008951F920F920FB60F92112401
:100770002F933F938F939F93AF93BF9380910D01DE
:1007800090910E01A0910F01B091100130910C01D8
:1007900023E0230F2D3758F50196A11DB11D20939D
:1007A0000C0180930D0190930E01A0930F01B09363
:1007B00010018091110190911201A0911301B0914B
:1007C00014010196A11DB11D809311019093120196
:1007D000A0931301B0931401BF91AF919F918F919A
:1007E0003F912F910F900FBE0F901F90189526E804
:1007F000230F0296A11DB11DD2CF1F920F920FB6EB
:100800000F9211242F933F934F935F936F937F9396
:100810008F939F93AF93BF93EF93FF93E091020168
:10082000F09103010995FF91EF91BF91AF919F91D5
:100830008F917F916F915F914F913F912F910F9089
:100840000FBE0F901F9018951F920F920FB60F9228
:1008500011242F933F934F935F936F937F938F93C5
:100860009F93AF93BF93EF93FF93E0910001F091BB
:1008700001010995FF91EF91BF91AF919F918F91E8
:100880007F916F915F914F913F912F910F900FBE8C
:100890000F901F9018951F920F920FB60F92112470
:1008A0002F933F934F935F936F938F939F93AF9348
:1008B000BF93CF93DF93EF93FF9380916401909167
:1008C000650180549C4F90936501809364018091F1
:1008D00064019091650190938900809388008091D4
:1008E00069018F5F8093690180916A018430E9F525
:1008F00080916901893000F58091600190E09595C3
:10090000879580936001189B05C080916001806885
:1009100080936001FF91EF91DF91CF91BF91AF91F3
:100920009F918F916F915F914F913F912F910F9078
:100930000FBE0F901F901895B59A80916F0080623E
:1009400080936F0080915E0190915F0118992AC099
:10095000FC01E957FF4F808191810196918380834B
:100960001092690181E080936A0180916A0183306D
:1009700009F043C0E0916701F09168018081209106
:10098000660133B190E0022E02C0959587950A94D6
:10099000E2F7832780FD17C01092690182E08093FF
:1009A0006A012BC040916001FC01E058FF4F20819B
:1009B00031E0320F3083820F911DDC014C9337FF01
:1009C000CFCF1082CDCF80916901893008F03EC031
:1009D0003091600181E090E001C0880F2A95EAF72C
:1009E000908130FF31C080958923808380916001A0
:1009F00090E0959587958093600180916A0182309F
:100A000099F480916901811194C0E0916701F0919E
:100A1000680180819091660121E030E001C0220FE1
:100A20009A95EAF7822B808380916A01813009F0E0
:100A300071CF809169018111A2C0B59A80916F0038
:100A4000806280936F0066CF892BCFCF8091690140
:100A5000893059F4308181E090E001C0880F2A95F7
:100A6000EAF7809583238083C8CF80916B018F5FE5
:100A700080936B0190916C01891750F51092690178
:100A80008091620190916301A0916B01A80FB92F31
:100A9000B11D8C9180936001808141E050E001C0E4
:100AA000440F2A95EAF7842B8083809184009091EB
:100AB00085008A5A9C4F90936501809364018091D0
:100AC000640190916501909389008093880095CF8F
:100AD00081E080936101E0916201F09163014091B6
:100AE0005E0150915F01808180768036C9F48181FA
:100AF00030E020E0EA01C058DF4F2817B0F4DF01F2
:100B0000A20FB31F6C91A88191E09A0F9883A40F54
:100B1000B52FB11D6C9397FD18822F5F3F4FEDCF1E
:100B20008081829586708E5FE3CF1092690181E0AB
:100B300036CF809169018F3008F476CFE09167015C
:100B4000F091680120813091660181E090E001C060
:100B5000880F3A95EAF78095822380831092690185
:100B600081E080936A01E0915E01F0915F01E357BB
:100B7000FF4F8081918101969183808355CF809131
:100B80006901883308F4C6CE10926A0180916F0023
:100B90008D7F57CF1F920F920FB60F9211248F9314
:100BA0009F93EF93FF93EFE6F0E080818F7D80834A
:100BB000809186009091870080569A4F90936501AE
:100BC0008093640180916401909165019093890004
:100BD00080938800B19A80818260808384E08093D2
:100BE0006A0110926901FF91EF919F918F910F908F
:100BF0000FBE0F901F901895CF93DF93CDB7DEB740
:100C000060970FB6F894DEBF0FBECDBF789484B561
:100C1000826084BD84B5816084BD85B5826085BDF8
:100C200085B5816085BD80916E00816080936E0086
:100C30001092810080918100826080938100809178
:100C40008100816080938100809180008160809329
:100C500080008091B10084608093B1008091B000E9
:100C600081608093B00080917A00846080937A00E4
:100C700080917A00826080937A0080917A0081600E
:100C800080937A0080917A00806880937A00109235
:100C9000C10061E08AE00E94FD0161E089E00E94FC
:100CA000FD0161E08DE00E94FD0161E083E00E94B2
:100CB000FD0161E08EE00E94FD0161E081E10E94A2
:100CC000FD0161E086E00E94FD0162E084E00E9497
:100CD000FD0162E085E00E94FD0160E082E00E948B
:100CE000FD0160E083E00E94CF0160E081E10E94AD
:100CF000CF0160E08EE00E94CF0161E08AE00E94B7
:100D0000CF0161E089E00E94CF0161E08DE00E94A7
:100D1000CF011092500110922D01109251011092AA
:100D200052011092340110923B011092470110922F
:100D3000150110925B01EDE6F1E08FE8DF011D92F5
:100D40008A95E9F761E087E00E94FD01E5EBF0E0BC
:100D50002491E1EAF0E0E491F0E0EE0FFF1FE057AC
:100D6000FF4F4591549180E091E031E0291741F027
:100D70008F5F932F082E01C0990F0A94EAF7F6CFE0
:100D80005093680140936701809366018DE691E07E
:100D900090935F0180935E012098E0916701F0914C
:100DA000680120818091660101E010E0480102C0E5
:100DB000880C991C8A95E2F7C40180958223808370
:100DC0001092800081E08093810010926A01B59AB0
:100DD00080916F00806280936F0080918100887F96
:100DE00081608093810090E080E00E9412037C018A
:100DF000909354018093530181E090E00E9412038C
:100E0000909328018093270182E090E00E941203D2
:100E1000909326018093250183E090E00E941203C5
:100E2000909321018093200184E090E00E941203BE
:100E300090931F0180931E0185E090E00E941203B1
:100E400090932A018093290186E090E00E9412038A
:100E500090934A018093490187E090E00E94120339
:100E600090932F0180932E0188E090E00E9412035E
:100E700090932C0180932B0189E090E00E94120353
:100E800090934201809341018AE090E00E94120316
:100E900090933D0180933C018BE090E00E9412030F
:100EA00090933A01809339018CE090E00E94120304
:100EB0008170992790933F0180933E018CE090E0F0
:100EC0000E9412038270992790932301809322013C
:100ED00020E8E216F10408F49CC08AE090E09093C8
:100EE00054018093530121E930E03093280120938D
:100EF00027012DE730E0309326012093250125E5D9
:100F000030E030932101209320012BE930E0309331
:100F10001F0120931E0190932A01809329012CE246
:100F200031E030934A012093490128EB3BE03093B4
:100F30002F0120932E0190932C0180932B018EE59D
:100F400091E0909342018093410180E991E0909378
:100F50003D0180933C0184EF91E090933A018093AE
:100F600039016AE070E090E080E00E947A0361E974
:100F700070E081E090E00E947A036DE770E082E02B
:100F800090E00E947A0365E570E083E090E00E94C3
:100F90007A036BE970E084E090E00E947A036AE0F3
:100FA00070E085E090E00E947A036CE271E086E0F8
:100FB00090E00E947A0368EB7BE087E090E00E947B
:100FC0007A036AE070E088E090E00E947A036EE5C0
:100FD00071E089E090E00E947A0360E971E08AE0C4
:100FE00090E00E947A0364EF71E08BE090E00E9451
:100FF0007A0310933F0100933E0182E090E09093CA
:1010000023018093220163E070E08CE090E00E9475
:101010007A0380913E0190913F01892B39F061E084
:101020008091220190912301892B09F460E086E0F0
:101030000E94CF0168EE73E080E090E00E947002B1
:101040008AEF92E090930101809300018091690002
:101050008C7F826080936900E89A84E00E94A601F8
:1010600021E0892B09F020E020934F0185E00E94C8
:10107000A60121E0892B09F020E0209348010E947D
:10108000A202609316017093170180931801909348
:10109000190160934B0170934C0180934D01909323
:1010A0004E0160933001709331018093320190932F
:1010B000330160931A0170931B0180931C0190937C
:1010C0001D01609343017093440180934501909307
:1010D000460160E08DE00E94CF0102E0202E312C1D
:1010E00044244A9410E0612E10E0712E8091EE01AC
:1010F0009091ED01912C812C891709F4A3C0E82F60
:10110000F0E0E359FE4FF080F7FE71C09091EF01DF
:10111000891751F02091F4013091F5012F5F3F4F75
:101120003093F5012093F4018093EF014092F00198
:101130008F2D80768036C9F41092F1018091EE01F6
:101140008F5F8093EE018090EF01282F281987FD93
:101150001092EE018091F0019091F101291709F4AC
:1011600058C0F826F092F001C1CF8F2D829586707D
:101170008E5F8093F1012091EF018091F101820F48
:101180009927991F81389105CCF200E8021BF89449
:101190004091ED018091EE01841780F58091EF017F
:1011A000342F381B832F8093ED0178948091EE01CA
:1011B000481738F510E050E06DE671E0C80183593A
:1011C0009E4F0E9462106091EF0170E063597E4F64
:1011D000A8018DE691E00E9462108091EE0190914D
:1011E000EF01891B8093EE011092EF01A7CF809150
:1011F000F1018111A3CFF092F101BDCF802F840FB7
:10120000D2CF6091EF01461B50E070E063597E4FF2
:10121000E0CFF812A9C0912CA40143595E4F4A01B6
:101220002091F2013091F3012F5F3F4F3093F30192
:101230002093F2019091EE019093EF0181149104BB
:1012400009F48FCF90925D0180925C01811491042A
:1012500009F4E9C0D40111964C911197242F30E084
:1012600012966C911297062F10E0D62ED694C62EA9
:10127000C794CC24C794F601E078F770E42BF32BE5
:101280009C91923B09F4BCC03196913B09F498C102
:1012900008F089C0933809F48AC108F072C0923806
:1012A00009F48BC1953E19F09D3E09F0BCC04F304A
:1012B00009F0B9C0D40113968C911397853009F0C9
:1012C000B2C014968C9114978111ADC016964C91B2
:1012D000F401C401079621E0342F322319F037813D
:1012E00030683783220F31968E179F07A9F7F401D4
:1012F00016822581203209F45FC2213209F093C0A1
:101300000780F085E02DEF3FFE0709F0FDC1D40115
:1013100019962D913C911A97232B09F0F5C11B9634
:101320002D913C912F3F3F4F09F0EEC161147104A4
:1013300009F479C0B401655F7F4F0E9400008F37C8
:1013400009F071C0F4010385148547815085E12CB3
:1013500030E020E06281CE0101960E944401CE017E
:1013600001960E9480005FC02091F4013091F50148
:101370002F5F3F4F3093F5012093F401912C812C86
:1013800059CF963A09F4AAC1903B09F08BCF80E07F
:1013900090E0892B09F447C0462F40726071CF015D
:1013A0000E94000040C09D3BF1F180F4943BD9F1D4
:1013B0009C3B09F077CF80E090E0892BA1F1462F8C
:1013C00040726071CF010E9400002DC0903D09F471
:1013D00013C1963E09F066CFF40194818381282FD2
:1013E00030E09D3709F089C1C90120915301309146
:1013F000540182179307B9F460736033A1F47AC182
:1014000082E090E065FD02C081E090E0B0E08B2ECC
:10141000B0E09B2E892839F0EE0FFF1F60718E0F10
:101420009F1F0E94000080915B01882309F47AC00D
:101430008091590190915A012091570130915801A2
:1014400040915501509156016091530170915401A2
:10145000E0E057FF04C0519541955109E4E037FFA2
:1014600004C0319521953109E26097FF04C0919540
:1014700081959109E1604F5F5F4F2F5F3F4F01966C
:10148000F6EEF983FCE0FA83E061EB83E62FEF7779
:10149000EC836038710508F49CC1660F672F661FE6
:1014A000770B71956F776D83642F6F776E834038FC
:1014B00051050CF490C1440F452F441F550B4F7735
:1014C0004F83422F4F774887203831050CF485C170
:1014D000220F232F221F330B2F772987282F2F77B7
:1014E0002A87803891050CF47AC1880F892F881FCC
:1014F000990B8F778B87CE0101960E94800003970E
:1015000041F480910801853020F410925B01109223
:10151000080180910801853009F063C110925B01D8
:10152000109208010E94A20200911A0110911B0161
:1015300020911C0130911D01601B710B820B930BDC
:1015400061367A4E8105910560F00E94A202609397
:101550001A0170931B0180931C0190931D0110923E
:101560002D010E94A202F0905001009116011091ED
:1015700017012091180130911901601B710B820B2A
:10158000930B6B3071058105910508F02EC1809198
:101590004701813009F429C180911501811140C1B1
:1015A000FF2009F40EC381E080935201EDC1109237
:1015B0002D0181E08093510136CF0E94E60233CFA6
:1015C00066FF0EC070E0A72E70E0B72EAB2809F4BE
:1015D0002ACF462F40726071CF010E94000023CFB6
:1015E00020E030E0232B09F41ECF462F40716072BB
:1015F000CF010E94000017CF4076403221F04036E4
:10160000E1F1411110CFE0E0F0E0EF2B09F40BCF56
:10161000C9019695982F88279795879580789F7010
:10162000800F911F55E0359527955A95E1F7217068
:101630000196D40113963C91139714964C91E42F84
:10164000F0E0AF013D3731F0B0E83B9FA00111243D
:101650004E0F5F1F6F7091F1623091F1643091F124
:10166000663091F1683091F16A3091F16C3091F10E
:101670006E3091F10E940000D6CE80E090E0892B80
:1016800009F4D1CE1396FC9013978F2D807D803175
:1016900009F0C9CE1496EC9001E011E041E08F2DE5
:1016A000802309F040E02E2D2023000F612F80E8D9
:1016B0000E9400001F5F153089F7B5CE61E4DACFD4
:1016C00062E4D8CF63E4D6CF64E4D4CF65E4D2CF6C
:1016D00066E4D0CF67E4CECF68E4CCCF6D3711F0AD
:1016E0002C293D29809153019091540128173907E5
:1016F00009F099CE0E94AF0296CEF0E89F9FC001FC
:101700001124822B932B71CED4011D962C911D9701
:10171000211122C01B964D915C911C9719966D91D9
:101720007C919401255F3F4FCF010E9426038F37A4
:1017300049F4F4010385148521853285478150855C
:10174000E12C08CE87FD6FCED4019C919F7724EBCE
:1017500029839A838B8303CE27FF21C026FD24C0D3
:10176000B401655F7F4F0E9455038F37C1F4F401C8
:101770000385148547815085B0E8EB2E30E020E0EA
:101780006281CE0101960E9444016AE070E080E02F
:1017900090E00E947002CE0101960E948000D40168
:1017A0001D968C9186FF3FCEF401638574858781F9
:1017B00090850E943F0337CE4385548561857285AD
:1017C000878190850E949E0387FD2DCEF401908134
:1017D000BDCF6DE768CE4DE773CE2DE77ECE8DE7AA
:1017E00089CE8F5F809308019DCE10921501F11074
:1017F0000CC060E083E00E94CF0160E08AE00E94BC
:10180000CF0161E089E00E94CF010E94A2026093B3
:101810001601709317018093180190931901C0CE9F
:10182000F11008C061E083E00E94CF0161E08AE02E
:101830000E94CF0180915201882329F081E080939A
:1018400051011092520180E10E943902AC01909145
:101850000501692F092E000C770B8091040120915E
:10186000200130912101260F371F2417350708F07A
:1018700003C120911E0130911F01261B370B421717
:10188000530708F0F9C0882329F09195909305013A
:101890001092040160E0FF2009F4F9C083E00E9487
:1018A000A601892B09F470C08FE00E9439028C01D7
:1018B000F1106AC0E0902501F0902601E816F906C3
:1018C00038F461E08DE00E94CF0181E08093340123
:1018D00024E1E21AF1080E151F0550F410923401AC
:1018E00080913B01811104C060E08DE00E94CF0136
:1018F00080912701909128018017910708F006C177
:10190000809124018F5F8093240190E04091290110
:1019100050912A019A01369527952817390708F022
:10192000BFC000913E0110913F012091060130E0BF
:1019300020233123232B09F4B3C086E00E94A601A3
:1019400061E0892B09F060E086E00E94CF01809180
:10195000220190912301892B09F09DC0309223012F
:10196000209222016091220170912301602B712B42
:101970008CE090E00E947A031092060162E370E02E
:1019800080E090E00E94700280915001882309F469
:1019900018C1E0904F01E11005C0809151018823EA
:1019A00009F4E0C00E94A20200912B0110912C01C9
:1019B0002091300130913101409132015091330139
:1019C0004B015C01821A930AA40AB50AB501A4016D
:1019D00080912E0190912F01B0E0A0E0841795072F
:1019E000A607B70708F0AFC0F0902D01F01611065A
:1019F00008F0AEC00E94A2026093300170933101E2
:101A00008093320190933301E11005C08091510120
:101A1000882309F4A7C0F394F0922D0160E081E1DE
:101A20000E94CF0161E08AE00E94CF0161E08EE078
:101A30000E94CF0164E670E080E090E00E947002B6
:101A400061E083E00E94CF0164E670E080E090E016
:101A50000E947002912CF12CE12C6091290170916F
:101A60002A019616170608F057C08FE00E94390227
:101A7000E80EF91E9394F1CF811106C091959093D1
:101A8000050181E080930401F11008CF61E089E055
:101A90000E94CF0103CF109223011092220162CF46
:101AA0004817590708F070CF60E083E00E94CF012B
:101AB00061E081E10E94CF0160E08AE00E94CF01F5
:101AC00061E089E00E94CF0180913B01811104C057
:101AD00060E08DE00E94CF0182E88983CE0101960B
:101AE0000E94800011E010935001109234010E9476
:101AF000A202609330017093310180933201909380
:101B0000330110922401109306013ECF109224015C
:101B100081E08093060138CFC7010E944E1080916A
:101B20002701909128019695879596958795861718
:101B3000970708F05AC060E083E00E94CF0160E0A0
:101B40008AE00E94CF0180912D018017110650F08C
:101B500061E081E10E94CF0182E88983CE01019694
:101B60000E9480000E94A20200914B0110914C0142
:101B700020914D0130914E01AB01BC01401B510B36
:101B8000620B730B8091490190914A01B0E0A0E093
:101B900084179507A607B707A0F489E00E94A6015D
:101BA00061E0892B09F060E089E00E94CF010E948A
:101BB000A20260934B0170934C0180934D0190936E
:101BC0004E0180914801882309F419C110E000E01A
:101BD00098E0992E591401F182E10E9439028B5448
:101BE0009109080F191F5394F3CF60E08EE00E9413
:101BF000CF0161E083E00E94CF0161E08AE00E94B2
:101C0000CF0183E88983CE0101960E948000109263
:101C100050011092510197CF83E0169507958A9550
:101C2000E1F780904101909042018016910688F47E
:101C30008091400181110DC081E08093400180912D
:101C40003E0190913F01892B21F461E086E00E94E2
:101C5000CF01E0903C01F0903D01E016F10668F400
:101C600080914001813049F492E09093400180934B
:101C70003B0161E08DE00E94CF018091390190919C
:101C80003A018017910708F047C0809140018230E7
:101C900009F042C08091470181113EC08091070147
:101CA000882361F0109207010E94A202609335011F
:101CB0007093360180933701909338010E94A202FD
:101CC0002091350130913601409137015091380112
:101CD000621B730B840B950B613177428105910573
:101CE00070F18091070181112AC061E081E10E94B9
:101CF000CF0182E88983CE0101960E9480000E9474
:101D0000A20260933501709336018093370190935E
:101D1000380181E08093470180914701813079F457
:101D20000E151F0560F410924701809351018093B6
:101D300050018093070161E08DE00E94CF0132E302
:101D4000E31AF1080E151F0588F4809140018230D6
:101D500068F081E08093400110923B018091340152
:101D6000811104C060E08DE00E94CF0142E3841A3B
:101D700091080815190580F480914001882361F0CD
:101D80001092400180913E0190913F01892B21F4F6
:101D900060E086E00E94CF0180914701882379F1BD
:101DA0000E94A2020091430110914401209145013B
:101DB00030914601AB01BC01401B510B620B730B10
:101DC0008091490190914A01B0E0A0E08417950705
:101DD000A607B707A0F48DE00E94A60161E0892B59
:101DE00009F060E08DE00E94CF010E94A2026093A2
:101DF000430170934401809345019093460180E034
:101E000090E0892B09F472C90E94000069C9F99910
:101E1000FECF92BD81BDF89A992780B50895262FEF
:101E2000F999FECF1FBA92BD81BD20BD0FB6F894BF
:101E3000FA9AF99A0FBE019608950E94240F6894A9
:101E4000B1110C94B30F08950E94980F88F09F571A
:101E500098F0B92F9927B751B0F0E1F0660F771FCE
:101E6000881F991F1AF0BA95C9F714C0B13091F0C4
:101E70000E94B20FB1E008950C94B20F672F782F33
:101E80008827B85F39F0B93FCCF386957795679589
:101E9000B395D9F73EF490958095709561957F4FF5
:101EA0008F4F9F4F0895E89409C097FB3EF490959B
:101EB0008095709561957F4F8F4F9F4F9923A9F023
:101EC000F92F96E9BB279395F695879577956795B2
:101ED000B795F111F8CFFAF4BB0F11F460FF1BC0F6
:101EE0006F5F7F4F8F4F9F4F16C0882311F096E989
:101EF00011C0772321F09EE8872F762F05C0662337
:101F000071F096E8862F70E060E02AF09A95660FEF
:101F1000771F881FDAF7880F9695879597F90895A8
:101F200057FD9058440F551F59F05F3F71F047958A
:101F3000880F97FB991F61F09F3F79F0879508956F
:101F4000121613061406551FF2CF4695F1DF08C08E
:101F5000161617061806991FF1CF869571056105AB
:101F600008940895E894BB2766277727CB0197F953
:101F700008950E94CC0F0C943D100E942F1038F051
:101F80000E94361020F0952311F00C9426100C942A
:101F90002C1011240C94B30F0E94900F70F3959F96
:101FA000C1F3950F50E0551F629FF001729FBB2750
:101FB000F00DB11D639FAA27F00DB11DAA1F649FEC
:101FC0006627B00DA11D661F829F2227B00DA11D9F
:101FD000621F739FB00DA11D621F839FA00D611D25
:101FE000221F749F3327A00D611D231F849F600D46
:101FF000211D822F762F6A2F11249F5750409AF06F
:10200000F1F088234AF0EE0FFF1FBB1F661F771FFA
:10201000881F91505040A9F79E3F510580F00C94C5
:1020200026100C94B30F5F3FE4F3983ED4F38695EB
:1020300077956795B795F795E7959F5FC1F7FE2B65
:10204000880F911D9695879597F9089597F99F6741
:1020500080E870E060E008959FEF80EC0895002430
:102060000A941616170618060906089500240A94FD
:1020700012161306140605060895092E0394000C83
:1020800011F4882352F0BB0F40F4BF2B11F460FF12
:1020900004C06F5F7F4F8F4F9F4F0895AA1BBB1BDC
:1020A00051E107C0AA1FBB1FA617B70710F0A61B58
:1020B000B70B881F991F5A95A9F780959095BC0179
:1020C000CD0108956817790768F4FB01DC01E40F7E
:1020D000F51FA40FB51F02C002900E924150504050
:1020E000D8F708950C947410FB01DC0102C0019034
:0E20F0000D9241505040D8F70895F894FFCF5C
:0A20FE00AE02AE020105010101006F
:107E0000112484B714BE81FFF0D085E080938100F7
:107E100082E08093C00088E18093C10086E0809377
:107E2000C20080E18093C4008EE0C9D0259A86E02C
:107E300020E33CEF91E0309385002093840096BBD3
:107E4000B09BFECF1D9AA8958150A9F7CC24DD24C4
:107E500088248394B5E0AB2EA1E19A2EF3E0BF2EE7
:107E6000A2D0813461F49FD0082FAFD0023811F036
:107E7000013811F484E001C083E08DD089C08234E0
:107E800011F484E103C0853419F485E0A6D080C0E4
:107E9000853579F488D0E82EFF2485D0082F10E0AE
:107EA000102F00270E291F29000F111F8ED06801E7
:107EB0006FC0863521F484E090D080E0DECF843638
:107EC00009F040C070D06FD0082F6DD080E0C81688
:107ED00080E7D80618F4F601B7BEE895C0E0D1E017
:107EE00062D089930C17E1F7F0E0CF16F0E7DF06D8
:107EF00018F0F601B7BEE89568D007B600FCFDCFD4
:107F0000A601A0E0B1E02C9130E011968C91119780
:107F100090E0982F8827822B932B1296FA010C0160
:107F200087BEE89511244E5F5F4FF1E0A038BF0790
:107F300051F7F601A7BEE89507B600FCFDCF97BE46
:107F4000E89526C08437B1F42ED02DD0F82E2BD052
:107F50003CD0F601EF2C8F010F5F1F4F84911BD097
:107F6000EA94F801C1F70894C11CD11CFA94CF0C13
:107F7000D11C0EC0853739F428D08EE10CD085E9AC
:107F80000AD08FE07ACF813511F488E018D01DD067
:107F900080E101D065CF982F8091C00085FFFCCF94
:107FA0009093C60008958091C00087FFFCCF809118
:107FB000C00084FD01C0A8958091C6000895E0E648
:107FC000F0E098E1908380830895EDDF803219F02E
:107FD00088E0F5DFFFCF84E1DECF1F93182FE3DFCA
:107FE0001150E9F7F2DF1F91089580E0E8DFEE27F6
:047FF000FF270994CA
:027FFE00040479
:0400000300007E007B
:00000001FF
